:020000040000FA
:060800006FEF32F0120060
:020806001200DE
:0608080016EF04F01200DF
:0608180008EF06F01200DB
:02081E000100D7
:0C0820001D650000000F00002E0000000D
:04082C00DACFE4FF3C
:10083000E2CFDAFFE9CFE4FFEACFE4FFF6CFE4FF4F
:10084000F7CFE4FFF5CFE4FFF3CFE4FFF4CFE4FF0D
:10085000FACFE4FF00EE1CF0140EE80403E3EECF41
:10086000E4FFFBD700EE00F01C0EE80403E3EECF3C
:10087000E4FFFBD7E652F2A42AD1D59EFC0ED76E38
:100880003F0ED66ED58E0101072B000E0823010105
:100890008F2B000E9023912392230101932B000EA6
:1008A0009423952396230101972B000E98239923D7
:1008B0009A2301019B2B000E9C239D239E23010163
:1008C000092B000E0A230101F52B000EF623320E30
:1008D0000001815D02E20001812B030E010100197C
:1008E00001E1015101E17FD0020E0101001901E196
:1008F00001513CE0010E0101001901E1015107E045
:100900000101005101E1015101E0DBD0DFD0805055
:10091000100B100A01E0010E010808E10101026B51
:10092000036B0101002B000E01231FD00101022BDC
:10093000000E03230101F40ED8800255010E035569
:1009400014E20101026B036B0101010E0D1901E1BB
:100950000E5106E00101070E0D1901E10E5105E1EE
:100960000101AA5101E0B2D0897EB0D080A805D0A3
:1009700001010007000E015B35D00101022B000EC2
:1009800003230101320ED8800255000E03552AE2DE
:10099000000EE66EE66A000EE66EE66AE6EC09F028
:1009A000E552E552E552E552899E899C8A908A98E3
:1009B000020E01010D1901E10E510BE001010D5173
:1009C00001E10E5101E00AD0898E0101096B0A6B29
:1009D00005D0040E01010D6F0E6B00D00101002B3C
:1009E000000E012373D080A83FD0040E01010D1921
:1009F00001E10E5133E0070E01010D1901E10E5125
:100A000028E0050E01010D1901E10E511DE0030E54
:100A100001010D1901E10E5112E0010E01010D1944
:100A200001E10E5107E001010D5101E10E5101E01C
:100A300016D015D0020E01010D6F0E6B10D0010EF5
:100A400001010D6F0E6B0BD0060E01010D6F0E6BC9
:100A500006D0080E01010D6F0E6B01D0FF000101E1
:100A6000002B000E01232CD0050E01010D1901E110
:100A70000E5116E001010D5101E10E5101E020D0AF
:100A80000101D00ED8800955070E0A5508E2899C4D
:100A9000050E01010D6F0E6B0101026B036B10D08F
:100AA0000101022B000E03230101640ED8800255C0
:100AB000000E035504E20101026B036B897E00D036
:100AC00005D0010E0101006F016B00D0F2949EA6CB
:100AD00073D00001816B0001826B000180510F0A0D
:100AE00064E0010A5EE0030A44E0010A39E0070A13
:100AF0002EE0080A23E0010A0AE0030A01E058D0C8
:100B000083C0C9FF0001846B0001802B54D0C5ACA9
:100B100003D080C082F011D000018451842BEA6A96
:100B2000860FE96E000EEA22EF50C96E0001855172
:100B30000001845D02E10001802B3DD0C5AC03D0F3
:100B400080C082F003D0C5840001806B34D0010ED8
:100B500000018311C96E0001846B0001802B2BD032
:100B6000C5AC03D080C082F003D0C5860001802BC5
:100B700022D000018451842BEA6A860FE96E000EB0
:100B8000EA22C9CFEFFF000185510001845D04E234
:100B9000C59A0001800703D0C58A0001802BC58853
:100BA0000AD0C5840001802B06D00001806B03D0E1
:100BB0000001806B00D09E96A1A606D0A196400EA3
:100BC000000180110001826FE55200EE1BF01C0E47
:100BD000E80403E3E5CFEDFFFBD700EE2FF0140EA2
:100BE000E80403E3E5CFEDFFFBD7E5CFFAFFE5CF60
:100BF000F4FFE5CFF3FFE5CFF5FFE5CFF7FFE5CF56
:100C0000F6FFE5CFEAFFE5CFE9FFE5CFDAFF110018
:100C1000D8CFE4FFE0CFE4FFE46EDACFE4FFE2CF29
:100C2000DAFFE9CFE4FFEACFE4FFE6529EAC2CD135
:100C30009E9CC4CF06F1C3CF05F101010451EA6ABD
:100C4000A00FE96E010EEA22EF50050801E09BD0EB
:100C500001010C3504E20B510308000E0C5501E3B1
:100C600091D005C105F106C106F10101FF0ED88042
:100C70000557030E0657010E0101D89005370637B8
:100C8000E806FBE10101900E055D010E065905E243
:100C90000101900E056F010E066F900E0101055FB8
:100CA000010E0101065B0101FF0ED8800555030E00
:100CB000065504E201010569030E066F01010451A6
:100CC000E96EEA6AD890E936EA360F0EE926010E97
:100CD000EA22EE5001010527EE500101062305C16D
:100CE00030F006C131F0010E0F0B05E0D890313223
:100CF0003032E806FBE101010451E96EEA6AD8905E
:100D0000E936EA360F0EE926010EEA2230C0EEFF80
:100D100031C0EDFF01010B6B0C6B01010451090A9D
:100D20002EE0010A29E00F0A24E0010A1FE0030A6D
:100D30001AE0010A15E0070A10E0010A0BE0030AB5
:100D400006E0010A01E01ED0929089801BD09292A9
:100D5000898218D09294898415D09296898612D06F
:100D6000929A898A0FD093948A840CD093968A861B
:100D700009D093928A8206D093988A8803D0939060
:100D80008A8000D02CD001010451E96EEA6AD89023
:100D9000E936EA360F0EE926010EEA22EE5001018D
:100DA0000527EE500101062305C130F006C131F0E0
:100DB000010E0F0B05E0D89031323032E806FBE12E
:100DC00001010451E96EEA6AD890E936EA360F0E5D
:100DD000E926010EEA2230C0EEFF31C0EDFF0A0E17
:100DE000306E0101042B01010451D880305402E31C
:100DF0000101046B01010451EA6AA00FE96E010EC2
:100E0000EA22EF50050837E101010B2B000E0C23FD
:100E100001010C3504E20B510308000E0C552BE2C6
:100E200001010451090A25E0010A21E00F0A1DE031
:100E3000010A19E0030A15E0010A11E0070A0DE0B2
:100E4000010A09E0030A05E0010A01E014D09280DA
:100E500012D0928210D092840ED092860CD0928AB8
:100E60000AD0938408D0938606D0938204D09388C6
:100E700002D0938000D001010451EA6A000FE96EAC
:100E80000F0EEA22EF50C26E9EAA98D0ABA403D0F8
:100E9000AECFF9F193D0ABA203D0AB98AB888ED094
:100EA000AECFF9F10101010E0D1901E10E5173E010
:100EB0000101FA51080A66E00F0A5AE0010A4EE001
:100EC000030A42E0010A36E0070A2AE0010A1EE0AE
:100ED000030A12E0010A01E05ED0520E0101F95D41
:100EE00003E10101010EFA6F560E0101F95D03E104
:100EF0000101050EFA6F4FD0650E0101F95D02E1A7
:100F0000020E01D0000E0101FA6F45D0730E0101EF
:100F1000F95D02E1030E01D0000E0101FA6F3BD032
:100F2000650E0101F95D02E1040E01D0000E010120
:100F3000FA6F31D0740E0101F95D02E1070E01D0A4
:100F4000000E0101FA6F27D0650E0101F95D02E183
:100F5000060E01D0000E0101FA6F1DD0720E0101C4
:100F6000F95D02E1070E01D0000E0101FA6F13D006
:100F70000D0E0101F95D02E1080E01D0000E010124
:100F8000FA6F09D00A0E0101F95D02E1FF0002D0FB
:100F90000101FA6B00D00101F751EA6AD40FE96E42
:100FA000010EEA22F9C1EFFF1F0E306E0101F72B8F
:100FB0000101F751305C02E20101F76BE552E5CF28
:100FC000EAFFE5CFE9FFE5CFDAFFE550E5CFE0FF47
:100FD000E5CFD8FF1000D9CFE6FFE1CFD9FF030E50
:100FE000E126F00ED36EC00E9B6E0101FA6B01017B
:100FF0000D6B0E6B006B016B026B036B010EDB6AFA
:10100000020EDB6A010EDBCF00F0020EDBCF01F037
:10101000D890015004E61A0E005C000E01581AE246
:10102000010EDBCFE9FF020EDBCFEAFFD890E936F5
:10103000EA36D890E936EA36270EE926010EEA228A
:10104000EE6AEE6AEE6AEE6A010EDB2A020EDAE35F
:10105000DB2AD8D7010EDB6A020EDB6A010EDBCF7A
:1010600000F0020EDBCF01F0D890015004E6040E30
:10107000005C000E01581AE2010EDBCFE9FF020E00
:10108000DBCFEAFFD890E936EA36D890E936EA367F
:101090008F0EE926010EEA22EE6AEE6AEE6AEE6A29
:1010A000010EDB2A020EDAE3DB2AD8D7010EDB6A57
:1010B000020EDB6A010EDBCF00F0020EDBCF01F087
:1010C000D890015004E60A0E005C000E015811E2AF
:1010D000010EDBCFE9FF020EDBCFEAFFA00EE9260F
:1010E000010EEA22010EEF6EDB2A020EE3E3DB2A99
:1010F000E1D70101236B246B256B266B046B0B6B13
:101100000C6BAA6BAB6B096B0A6B076B086B896A7C
:101110003F0EDF6EDF50926E8A6A1F0EDF6EDF5069
:10112000936E180E8B6E980E946E020ED56EFC0E9A
:10113000D76E3F0ED66ED58EF294F28AF184B00E41
:10114000B16EA292A192A092B1809D92010ECA6E40
:10115000CC68CB68CA849F6F000E256F266B236F07
:10116000246BE66EE66AE66EE66A9AD8E552E552C8
:10117000E552E5529F9C9D8CBE0EC06E020EC16E64
:1011800001010451EA6A000FE96E0F0EEA22EF50E6
:10119000C26E82EC19F095EC2EF0D09CD08EF28EBF
:1011A000F28C480E006E630E016E026A00C0E6FF0C
:1011B000E66E02C0E6FFD1EC19F0E552E552E552C9
:1011C00050EC1CF079EC2FF0010E0101006F016B67
:1011D0008050100B100A01E0010E0108F9E0010136
:1011E0000D510E1103E1010E0D6F0E6B898E030E72
:1011F000E15C02E2E16AE552E16EE552E7CFD9FF38
:101200001200E9DEF40EE66E010EE66EB5D8E55288
:10121000E5520101096B0A6B17EC1AF0000902E0B4
:101220001DEC1AF0070E01010D1901E10E5135E018
:10123000050E0D1901E10E512BE0060E0D1901E10D
:101240000E5126E0020E0D1901E10E5116E0030EBB
:101250000D1901E10E5111E0010E0D19DDE10E51E4
:10126000DBE1CC51095DCD510A59D6E3096B0A6B1C
:10127000AAA1D2D7A9EC1CF0CFD7DAEC16F0899E40
:10128000899C8A908A98010E01010D6F0E6BC4D75C
:101290006EEC0EF0ECEC0EF0BFD7F7EC0FF0BCD715
:1012A000D9CFE6FFE1CFD9FF040EE126FD0EDBCF5B
:1012B00000F0FE0EDBCF01F0FF0ED8800054030ECD
:1012C000015407E2FD0EDB68030EF36EFE0EF3CF52
:1012D000DBFFFB0EDBCF00F0FC0EDBCF01F0FF0EDF
:1012E000D8800054030E015407E2FB0EDB68030EA6
:1012F000F36EFC0EF3CFDBFFFB0EDBCF00F0FC0E3A
:10130000DBCF01F0060ED89000360136E804FBE191
:1013100000C0DEFF01C0DDFFFD0EDBCF00F0FE0EE2
:10132000DBCF01F0060ED89000360136E804FBE171
:10133000020E00C0DBFF030E01C0DBFF010EDB501D
:10134000BE6E030EDB50BB6EDF50E840E8403F0B43
:10135000300B0C09BD6E020EDB40E8403F0B300B3A
:101360000C09BA6E040EE15C02E2E16AE552E16E3C
:10137000E552E7CFD9FF1200D9CFE6FFE1CFD9FF81
:10138000020EE126F29A0101096B0A6BF28AF29AC7
:1013900009C1DEFF0AC1DDFFF28ADECF00F0DDCF3A
:1013A00001F0FD0EDBCF02F0FE0EDBCF03F00250AA
:1013B000005C03500158EBE3020EE15C02E2E16ADB
:1013C000E552E16EE552E7CFD9FF1200D9CFE6FF33
:1013D000E1CFD9FF0A0EE12623C100F024C101F0BC
:1013E000FD0EDB50001811E1FE0EDB5001180DE17F
:1013F00025C102F026C103F0FB0EDB50021805E107
:10140000FC0EDB50031801E1E7D2000EE66EE66A3F
:10141000E66EE66A45DFE552E552E552E5528B9A03
:101420008B908A9C8A9AA092A192B190B368050E83
:10143000B26EB180080E2ECFDBFFFD0EDBCF00F0C9
:10144000FE0EDBCF01F0013401E387D0005000082D
:10145000000E015401E381D0010EF36E040EF3CFB0
:10146000DBFF060EDB6A080E246E256AFD0EDBCF5D
:1014700029F0FE0EDBCF2AF0A2EC27F022C0DEFF1F
:1014800023C0DDFF0F01000ED8802E55000E2F5512
:1014900001E3F8D0DECF00F0DDCF01F001341EE231
:1014A00000509008010E015419E2DECF02F0DDCFAA
:1014B00003F0900E025E010E035A02C024F003C036
:1014C00025F032CF29F033CF2AF01BEC32F00F0198
:1014D0002E512424006E2F51252027D0DECF00F07E
:1014E000DDCF01F0900ED8800056010E01562E512E
:1014F000005C2F5101581CE2DECF02F0DDCF03F07B
:10150000900ED8800256010E035602C024F003C08C
:1015100025F032CF29F033CF2AF01BEC32F00F0147
:1015200024502E5D006E25502F59080E00C0DBFFA1
:10153000080EDB50006E016ADECF02F0DDCF03F053
:1015400001500318E8AE02D0033404D00250005C0E
:101550000350015801E396D089D0FD0EDBCF00F097
:10156000FE0EDBCF01F00001800E011401E18FD0EF
:10157000040EDB6A010EF36E060EF3CFDBFFF80EEE
:10158000246E2568FD0EDBCF29F0FE0EDBCF2AF09E
:10159000A2EC27F022C0DEFF23C0DDFF0F01000E0A
:1015A000D8802E55000E2F556DE2DECF00F0DDCF36
:1015B00001F001341EE200509008010E015419E2BE
:1015C000DECF02F0DDCF03F0900E025E010E035A73
:1015D00002C024F003C025F032CF29F033CF2AF027
:1015E0001BEC32F00F012E512424006E2F512520C8
:1015F00027D0DECF00F0DDCF01F0900ED88000566E
:10160000010E01562E51005C2F5101581CE2DECF15
:1016100002F0DDCF03F0900ED8800256010E035683
:1016200002C024F003C025F032CF29F033CF2AF0D6
:101630001BEC32F00F0124502E5D006E25502F5907
:10164000080E00C0DBFF080EDB50006E016ADECF23
:1016500002F0DDCF03F001500318E8AE02D00334EE
:1016600004D00250005C035001580CE2080EDB501D
:10167000006E016AD9CFE9FFDACFEAFFE850EE5EEB
:101680000150ED5A640EDE26000EDD220FD001015E
:101690009F510CE0010EF36E040EF3CFDBFF010E41
:1016A000F36E060EF3CFDBFFDE6ADD6A090E30CF84
:1016B000DBFFFB0EDBCF00F0FC0EDBCF01F00134D3
:1016C00001E393D000500008000E015401E38DD0D7
:1016D000010EF36E050EF3CFDBFF070EDB6A080E7B
:1016E000246E256AFB0EDBCF29F0FC0EDBCF2AF03F
:1016F000A2EC27F0020E22C0DBFF030E23C0DBFFAB
:101700000F01000ED8803055000E315501E310D185
:10171000020EDBCF00F0030EDBCF01F0013420E23C
:1017200000509008010E01541BE2020EDBCF02F0C4
:10173000030EDBCF03F0900E025E010E035A02C0CF
:1017400024F003C025F032CF29F033CF2AF01BEC70
:1017500032F00F0130512424006E315125202BD05E
:10176000020EDBCF00F0030EDBCF01F0900ED8802D
:101770000056010E01563051005C315101581EE2F5
:10178000020EDBCF02F0030EDBCF03F0900ED88009
:101790000256010E035602C024F003C025F032CFDA
:1017A00029F033CF2AF01BEC32F00F012450305DCA
:1017B000006E25503159090E00C0DBFF090EDB50C9
:1017C000006E016A020EDBCF02F0030EDBCF03F0E6
:1017D00001500318E8AE02D0033404D00250005C7C
:1017E0000350015801E3A4D096D0FB0EDBCF00F0EC
:1017F000FC0EDBCF01F00001800E011401E1A2D04C
:10180000050EDB6A010EF36E070EF3CFDBFFF80E59
:10181000246E2568FB0EDBCF29F0FC0EDBCF2AF00F
:10182000A2EC27F0020E22C0DBFF030E23C0DBFF79
:101830000F01000ED8803055000E315501E378D0ED
:10184000020EDBCF00F0030EDBCF01F0013420E20B
:1018500000509008010E01541BE2020EDBCF02F093
:10186000030EDBCF03F0900E025E010E035A02C09E
:1018700024F003C025F032CF29F033CF2AF01BEC3F
:1018800032F00F0130512424006E315125202BD02D
:10189000020EDBCF00F0030EDBCF01F0900ED880FC
:1018A0000056010E01563051005C315101581EE2C4
:1018B000020EDBCF02F0030EDBCF03F0900ED880D8
:1018C0000256010E035602C024F003C025F032CFA9
:1018D00029F033CF2AF01BEC32F00F012450305D99
:1018E000006E25503159090E00C0DBFF090EDB5098
:1018F000006E016A020EDBCF02F0030EDBCF03F0B5
:1019000001500318E8AE02D0033404D00250005C4A
:10191000035001580DE2090EDB50006E016AD950E8
:10192000020FE96EDACFEAFF0050EE5E0150ED5A89
:10193000D950020FE96EDACFEAFF640EEE26000EF0
:10194000ED2211D001019F510EE0010EF36E050E44
:10195000F3CFDBFF010EF36E070EF3CFDBFF020EBA
:10196000DB6A030EDB6A0101010E9F6FFD0EDBCF08
:1019700023F1FE0EDBCF24F1FB0EDBCF25F1FC0EB5
:10198000DBCF26F1A1A2FED7A192020EDBCFE6FFAC
:10199000030EDBCFE6FFDECFE6FFDDCFE6FF80DC28
:1019A000E552E552E552E552040EDB50E8B08B8A71
:1019B000E8A08B9A060EDB50E8B08B80E8A08B90F5
:1019C000050EDB50E8B08A8CE8A08A9C070EDB503D
:1019D000E8B08A8AE8A08A9A0A0EE15C02E2E16A2B
:1019E000E552E16EE552E7CFD9FF1200D9CFE6FF0D
:1019F000E1CFD9FFFE0EDB50090A5AE0010A50E0A0
:101A00000F0A46E0010A3CE0030A32E0010A28E03E
:101A1000070A1EE0010A14E0030A0AE0010A4EE187
:101A2000FD0EDB50E8B08980E8B048D0899046D000
:101A3000FD0EDB50E8B08982E8B040D089923ED0FC
:101A4000FD0EDB50E8B08984E8B038D0899436D0F8
:101A5000FD0EDB50E8B08986E8B030D089962ED0F4
:101A6000FD0EDB50E8B0898AE8B028D0899A26D0EC
:101A7000FD0EDB50E8B08A84E8B020D08A941ED0F6
:101A8000FD0EDB50E8B08A86E8B018D08A9616D0F2
:101A9000FD0EDB50E8B08A82E8B010D08A920ED0FA
:101AA000FD0EDB50E8B08A88E8B008D08A9806D0EE
:101AB000FD0EDB50E8B08A80E8A08A90E552E7CFBF
:101AC000D9FF1200D9CFE6FFE1CFD9FFE652DF6A96
:101AD000FE0EDB50090A35E0010A2EE00F0A28E06D
:101AE000010A22E0030A1CE0010A16E0070A10E0DE
:101AF000010A0AE0030A04E0010A26E1895022D023
:101B00008950020B20E01BD08950040B1CE017D039
:101B10008950080B18E013D08950200B14E00FD027
:101B20008A50040B10E00BD08A50080B0CE007D051
:101B30008A50020B08E003D08A50100B04E0010E1B
:101B400002D08A50010BDF6EDF50E552E552E7CF3D
:101B5000D9FF1200D9CFE6FFE1CFD9FFFE0EDB504F
:101B6000030A1EE0010A14E0030A0AE0010A1EE16A
:101B7000FD0EDB50E8B0898EE8B018D0899E16D0F3
:101B8000FD0EDB50E8B0898CE8B010D0899C0ED0F7
:101B9000FD0EDB50E8B08A80E8B008D08A9006D00D
:101BA000FD0EDB50E8B08A88E8A08A98E552E7CFBE
:101BB000D9FF1200D9CFE6FFE1CFD9FFE652DF6AA5
:101BC000FE0EDB50030A13E0010A0DE0030A06E0F3
:101BD000010A12E18950800B08E003D08950400BC4
:101BE00004E0010E02D08A50010BDF6E05D08A504E
:101BF000100B01E0010EDF6EDF50E552E552E7CF3A
:101C0000D9FF1200D9CFE6FFE1CFD9FFF29AFE0E3D
:101C1000DB50040DF3CFE9FFF4CFEAFF8F0EE92686
:101C2000010EEA22EE6AEE6AEE6AEE6AF28AE55286
:101C3000E7CFD9FF1200D9CFE6FFE1CFD9FF040EDD
:101C4000E126F29AFE0EDB50040DF3CFE9FFF4CF4C
:101C5000EAFF8F0EE926010EEA22EECFDFFF010E2A
:101C6000EECFDBFF020EEECFDBFF030EEECFDBFF8E
:101C7000F28ADECF22F0DECF23F0DECF24F0DDCFFC
:101C800025F0DD52DD52040EE15C02E2E16AE5522C
:101C9000E16EE552E7CFD9FF1200B36AB26AB180B4
:101CA0001200D9CFE6FFE1CFD9FF020EE126B250F4
:101CB000DF6E010EB3CFDBFFDECF00F0DDCF01F032
:101CC00000C0F3FF01C0F4FF020EE15C02E2E16A32
:101CD000E552E16EE552E7CFD9FF1200E66AE66A07
:101CE00039DFE552E552E66A010EE66E33DFE55272
:101CF000E552E66A020EE66E2DDFE552E552E66A2F
:101D0000030EE66E27DFE552E552050E01010D6F69
:101D10000E6B0101050E0D195EE10E515CE1320EF4
:101D2000D8800F55010E105503E2010EE66E01D06A
:101D3000E66AE66A0FDFE552E5520101320ED8800D
:101D40001155010E125503E2010EE66E02D0E66A4D
:101D5000010EE66EFFDEE552E5520101FF0ED8806E
:101D60001355010E145503E2010EE66E01D0E66A2A
:101D7000020EE66EEFDEE552E5520101FF0ED8805D
:101D80001555010E165503E2010EE66E01D0E66A06
:101D9000030EE66EDFDEE552E5520101FF0ED8804C
:101DA0001755010E18550AE2010EE66E020EE66E98
:101DB000D1DEE552E552010EE66E07D0E66A020E6C
:101DC000E66EC8DEE552E552E66A030EE66EC2DE56
:101DD000E552E5529ED71200E66AE66ABBDEE5529E
:101DE000E552E66A010EE66EB5DEE552E552E66AB8
:101DF000020EE66EAFDEE552E552E66A030EE66ECF
:101E0000A9DEE552E552010EE66EE66AA3DEE55272
:101E1000E552320EE66EE66AE66EE66AE6EC09F038
:101E2000E552E552E552E552E80EE66E030EE66E27
:101E3000BCEC09F0E552E552E66AE66A8BDEE55253
:101E4000E552000EE66EE66AE66EE66AE6EC09F03A
:101E5000E552E552E552E552C80EE66EE66ABCEC84
:101E600009F0E552E552010EE66EE66E73DEE552CC
:101E7000E552CE0EE66EE668E66EE668E6EC09F040
:101E8000E552E552E552E552E80EE66E030EE66EC7
:101E9000BCEC09F0E552E552E66A010EE66E5ADE48
:101EA000E552E552000EE66EE66AE66EE66AE6EC9C
:101EB00009F0E552E552E552E552C80EE66EE66AD3
:101EC000BCEC09F0E552E552010EE66E020EE66E3C
:101ED00041DEE552E552320EE66EE66ACE0EE66E61
:101EE000E668E6EC09F0E552E552E552E552E80E07
:101EF000E66E030EE66EBCEC09F0E552E552E66ACA
:101F0000020EE66E27DEE552E552000EE66EE66A48
:101F1000E66EE66AE6EC09F0E552E552E552E55276
:101F2000C80EE66EE66ABCEC09F0E552E552010E19
:101F3000E66E030EE66E0EDEE552E552CE0EE66E5E
:101F4000E668320EE66EE66AE6EC09F0E552E55226
:101F5000E552E552E80EE66E030EE66EBCEC09F0C3
:101F6000E552E552E66A030EE66EF4DDE552E5520F
:101F7000000EE66EE66AE66EE66AE6EC09F0E55209
:101F8000E552E552E552320EE66EE66A000EE66E66
:101F9000E66AE6EC09F0E552E552E552E552E80E54
:101FA000E66E030EE66EBCEC09F0E552E552000E5B
:101FB000E66EE66A320EE66EE66AE6EC09F0E55297
:101FC000E552E552E552E80EE66E030EE66EBCEC15
:101FD00009F0E552E552000EE66EE66AE66EE66A44
:101FE000E6EC09F0E552E552E552E552120017EC35
:101FF0001AF0000902E01DEC1AF00101080E0D199B
:1020000001E080D00E5101E07DD0010EE66EE66A5F
:10201000A1DDE552E552320EE66EE66AE66EE66A4C
:10202000E6EC09F0E552E552E552E552D00EE66ED7
:10203000070EE66EBCEC09F0E552E552640EE66E62
:10204000E66AE66EE66AE6EC09F0E552E552E5522C
:10205000E552E80EE66E030EE66EBCEC09F0E552C2
:10206000E552010EE66E030EE66E74DDE552E552B2
:10207000000EE66EE66AE66EE66AE6EC09F0E55208
:10208000E552E552E552F40EE66E010EE66EBCEC4A
:1020900009F0E552E552CE0EE66EE668E66EE668B9
:1020A000E6EC09F0E552E552E552E552D00EE66E57
:1020B000070EE66EBCEC09F0E552E5529C0EE66EAA
:1020C000E668E66EE668E6EC09F0E552E552E552B0
:1020D000E552E80EE66E030EE66EBCEC09F0E55242
:1020E000E552E66A030EE66E35DDE552E552000E76
:1020F000E66EE66AE66EE66AE6EC09F0E552E5525F
:10210000E552E552070E01010D6F0E6B70D7D9CF66
:10211000E6FFE1CFD9FFFD0EDBCFCEF1FE0EDBCF28
:10212000CFF10101D06BD16B6F0ECE5F000ECF5B94
:10213000D05BD15B700E276E170E286E296A2A6A53
:10214000CEC122F0CFC123F0D0C124F0D1C125F0FF
:1021500006EC31F01EC0CEF11FC0CFF120C0D0F18F
:1021600021C0D1F18A0E276E0C0E286E296A2A6AC8
:102170001EC022F01FC023F020C024F021C025F093
:102180006EEC27F022C0CEF123C0CFF124C0D0F1F5
:1021900025C0D1F1640E0101CE5F000ECF5BD05B94
:1021A000D15BD880D151FF0A08E6F60ECE5DFF0E56
:1021B000CF59FF0ED059FF0ED1590BE20F01190E66
:1021C0002A6FFC0E2B6F2C692D6907C1D2F108C153
:1021D000D3F10101D251075D006E0851D355016E54
:1021E000E80E005C030E015801E2B0D007C1D2F145
:1021F00008C1D3F1190E0F012A1911E1FC0E2B1998
:102200000EE1E8682C190BE1E8682D1908E1CEC150
:102210002AFFCFC12BFFD0C12CFFD1C12DFF2A0E29
:10222000E96E0F0EEA6E030EEB500101D119E8AE14
:1022300002D0D13508D0CE51EE5CCF51EE58D051FE
:10224000EE58D151EE582DE22A0EE96E0F0EEA6ECD
:10225000EE50CE5D006EEE50CF59016EEE50D0596B
:10226000026EEE50D159036EE834000E031809E6F1
:10227000D880010E0054000E0154000E0254000ECE
:1022800003543DE22ACFCEF12BCFCFF12CCFD0F1AA
:102290002DCFD1F1020ECE27000ECF23D023D12394
:1022A0002ED0CE0EE96E010EEA6EEE500F012A5DC1
:1022B000006EEE502B59016EEE502C59026EEE500E
:1022C0002D59036EE834000E031809E6D880010E7C
:1022D0000054000E0154000E0254000E03540FE28D
:1022E0002ACFCEF12BCFCFF12CCFD0F12DCFD1F102
:1022F000020E0101CE5F000ECF5BD05BD15B01010E
:10230000CE510F012A270101CF510F012B230101CB
:10231000D0510F012C230101D1510F012D23020EA9
:10232000276E286A296A2A6A2ACF22F02BCF23F047
:102330002CCF24F02DCF25F06EEC27F022C02AFF01
:1023400023C02BFF24C02CFF25C02DFF2ACFF3FF75
:0C2350002BCFF4FFE552E7CFD9FF1200BD
:04235C00D9CFE6FFF0
:10236000E1CFD9FFFD0EDBCF02F0FE0EDBCF03F095
:10237000FB0EDBCF04F0FC0EDBCF05F0035005189D
:10238000E8AE02D0053404D00450025C0550035876
:1023900005E3FD0EDBCF00F0FE0E04D0FB0EDBCF1D
:1023A00000F0FC0EDBCF01F000C0F3FF01C0F4FF32
:1023B000E552E7CFD9FF1200D9CFE6FFE1CFD9FF31
:1023C000FD0EDBCF02F0FE0EDBCF03F0FB0EDBCF0A
:1023D00004F0FC0EDBCF05F003500518E8AE02D088
:1023E000053404D00450025C0550035805E3FB0E8D
:1023F000DBCF00F0FC0E04D0FD0EDBCF00F0FE0EB4
:10240000DBCF01F000C0F3FF01C0F4FFE552E7CFDE
:10241000D9FF1200D9CFE6FFE1CFD9FFFD0EDBCF08
:1024200000F0FE0EDBCF01F0FB0EDBCF02F0FC0E66
:10243000DBCF03F003500118E8AE02D0013404D022
:102440000050025C0150035805E2FB0EDBCF00F0A8
:10245000FC0E20D0FD0EDBCF00F0FE0EDBCF01F036
:10246000F90EDBCF02F0FA0EDBCF03F001500318B8
:10247000E8AE02D0033404D00250005C035001588F
:1024800005E2F90EDBCF00F0FA0E04D0FD0EDBCF33
:1024900000F0FE0EDBCF01F000C0F3FF01C0F4FF3F
:1024A000E552E7CFD9FF1200BEC0C2F0BFC0C3F0F3
:1024B000C0C0C4F0C1C0C5F00FC1BEF010C1BFF0B4
:1024C00011C1C0F012C1C1F013C1C6F014C1C7F0F0
:1024D00015C1C8F016C1C9F00001BE0EC85F000EDC
:1024E000C95B17C1CAF018C1CBF019C1CCF01AC131
:1024F000CDF01BC1CEF01CC1CFF01DC1D0F01EC16C
:10250000D1F01200D9CFE6FFE1CFD9FFFD0EDBCF2E
:1025100010F0FE0EDBCF11F03C0E105E000E115AD3
:1025200010C024F011C025F0DEEC25F023C00CF023
:1025300024C00DF025C00EF026C00FF0D00E286E7E
:102540000F0E296E490E2A6E400E2B6EDBEC26F024
:1025500023C008F024C009F025C00AF026C00BF003
:10256000286A296A340E2A6E430E2B6E88EC26F0F8
:1025700023C004F024C005F025C006F026C007F0F3
:1025800023C0E6FF24C0E6FF25C0E6FF26C0E6FF25
:10259000CFEC31F0E552E552E552E55222C000F0B1
:1025A00023C001F024C002F025C003F0FB0EDBCFF6
:1025B00016F0FC0EDBCF17F0166C171E000E17225C
:1025C00016C024F017C025F0DEEC25F023C012F071
:1025D00024C013F025C014F026C015F023C028F045
:1025E00024C029F025C02AF026C02BF000C023F01B
:1025F00001C024F002C025F003C026F0DBEC26F079
:10260000EDEC27F024C0EBF025C0ECF03C0EE76EBB
:10261000FD0EDBCF10F0FE0EDBCF11F0E7501026E1
:10262000000E112210C024F011C025F0DEEC25F0C0
:1026300023C00CF024C00DF025C00EF026C00FF012
:10264000D00E286E0F0E296E490E2A6E400E2B6E8C
:10265000DBEC26F023C008F024C009F025C00AF006
:1026600026C00BF0286A296A340E2A6E430E2B6EA0
:1026700088EC26F023C004F024C005F025C006F045
:1026800026C007F023C0E6FF24C0E6FF25C0E6FF12
:1026900026C0E6FFCFEC31F0E552E552E552E552B7
:1026A00022C000F023C001F024C002F025C003F0D6
:1026B000FB0EDBCF24F0FC0EDBCF25F0DEEC25F0AB
:1026C00023C012F024C013F025C014F026C015F06A
:1026D00023C028F024C029F025C02AF026C02BF002
:1026E00000C023F001C024F002C025F003C026F092
:1026F000DBEC26F0EDEC27F024C0EDF025C0EEF089
:10270000FD0EDBCF10F0FE0EDBCF11F0870E105E5A
:10271000000E115A10C024F011C025F0DEEC25F097
:1027200023C00CF024C00DF025C00EF026C00FF021
:10273000D00E286E0F0E296E490E2A6E400E2B6E9B
:10274000DBEC26F023C008F024C009F025C00AF015
:1027500026C00BF0286A296A340E2A6E430E2B6EAF
:1027600088EC26F023C004F024C005F025C006F054
:1027700026C007F023C0E6FF24C0E6FF25C0E6FF21
:1027800026C0E6FFCFEC31F0E552E552E552E552C6
:1027900022C000F023C001F024C002F025C003F0E5
:1027A000FB0EDBCF16F0FC0EDBCF17F0166C171EFE
:1027B000000E172216C024F017C025F0DEEC25F01D
:1027C00023C012F024C013F025C014F026C015F069
:1027D00023C028F024C029F025C02AF026C02BF001
:1027E00000C023F001C024F002C025F003C026F091
:1027F000DBEC26F0EDEC27F024C0EFF025C0F0F084
:10280000870EE76EFD0EDBCF10F0FE0EDBCF11F072
:10281000E7501026000E112210C024F011C025F040
:10282000DEEC25F023C00CF024C00DF025C00EF026
:1028300026C00FF0D00E286E0F0E296E490E2A6E9C
:10284000400E2B6EDBEC26F023C008F024C009F00C
:1028500025C00AF026C00BF0286A296A340E2A6EB9
:10286000430E2B6E88EC26F023C004F024C005F044
:1028700025C006F026C007F023C0E6FF24C0E6FF0F
:1028800025C0E6FF26C0E6FFCFEC31F0E552E55269
:10289000E552E55222C000F023C001F024C002F04E
:1028A00025C003F0FB0EDBCF24F0FC0EDBCF25F0C0
:1028B000DEEC25F023C012F024C013F025C014F084
:1028C00026C015F023C028F024C029F025C02AF026
:1028D00026C02BF000C023F001C024F002C025F078
:1028E00003C026F0DBEC26F0EDEC27F024C0F1F07D
:1028F00025C0F2F024C0E6FF25C0E6FFEFC0E6FFEA
:10290000F0C0E6FFEDC0E6FFEEC0E6FFEBC0E6FF7D
:10291000ECC0E6FF08D8006E080EE15E0050E552FC
:10292000E7CFD9FF1200D9CFE6FFE1CFD9FF080EDC
:10293000E126FD0EDB500001E225006EFE0EDB50AD
:10294000E3210001016E00C0DEFFDD6ED80EE66EF1
:10295000E668280EE66EE66ADECFE6FFDDCFE6FF2C
:1029600059DD006E060EE15E0050F3CFDEFFF4CFBE
:10297000DDFFFB0EDBCF24F0FC0EDBCF25F00001EA
:10298000E251245C006EE3512558016E020E00C036
:10299000DBFF030E01C0DBFFD80EE66EE668280EF3
:1029A000E66EE66A020EDBCFE6FF030EDBCFE6FF44
:1029B00031DD006E060EE15E0050020EF3CFDBFF4C
:1029C000030EF4CFDBFFF90EDB500001E22500011E
:1029D000006EFA0EDB500001E3210001016E040ECF
:1029E00000C0DBFF050E01C0DBFFD80EE66EE66817
:1029F000280EE66EE66A040EDBCFE6FF050EDBCF9F
:102A0000E6FF08DD006E060EE15E0050040EF3CF17
:102A1000DBFF050EF4CFDBFFF70EDBCF24F0F80E63
:102A2000DBCF25F00001E251245C006EE351255814
:102A3000016E060E00C0DBFF070E01C0DBFFD80EE3
:102A4000E66EE668280EE66EE66A060EDBCFE6FF67
:102A5000070EDBCFE6FFDEDC006E060EE15E005007
:102A6000060EF3CFDBFF070EF4CFDBFFDECF02F065
:102A7000DDCF03F00001800E03140DE0DECF00F087
:102A8000DDCF01F0000E006C011E0122800E00124D
:102A9000000E011204D0DECF00F0DDCF01F000C047
:102AA000B8F0020EDBCF02F0030EDBCF03F0800E96
:102AB00003140FE0020EDBCF00F0030EDBCF01F0BA
:102AC000006C011E000E0122800E0012000E011289
:102AD00006D0020EDBCF00F0030EDBCF01F000C00A
:102AE000B9F0040EDBCF02F0050EDBCF03F0800E51
:102AF00003140FE0040EDBCF00F0050EDBCF01F076
:102B0000006C011E000E0122800E0012000E011248
:102B100006D0040EDBCF00F0050EDBCF01F000C0C5
:102B2000BAF0060EDBCF02F0070EDBCF03F0800E0B
:102B300003140FE0060EDBCF00F0070EDBCF01F031
:102B4000006C011E000E0122800E0012000E011208
:102B500006D0060EDBCF00F0070EDBCF01F000C081
:102B6000BBF051EC2FF0080EE15C02E2E16AE552A5
:102B7000E16EE552E7CFD9FF1200CEC0E4F0CFC03E
:102B8000E5F00001E53509E2E4519008010EE55554
:102B900004E2200EE45F030EE55BD890E437E537EE
:102BA000CEC0D8F0CFC0D9F0D86DD91F000ED92330
:102BB000DA51D85DE86FDB51D959E96FD8C0DAF046
:102BC000D9C0DBF0E4C024F0E5C025F0DEEC25F050
:102BD00023C000F024C001F025C002F026C003F09D
:102BE000EC0E286E510E296EB80E2A6E3D0E2B6E1D
:102BF000DBEC26F0EDEC27F024C0D2F025C0D3F0BA
:102C00000001D46BD56BE8C0D6F0E9C0D7F02450F2
:102C1000D425006E2550D521016E0050D625E26FD7
:102C20000150D721E36FE70EE66EE668190EE66EF7
:102C3000E66AE2C0E6FFE3C0E6FF0AEC12F0060E29
:102C4000E15EF3CFE2F0F4CFE3F01200C8C024F06D
:102C5000C9C025F0DEEC25F023C000F024C001F04F
:102C600025C002F026C003F0660E286E296EA60E5F
:102C70002A6E3F0E2B6EDBEC26F0EDEC27F024C025
:102C8000E4F025C0E5F00001253409E2E4519008A4
:102C9000010EE55504E2200EE45F030EE55BE4C09F
:102CA000DCF0E5C0DDF0DC6DDD1F000EDD23DE5164
:102CB000DC5DE86FDF51DD59E96FDCC0DEF0DDC0BF
:102CC000DFF0E4C024F0E5C025F0DEEC25F023C001
:102CD00004F024C005F025C006F026C007F09A0EC7
:102CE000286E990E296E190E2A6E3E0E2B6EDBECA5
:102CF00026F023C000F024C001F025C002F026C059
:102D000003F0E8C024F0E9C025F0DEEC25F023C094
:102D100008F024C009F025C00AF026C00BF023C03B
:102D200028F024C029F025C02AF026C02BF000C0CE
:102D300023F001C024F002C025F003C026F0F2EC1D
:102D400025F0EDEC27F024C0E2F025C0E3F0EC0E16
:102D5000E66EE668140EE66EE66A24C0E6FF25C05D
:102D6000E6FF0AEC12F0006E060EE15E0050F3CFB3
:102D7000E2F0F4CFE3F00001E26DE31F000EE32385
:102D800012000001D890C15104E63A0EC05D020E57
:102D9000C15902E3280E0BD0D890C15104E6C20EEF
:102DA000C05D010EC15902E3230E01D0190EF36E6E
:102DB000F46A1200D9CFE6FFE1CFD9FF0A0EE1266F
:102DC00054EC12F0DADE0001CD3504E2CC513208C9
:102DD000000ECD5509E3EA5107E1E66A02EC0EF078
:102DE000E5520001010EEA6FE66A1BEC0EF0E552B7
:102DF000D880F40E2254010E2354000E2454000EE9
:102E0000255446E3C6C008F0C7C009F0B90E085EF5
:102E1000000E095A08C024F009C025F0DEEC25F0A8
:102E200023C004F024C005F025C006F026C007F03A
:102E3000286A296A2F0E2A6E440E2B6E88EC26F023
:102E400023C000F024C001F025C002F026C003F02A
:102E5000286A296AB40E2A6E430E2B6EDBEC26F02C
:102E6000EDEC27F024C0DEFF25C0DDFF1E0EF36E63
:102E7000020EF3CFDBFF030EDB6A020EDBCFE6FFB1
:102E8000030EDBCFE6FFDECFE6FFDDCFE6FF33D27A
:102E90000001EA6BC13504E2C0510808020EC155B9
:102EA00001E294D1BF3504E2BE512008030EBF55A4
:102EB00001E21CD2BF350DE2BE513208000EBF55F3
:102EC00008E2D890BF5104E6E40EBE5D020EBF5981
:102ED00014E3D890CB5104E6200ECA5D030ECB5903
:102EE00002E31E0E01D0280E006E016A00BE0168CA
:102EF00000C0E6FF01C0E6FFDBD1BF3504E2BE51F2
:102F00004008010EBF5501E2ABD03C0EE66EE66A0A
:102F1000BEC024F0BFC025F0DEEC25F023C00EF0CB
:102F200024C00FF025C010F026C011F0286A296ACD
:102F3000390E2A6E440E2B6E88EC26F023C00AF060
:102F400024C00BF025C00CF026C00DF0286A296AB9
:102F5000B40E2A6E430E2B6EDBEC26F023C006F077
:102F600024C007F025C008F026C009F0BEC024F038
:102F7000BFC025F0DEEC25F023C016F024C017F00A
:102F800025C018F026C019F0286A296AF00E2A6EAA
:102F9000400E2B6E88EC26F023C012F024C013F0F4
:102FA00025C014F026C015F023C028F024C029F055
:102FB00025C02AF026C02BF006C023F007C024F05D
:102FC00008C025F009C026F0F2EC25F023C002F07D
:102FD00024C003F025C004F026C005F0286A296A41
:102FE000400E2A6E2B6EF2EC25F0EDEC27F024C09B
:102FF00000F025C001F024C0E6FF25C0E6FFAEECDE
:1030000011F0E552E552E552E552040EF3CFDBFF35
:10301000050EF4CFDBFF0001BF3504E2BE515008BE
:10302000000EBF5508E3D890C15104E6A40EC05D60
:10303000010EC15902E2000E01D0010E000902E0AA
:10304000190E01D0230E006E016A00BE016800C097
:10305000E6FF01C0E6FF040EDBCFE6FF050E1BD145
:103060000E0EE66E010EE66EBEC024F0BFC025F067
:10307000DEEC25F023C00EF024C00FF025C010F0C8
:1030800026C011F0286A296A390E2A6E440E2B6E6A
:1030900088EC26F023C00AF024C00BF025C00CF009
:1030A00026C00DF0286A296AB40E2A6E430E2B6ED4
:1030B000DBEC26F023C006F024C007F025C008F0A2
:1030C00026C009F0BEC01AF0BFC01BF0BC0ED880ED
:1030D0001A56020E1B561AC024F01BC025F0DEEC57
:1030E00025F023C016F024C017F025C018F026C024
:1030F00019F0286A296AF00E2A6E400E2B6E88ECB1
:1031000026F023C012F024C013F025C014F026C00E
:1031100015F023C028F024C029F025C02AF026C0CD
:103120002BF006C023F007C024F008C025F009C02A
:1031300026F0F1EC25F023C002F024C003F025C0F6
:1031400004F026C005F0286A296A400E2A6E2B6E0C
:10315000F1EC25F0EDEC27F024C000F025C001F0E3
:1031600024C0E6FF25C0E6FFDCEC11F0E552E55295
:10317000E552E552060EF3CFDBFF070EF4CFDBFF7F
:103180000001D890BF5104E6800EBE5D020EBF590B
:1031900008E3D890C15104E6A40EC05D010EC159E8
:1031A00002E2000E01D0010E000902E0190E01D06A
:1031B000230E006E016A00BE016800C0E6FF01C078
:1031C000E6FF060EDBCFE6FF070E65D0D890CB51A9
:1031D00004E6580ECA5D020ECB5960E3D890CB517D
:1031E00004E6200ECA5D030ECB5905E3280EE66EF9
:1031F000E66AB40E7ED0C8C024F0C9C025F0DEEC6B
:1032000025F023C004F024C005F025C006F026C038
:1032100007F0286A800E296E130E2A6E440E2B6E5C
:1032200088EC26F023C000F024C001F025C002F095
:1032300026C003F0286A296AB40E2A6E430E2B6E4C
:10324000DBEC26F0EDEC27F0080E24C0DBFF090EC6
:1032500025C0DBFFCAC000F0CBC001F0580E005EF5
:10326000020E015A0A0E296E2A6A00C024F001C01B
:1032700025F048EC27F024C000F025C001F0140E22
:103280000026000E012200C0E6FF01C0E6FF080E86
:10329000DBCFE6FF090EDBCFE6FF2DD0CB3504E216
:1032A000CA51FE08010ECB5505E3140EE66EE66A20
:1032B000000E1FD0C93504E2C851FA08000EC955E6
:1032C00005E31E0EE66EE66A5A0E13D0D890C95179
:1032D00004E6180EC85D010EC95908E31E0EE66E1D
:1032E000E66A0E0EE66E010EE66E05D0000EE66E84
:1032F000E66AE66EE66A82EC12F0E552E552E552C5
:04330000E5525ED55F
:0C3304009D9A9E9A040EAC6E800EAB6E7B
:10331000B886B06A440EAF6E240EAC6E900EAB6EE3
:103320000101F76B200EF75D09E2F751EA6AD40F4D
:10333000E96E010EEA22EF6AF72BF4D7F86BF8C1B9
:10334000F7F1FA6B9F9A9E9A9D8A1200D9CFE6FFF9
:10335000E1CFD9FFACA2FED7FE0EDB50AD6EE55239
:10336000E7CFD9FF1200D9CFE6FFE1CFD9FFFD0E9D
:10337000DBCFE9FFFE0EDBCFEAFFEF500EE0FD0EE4
:10338000DBCFE9FFDB2AFE0EDBCFEAFF01E3DB2A1E
:10339000EF50E66EDBDFE552EAD7E552E7CFD9FF23
:1033A0001200D9CFE6FFE1CFD9FFFC0EDBCFF6FF4D
:1033B000FD0EDBCFF7FFFE0EDBCFF8FF0800F55068
:1033C00016E0D950FC0FE96EFF0EDA20EA6EEFCF5F
:1033D000F6FFEE2AEFCFF7FF000EEE22EFCFF8FF59
:1033E000EE220800F550E66EB1DFE552DED7E55279
:1033F000E7CFD9FF1200D9CFE6FFE1CFD9FFE652E0
:103400000101F851EA6AD40FE96E010EEA22EFCF0A
:10341000DFFF200E006EF82BF851D880005401E336
:10342000F86BDF50E552E552E7CFD9FF12000101FA
:10343000F751F85D01E1000C010CD9CFE6FFE1CFB7
:10344000D9FF1A0EE126190EDB6A0101F56BF66B46
:103450000101640ED880F555000EF6552DE3E7DF27
:103460000009F6E0C8DFE76E180EE7CFDBFFDBCF21
:1034700000F0200EE76E0018E8AE02D0E73402D06C
:10348000E750005C19E3170E006E190EDB50005C6C
:1034900013E3D9CF00F0DACF01F0190EDBCFF3FF41
:1034A000DB2AF3500F01D924E96E000EDA20EA6E10
:1034B000180EDBCFEFFFC9D7D9CF00F0DACF01F07C
:1034C000190EDB500F01D924E96E000EDA20EA6EE6
:1034D000EF6A190EDB5009E0E66AD9CFE6FFDACFD2
:1034E000E6FF0DD8E552E552E5521A0EE15C02E224
:1034F000E16AE552E16EE552E7CFD9FF1200D9CF7C
:10350000E6FFE1CFD9FF060EE126FD0EDBCFE9FF96
:10351000FE0EDBCFEAFFEF50520A01E165D1040A4B
:1035200001E160D1140A01E14ED10F0A01E1FCD0A2
:10353000020A01E1CAD0030A01E198D0050A52E06B
:103540003A0A4FE0200A01E051D1640E0101CC6F2C
:10355000CD6B010EE76EFD0EDBCFE9FFFE0EDBCF7C
:10356000EAFFE750E926000EEA22EF50310A1CE09C
:10357000010A01E031D0030EE76EFD0EDBCFE9FF5B
:10358000FE0EDBCFEAFFE750E926000EEA22EF50FD
:10359000310805E13DD90101AA81899E04D00101CC
:1035A000AA910101AB6B18D0030EE76EFD0EDBCFC5
:1035B000E9FFFE0EDBCFEAFFE750E926000EEA2224
:1035C000EF50310802E1010E01D0000E0101E8B018
:1035D000AA83E8A0AA9300D0010E01010D6F0E6B23
:1035E0000DD10CD1010EE76EFD0EDBCFE9FFFE0E13
:1035F000DBCFEAFFE750E926000EEA22EF5044084D
:1036000022E1030EE76EFD0EDBCFE9FFFE0EDBCFFE
:10361000EAFFE750E926000EEA22EFCF00F0300E75
:10362000005C11E3390E016E030EE76EFD0EDBCF79
:10363000E9FFFE0EDBCFEAFFE750E926000EEA22A3
:10364000EF50015C01E2DAD0030EE76EFD0EDBCF36
:10365000E9FFFE0EDBCFEAFFE750E926000EEA2283
:10366000EF50D00F0101AB6FD3D8C8D0010EE76E79
:10367000FD0EDBCFE9FFFE0EDBCFEAFFE750E926C8
:10368000000EEA22EF50D00FDF6E030EE76EFD0E44
:10369000DBCFE9FFFE0EDBCFEAFFE750E926000EA5
:1036A000EA22EF50D00FE76E010EE7CFDBFF0101FA
:1036B000AB510AE1010EDBCFE6FFDFCFE6FFAAEC5C
:1036C0000DF0E552E55200D099D0010EE76EFD0EE7
:1036D000DBCFE9FFFE0EDBCFEAFFE750E926000E65
:1036E000EA22EF50D00FDF6E030EE76EFD0EDBCF48
:1036F000E9FFFE0EDBCFEAFFE750E926000EEA22E3
:10370000EF50D00FE76E010EE7CFDBFF0101AB51A9
:103710000AE1010EDBCFE6FFDFCFE6FFF6EC0CF0AF
:10372000E552E55200D06AD0030EE66E020EE76E57
:10373000FD0EDBCF00F0FE0EDBCF01F0E7500026E0
:10374000000E012200C0E6FF01C0E6FF5EDAE5528E
:10375000E552E552020EF3CFDBFF030EF4CFDBFFA1
:10376000030EE66E060EE76EFD0EDBCF00F0FE0EDA
:10377000DBCF01F0E7500026000E012200C0E6FF7B
:1037800001C0E6FF42DAE552E552E552040EF3CFFE
:10379000DBFF050EF4CFDBFF0101AB5113E1040E9B
:1037A000DBCFE6FF050EDBCFE6FF020EDBCFE6FF49
:1037B000030EDBCFE6FFE6EC09F0E552E552E552F9
:1037C000E55200D01BD0070E01010D6F0E6BFD0EF0
:1037D000DBCFE6FFFE0EDBCFE6FF68EC2DF0E55217
:1037E000E5520CD05DD80AD0FF0008D0FC0EDB50AB
:1037F00004E1150EE66EAADDE55200D0060EE15C8E
:1038000002E2E16AE552E16EE552E7CFD9FF12002C
:10381000D9CFE6FFE1CFD9FFE652850E006E630EE9
:10382000016E026A00C0E6FFE66E02C0E6FFB9DD87
:10383000E552E552E5520101AB5111E1DF6A0A0E92
:10384000DF5C0DE2DF50EA6AA00FE96E010EEA22AA
:10385000EF50300FE66E7ADDE552DF2AF0D77C0EAE
:10386000006E630E016E026A00C0E6FFE66E02C0E3
:10387000E6FF97DDE552E552E552790E006E630EE4
:10388000016E026A00C0E6FFE66E02C0E6FF89DD57
:10389000E552E552E552E552E552E7CFD9FF120075
:1038A000D9CFE6FFE1CFD9FF200EE12699EC2CF02D
:1038B000740E006E630E016E026A00C0E6FFE66ED3
:1038C00002C0E6FF6EDDE552E552E552200EE66EDF
:1038D0003DDDE5526B0E006E630E016E026A00C0A4
:1038E000E6FFE66E02C0E6FF5CDDE552E552E5521A
:1038F00032CFE6FF33CFE6FF30CFE6FF31CFE6FF32
:103900002ECFE6FF2FCFE6FF560E006E630E016E40
:10391000026A00C0E6FFE66E02C0E6FFD9CFE6FF0E
:10392000DACFE6FF1FEC30F0036E0B0EE15E0350C2
:10393000D9CFE6FFDACFE6FF16DDE552E552200EDD
:10394000E15C02E2E16AE552E16EE552E7CFD9FFC0
:103950001200D9CFE6FFE1CFD9FF160EE126010113
:10396000AB5101E07DD0020EDB6A0A0EF36E020E4F
:10397000DBCFF4FFF350F45C62E2020EDB50EA6A44
:10398000A00FE96E010EEA22EF500AE0020EDB50B2
:10399000EA6AA00FE96E010EEA22EF5002080FE179
:1039A000020EDBCFE6FF62EC0DF0E552000903E109
:1039B000006A016A33D00068030E016E2FD0020E38
:1039C000DB50EA6AA00FE96E010EEA22EF5006080A
:1039D00017E1020EEA6ADB34FE0BEA36E96E0F0EDF
:1039E000E926010EEA22EECFE6FFEFCFE6FF87ECF5
:1039F00010F0E552E552F3CF00F0F4CF01F00ED015
:103A0000020EEA6ADB34FE0BEA36E96E0F0EE92697
:103A1000010EEA22EECF00F0EFCF01F0020EEA6ACB
:103A2000DB34FE0BEA36E96EAC0EE926010EEA2223
:103A300000C0EEFF01C0EDFF020EDB2A96D7E66A5A
:103A4000DAEC0DF0E552E76E140EE7CFDBFF010E66
:103A5000E66EDAEC0DF0E552E76E150EE7CFDBFF10
:103A6000020EDB6A0A0EF36E020EDBCFF4FFF35098
:103A7000F45C34E2020EEA6ADB34FE0BEA36E96EED
:103A8000AC0EE926010EEA22EECFE6FFEFCFE6FF0D
:103A9000020EDB28E66EE66A4B0E006E630E016EC8
:103AA000026A00C0E6FFE66E02C0E6FFD950030FCF
:103AB000E66E000EDA20E66E1FEC30F0036E090EA3
:103AC000E15E0350D950030FE66E000EDA20E66E79
:103AD0004ADCE552E552020EDB2AC4D7020EDB6A4D
:103AE000D950030F006E020EDBCFF3FFDB2AF35039
:103AF0000F010024E96E000EDA20EA6E4C0EEF6E24
:103B0000D950030F006E020EDBCFF3FFDB2AF35018
:103B10000024E96E000EDA20EA6E450EEF6ED950F1
:103B2000030F006E020EDBCFF3FFDB2AF3500024FD
:103B3000E96E000EDA20EA6E440EEF6ED950030FE4
:103B4000006E020EDBCFF3FFDB2AF3500024E96E98
:103B5000000EDA20EA6E3D0EEF6E140EDB50300FD1
:103B6000E66ED950030F006E020EDBCFF3FFDB2AA7
:103B7000F3500024E96E000EDA20EA6EE552E750B9
:103B8000EF6E150EDB50300FE66ED950030F006E4E
:103B9000020EDBCFF3FFDB2AF3500024E96E000EA8
:103BA000DA20EA6EE552E750EF6ED950030F006E4F
:103BB000DACF01F0020EDB500024E96E000EDA20AD
:103BC000EA6EEF6AD950030FE66E000EDA20E66E59
:103BD000B3EC19F0E552E552790E006E630E016EFA
:103BE000026A00C0E6FFE66E02C0E6FFD1EC19F003
:103BF000E552E552E552160EE15C02E2E16AE55259
:103C0000E16EE552E7CFD9FF1200D9CFE6FFE1CF51
:103C1000D9FF060EE126010EF36E040EF3CFDBFF93
:103C2000050EDB6A020EDB6A030EDB6ADF6AFC0E3E
:103C3000DB50DF5C43E2FD0EDBCFE9FFDB2AFE0E4B
:103C4000DBCFEAFF01E3DB2A010EEFCFDBFFDB5026
:103C500035E0010EDB502D0805E1040EDB68050E92
:103C6000DB682AD0300EF36E010EDBCFF4FFF35089
:103C7000F45C22E3390E006E010EDB50005C1CE3A5
:103C8000D950020FE96EDACFEAFF0A0EEC02F3CF49
:103C9000EDFFEF02F3CFEEFFF450ED26010EDB5007
:103CA000D00F006E016AD950020FE96EDACFEAFF39
:103CB0000050EE260150ED22DF2AB9D7040EDBCFEB
:103CC00000F0050EDBCF01F0D950020FE96EDACF1C
:103CD000EAFF00C029F001C02AF0EECF24F0EDCFBA
:103CE00025F0CFEC27F022C0EEFF23C0EDFF020E3F
:103CF000DBCF00F0030EDBCF01F000C0F3FF01C00B
:103D0000F4FF060EE15C02E2E16AE552E16EE55283
:103D1000E7CFD9FF1200D9CFE6FFE1CFD9FF060EDA
:103D2000E126DE6ADE6ADE6ADD6ADD52DD52040EFD
:103D3000DB6AFC0EDB50F36E040EDBCFF4FFF350B6
:103D4000F45C57E2FD0EDBCFE9FFDB2AFE0EDBCF92
:103D5000EAFF01E3DB2A050EEFCFDBFF300EF36E47
:103D6000050EDBCFF4FFF350F45C43E3390E006E35
:103D7000050EDB50005C3DE3300E006E050EDBCF20
:103D8000E7FF0050E75E050EE7CFDBFFD9CFE9FF85
:103D9000DACFEAFF0A0E276E286A296A2A6AEECF6E
:103DA00022F0EECF23F0EECF24F0EFCF25F006EC9B
:103DB00031F021C0EDFF20C0EDFF1FC0EDFF1EC0A0
:103DC000EFFF050EDBCF00F0016A026A036A00AE66
:103DD00003D00168026803680050DE260150DE222D
:103DE0000250DE220350DD22DD52DD52040EDB2ABA
:103DF000A0D7DECF22F0DECF23F0DECF24F0DDCF60
:103E000025F0DD52DD52060EE15C02E2E16AE55288
:103E1000E16EE552E7CFD9FF1200D9CFE6FFE1CF3F
:103E2000D9FF040EE126DE6ADD6A020EDB6AFC0EB3
:103E3000DB50F36E020EDBCFF4FFF350F45C4FE285
:103E4000FD0EDBCFE9FFDB2AFE0EDBCFEAFF01E34D
:103E5000DB2A030EEFCFDBFF300E006E030EDB50CC
:103E6000D880005408E3030EDB50390804E3030E46
:103E7000DB50D00F1ED0410E006E030EDB50D880F9
:103E8000005408E3030EDB50460804E3030EDB5046
:103E9000BF0F0ED0610E006E030EDB50D8800054B1
:103EA0001EE3030EDB5066081AE3030EDB509F0F80
:103EB0000A0FE76E030EE7CFDBFFD9CFE9FFDACFBA
:103EC000EAFF040ED890EE36ED36E806FBE1030E6D
:103ED000DB50DE26000EDD22020EDB2AA8D7DECF65
:103EE00000F0DDCF01F000C0F3FF01C0F4FF040ECD
:103EF000E15C02E2E16AE552E16EE552E7CFD9FF0B
:103F00001200D9CFE6FFE1CFD9FF300EF36EFE0EDF
:103F1000DBCFF4FFF350F45C08E3390E006EFE0EC5
:103F2000DB50005C02E3000E01D0010E000902E04C
:103F3000000E01D0010EE552E7CFD9FF1200D9CF14
:103F4000E6FFE1CFD9FF300E006EFE0EDB50D880C9
:103F5000005404E3FE0EDB50390816E2410E006EF9
:103F6000FE0EDB50D880005404E3FE0EDB50460802
:103F70000BE2610E006EFE0EDB50D880005406E3AB
:103F8000FE0EDB50660802E3010E01D0000EE55282
:063F9000E7CFD9FF12008B
:0A3F960007EC25F0FB0EDBCFF3FF74
:103FA000DB06F35000090AE055EC25F0FA0EC0ECF0
:103FB00025F0F3E1011CF1E1010E01D0000E36EF16
:103FC00025F007EC25F03B0EE12402E3E168E65220
:103FD000E16E010EDB6A020EDB6AF90EDBCFF6FF43
:103FE000FA0EDBCFF7FFFB0EDBCFF8FF0800F55032
:103FF000DF6EDF5002E15AEF24F0250EDF5C02E0B5
:104000004DEF24F0030EDB6A040EDB6A050EDB6A5B
:10401000060EDB6A070EDB6A6FEC24F02D0EDF5C08
:104020000CE02B0EDF5C09E0200EDF5C06E0230EC7
:10403000DF5C03E0300EDF5C1AE1DF50300A14E091
:10404000130A0FE0030A0AE00B0A05E0060AE4E19E
:10405000030EDB80E1D7030EDB82DED7030EDB84A9
:10406000DBD7030EDB86D8D7030EDB88D5D72A0E25
:10407000DF5C1BE16BEC24F0B9EC24F010E0030EE4
:10408000DB8024682568130EDBCF29F0140EDBCF0C
:104090002AF0A2EC27F0040E22C0DBFF03D0130E9F
:1040A000A2EC24F06FEC24F00BD0090EDB6A10ECCC
:1040B00025F003E084EC25F0FAD7090EA2EC24F0F9
:1040C000030EDBB0DB982E0EDF5C1BE16FEC24F0FF
:1040D0002A0EDF5C0BE16BEC24F0B9EC24F003E179
:1040E000130EF4EC24F06FEC24F00BD0090EDB6A15
:1040F00010EC25F003E084EC25F0FAD7090EF4EC7F
:1041000024F0680EDF5C07E16FEC24F0680EDF5CE2
:104110001DE1030E18D0740EDF5C17E07A0EDF5C31
:1041200014E0480EDF5C06E0540EDF5C03E05A0E3C
:10413000DF5C02E1020E07D06C0EDF5C03E06A0E6A
:10414000DF5C04E1010E47EC25F0C9DBDF506E0AAD
:1041500001E17FD31E0A01E192D1200A01E18FD152
:104160003F0A01E149D11A0A01E146D10D0A01E1F4
:1041700043D1200A01E140D13A0A01E13DD1200AB0
:1041800001E13AD1260A01E135D10D0A01E132D12E
:104190001A0A01E1D9D0200A4AE0300A1FE0460A93
:1041A0000EE0250A01E083D3D950F90FE96EFF0E26
:1041B000DA20EA6E010EEE5E000EEE5AEE5A55EC73
:1041C00025F0250EE66E95DB03E1011C01E169D3C4
:1041D00051EC25F001E26BD3DB2A69D3080EDB6AD0
:1041E000040EDB50010806E2040EDB0419EC25F096
:1041F000DB508BDB080EDB5009E0030EDB50010BBC
:1042000005E172DB01E04DD3080EDB6A64DBEFCF22
:10421000DFFFC9EC25F003E1011C01E142D351ECC1
:1042200025F001E3DB2A60DB01E141D33AD3070E3D
:10423000DB5002080FE195EC25F0030E5CEC25F055
:104240000E0EEECFDBFF0F0EEECFDBFF100EEECF2C
:10425000DBFF20D0F70EDBCF03F0F80EDBCF04F04E
:10426000020E035E000E045AF70E03C0DBFFF80EC9
:1042700004C0DBFF03C0E9FF04C0EAFF4CEC25F0FB
:10428000026A0E0E00C0DBFF0F0E01C0DBFF100E36
:1042900002C0DBFF0E0EDBCFE6FF0F0EDBCFE6FF2B
:1042A000100EDBCFE6FF4CEC31F0E552E552E55263
:1042B000130E23C0DBFF140E24C0DBFF060EDB5001
:1042C00005E0130E90EC25F001E26ADBB4EC25F07A
:1042D00002E2130E37DB77EC25F006E0040E90ECDB
:1042E00025F002E2050E2EDB030EDBB005D0FCDA72
:1042F00001E0D7D2080EDB6A090EDB6A0E0EDBCFB7
:10430000F6FF0F0EDBCFF7FF100EDBCFF8FF080034
:10431000F550DF6EDF5014E0BAEC25F011E2C9EC85
:1043200025F003E1011C01E1BCD2BBDB01E3DB2A88
:10433000090EDB2AD9500E0FE96E000ECBDBE7D752
:10434000D3DA01E1B4D2ADD2C6DA110EEECFDBFF83
:10435000120EEDCFDBFF110EDBCFE6FF120EDBCF2F
:10436000E6FF3EEC31F0E552E552130EF3CFDBFFF2
:10437000140EF4CFDBFF060EDB5004E0130ED0DB8F
:1043800001E20EDBB4EC25F002E2130EDBDAAFDB68
:1043900005E0040EC5DB02E2050ED4DA030EDBB045
:1043A00005D0A2DA01E07DD2080EDB6A090EDB6AD5
:1043B000110EDBCFE9FF120EDBCFEAFFEFCFDFFFFD
:1043C000DF5014E0D7DB12E2E4DB03E1011C01E182
:1043D00068D267DB01E3DB2A090EDB2A110EDB2A38
:1043E000DBCFE9FF120EE8E3DB2AE6D77DDA01E155
:1043F0005ED257D2030EDB8E070EDB0410E195DB95
:10440000040E5ADB0A0EEECFDBFF0B0EEECFDBFF06
:104410000C0EEECFDBFF0D0EEECFDBFF6CD0070EE8
:10442000DB5003082CE1030EDBAE0DD0B2DA020E36
:1044300076DAEFCF00F0016A026A036A00AE39D083
:104440000168026835D0F70EDBCF01F0F80EDBCF44
:1044500002F0020E015E000E025AF70E01C0DBFFF1
:10446000F80E02C0DBFF01C0E9FF02C0EAFFEFCF98
:1044700000F00A0E00C0DBFF0B0EDB6A38D0070E1F
:10448000DB50020809E1030EDBAE04D059DB02AEBB
:1044900010D00ED055DB0DD0030EDBAE12D079DA82
:1044A000020E3DDAF9DA026A036A01AE02D002684E
:1044B0000368E2DA0C0E02C0DBFF0D0E03C0DBFF67
:1044C0001AD0F70EDBCF02F0F80EDBCF03F0020EAE
:1044D000025E000E035AF70E02C0DBFFF80E03C0A7
:1044E000DBFF02C0E9FF03C0EAFFD6DAC5DA0C0E33
:1044F000DB6A0D0EDB6A060EDB5005E1010EF36E82
:10450000050EF3CFDBFF150EDB6A160EDB6AD95002
:10451000370F006E000EDA20016E390E00C0DBFF8F
:104520003A0E01C0DBFF380EDB6A080EDB6A0A0EAA
:10453000AEDADF50780A12E0200A10E0280A0CE018
:10454000200A0AE03F0A06E00D0A02E0200A08E11C
:10455000020E05D0080E03D0080EDF26100E97DAE3
:10456000030EDBBE02D0DB92DB94DB50800B24E039
:104570008ADAD890030EEB50000A08E6000EEE5CD3
:10458000000EEE58000EEE58000EEE5815E213DA4B
:104590002768286829682A6806EC31F00A0E1EC0D0
:1045A000DBFF0B0E1FC0DBFF0C0E20C0DBFF0D0E70
:1045B00021C0DBFF2D0E08D0030EDBA202D02B0E94
:1045C00003D0DBA408D0200EF36E170EF3CFDBFF71
:1045D000150EDB2A02D0170EDB6A050EDB5003E155
:1045E000B7D901E189D00C0E006E650E016E000E88
:1045F000026E070EDBCF03F0046A056A066A03C089
:1046000027F004C028F005C029F006C02AF0D3D94D
:10461000F7EC31F000501E24F36E01501F20F46EB1
:1046200002502020F86EF4CFF7FFF3CFF6FF08001A
:10463000090EF5CFDBFF580EDF5C0FE1610EF36E64
:10464000090E7BD90AE3200E006E090EDBCFE7FFCF
:104650000050E75E090EE7CFDBFF070EDBCF00F06F
:10466000016A026A036A0FDA00C027F001C028F06D
:1046700002C029F003C02AF0EECF22F0EECF23F0E3
:10468000EECF24F0EFCF25F0F7EC31F025C0EDFFB1
:1046900024C0EDFF23C0EDFF22C0EFFF390EDBCFBA
:1046A000E9FFDB063A0EDBCFEAFF01E2DB06090E8B
:1046B000DBCFEFFF150EDB2A4BD995E1030EDBA60E
:1046C0001DD06F0EDF5C06E1C1D918E3150EDB28A3
:1046D0005BDA14D0780EDF5C09E0580EDF5C06E090
:1046E000620EDF5C03E0420EDF5C08E1020EF36E57
:1046F000160EF3CFDBFF02D0150EDB6A030EDB5084
:10470000100B0EE0040EDBCF00F0050EDB50D8805E
:10471000005406E2060EDB5003E1040EDB5034DAEF
:1047200095D90AE2050EDBCFE7FF150EDB50E75EF9
:10473000050EE7CFDBFF02D0050EDB6A040EDBCFF0
:1047400000F0160E45D9D880005414E2160EDBCFC7
:10475000E6FF150EDBCFE6FF040EDBCFE6FF050E0E
:10476000DB50E552E75CE552D880E754E552D8804B
:10477000E7545FD9030EDB50010B0BE1080EDB5051
:1047800008E0B2D801E08DD0080EDB50BED8080E8C
:10479000DB6A170EDB5007E088D9170EF1D903E169
:1047A000011C01E17ED0160EDB5016E07ED9300EE2
:1047B000E66E9FD802E1011C74E077D9DFCFE6FFF7
:1047C000C4EC30F0E552E552E552F4CF01F00001BF
:1047D000F31C02E1011C65E0050EDBCF00F0160EB4
:1047E000DB50D880005409E2050EDBCFE7FF160E40
:1047F000DB50E75E050EE7CFDBFF300EE66E050E01
:10480000CBD94FE1390EDB2ADBCFE9FF3A0E01E3CA
:10481000DB2ADBCFEAFF090EEFCFDBFFDB500EE038
:1048200044D9090EADD902E1011C3BE0390EDB2A67
:10483000DBCFE9FF3A0EEDE3DB2AEBD755D831E1C8
:10484000160EDBCFE6FF080EC3D8E552E7245DD88D
:104850002ED0070EDB50030A1CE0010A14E0030A05
:1048600007E07BD9DBCFEEFF020EDBCFEDFF1FD0E1
:10487000F5D8056A03AE02D0046805682CD8BCD808
:1048800005C0EEFF14D0EAD803BE046824D8B4D81B
:104890000ED063D9DBCFEFFF0AD07BD905E1011C35
:1048A00003E1F368F46810D0FCD801E3DB2A79D97E
:1048B000F6EF1FF0010EDBCF00F0020EDBCF01F0B0
:1048C00000C0F3FF01C0F4FF3B0EE15C02E2E16ACD
:1048D000E552E16ECBD029D9020E5CEF25F061D90B
:1048E0000800F550DF6E1200200EE66E080ECCEFC9
:1048F00025F0C4EC30F0E552E552E552F3CF00F07C
:10490000F4CF01F00001F31C1200006E016AD950CF
:10491000010F4DD90050EE260150ED221200045E29
:10492000000E055AF70E04C0DBFFF80E05C0DBFFD2
:1049300004C0E9FF05C0EAFF1200DBCFF4FFF3502B
:10494000F45C1200DB50E76E040EE7CFDBFF1200D1
:104950000A0EDBCF00F00B0EDBCF01F00C0EDBCF2D
:1049600002F00D0EDBCF03F0005001100210031017
:104970001200130EEECFDBFF140EEDCFDBFF130E94
:10498000DBCF00F0140EDBCF01F00001800E01142C
:104990001200F70EDBCF04F0F80EDBCF05F01200AB
:1049A000050EDB50E66ED950130F01D9E552E750E2
:1049B000EE6EED6A12000A0EDBCF22F00B0EDBCF9B
:1049C00023F00C0EDBCF24F00D0EDBCF25F0120010
:1049D000DBCFE6FF150EDBCFE6FF050EDB50E55221
:1049E000E724E552E7241200DB50CED8010EF36E27
:1049F000060EF3CFDBFF1200EE50EFCFEAFFE96EB9
:104A000002C0EEFF03C0EEFF04C0EEFF1200D9CFDC
:104A1000E6FFDACFE6FFE1CFD9FFE2CFDAFF1200FF
:104A2000DFCFE6FFE66A31EC32F0E552E552F350B3
:104A30001200E76E080EE7CFDBFF1200EECF00F0AA
:104A4000EECF01F0EFCF02F0036A1200050EDBCFCC
:104A500000F0150EDB50D88000541200010EDBCFA1
:104A600002F0020EDBCF03F0046A1200E552E5CF3C
:104A7000DAFFE7CFD9FF12000A0E00C0DBFF0B0EF2
:104A800001C0DBFF1200D9500A0FD7EF25F0F36EFB
:104A9000070EF3CFDBFF1200EECF00F0EFCF01F0F7
:104AA0001200010EDB2A020E1200FC0EDBCFE6FF25
:104AB000FD0EDBCFE6FF1200005E000E015AF70E7E
:104AC00000C0DBFFF80E01C0DBFF00C0E9FF01C042
:104AD000EAFF1200DA20EA6EEF2AEECFF6FF000EB0
:104AE000EF22EECFF7FFEF22EECFF8FF1200040E19
:104AF000DBCFE6FF130EDB50E552E75C9ADFDB50BD
:104B000004DF060EDB501200090EDB500A0DF350D5
:104B1000DF24D00FE76E090EE7CFDBFF6FEF24F045
:104B2000DB50F36E050E9DEF24F0F70EDBCF00F0A7
:104B3000F80EDBCF01F01200DFCFE6FF79EF24F0B3
:104B400028DF030EECDE1EEF25F0CBEC1FF0E55264
:104B5000E552E552E55200091200BDDEEE50EFCFFE
:104B6000EAFFE96E010E1200130EDB50F36E040E25
:104B70009DEF24F0040EDB50F36E090E9DEF24F040
:104B8000DBCFE6FF79EF24F0E76E050EE7CFDBFF22
:104B900012008BDF9CEF25F0DBCFE6FF86DFA5EF71
:104BA00025F0D950F90FE96EFF0E6AEF25F0E96E96
:084BB000000EDA20EA6E12008B
:084BB8001D9E08D01D9E25AED4
:104BC00005D0246C251EE86A25221D8E25C01FF005
:104BD00024C01EF02F6A2E6A8E0E206E216A38EFD6
:104BE00028F02B7E1D6A74EC28F08CEC28F01DB6A2
:104BF0001CEF28F01DA20AD01DAA03D01DBE1CEF79
:104C000028F01DA428EF28F025EF28F01DAA05D0D4
:104C10001DAC28EF28F025EF28F01DA00AD01DA814
:104C200008D01DBE04D01DA402D031EF28F035EF0E
:104C300028F02E6A216A2B50265C2D6E10E323C0CB
:104C40002FF024C01EF025C01FF026C02CF028C075
:104C500023F029C024F02AC025F01D3A09D028C02D
:104C60002FF029C01EF02AC01FF02BC02CF02D6C95
:104C70001D9E1DBC1D8E2CC020F01DB064EF28F0C1
:104C80001A0E2D6064EF28F0206A266A1DA408D051
:104C9000236C241E251E261EE86A24222522262295
:104CA0001DAC08D02F6C1E1E1F1E201EE86A1E227F
:104CB0001F222022226A2D5207E026342532243278
:104CC000233222322D2EF9D723502F2624501E2294
:104CD00025501F222650202222C02EF01D9E20AEDD
:104CE0000BD02E6C2F1E1E1E1F1E201EE86A2F22A8
:104CF0001E221F2220221D8E20A006D0D8801F3207
:104D00001E322F322E322C2A2CC020F038EF28F001
:104D10001D6A74EC28F08CEC28F01DB61CEF28F00E
:104D20001DA205D01DBA1CEF28F023EF28F01DBAF4
:104D30002FEF28F01DA005D01DB81CEF28F02FEF95
:104D400028F01DB823EF28F0216A7F0E2624206E5C
:104D5000E86A21222B50205EE86A215A1A0E2C6E36
:104D6000266A2E6A2F6A1E6A1F6A2850235E2950FF
:104D7000245A2A50255A000E265A09E7285023267D
:104D8000295024222A502522000E262201D02E8AC4
:104D9000D8902336243625362636D8902E362F3610
:104DA0001E361F362C2EE1D7255024102310D8A4F0
:104DB0002E8A38EF28F01D6A74EC28F08CEC28F06D
:104DC0001DB61CEF28F01DA205D01DB81CEF28F061
:104DD00023EF28F01DAA05D01DB01CEF28F023EF0B
:104DE00028F01DB002D01DA802D02FEF28F0216AB4
:104DF0002B502624206EE86A21227E0E205EE86A6F
:104E0000215A2E6A2F6A1E6A1F6A2A502502F4CF81
:104E10001FF0F3CF1EF029502502F3502F26F45037
:104E20001E22000E1F222A502402F3502F26F45077
:104E30001E22000E1F2228502502F3502E26F45069
:104E40002F22000E1E221F2229502402F3502E264C
:104E5000F4502F22000E1E221F222A502302F3504C
:104E60002E26F4502F22000E1E221F22285024022C
:104E7000F4502E26000E2F221E221F22295023021C
:104E8000F4502E26000E2F221E221F2238EF28F06B
:104E90001C6A2AAE51EF27F0296C2A1EE86A2A22E2
:104EA0001C1E25AE59EF27F0246C251EE86A25222A
:104EB0001C1E1BEC32F025BE69EF27F01CAE000C67
:104EC000246C251EE86A2522206C211EE86A212216
:104ED000000C1CBE60EF27F01D88FF0C1C6AE86AFE
:104EE0002AAE7BEF27F0276C281E291E2A1E2822B7
:104EF00029222A221C1E25AE86EF27F0226C231EB3
:104F0000241E251E2322242225221C1EF7EC31F00C
:104F100025BE9DEF27F01CAE000C226C231E241E24
:104F2000251EE86A2322242225221E6C1F1E201E15
:104F3000211E1F2220222122000C1CBE8DEF27F0F3
:104F40001D88FF0C25C02FF024C02EF0245029020C
:104F5000F4CF23F0F3CF22F025502A02F4CF25F02E
:104F6000F3CF24F02902F3502326F4502422E86AD8
:104F700025222E502A02F3502326F4502422E86AD8
:104F800025222AAEC8EF27F02E50245E2F50255A36
:104F90002FAE000C2950245E2A50255A000C24C044
:104FA0002EF024502902F4CF23F0F3CF22F0255025
:104FB0002A02F4CF25F0F3CF24F02902F350232660
:104FC000F4502422E86A25222E502A02F350232688
:104FD000F4502422E86A2522000C1D6A74EC28F0A3
:104FE0001DB6F7EF27F01DA20ED01DB405D07F0E21
:104FF000256EFF0E246E1FD0800E256E246A1BD0F6
:10500000256A246A18D01DB0FBD78F0E2660EDD715
:105010007E0E2664F5D78E0E265C05E0D8902532EC
:105020002432262AF8D71DA406D0246C251EE86A4F
:10503000252225AEE5D712007F0E266EFF0E256EC7
:10504000246E236E12007F0E1DBEFF0E266E02D050
:105050007F0E266E800E256E246A236AF3D71DAE5E
:1050600004D0800E266E256AF7D7266A256AF4D703
:105070001F501E102F102E10F8E021BEF0D71FBEBB
:105080000CD020502110EBE0D8902E362F361E3653
:105090001F362006D8A02106F2D72150D4E12028BF
:1050A000D2E02EAE11D07F0E2E1402E12FA00CD034
:1050B0002F2AE86A1E221F2207E3D8801F321E32E1
:1050C0002F32202A2028BFE02050C9E02FC023F033
:1050D0001EC024F01F34256E2030266E2532269EF9
:1050E0001DBE268E22EF28F02536263602E31D84CB
:1050F0001D7E06E11D80266A256A246A236A120045
:10510000262803E0D88025321200D890253202E10B
:105110001D8212001D8612002A362B3602E31D8CDA
:105120001D7E06E11D882B6A2A6A296A286A1200F8
:105130002B2803E0D8802A321200D8902A32EAE1E4
:105140001D8A12001D9E0CD01D9E25AE09D0226C1A
:10515000231E241E251EE86A2322242225221D8EBA
:1051600025C01FF024C01EF023C02FF022C02EF057
:105170009E0E206E216A38EF28F01D6A74EC28F02C
:105180001DB6C7EF28F01DA20FD01DB407D07F0EAB
:10519000256EFF0E246E236E226E25D0800E256EA6
:1051A00001D0256A000EF6D71DB0FBD7226A9F0EEC
:1051B0002660EBD77E0E2664F4D79E0E265C07E0B1
:1051C000D8902532243223322232262AF6D71DA443
:1051D0000AD0226C231E241E251EE86A23222422C4
:1051E000252225AEDED71200FDEC28F01DB6000CFE
:1051F0001DB0000C1DA4000C010C1D6A74EC28F0FD
:105200008CEC28F01DB612001DAE08D01DA004D0F5
:105210001DA802D01D8012001D9012002B50265C8C
:105220000BE12A50255C08E12950245C05E1285057
:10523000235C02E11D801200D8A002D01D8E10D088
:1052400026502BC026F02B6E25502AC025F02A6E42
:10525000245029C024F0296E235028C023F0286E42
:105260002B50265C10E0FF0F09E01D901DB403D009
:105270001DAE1D8412001DAE1D9412002B2AD89065
:105280002A32293228322850235E2950245A2A50A3
:10529000255A25BEEAD7D890233624362536262E21
:0452A000F8D7C8D79C
:0C52A400D9CFE6FFDACFE6FFE1CFD9FF5B
:1052B000E2CFDAFF220EE12402E3E168E652E16E7A
:1052C000D950130FE66E000EDA20E66EA8DA91ECE4
:1052D0002FF0006E060EE15C02E2E16AE552E16E3B
:1052E0000050E76E0E0EE7CFDBFFDB50840B0CE0C7
:1052F000210E0001FD6FFE6B0F0EDB68100EDB68E8
:10530000110EDB687F0E6ED08ADA36DA020E22C00A
:10531000DBFF030E23C0DBFF040E24C0DBFF050E02
:1053200025C0DBFF87DA286A100E296E490E2A6E27
:10533000460E14DAF4EC28F0010A32E07BDA67DA80
:105340000DDA88EC26F0BFD9060EDBCF23F0070E6E
:10535000DBCF24F0080EDBCF25F0090EDBCF26F0E3
:10536000BDEC28F0A4EC28F0AED964DA060EDBCF51
:1053700008F0070EDBCF09F0080EDBCF0AF0090EAC
:10538000DBCF0BF044DA2B6E08C023F009C024F009
:105390000AC025F00BC026F048DAF1EC25F0C4D99C
:1053A000F90EDB5012E00E0EDB040BE1FA0EDBCF40
:1053B00000F0FB0EDBCF01F0FC0EDBCF02F0FD0EA8
:1053C00052D167D92A6AF8D947D00E0EDB0419E109
:1053D0000F0EDB6A100EDB6A800EF36E110EF3CF38
:1053E000DBFF3F0EF36E120EF3CFDBFF0F0EDBCFB2
:1053F00000F0100EDBCF01F0110EDBCF02F0120E29
:1054000032D1190EDB6A45D9800E2A6ED5D9006AD1
:10541000016A026A3F0E036ED950060FE96E000E54
:10542000DA20EA6EEECF23F0EECF24F0EECF25F0B7
:10543000EFCF26F000C028F001C029F002C02AF00A
:1054400003C02BF0F1EC25F026C0EDFF25C0EDFFE9
:1054500024C0EDFF23C0EFFFDF50010B0AE0190E5F
:10546000DB5002E0000E01D0010EE76E190EE7CF0F
:10547000DBFF8CD9060EDBCF0CF0070EDBCF0DF077
:10548000080EDBCF0EF0090EDBCF0FF0286A296A79
:10549000490E2A6E400E2B6E0CC023F00DC024F076
:1054A0000EC025F00FC026F0DBEC26F05CD9A6D9A3
:1054B00095D9F1EC25F077D9060EDBCF14F0070E65
:1054C000DBCF15F0080EDBCF16F0090EDBCF17F09F
:1054D000220E286EAA0E296E7D0E2A6E3A0E2B6EB3
:1054E00014C023F015C024F016C025F017C026F014
:1054F000DBEC26F023C010F024C011F025C012F020
:1055000026C013F0EDD8F1EC25F00A0E23C0DBFF26
:105510000B0E24C0DBFF0C0E25C0DBFF0D0E26C0DA
:10552000DBFFD9500A0FE96E000EEAD825D922C058
:1055300000F023C001F024C002F025C003F0286A67
:10554000296A800E2A6E390E2B6E22C023F04FD9A5
:10555000F4EC28F0010A13E1D9500A0FE96E000EAD
:10556000DA20EA6E020EEECFDBFF030EEECFDBFF9A
:10557000040EEECFDBFF050EEECFDBFF68D0E1D8E7
:105580000A0EDBCF28F00B0EDBCF29F00C0EDBCFA1
:105590002AF00D0EDBCF2BF0DBEC26F01A0E23C029
:1055A000DBFF1B0E24C0DBFF1C0E25C0DBFF1D0E26
:1055B00026C0DBFF5B0E236E9C0E246E2E0E256E26
:1055C000360E266E72D8CFD8220E286EB20E296EF5
:1055D0004F0E2A6EB90E32D99ED83E0E286E870E17
:1055E000296E080E2A6E3C0E29D9DDD8A40E286E2D
:1055F000AA0E296E2A0E2A6EBE0E20D91E0E23C0B8
:10560000DBFF1F0E24C0DBFF200E25C0DBFF210EB9
:1056100026C0DBFF0A0EDBCF00F00B0EDBCF01F064
:105620000C0EDBCF02F00D0EDBCF03F08AD81E0E7E
:10563000DBCF28F01F0EDBCF29F0200EDBCF2AF0C6
:10564000210EDBCF2BF0F1D8F2EC25F06DD8190E3E
:10565000DB5008E09BD8286A296A800E2A6EBF0EAC
:10566000F0D803D042D8DBCF03F000C022F001C055
:1056700023F002C024F003C025F0220EE15C02E218
:10568000E16AE552E16EE552E5CFDAFFE7CFD9FFF7
:1056900012007CD8830E286EF90E296EA20E2A6E97
:1056A0003E0ECFD8286A296A12001A0EDBCF28F0E6
:1056B0001B0EDBCF29F01C0EDBCF2AF01D0EDBCF3B
:1056C0002BF0DBEF26F0060E23C0DBFF070E24C015
:1056D000DBFF080E25C0DBFF090E26C0DBFF120032
:1056E0008DD800C023F0F7EF2BF0020EDBCF00F0D7
:1056F000030EDBCF01F0040EDBCF02F0050E12002B
:10570000DA20EA6EEECFE6FFEECFE6FFEECFE6FF61
:10571000EFCFE6FF120023C004F024C005F025C03F
:1057200006F026C007F01200020E23C0DBFF030EB6
:1057300024C0DBFF040E25C0DBFF050E26C0DBFF07
:1057400012000A0EDBCF23F00B0EDBCF24F00C0E81
:10575000DBCF25F00D0EDBCF26F012002B6E00C044
:1057600023F0F7EF2BF023C008F024C009F025C088
:105770000AF026C00BF0120071EC31F0E552E55250
:10578000E552E55212002B6EF2EF25F0020EDBCF50
:1057900004F0030EDBCF05F0040EDBCF06F0050EA0
:1057A000DBCF07F0120023C000F024C001F025C0B9
:1057B00002F026C003F012003F0EE5DFEDEC27F00B
:1057C00024C0DEFF25C0DDFF000EDFCF24F0010E78
:1057D000DBCF25F0DEEC25F063EF2BF004C023F0E7
:1057E00005C024F006C025F007C026F0120001C055
:1057F00024F002C025F003C026F0120023C028F0D8
:1058000024C029F025C02AF026C02BF01200DB0EA0
:10581000286E0F0E296EC90E2A6E400E1200D95046
:10582000FA0FE96EFF0E80EF2BF0DBEC26F073DF52
:1058300070EF2BF05ADFDBCF03F01200A4DF55EF3F
:0E5840002BF02B6ECBDFDBEC26F0D3EF2BF042
:02584E00D9CFB0
:10585000E6FFE1CFD9FF030EE126FD0EDBCF24F0FA
:10586000FE0EDBCF25F0DE5224C0DEFF25C0DDFFBB
:10587000DD52020EDB50AA6E010EDB50A96EA69E11
:10588000A69CA680A850DF6EDF50006E030EE15C80
:1058900002E2E16AE552E16E0050E552E7CFD9FF3E
:1058A0001200D9CFE6FFE1CFD9FF040EE126FD0EAD
:1058B000DBCF24F0FE0EDBCF25F0020E24C0DBFF91
:1058C000030E25C0DBFFDB50AA6E020EDB50A96E73
:1058D000FC0EDB50A86EA69EA69CA684F29E550EDA
:1058E000A76EAA0EA76EA682DE6ADD6AA6A215D0F2
:1058F000DFCF00F0DF2A010EDBCF01F001E3DB2A6E
:10590000026A0234000E021807E6D880E80E00543E
:10591000FD0E0154000E0254E9E2F28EA694040E2C
:10592000E15C02E2E16AE552E16EE552E7CFD9FFC0
:105930001200D9CFE6FFE1CFD9FF020EE126000E1B
:10594000E66EE66A84DFE552E552DF6E010EE66E32
:10595000E66A7DDFE552E552E76E010EE7CFDBFF39
:10596000DECF00F0DDCF01F0F00ED8800054000E45
:10597000015402E2DE6ADD6ADECF2EFFDDCF2FFFAB
:10598000020EE66EE66A63DFE552E552DF6E030E55
:10599000E66EE66A5CDFE552E552E76E010EE7CFA0
:1059A000DBFFDECF00F0DDCF01F0F00ED880005439
:1059B000000E015402E2DE6ADD6ADECF30FFDDCF89
:1059C00031FF040EE66EE66A42DFE552E552DF6E15
:1059D000050EE66EE66A3BDFE552E552E76E010E24
:1059E000E7CFDBFFDECF00F0DDCF01F0140ED88073
:1059F0000054000E015403E20A0EDE6EDD6ADECFB3
:105A000032FFDDCF33FF020EE15C02E2E16AE552D4
:105A1000E16EE552E7CFD9FF1200D9CFE6FFE1CF23
:105A2000D9FF020EE1262ECFDEFF2FCFDDFFDFCF25
:105A3000E6FF000EE66EE66A34DFE552E552E55217
:105A4000010EDBCFE6FFE66EE66A2BDFE552E5529C
:105A5000E55230CFDEFF31CFDDFFDFCFE6FF020EB4
:105A6000E66EE66A1EDFE552E552E552010EDBCF37
:105A7000E6FF030EE66EE66A14DFE552E552E552F4
:105A800032CFDEFF33CFDDFFDFCFE6FF040EE66E61
:105A9000E66A07DFE552E552E552010EDBCFE6FF8D
:105AA000050EE66EE66AFDDEE552E552E552320E7F
:105AB000E66EE66ABCEC09F0E552E552020EE15CE6
:105AC00002E2E16AE552E16EE552E7CFD9FF12004A
:105AD000D9CFE6FFE1CFD9FF1E0EE126020EE76E19
:105AE000FD0EDBCFE9FFFE0EDBCFEAFFE750E92634
:105AF000000EEA22EF50E66E81EC1FF0E55200093D
:105B000001E1DCD0060EE76EFD0EDBCFE9FFFE0EF5
:105B1000DBCFEAFFE750E926000EEA22EF50E66EFF
:105B200081EC1FF0E552000901E1C8D0030EE66EDA
:105B3000020EE76EFD0EDBCF00F0FE0EDBCF01F0B4
:105B4000E7500026000E012200C0E6FF01C0E6FF7C
:105B500005EC1EF0E552E552E552F3CFDEFFF4CF3F
:105B6000DDFFDECF00F0DDCF01F0F00ED880005475
:105B7000000E015403E2F00EDE6EDD6A030EE66EE7
:105B8000060EE76EFD0EDBCF00F0FE0EDBCF01F060
:105B9000E7500026000E012200C0E6FF01C0E6FF2C
:105BA00005EC1EF0E552E552E552020EF3CFDBFFA5
:105BB000030EF4CFDBFF020EDBCF00F0030EDBCFD2
:105BC00001F0F00ED8800054000E015407E2F00EF0
:105BD000F36E020EF3CFDBFF030EDB6ADECF2EFF88
:105BE000DDCF2FFF020EDBCF30FF030EDBCF31FF07
:105BF0000A0EE76EFD0EDBCFE9FFFE0EDBCFEAFFFC
:105C0000E750E926000EEA22EF50E66E81EC1FF025
:105C1000E552000952E0030EE66E0A0EE76EFD0E35
:105C2000DBCF00F0FE0EDBCF01F0E7500026000EC8
:105C3000012200C0E6FF01C0E6FF05EC1EF0E552C0
:105C4000E552E552040EF3CFDBFF050EF4CFDBFF88
:105C5000D950040FE96EDACFEAFFFF0EEE1809E122
:105C6000ED5007E10A0EF36E040EF3CFDBFF050ED5
:105C7000DB6A040EDBCF00F0050EDBCF01F0010E76
:105C8000005C000E01580CE3040EDBCF02F0050EA1
:105C9000DBCF03F0140ED8800254000E035407E249
:105CA000140EF36E040EF3CFDBFF050EDB6A040E59
:105CB000DBCF32FF050EDBCF33FFAFDE3ADE32CF74
:105CC000E6FF33CFE6FF30CFE6FF31CFE6FF2ECF42
:105CD000E6FF2FCFE6FF8B0E006E630E016E026AA9
:105CE00000C0E6FFE66E02C0E6FFD950060FE66E82
:105CF000000EDA20E66E1FEC30F0036E0B0EE15E54
:105D00000350D950060FE66E000EDA20E66EB3ECB3
:105D100019F0E552E5521E0EE15C02E2E16AE5523D
:0A5D2000E16EE552E7CFD9FF120053
:065D2A00C76A110EC86EED
:105D3000280EC66E400EC56E948694889F869E96E9
:105D40009D86A286A196A08606D8A00EE66E61EC7E
:105D500032F0E5521200D9CFE6FFE1CFD9FFE6528B
:105D6000C950DF6EC69AC69CC69EC59CC59A0001E6
:105D7000846B82A80CD89E96A1960001806B816BE3
:105D8000826BC68AE552E552E7CFD9FF1200D9CF20
:105D9000E6FFE1CFD9FFE6528A88C69ADF6A090E8C
:105DA000DF5C0EE29496020EE66E7BEC32F0E5527A
:105DB0009486020EE66E7BEC32F0E552DF2AEFD7D6
:105DC000E552E552E7CFD9FF12000001816B1F0EAB
:105DD000C51403E1C750040B07E00A0E006E8151A1
:105DE000005CF5E295EF2EF01200D9CFE6FFE1CF8F
:105DF000D9FFE652DF6A020E0001815DFCE3E5DFB8
:105E0000FE0EDBCF83F0FD0EDBCF85F00001816B52
:105E1000010E806FC580805112E0020E006E81512C
:105E2000005C03E2800E8011826F8251F4E0C58431
:105E30007CDFDF2A050EDF5CE9E3000E02D0816B18
:105E4000010EE552E552E7CFD9FF1200D9CFE6FFA8
:105E5000E1CFD9FF020E0001815DFCE3B6DFFE0E4B
:105E6000DB5001090001836FFD0EDBCF85F0816BF4
:105E70000B0E806FC58080510EE0020E006E8151C6
:105E8000005C03E2800E8011826F8251F4E0C584D1
:105E90004CDF000E02D0816B010EE552E7CFD9FF37
:105EA0001200D9CFE6FFE1CFD9FFE652DF6A060E36
:105EB000DF5C13E2DF50EA6AB80FE96E000EEA22F7
:105EC000EF50E66EDF50EA6A860FE96E000EEA22B6
:105ED000E552E750EF6EDF2AEAD7060EE66E140EA3
:105EE000E66E83DFE552E552E552E552E7CFD9FF92
:105EF0001200D9CFE6FFE1CFD9FFE652DF6A060EE6
:105F0000DF5C09E2DF50EA6AB80FE96E000EEA22B0
:105F1000EF6ADF2AF4D7C5DFE552E552E7CFD9FFB4
:025F200012006D
:0E5F2200D9CFE6FFDACFE6FFE1CFD9FFE2CF1D
:105F3000DAFFE652006801687F0E026E036AD950EC
:105F4000FA0FE96EFF0EDA20EA6EEE500016EE5000
:105F50000116EE500216EE5003166AD800C0EEFF8E
:105F600001C0EEFF02C0EEFF03C0EEFFFD0EDB50EE
:105F7000800B02E0010E01D0000EE66E59D8060E2D
:105F8000E926000EEA22E552E750EF6EFC0EDBCF69
:105F900000F0FD0EDBCF01F0D89000360136FC0E8C
:105FA00000C0DBFFFD0E01C0DBFFDB50E66E40D81A
:105FB000040EE926000EEA22E552E750EE6EED6A85
:105FC000FD0EDB50006E016AFF0E001818E1015053
:105FD00016E12ED8EECF00F0EECF01F0EECF02F0BA
:105FE000EFCF03F0005001100210031006E0210E65
:105FF0000001FD6FFE6B800E0BD0040E09D0FD0E6C
:10600000DB5008E115D8EE6AEE6AEE6AEE6A010E20
:10601000DF6E06D0020EDF6E0BD8EE52EE52EE8E21
:10602000DF50E552E552E5CFDAFFE7CFD9FF1200A6
:0E603000F80EDBCFE9FFF90EDBCFEAFF12001E
:02603E00D9CFB8
:10604000E6FFDACFE6FFE1CFD9FFE2CFDAFFE65293
:10605000E652E652E652D950F90F006EFF0EDA20F2
:10606000016E020E00C0DBFF030E01C0DBFF020E5B
:10607000DBCFE6FF030EDBCFE6FFF90EDBCFE6FF5B
:10608000FA0EDBCFE6FFFB0EDBCFE6FFD950FC0FAD
:10609000E66EFF0EDA20E66EE1EC1FF0006E070EF2
:1060A000E15C02E2E16AE552E16E0050F3CFDEFF0F
:1060B000F4CFDDFFFC0EDBCFE9FFFD0EDBCFEAFF07
:1060C000EF6ADECF00F0DDCF01F000C0F3FF01C0CA
:1060D000F4FF040EE15C02E2E16AE552E16EE55292
:0A60E000E5CFDAFFE7CFD9FF120089
:0660EA001E0EF66E080E0A
:1060F000F76E000EF86E00010900F550F86F090008
:10610000F550F96F03E1F86701D03DD00900F55073
:10611000F36F0900F550F46F0900F550F56F0900B1
:106120000900F550E96E0900F550EA6E0900090012
:106130000900F550F66F0900F550F76F09000900E6
:10614000F6CFFAF0F7CFFBF0F8CFFCF0F3C0F6FF94
:10615000F4C0F7FFF5C0F8FF0001F65302E1F75372
:1061600007E00900F550EE6EF607F8E2F707F9D7F9
:10617000FAC0F6FFFBC0F7FFFCC0F8FF0001F8070C
:08618000000EF95BBFD712000D
:08618800D9CFE6FFDACFE6FFF4
:10619000E1CFD9FFE2CFDAFFFB0EDBCF00F0FC0E40
:1061A000DBCF01F00001800E01141AE1FB0EDBCF02
:1061B000E9FFFC0EDBCFEAFFEECFF3FFEDCFF4FFFC
:1061C000EE2A000EEF22F3CFE9FFF4CFEAFFFD0E37
:1061D000DBCFEFFFEF50016AF36E01C0F4FF10D088
:1061E000FB0EDB50FE0806E1FD0EDBCFE6FF53ECB5
:1061F00032F005D0FD0EDBCFE6FF03EC04F0E552F4
:0C620000E552E5CFDAFFE7CFD9FF12002E
:04620C0022502702F3
:10621000F3CF1EF0F4CF1FF02802F3501F26000E1C
:10622000F420206E22502902F3502026000EF42084
:10623000216E22502A02F350212623502702F350C8
:106240001F26F4502022000E212223502802F35052
:106250002026F450212223502902F35021262450D5
:106260002702F3502026F450212224502802F35014
:0C627000212625502702F35021261200A1
:04627C00FE0EE3CF60
:10628000E9FFFF0EE3CFEAFFF36AF46AEE5203E0A0
:10629000F34AF42AFBD71200FF0EE3CFF8FFE552D2
