:100000000C9409010C943A010C943A010C943A01B5
:100010000C943A010C943A010C943A010C943A0174
:100020000C943A010C943A010C943A010C943A0164
:100030000C943A010C943A010C943A010C943A0154
:100040000C943A010C943A010C943A010C943A0144
:100050000C943A010C943A010C943A010C9441032B
:100060000C943A010C943A010C943A010C943A0124
:100070000C943A010C943A010C943A010C943A0114
:100080000C943A010C943A010C943A010C943A0104
:100090000C943A010C943A010C943A010C943A01F4
:1000A0000C943A010C943A010C943A010C943A01E4
:1000B0000C943A010C943A010C943A010C943A01D4
:1000C0000C943A010C943A010C943A010C94B50347
:1000D0000C948B030C943A010C943A010C943A0161
:1000E0000C943A01084AD73B3BCE016E84BCBFFD5D
:1000F000C12F3D6C74319ABD56833DDA3D00C77FF8
:1001000011BED9E4BB4C3E916BAAAABE0000008090
:100110003F05A84CCDB2D44EB93836A9020C50B91F
:10012000918688083CA6AAAA2ABE000000803F004B
:100130000C945E020C947B010C94A8010C94D305E2
:100140000C94B7010C94D9010C9411020C94CB01BE
:1001500000002200250028002B002E003100340072
:1001600002010000050108010B010000210024002C
:1001700027002A002D003000330001010000040197
:1001800007010A0105050505070508080808020218
:1001900002020A0A08080404040401010101010121
:1001A00001010303030303030303040707070C0C04
:1001B0000C0C0C0C0C0C02020202060606060606CB
:1001C00006060B0B0B0B0B0B0B0B01021020200870
:1001D00008102040102040800201020108040201A2
:1001E0000102040810204080804020100804020111
:1001F000800402018040201008040201080402016A
:1002000001020408102040800102040810204080F0
:10021000D30511241FBECFEFD1E2DEBFCDBF00E07A
:100220000CBF12E0A0E0B2E0E8E3F3E100E00BBFB6
:1002300002C007900D92AA31B107D9F722E0AAE1D6
:10024000B2E001C01D92A43EB207E1F711E0C9E09F
:10025000D1E000E006C021970109802FFE010E9435
:100260009209C830D10780E00807A9F70E94EB0384
:100270000C949A090C94000020917B00982F987F91
:10028000277F922B90937B008770806480937C0003
:1002900080917A00806480937A0080917A0086FD54
:1002A000FCCF809178009091790008953FB7F89441
:1002B0008091430290914402A0914502B091460280
:1002C00026B5A89B05C02F3F19F00196A11DB11DB1
:1002D0003FBFBA2FA92F982F8827BC01CD01620FED
:1002E000711D811D911D42E0660F771F881F991FA8
:1002F0004A95D1F70895AF92BF92CF92DF92EF92D5
:10030000FF920F931F93CF93DF936C017B018B01BF
:10031000040F151FEB015E01AE18BF08C017D1070F
:1003200059F06991D601ED91FC910190F081E02D99
:10033000C6011995892B79F7C501DF91CF911F91DE
:100340000F91FF90EF90DF90CF90BF90AF90089506
:10035000FC01538D448D252F30E0842F90E0821BCB
:10036000930B541710F0CF96089501970895FC0150
:10037000918D828D981761F0A28DAE0FBF2FB11DA8
:100380005D968C91928D9F5F9F73928F90E0089500
:100390008FEF9FEF0895FC01918D828D981731F0BA
:1003A000828DE80FF11D858D90E008958FEF9FEF0E
:1003B0000895FC01918D228D892F90E0805C9F4FE4
:1003C000821B91098F739927089587E492E00E9418
:1003D000D90121E0892B09F420E0822F0895FC0146
:1003E000A48DA80FB92FB11DA35ABF4F2C91848D96
:1003F00090E001968F739927848FA689B7892C93F3
:10040000A089B1898C91837080648C93938D848D45
:10041000981306C00288F389E02D80818F7D808348
:100420000895EF92FF920F931F93CF93DF93EC0108
:1004300081E0888F9B8D8C8D98131AC0E889F9898B
:10044000808185FF15C09FB7F894EE89FF8960838E
:10045000E889F98980818370806480839FBF81E00F
:1004600090E0DF91CF911F910F91FF90EF90089551
:10047000F62E0B8D10E00F5F1F4F0F731127E02E2C
:100480008C8D8E110CC00FB607FCFACFE889F98964
:10049000808185FFF5CFCE010E94EF01F1CFEB8D7A
:1004A000EC0FFD2FF11DE35AFF4FF0829FB7F89438
:1004B0000B8FEA89FB8980818062CFCFCF93DF9356
:1004C000EC01888D8823B9F0AA89BB89E889F9896C
:1004D0008C9185FD03C0808186FD0DC00FB607FCA1
:1004E000F7CF8C9185FFF2CF808185FFEDCFCE01D4
:1004F0000E94EF01E9CFDF91CF91089580E090E075
:10050000892B49F080E090E0892B29F00E940000BF
:1005100081110E94000080E090E0892B49F080E08A
:1005200090E0892B29F00E94000081110E940000B8
:1005300080E090E0892B29F00E94E50181110E9462
:10054000000080E090E0892B49F080E090E0892B6A
:1005500029F00E94000081110C9400000895FC0114
:1005600001900020E9F73197AF01481B590BBC01FE
:1005700087E492E00C947B018F929F92AF92BF929E
:10058000CF92DF92EF92FF920F931F93CF93DF935F
:10059000CDB7DEB7A1970FB6F894DEBF0FBECDBFC3
:1005A0006C01990FEE08FF08F7FE47C06DE287E483
:1005B00092E00E9411028C0122273327A9012C19F5
:1005C0003D094E095F0919A2CE0181967C019AE08E
:1005D000892E912CA12CB12CCA01B901A50194013D
:1005E0000E947009605DF70162937F01211531055A
:1005F0004105510589F790E080E0309719F0CF016F
:100600000E94AF02080F191F82E192E00E94AF0220
:10061000800F911FA1960FB6F894DEBF0FBECDBF1D
:10062000DF91CF911F910F91FF90EF90DF90CF90CE
:10063000BF90AF909F908F900895A701960119A247
:100640008E010F5D1F4F8AE0C82ED12CE12CF12CBA
:10065000CA01B901A70196010E947009605DF80105
:1006600062938F01211531054105510589F73097B6
:1006700029F0CF010E94AF028C01C6CF10E000E04C
:10068000C3CF1F920F920FB60F9211242F933F9357
:100690008F939F93AF93BF9380913F0290914002BD
:1006A000A0914102B091420230913E0223E0230F1B
:1006B0002D3758F50196A11DB11D20933E02809360
:1006C0003F0290934002A0934102B0934202809176
:1006D000430290914402A0914502B09146020196D6
:1006E000A11DB11D8093430290934402A093450243
:1006F000B0934602BF91AF919F918F913F912F91FF
:100700000F900FBE0F901F90189526E8230F0296AA
:10071000A11DB11DD2CF1F920F920FB60F921124BF
:100720000BB60F922F933F934F935F936F937F93EB
:100730008F939F93AF93BF93EF93FF9387E492E0E0
:100740000E94EF01FF91EF91BF91AF919F918F9127
:100750007F916F915F914F913F912F910F900BBEC1
:100760000F900FBE0F901F9018951F920F920FB60B
:100770000F9211240BB60F922F938F939F93EF93A9
:10078000FF93E0915702F09158028081E0915D0261
:10079000F0915E0282FD1DC09081809160028F5FAA
:1007A0008F7320916102821741F0E0916002F0E0C6
:1007B000E95BFD4F958F80936002FF91EF919F91D0
:1007C0008F912F910F900BBE0F900FBE0F901F9027
:1007D00018958081F2CF789484B5826084BD84B509
:1007E000816084BD85B5826085BD85B5816085BD2C
:1007F00080916E00816080936E00109281008091E4
:10080000810082608093810080918100816080936B
:100810008100809180008160809380008091B10090
:1008200084608093B1008091B00081608093B000BB
:10083000809191008260809391008091910081600D
:1008400080939100809190008160809390008091CE
:10085000A10082608093A1008091A10081608093BB
:10086000A1008091A00081608093A000809121016F
:100870008260809321018091210181608093210118
:100880008091200181608093200180917A008460B2
:1008900080937A0080917A00826080937A008091C0
:1008A0007A00816080937A0080917A0080688093DA
:1008B0007A001092C100E0915702F091580282E054
:1008C0008083E0915302F09154021082E09155022E
:1008D000F091560280E1808310925F02E0915B020A
:1008E000F0915C0286E08083E0915902F0915A0217
:1008F000808180618083E0915902F0915A02808169
:1009000088608083E0915902F0915A02808180686A
:100910008083E0915902F0915A0280818F7D80831B
:1009200050E040E0FA01E653FE4F2491FA01EC5703
:10093000FE4F84918823C1F090E0880F991FFC013D
:10094000E659FE4FC591D491FC01E05BFE4FA591A5
:10095000B4919FB7F8948881E22FE0958E23888325
:100960008C91E823EC939FBF4F5F5F4F403151055F
:10097000C9F6CC24CA9493E0D92E10923D0210926D
:100980003C0210923B0210923A020AE112E0780116
:10099000D0E0C0E08C2F0E943C01F701819391933D
:1009A0007F01BE010D2E000C880B990B0E948A0757
:1009B00020E030E040EB51E40E94840825E33AEF68
:1009C0004EE85CE30E9484082B013C010E94F10880
:1009D0004B015C018C2F0E943C01B601681B790B16
:1009E000072E000C880B990B0E948A07A501940121
:1009F0000E9484084B015C0160913C0270913D02B1
:100A0000072E000C880B990B0E948A079B01AC01F2
:100A1000C501B4010E9401060E9452071B01709398
:100A20003D0260933C02C301B2010E94DF064B010C
:100A30005C018C2F0E943C01B601681B790B072ECC
:100A4000000C880B990B0E948A07A50194010E9453
:100A500084084B015C0160913A0270913B02072EC1
:100A6000000C880B990B0E948A079B01AC01C50101
:100A7000B4010E9401060E94520770933B026093EA
:100A80003A022196C031D10509F084CF072E000C1F
:100A9000880B990B0E948A074B015C01B101330C52
:100AA000880B990B0E948A072B013C01A501940138
:100AB0000E94800621EE3EE245E652E40E94840850
:100AC0000E945207EB011C161D0614F0C859DE4F98
:100AD000A3019201C301B2010E9484082B013C01D1
:100AE000A5019401C501B4010E9484089B01AC01D9
:100AF000C301B2010E9401060E94FF0840E0F80114
:100B0000219131918F01293933400CF441E022E0E9
:100B10000A331207A1F7442309F440C00E94520788
:100B20008B01CE010E94BC0285E192E00E94AF02DF
:100B300082E192E00E94AF02C8010E94BC0287E1FC
:100B400092E00E94AF0282E192E00E94AF020E9416
:100B500056014B015C018AE0482E512C612C712C0E
:100B60000E945601681979098A099B09683E7340F9
:100B700081059105A8F351E0451A510861087108F3
:100B800088EE880E83E0981EA11CB11C411451040C
:100B90006104710429F70E947E02EFCE0FEF1FEF70
:100BA000CFEFDFEFBECFE7E4F2E01382128288EEF0
:100BB00093E0A0E0B0E084839583A683B78384E0CC
:100BC00092E09183808385ED90E09587848784ED22
:100BD00090E09787868780ED90E0918B808B81ED08
:100BE00090E0938B828B82ED90E0958B848B86EDE9
:100BF00090E0978B868B118E128E138E148E089533
:100C00005058BB27AA270E9418060C942E080E9451
:100C1000F50738F00E94FC0720F039F49F3F19F4E3
:100C200026F40C94CB070EF4E095E7FB0C94C50773
:100C3000E92F0E94530858F3BA1762077307840715
:100C4000950720F079F4A6F50C9475080EF4E0955C
:100C50000B2EBA2FA02D0B01B90190010C01CA0176
:100C6000A0011124FF27591B99F0593F50F4503E21
:100C700068F11A16F040A22F232F342F4427585F13
:100C8000F3CF469537952795A795F0405395C9F72B
:100C90007EF41F16BA0B620B730B840BBAF09150E3
:100CA000A1F0FF0FBB1F661F771F881FC2F70EC082
:100CB000BA0F621F731F841F48F487957795679555
:100CC000B795F7959E3F08F0B0CF9395880F08F041
:100CD0009927EE0F9795879508950E94F50760F084
:100CE00080E891E009F49EEF0E94FC0728F040E8BC
:100CF00051E071F45EEF0CC00C94CB070C947508B6
:100D0000E92FE0780E94530840F3092E052AB1F339
:100D1000261737074807590738F00E2E07F8E02541
:100D200069F0E025E0640AC0EF6307F8009407FA71
:100D3000DB01B9019D01DC01CA01AD01EF930E9405
:100D4000F7060E942E080E94B0065F91552339F0E5
:100D50002BED3FE049E450FD49EC0C940106089569
:100D6000DF93DD27B92FBF7740E85FE3161617063C
:100D700048075B0718F4D92F0E947C089F938F9334
:100D80007F936F930E943F09E4EEF0E00E94CE074C
:100D90000E942E082F913F914F915F910E949708DA
:100DA000DD2351F09058A2EA2AED3FE049EC5FE3E1
:100DB000D0785D270E941806DF910C942E080E94BF
:100DC0000508E3950C943F080E94FC0758F00E9428
:100DD000F50740F029F45F3F29F00C94C507511145
:100DE0000C9476080C94CB070E94530868F399235F
:100DF000B1F3552391F3951B550BBB27AA27621717
:100E00007307840738F09F5F5F4F220F331F441F23
:100E1000AA1FA9F335D00E2E3AF0E0E832D0915057
:100E20005040E695001CCAF72BD0FE2F29D0660F44
:100E3000771F881FBB1F261737074807AB07B0E887
:100E400009F0BB0B802DBF01FF2793585F4F3AF08D
:100E50009E3F510578F00C94C5070C9476085F3FCF
:100E6000E4F3983ED4F3869577956795B795F79513
:100E70009F5FC9F7880F911D9695879597F90895FB
:100E8000E1E0660F771F881FBB1F62177307840797
:100E9000BA0720F0621B730B840BBA0BEE1F88F7A6
:100EA000E09508950E9459076894B1110C94760852
:100EB00008950E945B0888F09F5798F0B92F9927F2
:100EC000B751B0F0E1F0660F771F881F991F1AF035
:100ED000BA95C9F714C0B13091F00E947508B1E01D
:100EE00008950C947508672F782F8827B85F39F01C
:100EF000B93FCCF3869577956795B395D9F73EF4CE
:100F000090958095709561957F4F8F4F9F4F089575
:100F1000E89409C097FB3EF4909580957095619593
:100F20007F4F8F4F9F4F9923A9F0F92F96E9BB2749
:100F30009395F695879577956795B795F111F8CFC5
:100F4000FAF4BB0F11F460FF1BC06F5F7F4F8F4F30
:100F50009F4F16C0882311F096E911C0772321F026
:100F60009EE8872F762F05C0662371F096E8862FBE
:100F700070E060E02AF09A95660F771F881FDAF715
:100F8000880F9695879597F9089597F99F6780E858
:100F900070E060E008959FEF80EC0895DF93CF93B9
:100FA0001F930F93FF92EF92DF927B018C01689465
:100FB00006C0DA2EEF010E949708FE01E894A59181
:100FC0002591359145915591A6F3EF010E941806A0
:100FD000FE019701A801DA9469F7DF90EF90FF9086
:100FE0000F911F91CF91DF91089500240A94161656
:100FF000170618060906089500240A941216130607
:101000001406050608950C94CB070E945B08D8F3DC
:10101000E894E0E0BB279F57F0F02AED3FE049EC71
:1010200006C0EE0FBB0F661F771F881F28F0B23A6D
:1010300062077307840728F0B25A620B730B840BA4
:10104000E3959A9572F7803830F49A95BB0F661F36
:10105000771F881FD2F790480C944909092E0394F2
:10106000000C11F4882352F0BB0F40F4BF2B11F495
:1010700060FF04C06F5F7F4F8F4F9F4F0895EF93C6
:10108000E0FF07C0A2EA2AED3FE049EC5FEB0E94D7
:1010900018060E942E080F90039401FC9058E1E17D
:1010A000F1E00C945C0957FD9058440F551F59F01E
:1010B0005F3F71F04795880F97FB991F61F09F3F45
:1010C00079F087950895121613061406551FF2CF6E
:1010D0004695F1DF08C0161617061806991FF1CFBE
:1010E00086957105610508940895E894BB276627E5
:1010F0007727CB0197F908959B01AC0160E070E080
:1011000080E89FE30C9443090E9497080C942E08F2
:101110000E94F50738F00E94FC0720F0952311F09B
:101120000C94C5070C94CB0711240C9476080E94EC
:10113000530870F3959FC1F3950F50E0551F629FC0
:10114000F001729FBB27F00DB11D639FAA27F00D20
:10115000B11DAA1F649F6627B00DA11D661F829F47
:101160002227B00DA11D621F739FB00DA11D621F2C
:10117000839FA00D611D221F749F3327A00D611D49
:10118000231F849F600D211D822F762F6A2F11242B
:101190009F5750409AF0F1F088234AF0EE0FFF1F5E
:1011A000BB1F661F771F881F91505040A9F79E3FB5
:1011B000510580F00C94C5070C9476085F3FE4F36A
:1011C000983ED4F3869577956795B795F795E7950B
:1011D0009F5FC1F7FE2B880F911D9695879597F914
:1011E00008959F930E9405080F9007FCEE5F0C94F2
:1011F0003F0819F416F40C94CB070C9447090E948D
:101200005B08B8F39923C9F3B6F39F57550B87FFD3
:101210000E9455090024A0E640EA900180585695A6
:10122000979528F4805C660F771F881F20F026179B
:101230003707480730F4621B730B840B20293129D0
:101240004A2BA69517940794202531254A2758F74D
:10125000660F771F881F20F026173707480730F4DE
:10126000620B730B840B200D311D411DA09581F77E
:10127000B901842F9158880F9695879508959B0101
:10128000AC010C9484080E94F4060C942E089F3F35
:1012900031F0915020F4879577956795B795880F31
:1012A000911D9695879597F9089591505040660F36
:1012B000771F881FD2F708959F938F937F936F9323
:1012C000FF93EF939B01AC010E948408EF91FF9183
:1012D0000E94CE072F913F914F915F910C9484080B
:1012E000A1E21A2EAA1BBB1BFD010DC0AA1FBB1F2A
:1012F000EE1FFF1FA217B307E407F50720F0A21B9C
:10130000B30BE40BF50B661F771F881F991F1A9408
:1013100069F760957095809590959B01AC01BD0132
:10132000CF010895EE0FFF1F881F8BBF0790F69126
:08133000E02D1994F894FFCFA1
:101338000000000011027B01A8015E02D901B7017B
:0A134800CB010D0A006100620000F5
:00000001FF
