:020000040000FA
:0608000037EF34F0120096
:020806001200DE
:0608080016EF04F01200DF
:0608180008EF06F01200DB
:02081E000100D7
:0C082000AD680000000F00002E0000007A
:04082C00DACFE4FF3C
:10083000E2CFDAFFE9CFE4FFEACFE4FFF6CFE4FF4F
:10084000F7CFE4FFF5CFE4FFF3CFE4FFF4CFE4FF0D
:10085000FACFE4FF00EE1EF0140EE80403E3EECF3F
:10086000E4FFFBD700EE00F01E0EE80403E3EECF3A
:10087000E4FFFBD7E652F2A42AD1D59EFC0ED76E38
:100880003F0ED66ED58E0101072B000E0823010105
:100890008F2B000E9023912392230101932B000EA6
:1008A0009423952396230101972B000E98239923D7
:1008B0009A2301019B2B000E9C239D239E23010163
:1008C000092B000E0A230101F52B000EF623320E30
:1008D0000001815D02E20001812B030E010100197C
:1008E00001E1015101E17FD0020E0101001901E196
:1008F00001513CE0010E0101001901E1015107E045
:100900000101005101E1015101E0DBD0DFD0805055
:10091000100B100A01E0010E010808E10101026B51
:10092000036B0101002B000E01231FD00101022BDC
:10093000000E03230101F40ED8800255010E035569
:1009400014E20101026B036B0101010E0D1901E1BB
:100950000E5106E00101070E0D1901E10E5105E1EE
:100960000101AA5101E0B2D0897EB0D080A805D0A3
:1009700001010007000E015B35D00101022B000EC2
:1009800003230101320ED8800255000E03552AE2DE
:10099000000EE66EE66A000EE66EE66AE6EC09F028
:1009A000E552E552E552E552899E899C8A908A98E3
:1009B000020E01010D1901E10E510BE001010D5173
:1009C00001E10E5101E00AD0898E0101096B0A6B29
:1009D00005D0040E01010D6F0E6B00D00101002B3C
:1009E000000E012373D080A83FD0040E01010D1921
:1009F00001E10E5133E0070E01010D1901E10E5125
:100A000028E0050E01010D1901E10E511DE0030E54
:100A100001010D1901E10E5112E0010E01010D1944
:100A200001E10E5107E001010D5101E10E5101E01C
:100A300016D015D0020E01010D6F0E6B10D0010EF5
:100A400001010D6F0E6B0BD0060E01010D6F0E6BC9
:100A500006D0080E01010D6F0E6B01D0FF000101E1
:100A6000002B000E01232CD0050E01010D1901E110
:100A70000E5116E001010D5101E10E5101E020D0AF
:100A80000101D00ED8800955070E0A5508E2899C4D
:100A9000050E01010D6F0E6B0101026B036B10D08F
:100AA0000101022B000E03230101640ED8800255C0
:100AB000000E035504E20101026B036B897E00D036
:100AC00005D0010E0101006F016B00D0F2949EA6CB
:100AD00073D00001816B0001826B000180510F0A0D
:100AE00064E0010A5EE0030A44E0010A39E0070A13
:100AF0002EE0080A23E0010A0AE0030A01E058D0C8
:100B000083C0C9FF0001846B0001802B54D0C5ACA9
:100B100003D080C082F011D000018451842BEA6A96
:100B2000860FE96E000EEA22EF50C96E0001855172
:100B30000001845D02E10001802B3DD0C5AC03D0F3
:100B400080C082F003D0C5840001806B34D0010ED8
:100B500000018311C96E0001846B0001802B2BD032
:100B6000C5AC03D080C082F003D0C5860001802BC5
:100B700022D000018451842BEA6A860FE96E000EB0
:100B8000EA22C9CFEFFF000185510001845D04E234
:100B9000C59A0001800703D0C58A0001802BC58853
:100BA0000AD0C5840001802B06D00001806B03D0E1
:100BB0000001806B00D09E96A1A606D0A196400EA3
:100BC000000180110001826FE55200EE1DF01E0E43
:100BD000E80403E3E5CFEDFFFBD700EE31F0140EA0
:100BE000E80403E3E5CFEDFFFBD7E5CFFAFFE5CF60
:100BF000F4FFE5CFF3FFE5CFF5FFE5CFF7FFE5CF56
:100C0000F6FFE5CFEAFFE5CFE9FFE5CFDAFF110018
:100C1000D8CFE4FFE0CFE4FFE46EDACFE4FFE2CF29
:100C2000DAFFE9CFE4FFEACFE4FFE6529EAC2CD135
:100C30009E9CC4CF06F1C3CF05F101010451EA6ABD
:100C4000A00FE96E010EEA22EF50050801E09BD0EB
:100C500001010C3504E20B510308000E0C5501E3B1
:100C600091D005C105F106C106F10101FF0ED88042
:100C70000557030E0657010E0101D89005370637B8
:100C8000E806FBE10101900E055D010E065905E243
:100C90000101900E056F010E066F900E0101055FB8
:100CA000010E0101065B0101FF0ED8800555030E00
:100CB000065504E201010569030E066F01010451A6
:100CC000E96EEA6AD890E936EA360F0EE926010E97
:100CD000EA22EE5001010527EE500101062305C16D
:100CE00032F006C133F0010E0F0B05E0D89033321D
:100CF0003232E806FBE101010451E96EEA6AD8905C
:100D0000E936EA360F0EE926010EEA2232C0EEFF7E
:100D100033C0EDFF01010B6B0C6B01010451090A9B
:100D20002EE0010A29E00F0A24E0010A1FE0030A6D
:100D30001AE0010A15E0070A10E0010A0BE0030AB5
:100D400006E0010A01E01ED0929089801BD09292A9
:100D5000898218D09294898415D09296898612D06F
:100D6000929A898A0FD093948A840CD093968A861B
:100D700009D093928A8206D093988A8803D0939060
:100D80008A8000D02CD001010451E96EEA6AD89023
:100D9000E936EA360F0EE926010EEA22EE5001018D
:100DA0000527EE500101062305C132F006C133F0DC
:100DB000010E0F0B05E0D89033323232E806FBE12A
:100DC00001010451E96EEA6AD890E936EA360F0E5D
:100DD000E926010EEA2232C0EEFF33C0EDFF0A0E13
:100DE000326E0101042B01010451D880325402E318
:100DF0000101046B01010451EA6AA00FE96E010EC2
:100E0000EA22EF50050837E101010B2B000E0C23FD
:100E100001010C3504E20B510308000E0C552BE2C6
:100E200001010451090A25E0010A21E00F0A1DE031
:100E3000010A19E0030A15E0010A11E0070A0DE0B2
:100E4000010A09E0030A05E0010A01E014D09280DA
:100E500012D0928210D092840ED092860CD0928AB8
:100E60000AD0938408D0938606D0938204D09388C6
:100E700002D0938000D001010451EA6A000FE96EAC
:100E80000F0EEA22EF50C26E9EAA98D0ABA403D0F8
:100E9000AECFF9F193D0ABA203D0AB98AB888ED094
:100EA000AECFF9F10101010E0D1901E10E5173E010
:100EB0000101FA51080A66E00F0A5AE0010A4EE001
:100EC000030A42E0010A36E0070A2AE0010A1EE0AE
:100ED000030A12E0010A01E05ED0520E0101F95D41
:100EE00003E10101010EFA6F560E0101F95D03E104
:100EF0000101050EFA6F4FD0650E0101F95D02E1A7
:100F0000020E01D0000E0101FA6F45D0730E0101EF
:100F1000F95D02E1030E01D0000E0101FA6F3BD032
:100F2000650E0101F95D02E1040E01D0000E010120
:100F3000FA6F31D0740E0101F95D02E1070E01D0A4
:100F4000000E0101FA6F27D0650E0101F95D02E183
:100F5000060E01D0000E0101FA6F1DD0720E0101C4
:100F6000F95D02E1070E01D0000E0101FA6F13D006
:100F70000D0E0101F95D02E1080E01D0000E010124
:100F8000FA6F09D00A0E0101F95D02E1FF0002D0FB
:100F90000101FA6B00D00101F751EA6AD40FE96E42
:100FA000010EEA22F9C1EFFF1F0E326E0101F72B8D
:100FB0000101F751325C02E20101F76BE552E5CF26
:100FC000EAFFE5CFE9FFE5CFDAFFE550E5CFE0FF47
:100FD000E5CFD8FF1000D9CFE6FFE1CFD9FF030E50
:100FE000E126F00ED36EC00E9B6E0101FA6B01017B
:100FF0000D6B0E6B006B016B026B036B010EDB6AFA
:10100000020EDB6A010EDBCF00F0020EDBCF01F037
:10101000D890015004E61A0E005C000E01581AE246
:10102000010EDBCFE9FF020EDBCFEAFFD890E936F5
:10103000EA36D890E936EA36270EE926010EEA228A
:10104000EE6AEE6AEE6AEE6A010EDB2A020EDAE35F
:10105000DB2AD8D7010EDB6A020EDB6A010EDBCF7A
:1010600000F0020EDBCF01F0D890015004E6040E30
:10107000005C000E01581AE2010EDBCFE9FF020E00
:10108000DBCFEAFFD890E936EA36D890E936EA367F
:101090008F0EE926010EEA22EE6AEE6AEE6AEE6A29
:1010A000010EDB2A020EDAE3DB2AD8D7010EDB6A57
:1010B000020EDB6A010EDBCF00F0020EDBCF01F087
:1010C000D890015004E60A0E005C000E015811E2AF
:1010D000010EDBCFE9FF020EDBCFEAFFA00EE9260F
:1010E000010EEA22010EEF6EDB2A020EE3E3DB2A99
:1010F000E1D70101236B246B256B266B046B0B6B13
:101100000C6BAA6BAB6B096B0A6B076B086B896A7C
:101110003F0EDF6EDF50926E8A6A1F0EDF6EDF5069
:10112000936E180E8B6E980E946E020ED56EFC0E9A
:10113000D76E3F0ED66ED58EF294F28AF184B00E41
:10114000B16EA292A192A092B1809D92010ECA6E40
:10115000CC68CB68CA849F6F000E256F266B236F07
:10116000246BE66EE66AE66EE66A9AD8E552E552C8
:10117000E552E5529F9C9D8CBE0EC06E020EC16E64
:1011800001010451EA6A000FE96E0F0EEA22EF50E6
:10119000C26E4AEC1BF05DEC30F0D09CD08EF28E2B
:1011A000F28CD80E006E660E016E026A00C0E6FF79
:1011B000E66E02C0E6FF99EC1BF0E552E552E552FF
:1011C00018EC1EF041EC31F0010E0101006F016BD3
:1011D0008050100B100A01E0010E0108F9E0010136
:1011E0000D510E1103E1010E0D6F0E6B898E030E72
:1011F000E15C02E2E16AE552E16EE552E7CFD9FF38
:101200001200E9DEF40EE66E010EE66EB5D8E55288
:10121000E5520101096B0A6BDFEC1BF0000902E0EB
:10122000E5EC1BF0070E01010D1901E10E5135E04F
:10123000050E0D1901E10E512BE0060E0D1901E10D
:101240000E5126E0020E0D1901E10E5116E0030EBB
:101250000D1901E10E5111E0010E0D19DDE10E51E4
:10126000DBE1CC51095DCD510A59D6E3096B0A6B1C
:10127000AAA1D2D771EC1EF0CFD7DAEC16F0899E76
:10128000899C8A908A98010E01010D6F0E6BC4D75C
:101290006EEC0EF0ECEC0EF0BFD7F7EC0FF0BCD715
:1012A000D9CFE6FFE1CFD9FF040EE126FD0EDBCF5B
:1012B00000F0FE0EDBCF01F0FF0ED8800054030ECD
:1012C000015407E2FD0EDB68030EF36EFE0EF3CF52
:1012D000DBFFFB0EDBCF00F0FC0EDBCF01F0FF0EDF
:1012E000D8800054030E015407E2FB0EDB68030EA6
:1012F000F36EFC0EF3CFDBFFFB0EDBCF00F0FC0E3A
:10130000DBCF01F0060ED89000360136E804FBE191
:1013100000C0DEFF01C0DDFFFD0EDBCF00F0FE0EE2
:10132000DBCF01F0060ED89000360136E804FBE171
:10133000020E00C0DBFF030E01C0DBFF010EDB501D
:10134000BE6E030EDB50BB6EDF50E840E8403F0B43
:10135000300B0C09BD6E020EDB40E8403F0B300B3A
:101360000C09BA6E040EE15C02E2E16AE552E16E3C
:10137000E552E7CFD9FF1200D9CFE6FFE1CFD9FF81
:10138000020EE126F29A0101096B0A6BF28AF29AC7
:1013900009C1DEFF0AC1DDFFF28ADECF00F0DDCF3A
:1013A00001F0FD0EDBCF02F0FE0EDBCF03F00250AA
:1013B000005C03500158EBE3020EE15C02E2E16ADB
:1013C000E552E16EE552E7CFD9FF1200D9CFE6FF33
:1013D000E1CFD9FF0A0EE12623C100F024C101F0BC
:1013E000FD0EDB50001811E1FE0EDB5001180DE17F
:1013F00025C102F026C103F0FB0EDB50021805E107
:10140000FC0EDB50031801E1E7D2000EE66EE66A3F
:10141000E66EE66A45DFE552E552E552E5528B9A03
:101420008B908A9C8A9AA092A192B190B368050E83
:10143000B26EB180080E2ECFDBFFFD0EDBCF00F0C9
:10144000FE0EDBCF01F0013401E387D0005000082D
:10145000000E015401E381D0010EF36E040EF3CFB0
:10146000DBFF060EDB6A080E266E276AFD0EDBCF59
:101470002BF0FE0EDBCF2CF06AEC29F024C0DEFF4F
:1014800025C0DDFF0F01000ED8802E55000E2F5510
:1014900001E3F8D0DECF00F0DDCF01F001341EE231
:1014A00000509008010E015419E2DECF02F0DDCFAA
:1014B00003F0900E025E010E035A02C026F003C034
:1014C00027F032CF2BF033CF2CF0E3EC33F00F01C9
:1014D0002E512624006E2F51272027D0DECF00F07A
:1014E000DDCF01F0900ED8800056010E01562E512E
:1014F000005C2F5101581CE2DECF02F0DDCF03F07B
:10150000900ED8800256010E035602C026F003C08A
:1015100027F032CF2BF033CF2CF0E3EC33F00F0178
:1015200026502E5D006E27502F59080E00C0DBFF9D
:10153000080EDB50006E016ADECF02F0DDCF03F053
:1015400001500318E8AE02D0033404D00250005C0E
:101550000350015801E396D089D0FD0EDBCF00F097
:10156000FE0EDBCF01F00001800E011401E18FD0EF
:10157000040EDB6A010EF36E060EF3CFDBFFF80EEE
:10158000266E2768FD0EDBCF2BF0FE0EDBCF2CF096
:101590006AEC29F024C0DEFF25C0DDFF0F01000E3C
:1015A000D8802E55000E2F556DE2DECF00F0DDCF36
:1015B00001F001341EE200509008010E015419E2BE
:1015C000DECF02F0DDCF03F0900E025E010E035A73
:1015D00002C026F003C027F032CF2BF033CF2CF01F
:1015E000E3EC33F00F012E512624006E2F512720FB
:1015F00027D0DECF00F0DDCF01F0900ED88000566E
:10160000010E01562E51005C2F5101581CE2DECF15
:1016100002F0DDCF03F0900ED8800256010E035683
:1016200002C026F003C027F032CF2BF033CF2CF0CE
:10163000E3EC33F00F0126502E5D006E27502F593A
:10164000080E00C0DBFF080EDB50006E016ADECF23
:1016500002F0DDCF03F001500318E8AE02D00334EE
:1016600004D00250005C035001580CE2080EDB501D
:10167000006E016AD9CFE9FFDACFEAFFE850EE5EEB
:101680000150ED5A640EDE26000EDD220FD001015E
:101690009F510CE0010EF36E040EF3CFDBFF010E41
:1016A000F36E060EF3CFDBFFDE6ADD6A090E30CF84
:1016B000DBFFFB0EDBCF00F0FC0EDBCF01F00134D3
:1016C00001E393D000500008000E015401E38DD0D7
:1016D000010EF36E050EF3CFDBFF070EDB6A080E7B
:1016E000266E276AFB0EDBCF2BF0FC0EDBCF2CF037
:1016F0006AEC29F0020E24C0DBFF030E25C0DBFFDD
:101700000F01000ED8803055000E315501E310D185
:10171000020EDBCF00F0030EDBCF01F0013420E23C
:1017200000509008010E01541BE2020EDBCF02F0C4
:10173000030EDBCF03F0900E025E010E035A02C0CF
:1017400026F003C027F032CF2BF033CF2CF0E3ECA0
:1017500033F00F0130512624006E315127202BD059
:10176000020EDBCF00F0030EDBCF01F0900ED8802D
:101770000056010E01563051005C315101581EE2F5
:10178000020EDBCF02F0030EDBCF03F0900ED88009
:101790000256010E035602C026F003C027F032CFD6
:1017A0002BF033CF2CF0E3EC33F00F012650305DFB
:1017B000006E27503159090E00C0DBFF090EDB50C7
:1017C000006E016A020EDBCF02F0030EDBCF03F0E6
:1017D00001500318E8AE02D0033404D00250005C7C
:1017E0000350015801E3A4D096D0FB0EDBCF00F0EC
:1017F000FC0EDBCF01F00001800E011401E1A2D04C
:10180000050EDB6A010EF36E070EF3CFDBFFF80E59
:10181000266E2768FB0EDBCF2BF0FC0EDBCF2CF007
:101820006AEC29F0020E24C0DBFF030E25C0DBFFAB
:101830000F01000ED8803055000E315501E378D0ED
:10184000020EDBCF00F0030EDBCF01F0013420E20B
:1018500000509008010E01541BE2020EDBCF02F093
:10186000030EDBCF03F0900E025E010E035A02C09E
:1018700026F003C027F032CF2BF033CF2CF0E3EC6F
:1018800033F00F0130512624006E315127202BD028
:10189000020EDBCF00F0030EDBCF01F0900ED880FC
:1018A0000056010E01563051005C315101581EE2C4
:1018B000020EDBCF02F0030EDBCF03F0900ED880D8
:1018C0000256010E035602C026F003C027F032CFA5
:1018D0002BF033CF2CF0E3EC33F00F012650305DCA
:1018E000006E27503159090E00C0DBFF090EDB5096
:1018F000006E016A020EDBCF02F0030EDBCF03F0B5
:1019000001500318E8AE02D0033404D00250005C4A
:10191000035001580DE2090EDB50006E016AD950E8
:10192000020FE96EDACFEAFF0050EE5E0150ED5A89
:10193000D950020FE96EDACFEAFF640EEE26000EF0
:10194000ED2211D001019F510EE0010EF36E050E44
:10195000F3CFDBFF010EF36E070EF3CFDBFF020EBA
:10196000DB6A030EDB6A0101010E9F6FFD0EDBCF08
:1019700023F1FE0EDBCF24F1FB0EDBCF25F1FC0EB5
:10198000DBCF26F1A1A2FED7A192020EDBCFE6FFAC
:10199000030EDBCFE6FFDECFE6FFDDCFE6FF80DC28
:1019A000E552E552E552E552040EDB50E8B08B8A71
:1019B000E8A08B9A060EDB50E8B08B80E8A08B90F5
:1019C000050EDB50E8B08A8CE8A08A9C070EDB503D
:1019D000E8B08A8AE8A08A9A0A0EE15C02E2E16A2B
:1019E000E552E16EE552E7CFD9FF1200D9CFE6FF0D
:1019F000E1CFD9FFFE0EDB50090A5AE0010A50E0A0
:101A00000F0A46E0010A3CE0030A32E0010A28E03E
:101A1000070A1EE0010A14E0030A0AE0010A4EE187
:101A2000FD0EDB50E8B08980E8B048D0899046D000
:101A3000FD0EDB50E8B08982E8B040D089923ED0FC
:101A4000FD0EDB50E8B08984E8B038D0899436D0F8
:101A5000FD0EDB50E8B08986E8B030D089962ED0F4
:101A6000FD0EDB50E8B0898AE8B028D0899A26D0EC
:101A7000FD0EDB50E8B08A84E8B020D08A941ED0F6
:101A8000FD0EDB50E8B08A86E8B018D08A9616D0F2
:101A9000FD0EDB50E8B08A82E8B010D08A920ED0FA
:101AA000FD0EDB50E8B08A88E8B008D08A9806D0EE
:101AB000FD0EDB50E8B08A80E8A08A90E552E7CFBF
:101AC000D9FF1200D9CFE6FFE1CFD9FFE652DF6A96
:101AD000FE0EDB50090A35E0010A2EE00F0A28E06D
:101AE000010A22E0030A1CE0010A16E0070A10E0DE
:101AF000010A0AE0030A04E0010A26E1895022D023
:101B00008950020B20E01BD08950040B1CE017D039
:101B10008950080B18E013D08950200B14E00FD027
:101B20008A50040B10E00BD08A50080B0CE007D051
:101B30008A50020B08E003D08A50100B04E0010E1B
:101B400002D08A50010BDF6EDF50E552E552E7CF3D
:101B5000D9FF1200D9CFE6FFE1CFD9FFFE0EDB504F
:101B6000030A1EE0010A14E0030A0AE0010A1EE16A
:101B7000FD0EDB50E8B0898EE8B018D0899E16D0F3
:101B8000FD0EDB50E8B0898CE8B010D0899C0ED0F7
:101B9000FD0EDB50E8B08A80E8B008D08A9006D00D
:101BA000FD0EDB50E8B08A88E8A08A98E552E7CFBE
:101BB000D9FF1200D9CFE6FFE1CFD9FFE652DF6AA5
:101BC000FE0EDB50030A13E0010A0DE0030A06E0F3
:101BD000010A12E18950800B08E003D08950400BC4
:101BE00004E0010E02D08A50010BDF6E05D08A504E
:101BF000100B01E0010EDF6EDF50E552E552E7CF3A
:101C0000D9FF1200D9CFE6FFE1CFD9FFF29AFE0E3D
:101C1000DB50040DF3CFE9FFF4CFEAFF8F0EE92686
:101C2000010EEA22EE6AEE6AEE6AEE6AF28AE55286
:101C3000E7CFD9FF1200D9CFE6FFE1CFD9FF040EDD
:101C4000E126F29AFE0EDB50040DF3CFE9FFF4CF4C
:101C5000EAFF8F0EE926010EEA22EECFDFFF010E2A
:101C6000EECFDBFF020EEECFDBFF030EEECFDBFF8E
:101C7000F28ADECF24F0DECF25F0DECF26F0DDCFF6
:101C800027F0DD52DD52040EE15C02E2E16AE5522A
:101C9000E16EE552E7CFD9FF1200B36AB26AB180B4
:101CA0001200D9CFE6FFE1CFD9FF020EE126B250F4
:101CB000DF6E010EB3CFDBFFDECF00F0DDCF01F032
:101CC00000C0F3FF01C0F4FF020EE15C02E2E16A32
:101CD000E552E16EE552E7CFD9FF1200E66AE66A07
:101CE00039DFE552E552E66A010EE66E33DFE55272
:101CF000E552E66A020EE66E2DDFE552E552E66A2F
:101D0000030EE66E27DFE552E552050E01010D6F69
:101D10000E6B0101050E0D195EE10E515CE1320EF4
:101D2000D8800F55010E105503E2010EE66E01D06A
:101D3000E66AE66A0FDFE552E5520101320ED8800D
:101D40001155010E125503E2010EE66E02D0E66A4D
:101D5000010EE66EFFDEE552E5520101FF0ED8806E
:101D60001355010E145503E2010EE66E01D0E66A2A
:101D7000020EE66EEFDEE552E5520101FF0ED8805D
:101D80001555010E165503E2010EE66E01D0E66A06
:101D9000030EE66EDFDEE552E5520101FF0ED8804C
:101DA0001755010E18550AE2010EE66E020EE66E98
:101DB000D1DEE552E552010EE66E07D0E66A020E6C
:101DC000E66EC8DEE552E552E66A030EE66EC2DE56
:101DD000E552E5529ED71200E66AE66ABBDEE5529E
:101DE000E552E66A010EE66EB5DEE552E552E66AB8
:101DF000020EE66EAFDEE552E552E66A030EE66ECF
:101E0000A9DEE552E552010EE66EE66AA3DEE55272
:101E1000E552320EE66EE66AE66EE66AE6EC09F038
:101E2000E552E552E552E552E80EE66E030EE66E27
:101E3000BCEC09F0E552E552E66AE66A8BDEE55253
:101E4000E552000EE66EE66AE66EE66AE6EC09F03A
:101E5000E552E552E552E552C80EE66EE66ABCEC84
:101E600009F0E552E552010EE66EE66E73DEE552CC
:101E7000E552CE0EE66EE668E66EE668E6EC09F040
:101E8000E552E552E552E552E80EE66E030EE66EC7
:101E9000BCEC09F0E552E552E66A010EE66E5ADE48
:101EA000E552E552000EE66EE66AE66EE66AE6EC9C
:101EB00009F0E552E552E552E552C80EE66EE66AD3
:101EC000BCEC09F0E552E552010EE66E020EE66E3C
:101ED00041DEE552E552320EE66EE66ACE0EE66E61
:101EE000E668E6EC09F0E552E552E552E552E80E07
:101EF000E66E030EE66EBCEC09F0E552E552E66ACA
:101F0000020EE66E27DEE552E552000EE66EE66A48
:101F1000E66EE66AE6EC09F0E552E552E552E55276
:101F2000C80EE66EE66ABCEC09F0E552E552010E19
:101F3000E66E030EE66E0EDEE552E552CE0EE66E5E
:101F4000E668320EE66EE66AE6EC09F0E552E55226
:101F5000E552E552E80EE66E030EE66EBCEC09F0C3
:101F6000E552E552E66A030EE66EF4DDE552E5520F
:101F7000000EE66EE66AE66EE66AE6EC09F0E55209
:101F8000E552E552E552320EE66EE66A000EE66E66
:101F9000E66AE6EC09F0E552E552E552E552E80E54
:101FA000E66E030EE66EBCEC09F0E552E552000E5B
:101FB000E66EE66A320EE66EE66AE6EC09F0E55297
:101FC000E552E552E552E80EE66E030EE66EBCEC15
:101FD00009F0E552E552000EE66EE66AE66EE66A44
:101FE000E6EC09F0E552E552E552E5521200DFEC6D
:101FF0001BF0000902E0E5EC1BF00101080E0D19D1
:1020000001E080D00E5101E07DD0010EE66EE66A5F
:10201000A1DDE552E552320EE66EE66AE66EE66A4C
:10202000E6EC09F0E552E552E552E552D00EE66ED7
:10203000070EE66EBCEC09F0E552E552640EE66E62
:10204000E66AE66EE66AE6EC09F0E552E552E5522C
:10205000E552E80EE66E030EE66EBCEC09F0E552C2
:10206000E552010EE66E030EE66E74DDE552E552B2
:10207000000EE66EE66AE66EE66AE6EC09F0E55208
:10208000E552E552E552F40EE66E010EE66EBCEC4A
:1020900009F0E552E552CE0EE66EE668E66EE668B9
:1020A000E6EC09F0E552E552E552E552D00EE66E57
:1020B000070EE66EBCEC09F0E552E5529C0EE66EAA
:1020C000E668E66EE668E6EC09F0E552E552E552B0
:1020D000E552E80EE66E030EE66EBCEC09F0E55242
:1020E000E552E66A030EE66E35DDE552E552000E76
:1020F000E66EE66AE66EE66AE6EC09F0E552E5525F
:10210000E552E552070E01010D6F0E6B70D7D9CF66
:10211000E6FFE1CFD9FFFD0EDBCFCEF1FE0EDBCF28
:10212000CFF10101D06BD16B6F0ECE5F000ECF5B94
:10213000D05BD15B700E296E170E2A6E2B6A2C6A4B
:10214000CEC124F0CFC125F0D0C126F0D1C127F0F7
:10215000CEEC32F020C0CEF121C0CFF122C0D0F1C0
:1021600023C0D1F18A0E296E0C0E2A6E2B6A2C6ABE
:1021700020C024F021C025F022C026F023C027F083
:1021800036EC29F024C0CEF125C0CFF126C0D0F125
:1021900027C0D1F1640E0101CE5F000ECF5BD05B92
:1021A000D15BD880D151FF0A08E6F60ECE5DFF0E56
:1021B000CF59FF0ED059FF0ED1590BE20F01190E66
:1021C0002A6FFC0E2B6F2C692D6907C1D2F108C153
:1021D000D3F10101D251075D006E0851D355016E54
:1021E000E80E005C030E015801E2B0D007C1D2F145
:1021F00008C1D3F1190E0F012A1911E1FC0E2B1998
:102200000EE1E8682C190BE1E8682D1908E1CEC150
:102210002AFFCFC12BFFD0C12CFFD1C12DFF2A0E29
:10222000E96E0F0EEA6E030EEB500101D119E8AE14
:1022300002D0D13508D0CE51EE5CCF51EE58D051FE
:10224000EE58D151EE582DE22A0EE96E0F0EEA6ECD
:10225000EE50CE5D006EEE50CF59016EEE50D0596B
:10226000026EEE50D159036EE834000E031809E6F1
:10227000D880010E0054000E0154000E0254000ECE
:1022800003543DE22ACFCEF12BCFCFF12CCFD0F1AA
:102290002DCFD1F1020ECE27000ECF23D023D12394
:1022A0002ED0CE0EE96E010EEA6EEE500F012A5DC1
:1022B000006EEE502B59016EEE502C59026EEE500E
:1022C0002D59036EE834000E031809E6D880010E7C
:1022D0000054000E0154000E0254000E03540FE28D
:1022E0002ACFCEF12BCFCFF12CCFD0F12DCFD1F102
:1022F000020E0101CE5F000ECF5BD05BD15B01010E
:10230000CE510F012A270101CF510F012B230101CB
:10231000D0510F012C230101D1510F012D23020EA9
:10232000296E2A6A2B6A2C6A2ACF24F02BCF25F03B
:102330002CCF26F02DCF27F036EC29F024C02AFF31
:1023400025C02BFF26C02CFF27C02DFF2ACFF3FF6F
:0C2350002BCFF4FFE552E7CFD9FF1200BD
:04235C00D9CFE6FFF0
:10236000E1CFD9FFFD0EDBCF02F0FE0EDBCF03F095
:10237000FB0EDBCF04F0FC0EDBCF05F0035005189D
:10238000E8AE02D0053404D00450025C0550035876
:1023900005E3FD0EDBCF00F0FE0E04D0FB0EDBCF1D
:1023A00000F0FC0EDBCF01F000C0F3FF01C0F4FF32
:1023B000E552E7CFD9FF1200D9CFE6FFE1CFD9FF31
:1023C000FD0EDBCF02F0FE0EDBCF03F0FB0EDBCF0A
:1023D00004F0FC0EDBCF05F003500518E8AE02D088
:1023E000053404D00450025C0550035805E3FB0E8D
:1023F000DBCF00F0FC0E04D0FD0EDBCF00F0FE0EB4
:10240000DBCF01F000C0F3FF01C0F4FFE552E7CFDE
:10241000D9FF1200D9CFE6FFE1CFD9FFFD0EDBCF08
:1024200000F0FE0EDBCF01F0FB0EDBCF02F0FC0E66
:10243000DBCF03F003500118E8AE02D0013404D022
:102440000050025C0150035805E2FB0EDBCF00F0A8
:10245000FC0E20D0FD0EDBCF00F0FE0EDBCF01F036
:10246000F90EDBCF02F0FA0EDBCF03F001500318B8
:10247000E8AE02D0033404D00250005C035001588F
:1024800005E2F90EDBCF00F0FA0E04D0FD0EDBCF33
:1024900000F0FE0EDBCF01F000C0F3FF01C0F4FF3F
:1024A000E552E7CFD9FF1200BEC0C2F0BFC0C3F0F3
:1024B000C0C0C4F0C1C0C5F00FC1BEF010C1BFF0B4
:1024C00011C1C0F012C1C1F013C1C6F014C1C7F0F0
:1024D00015C1C8F016C1C9F00001BE0EC85F000EDC
:1024E000C95B17C1CAF018C1CBF019C1CCF01AC131
:1024F000CDF01BC1CEF01CC1CFF01DC1D0F01EC16C
:10250000D1F01200D9CFE6FFE1CFD9FFFD0EDBCF2E
:1025100010F0FE0EDBCF11F03C0E105E000E115AD3
:1025200010C026F011C027F0A6EC27F025C00CF053
:1025300026C00DF027C00EF028C00FF0D00E2A6E76
:102540000F0E2B6E490E2C6E400E2D6EA3EC28F054
:1025500025C008F026C009F027C00AF028C00BF0FB
:102560002A6A2B6A340E2C6E430E2D6E50EC28F026
:1025700025C004F026C005F027C006F028C007F0EB
:1025800025C0E6FF26C0E6FF27C0E6FF28C0E6FF1D
:1025900097EC33F0E552E552E552E55224C000F0E5
:1025A00025C001F026C002F027C003F0FB0EDBCFF0
:1025B00016F0FC0EDBCF17F0166C171E000E17225C
:1025C00016C026F017C027F0A6EC27F025C012F0A1
:1025D00026C013F027C014F028C015F025C02AF03B
:1025E00026C02BF027C02CF028C02DF000C025F00D
:1025F00001C026F002C027F003C028F0A3EC28F0A9
:10260000B5EC29F026C0EBF027C0ECF03C0EE76EED
:10261000FD0EDBCF10F0FE0EDBCF11F0E7501026E1
:10262000000E112210C026F011C027F0A6EC27F0F2
:1026300025C00CF026C00DF027C00EF028C00FF00A
:10264000D00E2A6E0F0E2B6E490E2C6E400E2D6E84
:10265000A3EC28F025C008F026C009F027C00AF036
:1026600028C00BF02A6A2B6A340E2C6E430E2D6E96
:1026700050EC28F025C004F026C005F027C006F075
:1026800028C007F025C0E6FF26C0E6FF27C0E6FF0A
:1026900028C0E6FF97EC33F0E552E552E552E552EB
:1026A00024C000F025C001F026C002F027C003F0CE
:1026B000FB0EDBCF26F0FC0EDBCF27F0A6EC27F0DD
:1026C00025C012F026C013F027C014F028C015F062
:1026D00025C02AF026C02BF027C02CF028C02DF0F2
:1026E00000C025F001C026F002C027F003C028F08A
:1026F000A3EC28F0B5EC29F026C0EDF027C0EEF0F1
:10270000FD0EDBCF10F0FE0EDBCF11F0870E105E5A
:10271000000E115A10C026F011C027F0A6EC27F0C9
:1027200025C00CF026C00DF027C00EF028C00FF019
:10273000D00E2A6E0F0E2B6E490E2C6E400E2D6E93
:10274000A3EC28F025C008F026C009F027C00AF045
:1027500028C00BF02A6A2B6A340E2C6E430E2D6EA5
:1027600050EC28F025C004F026C005F027C006F084
:1027700028C007F025C0E6FF26C0E6FF27C0E6FF19
:1027800028C0E6FF97EC33F0E552E552E552E552FA
:1027900024C000F025C001F026C002F027C003F0DD
:1027A000FB0EDBCF16F0FC0EDBCF17F0166C171EFE
:1027B000000E172216C026F017C027F0A6EC27F04F
:1027C00025C012F026C013F027C014F028C015F061
:1027D00025C02AF026C02BF027C02CF028C02DF0F1
:1027E00000C025F001C026F002C027F003C028F089
:1027F000A3EC28F0B5EC29F026C0EFF027C0F0F0EC
:10280000870EE76EFD0EDBCF10F0FE0EDBCF11F072
:10281000E7501026000E112210C026F011C027F03C
:10282000A6EC27F025C00CF026C00DF027C00EF056
:1028300028C00FF0D00E2A6E0F0E2B6E490E2C6E94
:10284000400E2D6EA3EC28F025C008F026C009F03C
:1028500027C00AF028C00BF02A6A2B6A340E2C6EAF
:10286000430E2D6E50EC28F025C004F026C005F074
:1028700027C006F028C007F025C0E6FF26C0E6FF07
:1028800027C0E6FF28C0E6FF97EC33F0E552E5529B
:10289000E552E55224C000F025C001F026C002F048
:1028A00027C003F0FB0EDBCF26F0FC0EDBCF27F0BA
:1028B000A6EC27F025C012F026C013F027C014F0B4
:1028C00028C015F025C02AF026C02BF027C02CF018
:1028D00028C02DF000C025F001C026F002C027F06E
:1028E00003C028F0A3EC28F0B5EC29F026C0F1F0E5
:1028F00027C0F2F026C0E6FF27C0E6FFEFC0E6FFE4
:10290000F0C0E6FFEDC0E6FFEEC0E6FFEBC0E6FF7D
:10291000ECC0E6FF08D8006E080EE15E0050E552FC
:10292000E7CFD9FF1200D9CFE6FFE1CFD9FF080EDC
:10293000E126FD0EDB500001E225006EFE0EDB50AD
:10294000E3210001016E00C0DEFFDD6ED80EE66EF1
:10295000E668280EE66EE66ADECFE6FFDDCFE6FF2C
:1029600059DD006E060EE15E0050F3CFDEFFF4CFBE
:10297000DDFFFB0EDBCF26F0FC0EDBCF27F00001E6
:10298000E251265C006EE3512758016E020E00C032
:10299000DBFF030E01C0DBFFD80EE66EE668280EF3
:1029A000E66EE66A020EDBCFE6FF030EDBCFE6FF44
:1029B00031DD006E060EE15E0050020EF3CFDBFF4C
:1029C000030EF4CFDBFFF90EDB500001E22500011E
:1029D000006EFA0EDB500001E3210001016E040ECF
:1029E00000C0DBFF050E01C0DBFFD80EE66EE66817
:1029F000280EE66EE66A040EDBCFE6FF050EDBCF9F
:102A0000E6FF08DD006E060EE15E0050040EF3CF17
:102A1000DBFF050EF4CFDBFFF70EDBCF26F0F80E61
:102A2000DBCF27F00001E251265C006EE35127580E
:102A3000016E060E00C0DBFF070E01C0DBFFD80EE3
:102A4000E66EE668280EE66EE66A060EDBCFE6FF67
:102A5000070EDBCFE6FFDEDC006E060EE15E005007
:102A6000060EF3CFDBFF070EF4CFDBFFDECF02F065
:102A7000DDCF03F00001800E03140DE0DECF00F087
:102A8000DDCF01F0000E006C011E0122800E00124D
:102A9000000E011204D0DECF00F0DDCF01F000C047
:102AA000B8F0020EDBCF02F0030EDBCF03F0800E96
:102AB00003140FE0020EDBCF00F0030EDBCF01F0BA
:102AC000006C011E000E0122800E0012000E011289
:102AD00006D0020EDBCF00F0030EDBCF01F000C00A
:102AE000B9F0040EDBCF02F0050EDBCF03F0800E51
:102AF00003140FE0040EDBCF00F0050EDBCF01F076
:102B0000006C011E000E0122800E0012000E011248
:102B100006D0040EDBCF00F0050EDBCF01F000C0C5
:102B2000BAF0060EDBCF02F0070EDBCF03F0800E0B
:102B300003140FE0060EDBCF00F0070EDBCF01F031
:102B4000006C011E000E0122800E0012000E011208
:102B500006D0060EDBCF00F0070EDBCF01F000C081
:102B6000BBF019EC31F0080EE15C02E2E16AE552DB
:102B7000E16EE552E7CFD9FF1200CEC0E4F0CFC03E
:102B8000E5F00001E53509E2E4519008010EE55554
:102B900004E2200EE45F030EE55BD890E437E537EE
:102BA000CEC0D8F0CFC0D9F0D86DD91F000ED92330
:102BB000DA51D85DE86FDB51D959E96FD8C0DAF046
:102BC000D9C0DBF0E4C026F0E5C027F0A6EC27F082
:102BD00025C000F026C001F027C002F028C003F095
:102BE000EC0E2A6E510E2B6EB80E2C6E3D0E2D6E15
:102BF000A3EC28F0B5EC29F026C0D2F027C0D3F022
:102C00000001D46BD56BE8C0D6F0E9C0D7F02650F0
:102C1000D425006E2750D521016E0050D625E26FD5
:102C20000150D721E36FE70EE66EE668190EE66EF7
:102C3000E66AE2C0E6FFE3C0E6FF0AEC12F0060E29
:102C4000E15EF3CFE2F0F4CFE3F01200C8C026F06B
:102C5000C9C027F0A6EC27F025C000F026C001F07F
:102C600027C002F028C003F0660E2A6E2B6EA60E57
:102C70002C6E3F0E2D6EA3EC28F0B5EC29F026C08B
:102C8000E4F027C0E5F00001273409E2E4519008A0
:102C9000010EE55504E2200EE45F030EE55BE4C09F
:102CA000DCF0E5C0DDF0DC6DDD1F000EDD23DE5164
:102CB000DC5DE86FDF51DD59E96FDCC0DEF0DDC0BF
:102CC000DFF0E4C026F0E5C027F0A6EC27F025C031
:102CD00004F026C005F027C006F028C007F09A0EC1
:102CE0002A6E990E2B6E190E2C6E3E0E2D6EA3ECD5
:102CF00028F025C000F026C001F027C002F028C04F
:102D000003F0E8C026F0E9C027F0A6EC27F025C0C4
:102D100008F026C009F027C00AF028C00BF025C033
:102D20002AF026C02BF027C02CF028C02DF000C0C0
:102D300025F001C026F002C027F003C028F0BAEC4D
:102D400027F0B5EC29F026C0E2F027C0E3F0EC0E46
:102D5000E66EE668140EE66EE66A26C0E6FF27C059
:102D6000E6FF0AEC12F0006E060EE15E0050F3CFB3
:102D7000E2F0F4CFE3F00001E26DE31F000EE32385
:102D800012000001D890C15104E63A0EC05D020E57
:102D9000C15902E3280E0BD0D890C15104E6C20EEF
:102DA000C05D010EC15902E3230E01D0190EF36E6E
:102DB000F46A1200D9CFE6FFE1CFD9FF0E0EE1266B
:102DC00054EC12F0DADE0001CD3504E2CC513208C9
:102DD000000ECD5509E3EA5107E1E66A02EC0EF078
:102DE000E5520001010EEA6FE66A1BEC0EF0E552B7
:102DF000D8802C0E2454010E2554000E2654000EAB
:102E0000275466E3C6C010F0C7C011F0B90E105EBB
:102E1000000E115A10C026F011C027F0A6EC27F0C2
:102E200025C00CF026C00DF027C00EF028C00FF012
:102E30002A6A2B6A2F0E2C6E440E2D6E50EC28F051
:102E400025C008F026C009F027C00AF028C00BF002
:102E50002A6A2B6AB40E2C6E430E2D6EA3EC28F05A
:102E600025C004F026C005F027C006F028C007F0F2
:102E70002A6A2B6A340E2C6E420E2D6E50EC28F00E
:102E800025C000F026C001F027C002F028C003F0E2
:102E90002A6A2B6A340E2C6E420E2D6EA3EC28F09B
:102EA000B5EC29F026C0DEFF27C0DDFF1E0EF36E55
:102EB000020EF3CFDBFF030EDB6A020EDBCFE6FF71
:102EC000030EDBCFE6FFDECFE6FFDDCFE6FFDAD392
:102ED0000001EA6BD890C15104E6EA0EC05D010E14
:102EE000C15901E229D3BF3504E2BE512008030EC7
:102EF000BF5501E2C2D3BF350DE2BE513208000E0C
:102F0000BF5508E2D890BF5104E6DA0EBE5D020E4E
:102F1000BF5914E3D890CB5104E6200ECA5D030ECE
:102F2000CB5902E31E0E01D0280E006E016A00BECE
:102F3000016800C0E6FF01C0E6FF81D3BF3504E2AF
:102F4000BE514008010EBF5501E270D1CB3504E2FD
:102F5000CA513A08020ECB5501E2BCD05A0EE66EB9
:102F6000E66AE66EE66ABEC026F0BFC027F0A6ECB1
:102F700027F025C010F026C011F027C012F028C09D
:102F800013F02A6A2B6A390E2C6E440E2D6E50EC0B
:102F900028F025C00CF026C00DF027C00EF028C088
:102FA0000FF02A6A2B6AB40E2C6E430E2D6EA3EC22
:102FB00028F025C008F026C009F027C00AF028C074
:102FC0000BF0BEC026F0BFC027F0A6EC27F025C04E
:102FD00018F026C019F027C01AF028C01BF02A6A82
:102FE0002B6AF00E2C6E400E2D6E50EC28F025C092
:102FF00014F026C015F027C016F028C017F025C021
:103000002AF026C02BF027C02CF028C02DF008C0D5
:1030100025F009C026F00AC027F00BC028F0BAEC52
:1030200027F025C004F026C005F027C006F028C010
:1030300007F02A6A2B6A400E2C6E2D6EBAEC27F030
:10304000B5EC29F026C002F027C003F026C0E6FF49
:1030500027C0E6FFAEEC11F0E552E552E552E5522D
:10306000F3CF00F0F4CF01F0F3CFE6FFF4CFE6FFAB
:10307000DCEC11F0E552E552E552E552040EF3CFD7
:10308000DBFF050EF4CFDBFF0001D890BF5104E653
:10309000800EBE5D020EBF5908E3D890C15104E610
:1030A000FE0EC05D010EC15902E2000E01D0010EFC
:1030B000000902E0280E01D02D0E006E016A00BE4C
:1030C000016800C0E6FF01C0E6FF040EDBCFE6FFAB
:1030D000050EA8D23C0EE66EE66ABEC026F0BFC062
:1030E00027F0A6EC27F025C00EF026C00FF027C071
:1030F00010F028C011F02A6A2B6A390E2C6E440E8B
:103100002D6E50EC28F025C00AF026C00BF027C029
:103110000CF028C00DF02A6A2B6AB40E2C6E430EF8
:103120002D6EA3EC28F025C006F026C007F027C0BE
:1031300008F028C009F0BEC026F0BFC027F0A6ECFA
:1031400027F025C016F026C017F027C018F028C0B9
:1031500019F02A6A2B6AF00E2C6E400E2D6E50EC80
:1031600028F025C012F026C013F027C014F028C0A4
:1031700015F025C02AF026C02BF027C02CF028C05F
:103180002DF006C025F007C026F008C027F009C0C2
:1031900028F0BAEC27F025C002F026C003F027C0C3
:1031A00004F028C005F02A6A2B6A400E2C6E2D6EA2
:1031B000BAEC27F0B5EC29F026C000F027C001F0EA
:1031C00026C0E6FF27C0E6FFAEEC11F0E552E5525F
:1031D000E552E552060EF3CFDBFF070EF4CFDBFF1F
:1031E0000001D890BF5104E6800EBE5D020EBF59AB
:1031F00008E3D890C15104E6FE0EC05D010EC1592E
:1032000002E2000E01D0010E000902E0210E01D001
:10321000280E006E016A00BE016800C0E6FF01C012
:10322000E6FF060EDBCFE6FF070EFCD1CB3504E24E
:10323000CA513A08020ECB5501E2C8D00E0EE66E16
:10324000010EE66E0E0EE66E010EE66EBEC026F0B4
:10325000BFC027F0A6EC27F025C010F026C011F063
:1032600027C012F028C013F02A6A2B6A390E2C6E80
:10327000440E2D6E50EC28F025C00CF026C00DF049
:1032800027C00EF028C00FF02A6A2B6AB40E2C6EED
:10329000430E2D6EA3EC28F025C008F026C009F0DF
:1032A00027C00AF028C00BF0BEC01CF0BFC01DF044
:1032B000BC0ED8801C56020E1D561CC026F01DC028
:1032C00027F0A6EC27F025C018F026C019F027C07B
:1032D0001AF028C01BF02A6A2B6AF00E2C6E400EE2
:1032E0002D6E50EC28F025C014F026C015F027C034
:1032F00016F028C017F025C02AF026C02BF027C0F2
:103300002CF028C02DF008C025F009C026F00AC016
:1033100027F00BC028F0B9EC27F025C004F026C038
:1033200005F027C006F028C007F02A6A2B6A400E75
:103330002C6E2D6EB9EC27F0B5EC29F026C002F00A
:1033400027C003F026C0E6FF27C0E6FFDCEC11F043
:10335000E552E552E552E552F3CF00F0F4CF01F02B
:10336000F3CFE6FFF4CFE6FFAEEC11F0E552E55205
:10337000E552E552080EF3CFDBFF090EF4CFDBFF79
:103380000001D890BF5104E6800EBE5D020EBF5909
:1033900008E3D890C15104E6FE0EC05D010EC1598C
:1033A00002E2000E01D0010E000902E0280E01D059
:1033B0002D0E006E016A00BE016800C0E6FF01C06C
:1033C000E6FF080EDBCFE6FF090E2CD10E0EE66EEF
:1033D000010EE66EBEC026F0BFC027F0A6EC27F0B7
:1033E00025C00EF026C00FF027C010F028C011F045
:1033F0002A6A2B6A390E2C6E440E2D6E50EC28F082
:1034000025C00AF026C00BF027C00CF028C00DF034
:103410002A6A2B6AB40E2C6E430E2D6EA3EC28F094
:1034200025C006F026C007F027C008F028C009F024
:10343000BEC01AF0BFC01BF0BC0ED8801A56020ED8
:103440001B561AC026F01BC027F0A6EC27F025C09B
:1034500016F026C017F027C018F028C019F02A6A05
:103460002B6AF00E2C6E400E2D6E50EC28F025C00D
:1034700012F026C013F027C014F028C015F025C0A4
:103480002AF026C02BF027C02CF028C02DF006C053
:1034900025F007C026F008C027F009C028F0B9ECD5
:1034A00027F025C002F026C003F027C004F028C092
:1034B00005F02A6A2B6A400E2C6E2D6EB9EC27F0AF
:1034C000B5EC29F026C000F027C001F026C0E6FFC9
:1034D00027C0E6FFDCEC11F0E552E552E552E5527B
:1034E0000A0EF3CFDBFF0B0EF4CFDBFF0001D89009
:1034F000BF5104E6800EBE5D020EBF5908E3D890AE
:10350000C15104E6FE0EC05D010EC15902E2000E7B
:1035100001D0010E000902E0210E01D0280E006E3C
:10352000016A00BE016800C0E6FF01C0E6FF0A0EA6
:10353000DBCFE6FF0B0E76D0D890CB5104E6620EBF
:10354000CA5D020ECB5971E3D890CB5104E6200E30
:10355000CA5D030ECB5905E3280EE66EE66AB40E8B
:103560008FD0D890C95104E6680EC85D010EC959C4
:1035700007E2C93504E2C851E608000EC95502E366
:103580002D0E5BD0C8C026F0C9C027F0A6EC27F0EE
:1035900025C004F026C005F027C006F028C007F0BB
:1035A0002A6A800E2B6E130E2C6E440E2D6E50EC7C
:1035B00028F025C000F026C001F027C002F028C086
:1035C00003F02A6A2B6AB40E2C6E430E2D6EA3EC08
:1035D00028F0B5EC29F00C0E26C0DBFF0D0E27C03D
:1035E000DBFFCAC000F0CBC001F0580E005E020E37
:1035F000015A0A0E2B6E2C6A00C026F001C027F07B
:1036000010EC29F026C000F027C001F0140E0026AF
:10361000000E012200C0E6FF01C0E6FF0C0EDBCF6A
:10362000E6FF0D0EDBCFE6FF2DD0CB3504E2CA510D
:103630001208020ECB5505E3140EE66EE66A000E84
:103640001FD0C93504E2C8511808010EC95505E359
:103650002D0EE66EE66A5A0E13D0D890C95104E6D4
:10366000360EC85D010EC95908E32D0EE66EE66AF6
:103670000E0EE66E010EE66E05D0000EE66EE66AF0
:10368000E66EE66A82EC12F0E552E552E552E5524A
:04369000E0EF16F061
:0C3694009D9A9E9A040EAC6E800EAB6EE8
:1036A000B886B06A440EAF6E240EAC6E900EAB6E50
:1036B0000101F76B200EF75D09E2F751EA6AD40FBA
:1036C000E96E010EEA22EF6AF72BF4D7F86BF8C126
:1036D000F7F1FA6B9F9A9E9A9D8A1200D9CFE6FF66
:1036E000E1CFD9FFACA2FED7FE0EDB50AD6EE552A6
:1036F000E7CFD9FF1200D9CFE6FFE1CFD9FFFD0E0A
:10370000DBCFE9FFFE0EDBCFEAFFEF500EE0FD0E50
:10371000DBCFE9FFDB2AFE0EDBCFEAFF01E3DB2A8A
:10372000EF50E66EDBDFE552EAD7E552E7CFD9FF8F
:103730001200D9CFE6FFE1CFD9FFFC0EDBCFF6FFB9
:10374000FD0EDBCFF7FFFE0EDBCFF8FF0800F550D4
:1037500016E0D950FC0FE96EFF0EDA20EA6EEFCFCB
:10376000F6FFEE2AEFCFF7FF000EEE22EFCFF8FFC5
:10377000EE220800F550E66EB1DFE552DED7E552E5
:10378000E7CFD9FF1200D9CFE6FFE1CFD9FFE6524C
:103790000101F851EA6AD40FE96E010EEA22EFCF77
:1037A000DFFF200E006EF82BF851D880005401E3A3
:1037B000F86BDF50E552E552E7CFD9FF1200010167
:1037C000F751F85D01E1000C010CD9CFE6FFE1CF24
:1037D000D9FF1A0EE126190EDB6A0101F56BF66BB3
:1037E0000101640ED880F555000EF6552DE3E7DF94
:1037F0000009F6E0C8DFE76E180EE7CFDBFFDBCF8E
:1038000000F0200EE76E0018E8AE02D0E73402D0D8
:10381000E750005C19E3170E006E190EDB50005CD8
:1038200013E3D9CF00F0DACF01F0190EDBCFF3FFAD
:10383000DB2AF3500F01D924E96E000EDA20EA6E7C
:10384000180EDBCFEFFFC9D7D9CF00F0DACF01F0E8
:10385000190EDB500F01D924E96E000EDA20EA6E52
:10386000EF6A190EDB5009E0E66AD9CFE6FFDACF3E
:10387000E6FF0DD8E552E552E5521A0EE15C02E290
:10388000E16AE552E16EE552E7CFD9FF1200D9CFE8
:10389000E6FFE1CFD9FF060EE126FD0EDBCFE9FF03
:1038A000FE0EDBCFEAFFEF50520A01E165D1040AB8
:1038B00001E160D1140A01E14ED10F0A01E1FCD00F
:1038C000020A01E1CAD0030A01E198D0050A52E0D8
:1038D0003A0A4FE0200A01E051D1640E0101CC6F99
:1038E000CD6B010EE76EFD0EDBCFE9FFFE0EDBCFE9
:1038F000EAFFE750E926000EEA22EF50310A1CE009
:10390000010A01E031D0030EE76EFD0EDBCFE9FFC7
:10391000FE0EDBCFEAFFE750E926000EEA22EF5069
:10392000310805E13DD90101AA81899E04D0010138
:10393000AA910101AB6B18D0030EE76EFD0EDBCF31
:10394000E9FFFE0EDBCFEAFFE750E926000EEA2290
:10395000EF50310802E1010E01D0000E0101E8B084
:10396000AA83E8A0AA9300D0010E01010D6F0E6B8F
:103970000DD10CD1010EE76EFD0EDBCFE9FFFE0E7F
:10398000DBCFEAFFE750E926000EEA22EF504408B9
:1039900022E1030EE76EFD0EDBCFE9FFFE0EDBCF6B
:1039A000EAFFE750E926000EEA22EFCF00F0300EE2
:1039B000005C11E3390E016E030EE76EFD0EDBCFE6
:1039C000E9FFFE0EDBCFEAFFE750E926000EEA2210
:1039D000EF50015C01E2DAD0030EE76EFD0EDBCFA3
:1039E000E9FFFE0EDBCFEAFFE750E926000EEA22F0
:1039F000EF50D00F0101AB6FD3D8C8D0010EE76EE6
:103A0000FD0EDBCFE9FFFE0EDBCFEAFFE750E92634
:103A1000000EEA22EF50D00FDF6E030EE76EFD0EB0
:103A2000DBCFE9FFFE0EDBCFEAFFE750E926000E11
:103A3000EA22EF50D00FE76E010EE7CFDBFF010166
:103A4000AB510AE1010EDBCFE6FFDFCFE6FFAAECC8
:103A50000DF0E552E55200D099D0010EE76EFD0E53
:103A6000DBCFE9FFFE0EDBCFEAFFE750E926000ED1
:103A7000EA22EF50D00FDF6E030EE76EFD0EDBCFB4
:103A8000E9FFFE0EDBCFEAFFE750E926000EEA224F
:103A9000EF50D00FE76E010EE7CFDBFF0101AB5116
:103AA0000AE1010EDBCFE6FFDFCFE6FFF6EC0CF01C
:103AB000E552E55200D06AD0030EE66E020EE76EC4
:103AC000FD0EDBCF00F0FE0EDBCF01F0E75000264D
:103AD000000E012200C0E6FF01C0E6FF5EDAE552FB
:103AE000E552E552020EF3CFDBFF030EF4CFDBFF0E
:103AF000030EE66E060EE76EFD0EDBCF00F0FE0E47
:103B0000DBCF01F0E7500026000E012200C0E6FFE7
:103B100001C0E6FF42DAE552E552E552040EF3CF6A
:103B2000DBFF050EF4CFDBFF0101AB5113E1040E07
:103B3000DBCFE6FF050EDBCFE6FF020EDBCFE6FFB5
:103B4000030EDBCFE6FFE6EC09F0E552E552E55265
:103B5000E55200D01BD0070E01010D6F0E6BFD0E5C
:103B6000DBCFE6FFFE0EDBCFE6FF30EC2FF0E552B9
:103B7000E5520CD05DD80AD0FF0008D0FC0EDB5017
:103B800004E1150EE66EAADDE55200D0060EE15CFA
:103B900002E2E16AE552E16EE552E7CFD9FF120099
:103BA000D9CFE6FFE1CFD9FFE652150E006E670EC2
:103BB000016E026A00C0E6FFE66E02C0E6FFB9DDF4
:103BC000E552E552E5520101AB5111E1DF6A0A0EFF
:103BD000DF5C0DE2DF50EA6AA00FE96E010EEA2217
:103BE000EF50300FE66E7ADDE552DF2AF0D70C0E8B
:103BF000006E670E016E026A00C0E6FFE66E02C04C
:103C0000E6FF97DDE552E552E552090E006E670EBC
:103C1000016E026A00C0E6FFE66E02C0E6FF89DDC3
:103C2000E552E552E552E552E552E7CFD9FF1200E1
:103C3000D9CFE6FFE1CFD9FF200EE12661EC2EF0CF
:103C4000040E006E670E016E026A00C0E6FFE66EAB
:103C500002C0E6FF6EDDE552E552E552200EE66E4B
:103C60003DDDE552FB0E006E660E016E026A00C07D
:103C7000E6FFE66E02C0E6FF5CDDE552E552E55286
:103C800032CFE6FF33CFE6FF30CFE6FF31CFE6FF9E
:103C90002ECFE6FF2FCFE6FFE60E006E660E016E1A
:103CA000026A00C0E6FFE66E02C0E6FFD9CFE6FF7B
:103CB000DACFE6FFE7EC31F0036E0B0EE15E035066
:103CC000D9CFE6FFDACFE6FF16DDE552E552200E4A
:103CD000E15C02E2E16AE552E16EE552E7CFD9FF2D
:103CE0001200D9CFE6FFE1CFD9FF160EE126010180
:103CF000AB5101E07DD0020EDB6A0A0EF36E020EBC
:103D0000DBCFF4FFF350F45C62E2020EDB50EA6AB0
:103D1000A00FE96E010EEA22EF500AE0020EDB501E
:103D2000EA6AA00FE96E010EEA22EF5002080FE1E5
:103D3000020EDBCFE6FF62EC0DF0E552000903E175
:103D4000006A016A33D00068030E016E2FD0020EA4
:103D5000DB50EA6AA00FE96E010EEA22EF50060876
:103D600017E1020EEA6ADB34FE0BEA36E96E0F0E4B
:103D7000E926010EEA22EECFE6FFEFCFE6FF87EC61
:103D800010F0E552E552F3CF00F0F4CF01F00ED081
:103D9000020EEA6ADB34FE0BEA36E96E0F0EE92604
:103DA000010EEA22EECF00F0EFCF01F0020EEA6A38
:103DB000DB34FE0BEA36E96EAC0EE926010EEA2290
:103DC00000C0EEFF01C0EDFF020EDB2A96D7E66AC7
:103DD000DAEC0DF0E552E76E140EE7CFDBFF010ED3
:103DE000E66EDAEC0DF0E552E76E150EE7CFDBFF7D
:103DF000020EDB6A0A0EF36E020EDBCFF4FFF35005
:103E0000F45C34E2020EEA6ADB34FE0BEA36E96E59
:103E1000AC0EE926010EEA22EECFE6FFEFCFE6FF79
:103E2000020EDB28E66EE66ADB0E006E660E016EA1
:103E3000026A00C0E6FFE66E02C0E6FFD950030F3B
:103E4000E66E000EDA20E66EE7EC31F0036E090E46
:103E5000E15E0350D950030FE66E000EDA20E66EE5
:103E60004ADCE552E552020EDB2AC4D7020EDB6AB9
:103E7000D950030F006E020EDBCFF3FFDB2AF350A5
:103E80000F010024E96E000EDA20EA6E4C0EEF6E90
:103E9000D950030F006E020EDBCFF3FFDB2AF35085
:103EA0000024E96E000EDA20EA6E450EEF6ED9505E
:103EB000030F006E020EDBCFF3FFDB2AF35000246A
:103EC000E96E000EDA20EA6E440EEF6ED950030F51
:103ED000006E020EDBCFF3FFDB2AF3500024E96E05
:103EE000000EDA20EA6E3D0EEF6E140EDB50300F3E
:103EF000E66ED950030F006E020EDBCFF3FFDB2A14
:103F0000F3500024E96E000EDA20EA6EE552E75025
:103F1000EF6E150EDB50300FE66ED950030F006EBA
:103F2000020EDBCFF3FFDB2AF3500024E96E000E14
:103F3000DA20EA6EE552E750EF6ED950030F006EBB
:103F4000DACF01F0020EDB500024E96E000EDA2019
:103F5000EA6EEF6AD950030FE66E000EDA20E66EC5
:103F60007BEC1BF0E552E552090E006E670E016E08
:103F7000026A00C0E6FFE66E02C0E6FF99EC1BF0A5
:103F8000E552E552E552160EE15C02E2E16AE552C5
:103F9000E16EE552E7CFD9FF1200D9CFE6FFE1CFBE
:103FA000D9FF060EE126010EF36E040EF3CFDBFF00
:103FB000050EDB6A020EDB6A030EDB6ADF6AFC0EAB
:103FC000DB50DF5C43E2FD0EDBCFE9FFDB2AFE0EB8
:103FD000DBCFEAFF01E3DB2A010EEFCFDBFFDB5093
:103FE00035E0010EDB502D0805E1040EDB68050EFF
:103FF000DB682AD0300EF36E010EDBCFF4FFF350F6
:10400000F45C22E3390E006E010EDB50005C1CE311
:10401000D950020FE96EDACFEAFF0A0EEC02F3CFB5
:10402000EDFFEF02F3CFEEFFF450ED26010EDB5073
:10403000D00F006E016AD950020FE96EDACFEAFFA5
:104040000050EE260150ED22DF2AB9D7040EDBCF57
:1040500000F0050EDBCF01F0D950020FE96EDACF88
:10406000EAFF00C02BF001C02CF0EECF26F0EDCF20
:1040700027F097EC29F024C0EEFF25C0EDFF020EDB
:10408000DBCF00F0030EDBCF01F000C0F3FF01C077
:10409000F4FF060EE15C02E2E16AE552E16EE552F0
:1040A000E7CFD9FF1200D9CFE6FFE1CFD9FF060E47
:1040B000E126DE6ADE6ADE6ADD6ADD52DD52040E6A
:1040C000DB6AFC0EDB50F36E040EDBCFF4FFF35023
:1040D000F45C57E2FD0EDBCFE9FFDB2AFE0EDBCFFF
:1040E000EAFF01E3DB2A050EEFCFDBFF300EF36EB4
:1040F000050EDBCFF4FFF350F45C43E3390E006EA2
:10410000050EDB50005C3DE3300E006E050EDBCF8C
:10411000E7FF0050E75E050EE7CFDBFFD9CFE9FFF1
:10412000DACFEAFF0A0E296E2A6A2B6A2C6AEECFD2
:1041300024F0EECF25F0EECF26F0EFCF27F0CEEC37
:1041400032F023C0EDFF22C0EDFF21C0EDFF20C003
:10415000EFFF050EDBCF00F0016A026A036A00AED2
:1041600003D00168026803680050DE260150DE2299
:104170000250DE220350DD22DD52DD52040EDB2A26
:10418000A0D7DECF24F0DECF25F0DECF26F0DDCFC6
:1041900027F0DD52DD52060EE15C02E2E16AE552F3
:1041A000E16EE552E7CFD9FF1200D9CFE6FFE1CFAC
:1041B000D9FF040EE126DE6ADD6A020EDB6AFC0E20
:1041C000DB50F36E020EDBCFF4FFF350F45C4FE2F2
:1041D000FD0EDBCFE9FFDB2AFE0EDBCFEAFF01E3BA
:1041E000DB2A030EEFCFDBFF300E006E030EDB5039
:1041F000D880005408E3030EDB50390804E3030EB3
:10420000DB50D00F1ED0410E006E030EDB50D88065
:10421000005408E3030EDB50460804E3030EDB50B2
:10422000BF0F0ED0610E006E030EDB50D88000541D
:104230001EE3030EDB5066081AE3030EDB509F0FEC
:104240000A0FE76E030EE7CFDBFFD9CFE9FFDACF26
:10425000EAFF040ED890EE36ED36E806FBE1030ED9
:10426000DB50DE26000EDD22020EDB2AA8D7DECFD1
:1042700000F0DDCF01F000C0F3FF01C0F4FF040E39
:10428000E15C02E2E16AE552E16EE552E7CFD9FF77
:104290001200D9CFE6FFE1CFD9FF300EF36EFE0E4C
:1042A000DBCFF4FFF350F45C08E3390E006EFE0E32
:1042B000DB50005C02E3000E01D0010E000902E0B9
:1042C000000E01D0010EE552E7CFD9FF1200D9CF81
:1042D000E6FFE1CFD9FF300E006EFE0EDB50D88036
:1042E000005404E3FE0EDB50390816E2410E006E66
:1042F000FE0EDB50D880005404E3FE0EDB5046086F
:104300000BE2610E006EFE0EDB50D880005406E317
:10431000FE0EDB50660802E3010E01D0000EE552EE
:06432000E7CFD9FF1200F7
:0A432600CFEC26F0FB0EDBCFF3FF17
:10433000DB06F35000090AE01DEC27F0FA0E88ECCA
:1043400027F0F3E1011CF1E1010E01D0000EFEEFB8
:1043500026F0CFEC26F03B0EE12402E3E168E652C2
:10436000E16E010EDB6A020EDB6AF90EDBCFF6FFAF
:10437000FA0EDBCFF7FFFB0EDBCFF8FF0800F5509E
:10438000DF6EDF5002E122EF26F0250EDF5C02E057
:1043900015EF26F0030EDB6A040EDB6A050EDB6AFE
:1043A000060EDB6A070EDB6A37EC26F02D0EDF5CAB
:1043B0000CE02B0EDF5C09E0200EDF5C06E0230E34
:1043C000DF5C03E0300EDF5C1AE1DF50300A14E0FE
:1043D000130A0FE0030A0AE00B0A05E0060AE4E10B
:1043E000030EDB80E1D7030EDB82DED7030EDB8416
:1043F000DBD7030EDB86D8D7030EDB88D5D72A0E92
:10440000DF5C1BE133EC26F081EC26F010E0030EBC
:10441000DB8026682768130EDBCF2BF0140EDBCF72
:104420002CF06AEC29F0040E24C0DBFF03D0130E3D
:104430006AEC26F037EC26F00BD0090EDB6AD8ECDC
:1044400026F003E04CEC27F0FAD7090E6AEC26F0D0
:10445000030EDBB0DB982E0EDF5C1BE137EC26F0A1
:104460002A0EDF5C0BE133EC26F081EC26F003E151
:10447000130EBCEC26F037EC26F00BD0090EDB6AED
:10448000D8EC26F003E04CEC27F0FAD7090EBCEC90
:1044900026F0680EDF5C07E137EC26F0680EDF5C83
:1044A0001DE1030E18D0740EDF5C17E07A0EDF5C9E
:1044B00014E0480EDF5C06E0540EDF5C03E05A0EA9
:1044C000DF5C02E1020E07D06C0EDF5C03E06A0ED7
:1044D000DF5C04E1010E0FEC27F0C9DBDF506E0A50
:1044E00001E17FD31E0A01E192D1200A01E18FD1BF
:1044F0003F0A01E149D11A0A01E146D10D0A01E161
:1045000043D1200A01E140D13A0A01E13DD1200A1C
:1045100001E13AD1260A01E135D10D0A01E132D19A
:104520001A0A01E1D9D0200A4AE0300A1FE0460AFF
:104530000EE0250A01E083D3D950F90FE96EFF0E92
:10454000DA20EA6E010EEE5E000EEE5AEE5A1DEC17
:1045500027F0250EE66E95DB03E1011C01E169D32E
:1045600019EC27F001E26BD3DB2A69D3080EDB6A72
:10457000040EDB50010806E2040EDB04E1EC26F039
:10458000DB508BDB080EDB5009E0030EDB50010B28
:1045900005E172DB01E04DD3080EDB6A64DBEFCF8F
:1045A000DFFF91EC27F003E1011C01E142D319EC9C
:1045B00027F001E3DB2A60DB01E141D33AD3070EA8
:1045C000DB5002080FE15DEC27F0030E24EC27F02E
:1045D0000E0EEECFDBFF0F0EEECFDBFF100EEECF99
:1045E000DBFF20D0F70EDBCF03F0F80EDBCF04F0BB
:1045F000020E035E000E045AF70E03C0DBFFF80E36
:1046000004C0DBFF03C0E9FF04C0EAFF14EC27F09D
:10461000026A0E0E00C0DBFF0F0E01C0DBFF100EA2
:1046200002C0DBFF0E0EDBCFE6FF0F0EDBCFE6FF97
:10463000100EDBCFE6FF14EC33F0E552E552E55205
:10464000130E25C0DBFF140E26C0DBFF060EDB5069
:1046500005E0130E58EC27F001E26ADB7CEC27F052
:1046600002E2130E37DB3FEC27F006E0040E58ECB5
:1046700027F002E2050E2EDB030EDBB005D0FCDADC
:1046800001E0D7D2080EDB6A090EDB6A0E0EDBCF23
:10469000F6FF0F0EDBCFF7FF100EDBCFF8FF0800A1
:1046A000F550DF6EDF5014E082EC27F011E291EC60
:1046B00027F003E1011C01E1BCD2BBDB01E3DB2AF3
:1046C000090EDB2AD9500E0FE96E000ECBDBE7D7BF
:1046D000D3DA01E1B4D2ADD2C6DA110EEECFDBFFF0
:1046E000120EEDCFDBFF110EDBCFE6FF120EDBCF9C
:1046F000E6FF06EC33F0E552E552130EF3CFDBFF95
:10470000140EF4CFDBFF060EDB5004E0130ED0DBFB
:1047100001E20EDB7CEC27F002E2130EDBDAAFDB0A
:1047200005E0040EC5DB02E2050ED4DA030EDBB0B1
:1047300005D0A2DA01E07DD2080EDB6A090EDB6A41
:10474000110EDBCFE9FF120EDBCFEAFFEFCFDFFF69
:10475000DF5014E0D7DB12E2E4DB03E1011C01E1EE
:1047600068D267DB01E3DB2A090EDB2A110EDB2AA4
:10477000DBCFE9FF120EE8E3DB2AE6D77DDA01E1C1
:104780005ED257D2030EDB8E070EDB0410E195DB01
:10479000040E5ADB0A0EEECFDBFF0B0EEECFDBFF73
:1047A0000C0EEECFDBFF0D0EEECFDBFF6CD0070E55
:1047B000DB5003082CE1030EDBAE0DD0B2DA020EA3
:1047C00076DAEFCF00F0016A026A036A00AE39D0F0
:1047D0000168026835D0F70EDBCF01F0F80EDBCFB1
:1047E00002F0020E015E000E025AF70E01C0DBFF5E
:1047F000F80E02C0DBFF01C0E9FF02C0EAFFEFCF05
:1048000000F00A0E00C0DBFF0B0EDB6A38D0070E8B
:10481000DB50020809E1030EDBAE04D059DB02AE27
:1048200010D00ED055DB0DD0030EDBAE12D079DAEE
:10483000020E3DDAF9DA026A036A01AE02D00268BA
:104840000368E2DA0C0E02C0DBFF0D0E03C0DBFFD3
:104850001AD0F70EDBCF02F0F80EDBCF03F0020E1A
:10486000025E000E035AF70E02C0DBFFF80E03C013
:10487000DBFF02C0E9FF03C0EAFFD6DAC5DA0C0E9F
:10488000DB6A0D0EDB6A060EDB5005E1010EF36EEE
:10489000050EF3CFDBFF150EDB6A160EDB6AD9506F
:1048A000370F006E000EDA20016E390E00C0DBFFFC
:1048B0003A0E01C0DBFF380EDB6A080EDB6A0A0E17
:1048C000AEDADF50780A12E0200A10E0280A0CE085
:1048D000200A0AE03F0A06E00D0A02E0200A08E189
:1048E000020E05D0080E03D0080EDF26100E97DA50
:1048F000030EDBBE02D0DB92DB94DB50800B24E0A6
:104900008ADAD890030EEB50000A08E6000EEE5C3F
:10491000000EEE58000EEE58000EEE5815E213DAB7
:1049200029682A682B682C68CEEC32F00A0E20C069
:10493000DBFF0B0E21C0DBFF0C0E22C0DBFF0D0ED8
:1049400023C0DBFF2D0E08D0030EDBA202D02B0EFE
:1049500003D0DBA408D0200EF36E170EF3CFDBFFDD
:10496000150EDB2A02D0170EDB6A050EDB5003E1C1
:10497000B7D901E189D09C0E006E680E016E000E61
:10498000026E070EDBCF03F0046A056A066A03C0F5
:1049900029F004C02AF005C02BF006C02CF0D3D9B2
:1049A000BFEC33F000502024F36E01502120F46E50
:1049B00002502220F86EF4CFF7FFF3CFF6FF080085
:1049C000090EF5CFDBFF580EDF5C0FE1610EF36ED1
:1049D000090E7BD90AE3200E006E090EDBCFE7FF3C
:1049E0000050E75E090EE7CFDBFF070EDBCF00F0DC
:1049F000016A026A036A0FDA00C029F001C02AF0D6
:104A000002C02BF003C02CF0EECF24F0EECF25F047
:104A1000EECF26F0EFCF27F0BFEC33F027C0EDFF4D
:104A200026C0EDFF25C0EDFF24C0EFFF390EDBCF20
:104A3000E9FFDB063A0EDBCFEAFF01E2DB06090EF7
:104A4000DBCFEFFF150EDB2A4BD995E1030EDBA67A
:104A50001DD06F0EDF5C06E1C1D918E3150EDB280F
:104A60005BDA14D0780EDF5C09E0580EDF5C06E0FC
:104A7000620EDF5C03E0420EDF5C08E1020EF36EC3
:104A8000160EF3CFDBFF02D0150EDB6A030EDB50F0
:104A9000100B0EE0040EDBCF00F0050EDB50D880CB
:104AA000005406E2060EDB5003E1040EDB5034DA5C
:104AB00095D90AE2050EDBCFE7FF150EDB50E75E66
:104AC000050EE7CFDBFF02D0050EDB6A040EDBCF5D
:104AD00000F0160E45D9D880005414E2160EDBCF34
:104AE000E6FF150EDBCFE6FF040EDBCFE6FF050E7B
:104AF000DB50E552E75CE552D880E754E552D880B8
:104B0000E7545FD9030EDB50010B0BE1080EDB50BD
:104B100008E0B2D801E08DD0080EDB50BED8080EF8
:104B2000DB6A170EDB5007E088D9170EF1D903E1D5
:104B3000011C01E17ED0160EDB5016E07ED9300E4E
:104B4000E66E9FD802E1011C74E077D9DFCFE6FF63
:104B50008CEC32F0E552E552E552F4CF01F0000161
:104B6000F31C02E1011C65E0050EDBCF00F0160E20
:104B7000DB50D880005409E2050EDBCFE7FF160EAC
:104B8000DB50E75E050EE7CFDBFF300EE66E050E6D
:104B9000CBD94FE1390EDB2ADBCFE9FF3A0E01E337
:104BA000DB2ADBCFEAFF090EEFCFDBFFDB500EE0A5
:104BB00044D9090EADD902E1011C3BE0390EDB2AD4
:104BC000DBCFE9FF3A0EEDE3DB2AEBD755D831E135
:104BD000160EDBCFE6FF080EC3D8E552E7245DD8FA
:104BE0002ED0070EDB50030A1CE0010A14E0030A72
:104BF00007E07BD9DBCFEEFF020EDBCFEDFF1FD04E
:104C0000F5D8056A03AE02D0046805682CD8BCD874
:104C100005C0EEFF14D0EAD803BE046824D8B4D887
:104C20000ED063D9DBCFEFFF0AD07BD905E1011CA1
:104C300003E1F368F46810D0FCD801E3DB2A79D9EA
:104C4000BEEF21F0010EDBCF00F0020EDBCF01F052
:104C500000C0F3FF01C0F4FF3B0EE15C02E2E16A39
:104C6000E552E16ECBD029D9020E24EF27F061D9AD
:104C70000800F550DF6E1200200EE66E080E94EF6D
:104C800027F08CEC32F0E552E552E552F3CF00F01C
:104C9000F4CF01F00001F31C1200006E016AD9503C
:104CA000010F4DD90050EE260150ED221200045E96
:104CB000000E055AF70E04C0DBFFF80E05C0DBFF3F
:104CC00004C0E9FF05C0EAFF1200DBCFF4FFF35098
:104CD000F45C1200DB50E76E040EE7CFDBFF12003E
:104CE0000A0EDBCF00F00B0EDBCF01F00C0EDBCF9A
:104CF00002F00D0EDBCF03F0005001100210031084
:104D00001200130EEECFDBFF140EEDCFDBFF130E00
:104D1000DBCF00F0140EDBCF01F00001800E011498
:104D20001200F70EDBCF04F0F80EDBCF05F0120017
:104D3000050EDB50E66ED950130F01D9E552E7504E
:104D4000EE6EED6A12000A0EDBCF24F00B0EDBCF05
:104D500025F00C0EDBCF26F00D0EDBCF27F0120076
:104D6000DBCFE6FF150EDBCFE6FF050EDB50E5528D
:104D7000E724E552E7241200DB50CED8010EF36E93
:104D8000060EF3CFDBFF1200EE50EFCFEAFFE96E25
:104D900002C0EEFF03C0EEFF04C0EEFF1200D9CF49
:104DA000E6FFDACFE6FFE1CFD9FFE2CFDAFF12006C
:104DB000DFCFE6FFE66AF9EC33F0E552E552F35057
:104DC0001200E76E080EE7CFDBFF1200EECF00F017
:104DD000EECF01F0EFCF02F0036A1200050EDBCF39
:104DE00000F0150EDB50D88000541200010EDBCF0E
:104DF00002F0020EDBCF03F0046A1200E552E5CFA9
:104E0000DAFFE7CFD9FF12000A0E00C0DBFF0B0E5E
:104E100001C0DBFF1200D9500A0F9FEF27F0F36E9D
:104E2000070EF3CFDBFF1200EECF00F0EFCF01F063
:104E30001200010EDB2A020E1200FC0EDBCFE6FF91
:104E4000FD0EDBCFE6FF1200005E000E015AF70EEA
:104E500000C0DBFFF80E01C0DBFF00C0E9FF01C0AE
:104E6000EAFF1200DA20EA6EEF2AEECFF6FF000E1C
:104E7000EF22EECFF7FFEF22EECFF8FF1200040E85
:104E8000DBCFE6FF130EDB50E552E75C9ADFDB5029
:104E900004DF060EDB501200090EDB500A0DF35042
:104EA000DF24D00FE76E090EE7CFDBFF37EF26F0E8
:104EB000DB50F36E050E65EF26F0F70EDBCF00F04A
:104EC000F80EDBCF01F01200DFCFE6FF41EF26F056
:104ED00028DF030EECDEE6EF26F093EC21F0E5523E
:104EE000E552E552E55200091200BDDEEE50EFCF6B
:104EF000EAFFE96E010E1200130EDB50F36E040E92
:104F000065EF26F0040EDB50F36E090E65EF26F018
:104F1000DBCFE6FF41EF26F0E76E050EE7CFDBFFC4
:104F200012008BDF64EF27F0DBCFE6FF86DF6DEF4B
:104F300027F0D950F90FE96EFF0E32EF27F0E96E36
:084F4000000EDA20EA6E1200F7
:084F48001F9E08D01F9E27AE3A
:104F500005D0266C271EE86A27221F8E27C021F065
:104F600026C020F0316A306A8E0E226E236A00EF6E
:104F70002AF02D7E1F6A3CEC2AF054EC2AF01FB672
:104F8000E4EF29F01FA20AD01FAA03D01FBEE4EF4E
:104F900029F01FA4F0EF29F0EDEF29F01FAA05D0AA
:104FA0001FACF0EF29F0EDEF29F01FA00AD01FA8E9
:104FB00008D01FBE04D01FA402D0F9EF29F0FDEFE6
:104FC00029F0306A236A2D50285C2F6E10E325C02B
:104FD00031F026C020F027C021F028C02EF02AC0D2
:104FE00025F02BC026F02CC027F01F3A09D02AC08C
:104FF00031F02BC020F02CC021F02DC02EF02F6CF2
:105000001F9E1FBC1F8E2EC022F01FB02CEF2AF057
:105010001A0E2F602CEF2AF0226A286A1FA408D0EB
:10502000256C261E271E281EE86A262227222822F3
:105030001FAC08D0316C201E211E221EE86A2022DF
:1050400021222222246A2F5207E0283427322632D6
:10505000253224322F2EF9D72550312626502022F2
:10506000275021222850222224C030F01F9E22AE39
:105070000BD0306C311E201E211E221EE86A312208
:105080002022212222221F8E22A006D0D880213267
:105090002032313230322E2A2EC022F000EF2AF098
:1050A0001F6A3CEC2AF054EC2AF01FB6E4EF29F01A
:1050B0001FA205D01FBAE4EF29F0EBEF29F01FBAC9
:1050C000F7EF29F01FA005D01FB8E4EF29F0F7EFA4
:1050D00029F01FB8EBEF29F0236A7F0E2824226EF7
:1050E000E86A23222D50225EE86A235A1A0E2E6E99
:1050F000286A306A316A206A216A2A50255E2B505C
:10510000265A2C50275A000E285A09E72A502526DD
:105110002B5026222C502722000E282201D0308A24
:10512000D8902536263627362836D8903036313670
:10513000203621362E2EE1D7275026102510D8A450
:10514000308A00EF2AF01F6A3CEC2AF054EC2AF077
:105150001FB6E4EF29F01FA205D01FB8E4EF29F035
:10516000EBEF29F01FAA05D01FB0E4EF29F0EBEF19
:1051700029F01FB002D01FA802D0F7EF29F0236A50
:105180002D502824226EE86A23227E0E225EE86AD1
:10519000235A306A316A206A216A2C502702F4CFE0
:1051A00021F0F3CF20F02B502702F3503126F4509A
:1051B0002022000E21222C502602F3503126F450DA
:1051C0002022000E21222A502702F3503026F450CC
:1051D0003122000E202221222B502602F3503026AD
:1051E000F4503122000E202221222C502502F350AF
:1051F0003026F4503122000E202221222A5026028D
:10520000F4503026000E3122202221222B5025027C
:10521000F4503026000E31222022212200EF2AF005
:105220001E6A2CAE19EF29F02B6C2C1EE86A2C227A
:105230001E1E27AE21EF29F0266C271EE86A2722C2
:105240001E1EE3EC33F027BE31EF29F01EAE000C3A
:10525000266C271EE86A2722226C231EE86A232276
:10526000000C1EBE28EF29F01F88FF0C1E6AE86A9A
:105270002CAE43EF29F0296C2A1E2B1E2C1E2A224D
:105280002B222C221E1E27AE4EEF29F0246C251E49
:10529000261E271E2522262227221E1EBFEC33F0A3
:1052A00027BE65EF29F01EAE000C246C251E261EBD
:1052B000271EE86A252226222722206C211E221E74
:1052C000231E212222222322000C1EBE55EF29F08C
:1052D0001F88FF0C27C031F026C030F026502B026B
:1052E000F4CF25F0F3CF24F027502C02F4CF27F091
:1052F000F3CF26F02B02F3502526F4502622E86A3D
:10530000272230502C02F3502526F4502622E86A3A
:1053100027222CAE90EF29F03050265E3150275ACC
:1053200031AE000C2B50265E2C50275A000C26C0A4
:1053300030F026502B02F4CF25F0F3CF24F0275085
:105340002C02F4CF27F0F3CF26F02B02F3502526C2
:10535000F4502622E86A272230502C02F3502526EA
:10536000F4502622E86A2722000C1F6A3CEC2AF03F
:105370001FB6BFEF29F01FA20ED01FB405D07F0EBD
:10538000276EFF0E266E1FD0800E276E266A1BD05A
:10539000276A266A18D01FB0FBD78F0E2860EDD77A
:1053A0007E0E2864F5D78E0E285C05E0D890273253
:1053B0002632282AF8D71FA406D0266C271EE86AB2
:1053C000272227AEE5D712007F0E286EFF0E276E2C
:1053D000266E256E12007F0E1FBEFF0E286E02D0B5
:1053E0007F0E286E800E276E266A256AF3D71FAEC1
:1053F00004D0800E286E276AF7D7286A276AF4D768
:105400002150201031103010F8E023BEF0D721BE1B
:105410000CD022502310EBE0D890303631362036B5
:1054200021362206D8A02306F2D72350D4E1222821
:10543000D2E030AE11D07F0E301402E131A00CD09A
:10544000312AE86A2022212207E3D8802132203243
:105450003132222A2228BFE02250C9E031C025F093
:1054600020C026F02134276E2230286E2732289E55
:105470001FBE288EEAEF29F02736283602E31F8464
:105480001F7E06E11F80286A276A266A256A1200A5
:10549000282803E0D88027321200D890273202E172
:1054A0001F8212001F8612002C362D3602E31F8C3D
:1054B0001F7E06E11F882D6A2C6A2B6A2A6A120059
:1054C0002D2803E0D8802C321200D8902C32EAE14B
:1054D0001F8A12001F9E0CD01F9E27AE09D0246C7D
:1054E000251E261E271EE86A2522262227221F8E19
:1054F00027C021F026C020F025C031F024C030F0B4
:105500009E0E226E236A00EF2AF01F6A3CEC2AF0FE
:105510001FB68FEF2AF01FA20FD01FB407D07F0E47
:10552000276EFF0E266E256E246E25D0800E276E08
:1055300001D0276A000EF6D71FB0FBD7246A9F0E52
:105540002860EBD77E0E2864F4D79E0E285C07E017
:10555000D8902732263225322432282AF6D71FA4A3
:105560000AD0246C251E261E271EE86A2522262224
:10557000272227AEDED71200C5EC2AF01FB6000C9A
:105580001FB0000C1FA4000C010C1F6A3CEC2AF099
:1055900054EC2AF01FB612001FAE08D01FA004D092
:1055A0001FA802D01F8012001F9012002D50285CEF
:1055B0000BE12C50275C08E12B50265C05E12A50BA
:1055C000255C02E11F801200D8A002D01F8E10D0EF
:1055D00028502DC028F02D6E27502CC027F02C6E9F
:1055E00026502BC026F02B6E25502AC025F02A6E9F
:1055F0002D50285C10E0FF0F09E01F901FB403D06E
:105600001FAE1F8412001FAE1F9412002D2AD890C7
:105610002C322B322A322A50255E2B50265A2C50FF
:10562000275A27BEEAD7D890253626362736282E81
:04563000F8D7C8D708
:0C563400D9CFE6FFDACFE6FFE1CFD9FFC7
:10564000E2CFDAFF220EE12402E3E168E652E16EE6
:10565000D950130FE66E000EDA20E66EA8DA59EC88
:1056600031F0006E060EE15C02E2E16AE552E16EA5
:105670000050E76E0E0EE7CFDBFFDB50840B0CE033
:10568000210E0001FD6FFE6B0F0EDB68100EDB6854
:10569000110EDB687F0E6ED08ADA36DA020E24C075
:1056A000DBFF030E25C0DBFF040E26C0DBFF050E6B
:1056B00027C0DBFF87DA2A6A100E2B6E490E2C6E8C
:1056C000460E14DABCEC2AF0010A32E07BDA67DA23
:1056D0000DDA50EC28F0BFD9060EDBCF25F0070E0F
:1056E000DBCF26F0080EDBCF27F0090EDBCF28F04A
:1056F00085EC2AF06CEC2AF0AED964DA060EDBCF2A
:1057000008F0070EDBCF09F0080EDBCF0AF0090E18
:10571000DBCF0BF044DA2D6E08C025F009C026F06F
:105720000AC027F00BC028F048DAB9EC27F0C4D93A
:10573000F90EDB5012E00E0EDB040BE1FA0EDBCFAC
:1057400000F0FB0EDBCF01F0FC0EDBCF02F0FD0E14
:1057500052D167D92C6AF8D947D00E0EDB0419E173
:105760000F0EDB6A100EDB6A800EF36E110EF3CFA4
:10577000DBFF3F0EF36E120EF3CFDBFF0F0EDBCF1E
:1057800000F0100EDBCF01F0110EDBCF02F0120E95
:1057900032D1190EDB6A45D9800E2C6ED5D9006A3C
:1057A000016A026A3F0E036ED950060FE96E000EC1
:1057B000DA20EA6EEECF25F0EECF26F0EECF27F01E
:1057C000EFCF28F000C02AF001C02BF002C02CF06F
:1057D00003C02DF0B9EC27F028C0EDFF27C0EDFF86
:1057E00026C0EDFF25C0EFFFDF50010B0AE0190EC8
:1057F000DB5002E0000E01D0010EE76E190EE7CF7C
:10580000DBFF8CD9060EDBCF0CF0070EDBCF0DF0E3
:10581000080EDBCF0EF0090EDBCF0FF02A6A2B6AE1
:10582000490E2C6E400E2D6E0CC025F00DC026F0DA
:105830000EC027F00FC028F0A3EC28F05CD9A6D941
:1058400095D9B9EC27F077D9060EDBCF14F0070E07
:10585000DBCF15F0080EDBCF16F0090EDBCF17F00B
:10586000220E2A6EAA0E2B6E7D0E2C6E3A0E2D6E17
:1058700014C025F015C026F016C027F017C028F078
:10588000A3EC28F025C010F026C011F027C012F0BC
:1058900028C013F0EDD8B9EC27F00A0E25C0DBFFC5
:1058A0000B0E26C0DBFF0C0E27C0DBFF0D0E28C041
:1058B000DBFFD9500A0FE96E000EEAD825D924C0C3
:1058C00000F025C001F026C002F027C003F02A6ACC
:1058D0002B6A800E2C6E390E2D6E24C025F04FD908
:1058E000BCEC2AF0010A13E1D9500A0FE96E000E50
:1058F000DA20EA6E020EEECFDBFF030EEECFDBFF07
:10590000040EEECFDBFF050EEECFDBFF68D0E1D853
:105910000A0EDBCF2AF00B0EDBCF2BF00C0EDBCF09
:105920002CF00D0EDBCF2DF0A3EC28F01A0E25C0C5
:10593000DBFF1B0E26C0DBFF1C0E27C0DBFF1D0E8E
:1059400028C0DBFF5B0E256E9C0E266E2E0E276E8A
:10595000360E286E72D8CFD8220E2A6EB20E2B6E5B
:105960004F0E2C6EB90E32D99ED83E0E2A6E870E7F
:105970002B6E080E2C6E3C0E29D9DDD8A40E2A6E93
:10598000AA0E2B6E2A0E2C6EBE0E20D91E0E25C01E
:10599000DBFF1F0E26C0DBFF200E27C0DBFF210E22
:1059A00028C0DBFF0A0EDBCF00F00B0EDBCF01F0CF
:1059B0000C0EDBCF02F00D0EDBCF03F08AD81E0EEB
:1059C000DBCF2AF01F0EDBCF2BF0200EDBCF2CF02D
:1059D000210EDBCF2DF0F1D8BAEC27F06DD8190EDF
:1059E000DB5008E09BD82A6A2B6A800E2C6EBF0E13
:1059F000F0D803D042D8DBCF03F000C024F001C0C0
:105A000025F002C026F003C027F0220EE15C02E27E
:105A1000E16AE552E16EE552E5CFDAFFE7CFD9FF63
:105A200012007CD8830E2A6EF90E2B6EA20E2C6EFD
:105A30003E0ECFD82A6A2B6A12001A0EDBCF2AF04C
:105A40001B0EDBCF2BF01C0EDBCF2CF01D0EDBCFA3
:105A50002DF0A3EF28F0060E25C0DBFF070E26C0B1
:105A6000DBFF080E27C0DBFF090E28C0DBFF12009A
:105A70008DD800C025F0BFEF2DF0020EDBCF00F077
:105A8000030EDBCF01F0040EDBCF02F0050E120097
:105A9000DA20EA6EEECFE6FFEECFE6FFEECFE6FFCE
:105AA000EFCFE6FF120025C004F026C005F027C0A6
:105AB00006F028C007F01200020E25C0DBFF030E1F
:105AC00026C0DBFF040E27C0DBFF050E28C0DBFF6E
:105AD00012000A0EDBCF25F00B0EDBCF26F00C0EEA
:105AE000DBCF27F00D0EDBCF28F012002D6E00C0AB
:105AF00025F0BFEF2DF025C008F026C009F027C023
:105B00000AF028C00BF0120039EC33F0E552E552F0
:105B1000E552E55212002D6EBAEF27F0020EDBCFF0
:105B200004F0030EDBCF05F0040EDBCF06F0050E0C
:105B3000DBCF07F0120025C000F026C001F027C01F
:105B400002F028C003F012003F0EE5DFB5EC29F0AB
:105B500026C0DEFF27C0DDFF000EDFCF26F0010EDE
:105B6000DBCF27F0A6EC27F02BEF2DF004C025F0BB
:105B700005C026F006C027F007C028F0120001C0BB
:105B800026F002C027F003C028F0120025C02AF03A
:105B900026C02BF027C02CF028C02DF01200DB0E01
:105BA0002A6E0F0E2B6EC90E2C6E400E1200D950AD
:105BB000FA0FE96EFF0E48EF2DF0A3EC28F073DF2B
:105BC00038EF2DF05ADFDBCF03F01200A4DF1DEF1A
:0E5BD0002DF02D6ECBDFA3EC28F09BEF2DF017
:025BDE00D9CF1D
:105BE000E6FFE1CFD9FF030EE126FD0EDBCF26F065
:105BF000FE0EDBCF27F0DE5226C0DEFF27C0DDFF22
:105C0000DD52020EDB50AA6E010EDB50A96EA69E7D
:105C1000A69CA680A850DF6EDF50006E030EE15CEC
:105C200002E2E16AE552E16E0050E552E7CFD9FFAA
:105C30001200D9CFE6FFE1CFD9FF040EE126FD0E19
:105C4000DBCF26F0FE0EDBCF27F0020E26C0DBFFF7
:105C5000030E27C0DBFFDB50AA6E020EDB50A96EDD
:105C6000FC0EDB50A86EA69EA69CA684F29E550E46
:105C7000A76EAA0EA76EA682DE6ADD6AA6A215D05E
:105C8000DFCF00F0DF2A010EDBCF01F001E3DB2ADA
:105C9000026A0234000E021807E6D880E80E0054AB
:105CA000FD0E0154000E0254E9E2F28EA694040E99
:105CB000E15C02E2E16AE552E16EE552E7CFD9FF2D
:105CC0001200D9CFE6FFE1CFD9FF020EE126000E88
:105CD000E66EE66A84DFE552E552DF6E010EE66E9F
:105CE000E66A7DDFE552E552E76E010EE7CFDBFFA6
:105CF000DECF00F0DDCF01F0F00ED8800054000EB2
:105D0000015402E2DE6ADD6ADECF2EFFDDCF2FFF17
:105D1000020EE66EE66A63DFE552E552DF6E030EC1
:105D2000E66EE66A5CDFE552E552E76E010EE7CF0C
:105D3000DBFFDECF00F0DDCF01F0F00ED8800054A5
:105D4000000E015402E2DE6ADD6ADECF30FFDDCFF5
:105D500031FF040EE66EE66A42DFE552E552DF6E81
:105D6000050EE66EE66A3BDFE552E552E76E010E90
:105D7000E7CFDBFFDECF00F0DDCF01F0140ED880DF
:105D80000054000E015403E20A0EDE6EDD6ADECF1F
:105D900032FFDDCF33FF020EE15C02E2E16AE55241
:105DA000E16EE552E7CFD9FF1200D9CFE6FFE1CF90
:105DB000D9FF020EE1262ECFDEFF2FCFDDFFDFCF92
:105DC000E6FF000EE66EE66A34DFE552E552E55284
:105DD000010EDBCFE6FFE66EE66A2BDFE552E55209
:105DE000E55230CFDEFF31CFDDFFDFCFE6FF020E21
:105DF000E66EE66A1EDFE552E552E552010EDBCFA4
:105E0000E6FF030EE66EE66A14DFE552E552E55260
:105E100032CFDEFF33CFDDFFDFCFE6FF040EE66ECD
:105E2000E66A07DFE552E552E552010EDBCFE6FFF9
:105E3000050EE66EE66AFDDEE552E552E552320EEB
:105E4000E66EE66ABCEC09F0E552E552020EE15C52
:105E500002E2E16AE552E16EE552E7CFD9FF1200B6
:105E6000D9CFE6FFE1CFD9FF1E0EE126020EE76E85
:105E7000FD0EDBCFE9FFFE0EDBCFEAFFE750E926A0
:105E8000000EEA22EF50E66E49EC21F0E5520009DF
:105E900001E1DCD0060EE76EFD0EDBCFE9FFFE0E62
:105EA000DBCFEAFFE750E926000EEA22EF50E66E6C
:105EB00049EC21F0E552000901E1C8D0030EE66E7D
:105EC000020EE76EFD0EDBCF00F0FE0EDBCF01F021
:105ED000E7500026000E012200C0E6FF01C0E6FFE9
:105EE000CDEC1FF0E552E552E552F3CFDEFFF4CFE3
:105EF000DDFFDECF00F0DDCF01F0F00ED8800054E2
:105F0000000E015403E2F00EDE6EDD6A030EE66E53
:105F1000060EE76EFD0EDBCF00F0FE0EDBCF01F0CC
:105F2000E7500026000E012200C0E6FF01C0E6FF98
:105F3000CDEC1FF0E552E552E552020EF3CFDBFF48
:105F4000030EF4CFDBFF020EDBCF00F0030EDBCF3E
:105F500001F0F00ED8800054000E015407E2F00E5C
:105F6000F36E020EF3CFDBFF030EDB6ADECF2EFFF4
:105F7000DDCF2FFF020EDBCF30FF030EDBCF31FF73
:105F80000A0EE76EFD0EDBCFE9FFFE0EDBCFEAFF68
:105F9000E750E926000EEA22EF50E66E49EC21F0C8
:105FA000E552000952E0030EE66E0A0EE76EFD0EA2
:105FB000DBCF00F0FE0EDBCF01F0E7500026000E35
:105FC000012200C0E6FF01C0E6FFCDEC1FF0E55264
:105FD000E552E552040EF3CFDBFF050EF4CFDBFFF5
:105FE000D950040FE96EDACFEAFFFF0EEE1809E18F
:105FF000ED5007E10A0EF36E040EF3CFDBFF050E42
:10600000DB6A040EDBCF00F0050EDBCF01F0010EE2
:10601000005C000E01580CE3040EDBCF02F0050E0D
:10602000DBCF03F0140ED8800254000E035407E2B5
:10603000140EF36E040EF3CFDBFF050EDB6A040EC5
:10604000DBCF32FF050EDBCF33FFAFDE3ADE32CFE0
:10605000E6FF33CFE6FF30CFE6FF31CFE6FF2ECFAE
:10606000E6FF2FCFE6FF1B0E006E670E016E026A81
:1060700000C0E6FFE66E02C0E6FFD950060FE66EEE
:10608000000EDA20E66EE7EC31F0036E0B0EE15EF7
:106090000350D950060FE66E000EDA20E66E7BEC58
:1060A0001BF0E552E5521E0EE15C02E2E16AE552A8
:0A60B000E16EE552E7CFD9FF1200C0
:0660BA00C76A110EC86E5A
:1060C000280EC66E400EC56E948694889F869E9656
:1060D0009D86A286A196A08606D8A00EE66E29EC23
:1060E00034F0E5521200D9CFE6FFE1CFD9FFE652F6
:1060F000C950DF6EC69AC69CC69EC59CC59A000153
:10610000846B82A80CD89E96A1960001806B816B4F
:10611000826BC68AE552E552E7CFD9FF1200D9CF8C
:10612000E6FFE1CFD9FFE6528A88C69ADF6A090EF8
:10613000DF5C0EE29496020EE66E43EC34F0E5521C
:106140009486020EE66E43EC34F0E552DF2AEFD778
:10615000E552E552E7CFD9FF12000001816B1F0E17
:10616000C51403E1C750040B07E00A0E006E81510D
:10617000005CF5E25DEF30F01200D9CFE6FFE1CF31
:10618000D9FFE652DF6A020E0001815DFCE3E5DF24
:10619000FE0EDBCF83F0FD0EDBCF85F00001816BBF
:1061A000010E806FC580805112E0020E006E815199
:1061B000005C03E2800E8011826F8251F4E0C5849E
:1061C0007CDFDF2A050EDF5CE9E3000E02D0816B85
:1061D000010EE552E552E7CFD9FF1200D9CFE6FF15
:1061E000E1CFD9FF020E0001815DFCE3B6DFFE0EB8
:1061F000DB5001090001836FFD0EDBCF85F0816B61
:106200000B0E806FC58080510EE0020E006E815132
:10621000005C03E2800E8011826F8251F4E0C5843D
:106220004CDF000E02D0816B010EE552E7CFD9FFA3
:106230001200D9CFE6FFE1CFD9FFE652DF6A060EA2
:10624000DF5C13E2DF50EA6AB80FE96E000EEA2263
:10625000EF50E66EDF50EA6A860FE96E000EEA2222
:10626000E552E750EF6EDF2AEAD7060EE66E140E0F
:10627000E66E83DFE552E552E552E552E7CFD9FFFE
:106280001200D9CFE6FFE1CFD9FFE652DF6A060E52
:10629000DF5C09E2DF50EA6AB80FE96E000EEA221D
:1062A000EF6ADF2AF4D7C5DFE552E552E7CFD9FF21
:0262B0001200DA
