:020000040000FA
:060800004DEF30F0120084
:020806001200DE
:0608080016EF04F01200DF
:0608180008EF06F01200DB
:02081E000100D7
:0C082000D9600000000F00002E00000056
:04082C00DACFE4FF3C
:10083000E2CFDAFFE9CFE4FFEACFE4FFF6CFE4FF4F
:10084000F7CFE4FFF5CFE4FFF3CFE4FFF4CFE4FF0D
:10085000FACFE4FF00EE2CF0140EE80403E3EECF31
:10086000E4FFFBD700EE00F02C0EE80403E3EECF2C
:10087000E4FFFBD7E652F2A42AD1D59EFC0ED76E38
:100880003F0ED66ED58E0101072B000E0823010105
:100890008F2B000E9023912392230101932B000EA6
:1008A0009423952396230101972B000E98239923D7
:1008B0009A2301019B2B000E9C239D239E23010163
:1008C000092B000E0A230101F52B000EF623320E30
:1008D0000001815D02E20001812B030E010100197C
:1008E00001E1015101E17FD0020E0101001901E196
:1008F00001513CE0010E0101001901E1015107E045
:100900000101005101E1015101E0DBD0DFD0805055
:10091000100B100A01E0010E010808E10101026B51
:10092000036B0101002B000E01231FD00101022BDC
:10093000000E03230101F40ED8800255010E035569
:1009400014E20101026B036B0101010E0D1901E1BB
:100950000E5106E00101070E0D1901E10E5105E1EE
:100960000101AA5101E0B2D0897EB0D080A805D0A3
:1009700001010007000E015B35D00101022B000EC2
:1009800003230101320ED8800255000E03552AE2DE
:10099000000EE66EE66A000EE66EE66AE6EC09F028
:1009A000E552E552E552E552899E899C8A908A98E3
:1009B000020E01010D1901E10E510BE001010D5173
:1009C00001E10E5101E00AD0898E0101096B0A6B29
:1009D00005D0040E01010D6F0E6B00D00101002B3C
:1009E000000E012373D080A83FD0040E01010D1921
:1009F00001E10E5133E0070E01010D1901E10E5125
:100A000028E0050E01010D1901E10E511DE0030E54
:100A100001010D1901E10E5112E0010E01010D1944
:100A200001E10E5107E001010D5101E10E5101E01C
:100A300016D015D0020E01010D6F0E6B10D0010EF5
:100A400001010D6F0E6B0BD0060E01010D6F0E6BC9
:100A500006D0080E01010D6F0E6B01D0FF000101E1
:100A6000002B000E01232CD0050E01010D1901E110
:100A70000E5116E001010D5101E10E5101E020D0AF
:100A80000101D00ED8800955070E0A5508E2899C4D
:100A9000050E01010D6F0E6B0101026B036B10D08F
:100AA0000101022B000E03230101640ED8800255C0
:100AB000000E035504E20101026B036B897E00D036
:100AC00005D0010E0101006F016B00D0F2949EA6CB
:100AD00073D00001816B0001826B000180510F0A0D
:100AE00064E0010A5EE0030A44E0010A39E0070A13
:100AF0002EE0080A23E0010A0AE0030A01E058D0C8
:100B000083C0C9FF0001846B0001802B54D0C5ACA9
:100B100003D080C082F011D000018451842BEA6A96
:100B2000860FE96E000EEA22EF50C96E0001855172
:100B30000001845D02E10001802B3DD0C5AC03D0F3
:100B400080C082F003D0C5840001806B34D0010ED8
:100B500000018311C96E0001846B0001802B2BD032
:100B6000C5AC03D080C082F003D0C5860001802BC5
:100B700022D000018451842BEA6A860FE96E000EB0
:100B8000EA22C9CFEFFF000185510001845D04E234
:100B9000C59A0001800703D0C58A0001802BC58853
:100BA0000AD0C5840001802B06D00001806B03D0E1
:100BB0000001806B00D09E96A1A606D0A196400EA3
:100BC000000180110001826FE55200EE2BF02C0E27
:100BD000E80403E3E5CFEDFFFBD700EE3FF0140E92
:100BE000E80403E3E5CFEDFFFBD7E5CFFAFFE5CF60
:100BF000F4FFE5CFF3FFE5CFF5FFE5CFF7FFE5CF56
:100C0000F6FFE5CFEAFFE5CFE9FFE5CFDAFF110018
:100C1000D8CFE4FFE0CFE4FFE46EDACFE4FFE2CF29
:100C2000DAFFE9CFE4FFEACFE4FFE6529EAC2CD135
:100C30009E9CC4CF06F1C3CF05F101010451EA6ABD
:100C4000A00FE96E010EEA22EF50050801E09BD0EB
:100C500001010C3504E20B510308000E0C5501E3B1
:100C600091D005C105F106C106F10101FF0ED88042
:100C70000557030E0657010E0101D89005370637B8
:100C8000E806FBE10101900E055D010E065905E243
:100C90000101900E056F010E066F900E0101055FB8
:100CA000010E0101065B0101FF0ED8800555030E00
:100CB000065504E201010569030E066F01010451A6
:100CC000E96EEA6AD890E936EA360F0EE926010E97
:100CD000EA22EE5001010527EE500101062305C16D
:100CE00040F006C141F0010E0F0B05E0D8904132F3
:100CF0004032E806FBE101010451E96EEA6AD8904E
:100D0000E936EA360F0EE926010EEA2240C0EEFF70
:100D100041C0EDFF01010B6B0C6B01010451090A8D
:100D20002EE0010A29E00F0A24E0010A1FE0030A6D
:100D30001AE0010A15E0070A10E0010A0BE0030AB5
:100D400006E0010A01E01ED0929089801BD09292A9
:100D5000898218D09294898415D09296898612D06F
:100D6000929A898A0FD093948A840CD093968A861B
:100D700009D093928A8206D093988A8803D0939060
:100D80008A8000D02CD001010451E96EEA6AD89023
:100D9000E936EA360F0EE926010EEA22EE5001018D
:100DA0000527EE500101062305C140F006C141F0C0
:100DB000010E0F0B05E0D89041324032E806FBE10E
:100DC00001010451E96EEA6AD890E936EA360F0E5D
:100DD000E926010EEA2240C0EEFF41C0EDFF0A0EF7
:100DE000406E0101042B01010451D880405402E3FC
:100DF0000101046B01010451EA6AA00FE96E010EC2
:100E0000EA22EF50050837E101010B2B000E0C23FD
:100E100001010C3504E20B510308000E0C552BE2C6
:100E200001010451090A25E0010A21E00F0A1DE031
:100E3000010A19E0030A15E0010A11E0070A0DE0B2
:100E4000010A09E0030A05E0010A01E014D09280DA
:100E500012D0928210D092840ED092860CD0928AB8
:100E60000AD0938408D0938606D0938204D09388C6
:100E700002D0938000D001010451EA6A000FE96EAC
:100E80000F0EEA22EF50C26E9EAA98D0ABA403D0F8
:100E9000AECFF9F193D0ABA203D0AB98AB888ED094
:100EA000AECFF9F10101010E0D1901E10E5173E010
:100EB0000101FA51080A66E00F0A5AE0010A4EE001
:100EC000030A42E0010A36E0070A2AE0010A1EE0AE
:100ED000030A12E0010A01E05ED0520E0101F95D41
:100EE00003E10101010EFA6F560E0101F95D03E104
:100EF0000101050EFA6F4FD0650E0101F95D02E1A7
:100F0000020E01D0000E0101FA6F45D0730E0101EF
:100F1000F95D02E1030E01D0000E0101FA6F3BD032
:100F2000650E0101F95D02E1040E01D0000E010120
:100F3000FA6F31D0740E0101F95D02E1070E01D0A4
:100F4000000E0101FA6F27D0650E0101F95D02E183
:100F5000060E01D0000E0101FA6F1DD0720E0101C4
:100F6000F95D02E1070E01D0000E0101FA6F13D006
:100F70000D0E0101F95D02E1080E01D0000E010124
:100F8000FA6F09D00A0E0101F95D02E1FF0002D0FB
:100F90000101FA6B00D00101F751EA6AD40FE96E42
:100FA000010EEA22F9C1EFFF1F0E406E0101F72B7F
:100FB0000101F751405C02E20101F76BE552E5CF18
:100FC000EAFFE5CFE9FFE5CFDAFFE550E5CFE0FF47
:100FD000E5CFD8FF1000D9CFE6FFE1CFD9FF030E50
:100FE000E126F00ED36EC00E9B6E0101FA6B01017B
:100FF0000D6B0E6B006B016B026B036B010EDB6AFA
:10100000020EDB6A010EDBCF00F0020EDBCF01F037
:10101000D890015004E61A0E005C000E01581AE246
:10102000010EDBCFE9FF020EDBCFEAFFD890E936F5
:10103000EA36D890E936EA36270EE926010EEA228A
:10104000EE6AEE6AEE6AEE6A010EDB2A020EDAE35F
:10105000DB2AD8D7010EDB6A020EDB6A010EDBCF7A
:1010600000F0020EDBCF01F0D890015004E6040E30
:10107000005C000E01581AE2010EDBCFE9FF020E00
:10108000DBCFEAFFD890E936EA36D890E936EA367F
:101090008F0EE926010EEA22EE6AEE6AEE6AEE6A29
:1010A000010EDB2A020EDAE3DB2AD8D7010EDB6A57
:1010B000020EDB6A010EDBCF00F0020EDBCF01F087
:1010C000D890015004E60A0E005C000E015811E2AF
:1010D000010EDBCFE9FF020EDBCFEAFFA00EE9260F
:1010E000010EEA22010EEF6EDB2A020EE3E3DB2A99
:1010F000E1D70101236B246B256B266B046B0B6B13
:101100000C6BAA6BAB6B096B0A6B076B086B896A7C
:101110003F0EDF6EDF50926E8A6A1F0EDF6EDF5069
:10112000936E180E8B6E980E946E020ED56EFC0E9A
:10113000D76E3F0ED66ED58EF294F28AF184B00E41
:10114000B16EA292A192A092B1809D92010ECA6E40
:10115000CC68CB68CA849F6F000E256F266B236F07
:10116000246BE66EE66AE66EE66A9AD8E552E552C8
:10117000E552E5529F9C9D8CBE0EC06E020EC16E64
:1011800001010451EA6A000FE96E0F0EEA22EF50E6
:10119000C26EAEEC11F073EC2CF0D09CD08EF28EBF
:1011A000F28C040E006E5F0E016E026A00C0E6FF54
:1011B000E66E02C0E6FFFDEC11F0E552E552E552A5
:1011C0007CEC14F057EC2DF0010E0101006F016B67
:1011D0008050100B100A01E0010E0108F9E0010136
:1011E0000D510E1103E1010E0D6F0E6B898E030E72
:1011F000E15C02E2E16AE552E16EE552E7CFD9FF38
:101200001200E9DEF40EE66E010EE66EB5D8E55288
:10121000E5520101096B0A6B43EC12F0000902E090
:1012200049EC12F0070E01010D1901E10E5135E0F4
:10123000050E0D1901E10E512BE0060E0D1901E10D
:101240000E5126E0020E0D1901E10E5116E0030EBB
:101250000D1901E10E5111E0010E0D19DDE10E51E4
:10126000DBE1CC51095DCD510A59D6E3096B0A6B1C
:10127000AAA1D2D7D5EC14F0CFD7D3EC22F0899E17
:10128000899C8A908A98010E01010D6F0E6BC4D75C
:101290006EEC0EF0ECEC0EF0BFD7F7EC0FF0BCD715
:1012A000D9CFE6FFE1CFD9FF040EE126FD0EDBCF5B
:1012B00000F0FE0EDBCF01F0FF0ED8800054030ECD
:1012C000015407E2FD0EDB68030EF36EFE0EF3CF52
:1012D000DBFFFB0EDBCF00F0FC0EDBCF01F0FF0EDF
:1012E000D8800054030E015407E2FB0EDB68030EA6
:1012F000F36EFC0EF3CFDBFFFB0EDBCF00F0FC0E3A
:10130000DBCF01F0060ED89000360136E804FBE191
:1013100000C0DEFF01C0DDFFFD0EDBCF00F0FE0EE2
:10132000DBCF01F0060ED89000360136E804FBE171
:10133000020E00C0DBFF030E01C0DBFF010EDB501D
:10134000BE6E030EDB50BB6EDF50E840E8403F0B43
:10135000300B0C09BD6E020EDB40E8403F0B300B3A
:101360000C09BA6E040EE15C02E2E16AE552E16E3C
:10137000E552E7CFD9FF1200D9CFE6FFE1CFD9FF81
:10138000020EE126F29A0101096B0A6BF28AF29AC7
:1013900009C1DEFF0AC1DDFFF28ADECF00F0DDCF3A
:1013A00001F0FD0EDBCF02F0FE0EDBCF03F00250AA
:1013B000005C03500158EBE3020EE15C02E2E16ADB
:1013C000E552E16EE552E7CFD9FF1200D9CFE6FF33
:1013D000E1CFD9FF0A0EE12623C100F024C101F0BC
:1013E000FD0EDB50001811E1FE0EDB5001180DE17F
:1013F00025C102F026C103F0FB0EDB50021805E107
:10140000FC0EDB50031801E1E7D2000EE66EE66A3F
:10141000E66EE66A45DFE552E552E552E5528B9A03
:101420008B908A9C8A9AA092A192B190B368050E83
:10143000B26EB180080E2ECFDBFFFD0EDBCF00F0C9
:10144000FE0EDBCF01F0013401E387D0005000082D
:10145000000E015401E381D0010EF36E040EF3CFB0
:10146000DBFF060EDB6A080E346E356AFD0EDBCF3D
:1014700039F0FE0EDBCF3AF077EC25F032C0DEFF1C
:1014800033C0DDFF0F01000ED8802E55000E2F5502
:1014900001E3F8D0DECF00F0DDCF01F001341EE231
:1014A00000509008010E015419E2DECF02F0DDCFAA
:1014B00003F0900E025E010E035A02C034F003C026
:1014C00035F032CF39F033CF3AF0F9EC2FF00F018D
:1014D0002E513424006E2F51352027D0DECF00F05E
:1014E000DDCF01F0900ED8800056010E01562E512E
:1014F000005C2F5101581CE2DECF02F0DDCF03F07B
:10150000900ED8800256010E035602C034F003C07C
:1015100035F032CF39F033CF3AF0F9EC2FF00F013C
:1015200034502E5D006E35502F59080E00C0DBFF81
:10153000080EDB50006E016ADECF02F0DDCF03F053
:1015400001500318E8AE02D0033404D00250005C0E
:101550000350015801E396D089D0FD0EDBCF00F097
:10156000FE0EDBCF01F00001800E011401E18FD0EF
:10157000040EDB6A010EF36E060EF3CFDBFFF80EEE
:10158000346E3568FD0EDBCF39F0FE0EDBCF3AF05E
:1015900077EC25F032C0DEFF33C0DDFF0F01000E17
:1015A000D8802E55000E2F556DE2DECF00F0DDCF36
:1015B00001F001341EE200509008010E015419E2BE
:1015C000DECF02F0DDCF03F0900E025E010E035A73
:1015D00002C034F003C035F032CF39F033CF3AF0E7
:1015E000F9EC2FF00F012E513424006E2F513520CD
:1015F00027D0DECF00F0DDCF01F0900ED88000566E
:10160000010E01562E51005C2F5101581CE2DECF15
:1016100002F0DDCF03F0900ED8800256010E035683
:1016200002C034F003C035F032CF39F033CF3AF096
:10163000F9EC2FF00F0134502E5D006E35502F590C
:10164000080E00C0DBFF080EDB50006E016ADECF23
:1016500002F0DDCF03F001500318E8AE02D00334EE
:1016600004D00250005C035001580CE2080EDB501D
:10167000006E016AD9CFE9FFDACFEAFFE850EE5EEB
:101680000150ED5A640EDE26000EDD220FD001015E
:101690009F510CE0010EF36E040EF3CFDBFF010E41
:1016A000F36E060EF3CFDBFFDE6ADD6A090E30CF84
:1016B000DBFFFB0EDBCF00F0FC0EDBCF01F00134D3
:1016C00001E393D000500008000E015401E38DD0D7
:1016D000010EF36E050EF3CFDBFF070EDB6A080E7B
:1016E000346E356AFB0EDBCF39F0FC0EDBCF3AF0FF
:1016F00077EC25F0020E32C0DBFF030E33C0DBFFB8
:101700000F01000ED8803055000E315501E310D185
:10171000020EDBCF00F0030EDBCF01F0013420E23C
:1017200000509008010E01541BE2020EDBCF02F0C4
:10173000030EDBCF03F0900E025E010E035A02C0CF
:1017400034F003C035F032CF39F033CF3AF0F9EC52
:101750002FF00F0130513424006E315135202BD041
:10176000020EDBCF00F0030EDBCF01F0900ED8802D
:101770000056010E01563051005C315101581EE2F5
:10178000020EDBCF02F0030EDBCF03F0900ED88009
:101790000256010E035602C034F003C035F032CFBA
:1017A00039F033CF3AF0F9EC2FF00F013450305DBF
:1017B000006E35503159090E00C0DBFF090EDB50B9
:1017C000006E016A020EDBCF02F0030EDBCF03F0E6
:1017D00001500318E8AE02D0033404D00250005C7C
:1017E0000350015801E3A4D096D0FB0EDBCF00F0EC
:1017F000FC0EDBCF01F00001800E011401E1A2D04C
:10180000050EDB6A010EF36E070EF3CFDBFFF80E59
:10181000346E3568FB0EDBCF39F0FC0EDBCF3AF0CF
:1018200077EC25F0020E32C0DBFF030E33C0DBFF86
:101830000F01000ED8803055000E315501E378D0ED
:10184000020EDBCF00F0030EDBCF01F0013420E20B
:1018500000509008010E01541BE2020EDBCF02F093
:10186000030EDBCF03F0900E025E010E035A02C09E
:1018700034F003C035F032CF39F033CF3AF0F9EC21
:101880002FF00F0130513424006E315135202BD010
:10189000020EDBCF00F0030EDBCF01F0900ED880FC
:1018A0000056010E01563051005C315101581EE2C4
:1018B000020EDBCF02F0030EDBCF03F0900ED880D8
:1018C0000256010E035602C034F003C035F032CF89
:1018D00039F033CF3AF0F9EC2FF00F013450305D8E
:1018E000006E35503159090E00C0DBFF090EDB5088
:1018F000006E016A020EDBCF02F0030EDBCF03F0B5
:1019000001500318E8AE02D0033404D00250005C4A
:10191000035001580DE2090EDB50006E016AD950E8
:10192000020FE96EDACFEAFF0050EE5E0150ED5A89
:10193000D950020FE96EDACFEAFF640EEE26000EF0
:10194000ED2211D001019F510EE0010EF36E050E44
:10195000F3CFDBFF010EF36E070EF3CFDBFF020EBA
:10196000DB6A030EDB6A0101010E9F6FFD0EDBCF08
:1019700023F1FE0EDBCF24F1FB0EDBCF25F1FC0EB5
:10198000DBCF26F1A1A2FED7A192020EDBCFE6FFAC
:10199000030EDBCFE6FFDECFE6FFDDCFE6FF80DC28
:1019A000E552E552E552E552040EDB50E8B08B8A71
:1019B000E8A08B9A060EDB50E8B08B80E8A08B90F5
:1019C000050EDB50E8B08A8CE8A08A9C070EDB503D
:1019D000E8B08A8AE8A08A9A0A0EE15C02E2E16A2B
:1019E000E552E16EE552E7CFD9FF1200D9CFE6FF0D
:1019F000E1CFD9FFFE0EDB50090A5AE0010A50E0A0
:101A00000F0A46E0010A3CE0030A32E0010A28E03E
:101A1000070A1EE0010A14E0030A0AE0010A4EE187
:101A2000FD0EDB50E8B08980E8B048D0899046D000
:101A3000FD0EDB50E8B08982E8B040D089923ED0FC
:101A4000FD0EDB50E8B08984E8B038D0899436D0F8
:101A5000FD0EDB50E8B08986E8B030D089962ED0F4
:101A6000FD0EDB50E8B0898AE8B028D0899A26D0EC
:101A7000FD0EDB50E8B08A84E8B020D08A941ED0F6
:101A8000FD0EDB50E8B08A86E8B018D08A9616D0F2
:101A9000FD0EDB50E8B08A82E8B010D08A920ED0FA
:101AA000FD0EDB50E8B08A88E8B008D08A9806D0EE
:101AB000FD0EDB50E8B08A80E8A08A90E552E7CFBF
:101AC000D9FF1200D9CFE6FFE1CFD9FFE652DF6A96
:101AD000FE0EDB50090A35E0010A2EE00F0A28E06D
:101AE000010A22E0030A1CE0010A16E0070A10E0DE
:101AF000010A0AE0030A04E0010A26E1895022D023
:101B00008950020B20E01BD08950040B1CE017D039
:101B10008950080B18E013D08950200B14E00FD027
:101B20008A50040B10E00BD08A50080B0CE007D051
:101B30008A50020B08E003D08A50100B04E0010E1B
:101B400002D08A50010BDF6EDF50E552E552E7CF3D
:101B5000D9FF1200D9CFE6FFE1CFD9FFFE0EDB504F
:101B6000030A1EE0010A14E0030A0AE0010A1EE16A
:101B7000FD0EDB50E8B0898EE8B018D0899E16D0F3
:101B8000FD0EDB50E8B0898CE8B010D0899C0ED0F7
:101B9000FD0EDB50E8B08A80E8B008D08A9006D00D
:101BA000FD0EDB50E8B08A88E8A08A98E552E7CFBE
:101BB000D9FF1200D9CFE6FFE1CFD9FFE652DF6AA5
:101BC000FE0EDB50030A13E0010A0DE0030A06E0F3
:101BD000010A12E18950800B08E003D08950400BC4
:101BE00004E0010E02D08A50010BDF6E05D08A504E
:101BF000100B01E0010EDF6EDF50E552E552E7CF3A
:101C0000D9FF1200D9CFE6FFE1CFD9FFF29AFE0E3D
:101C1000DB50040DF3CFE9FFF4CFEAFF8F0EE92686
:101C2000010EEA22EE6AEE6AEE6AEE6AF28AE55286
:101C3000E7CFD9FF1200D9CFE6FFE1CFD9FF040EDD
:101C4000E126F29AFE0EDB50040DF3CFE9FFF4CF4C
:101C5000EAFF8F0EE926010EEA22EECFDFFF010E2A
:101C6000EECFDBFF020EEECFDBFF030EEECFDBFF8E
:101C7000F28ADECF32F0DECF33F0DECF34F0DDCFCC
:101C800035F0DD52DD52040EE15C02E2E16AE5521C
:101C9000E16EE552E7CFD9FF1200B36AB26AB180B4
:101CA0001200D9CFE6FFE1CFD9FF020EE126B250F4
:101CB000DF6E010EB3CFDBFFDECF00F0DDCF01F032
:101CC00000C0F3FF01C0F4FF020EE15C02E2E16A32
:101CD000E552E16EE552E7CFD9FF1200E66AE66A07
:101CE00039DFE552E552E66A010EE66E33DFE55272
:101CF000E552E66A020EE66E2DDFE552E552E66A2F
:101D0000030EE66E27DFE552E552050E01010D6F69
:101D10000E6B0101050E0D195EE10E515CE1320EF4
:101D2000D8800F55010E105503E2010EE66E01D06A
:101D3000E66AE66A0FDFE552E5520101320ED8800D
:101D40001155010E125503E2010EE66E02D0E66A4D
:101D5000010EE66EFFDEE552E5520101FF0ED8806E
:101D60001355010E145503E2010EE66E01D0E66A2A
:101D7000020EE66EEFDEE552E5520101FF0ED8805D
:101D80001555010E165503E2010EE66E01D0E66A06
:101D9000030EE66EDFDEE552E5520101FF0ED8804C
:101DA0001755010E18550AE2010EE66E020EE66E98
:101DB000D1DEE552E552010EE66E07D0E66A020E6C
:101DC000E66EC8DEE552E552E66A030EE66EC2DE56
:101DD000E552E5529ED71200E66AE66ABBDEE5529E
:101DE000E552E66A010EE66EB5DEE552E552E66AB8
:101DF000020EE66EAFDEE552E552E66A030EE66ECF
:101E0000A9DEE552E552010EE66EE66AA3DEE55272
:101E1000E552320EE66EE66AE66EE66AE6EC09F038
:101E2000E552E552E552E552E80EE66E030EE66E27
:101E3000BCEC09F0E552E552E66AE66A8BDEE55253
:101E4000E552000EE66EE66AE66EE66AE6EC09F03A
:101E5000E552E552E552E552C80EE66EE66ABCEC84
:101E600009F0E552E552010EE66EE66E73DEE552CC
:101E7000E552CE0EE66EE668E66EE668E6EC09F040
:101E8000E552E552E552E552E80EE66E030EE66EC7
:101E9000BCEC09F0E552E552E66A010EE66E5ADE48
:101EA000E552E552000EE66EE66AE66EE66AE6EC9C
:101EB00009F0E552E552E552E552C80EE66EE66AD3
:101EC000BCEC09F0E552E552010EE66E020EE66E3C
:101ED00041DEE552E552320EE66EE66ACE0EE66E61
:101EE000E668E6EC09F0E552E552E552E552E80E07
:101EF000E66E030EE66EBCEC09F0E552E552E66ACA
:101F0000020EE66E27DEE552E552000EE66EE66A48
:101F1000E66EE66AE6EC09F0E552E552E552E55276
:101F2000C80EE66EE66ABCEC09F0E552E552010E19
:101F3000E66E030EE66E0EDEE552E552CE0EE66E5E
:101F4000E668320EE66EE66AE6EC09F0E552E55226
:101F5000E552E552E80EE66E030EE66EBCEC09F0C3
:101F6000E552E552E66A030EE66EF4DDE552E5520F
:101F7000000EE66EE66AE66EE66AE6EC09F0E55209
:101F8000E552E552E552320EE66EE66A000EE66E66
:101F9000E66AE6EC09F0E552E552E552E552E80E54
:101FA000E66E030EE66EBCEC09F0E552E552000E5B
:101FB000E66EE66A320EE66EE66AE6EC09F0E55297
:101FC000E552E552E552E80EE66E030EE66EBCEC15
:101FD00009F0E552E552000EE66EE66AE66EE66A44
:101FE000E6EC09F0E552E552E552E552120043EC09
:101FF00012F0000902E049EC12F00101080E0D197F
:1020000001E080D00E5101E07DD0010EE66EE66A5F
:10201000A1DDE552E552320EE66EE66AE66EE66A4C
:10202000E6EC09F0E552E552E552E552D00EE66ED7
:10203000070EE66EBCEC09F0E552E552640EE66E62
:10204000E66AE66EE66AE6EC09F0E552E552E5522C
:10205000E552E80EE66E030EE66EBCEC09F0E552C2
:10206000E552010EE66E030EE66E74DDE552E552B2
:10207000000EE66EE66AE66EE66AE6EC09F0E55208
:10208000E552E552E552F40EE66E010EE66EBCEC4A
:1020900009F0E552E552CE0EE66EE668E66EE668B9
:1020A000E6EC09F0E552E552E552E552D00EE66E57
:1020B000070EE66EBCEC09F0E552E5529C0EE66EAA
:1020C000E668E66EE668E6EC09F0E552E552E552B0
:1020D000E552E80EE66E030EE66EBCEC09F0E55242
:1020E000E552E66A030EE66E35DDE552E552000E76
:1020F000E66EE66AE66EE66AE6EC09F0E552E5525F
:10210000E552E552070E01010D6F0E6B70D7D9CF66
:10211000E6FFE1CFD9FFFD0EDBCFCEF1FE0EDBCF28
:10212000CFF10101D06BD16B6F0ECE5F000ECF5B94
:10213000D05BD15B700E376E170E386E396A3A6A13
:10214000CEC132F0CFC133F0D0C134F0D1C135F0BF
:10215000E4EC2EF02EC0CEF12FC0CFF130C0D0F184
:1021600031C0D1F18A0E376E0C0E386E396A3A6A78
:102170002EC032F02FC033F030C034F031C035F013
:1021800043EC25F032C0CEF133C0CFF134C0D0F1F2
:1021900035C0D1F1640E0101CE5F000ECF5BD05B84
:1021A000D15BD880D151FF0A08E6F60ECE5DFF0E56
:1021B000CF59FF0ED059FF0ED1590BE20F01190E66
:1021C0002A6FFC0E2B6F2C692D6907C1D2F108C153
:1021D000D3F10101D251075D006E0851D355016E54
:1021E000E80E005C030E015801E2B0D007C1D2F145
:1021F00008C1D3F1190E0F012A1911E1FC0E2B1998
:102200000EE1E8682C190BE1E8682D1908E1CEC150
:102210002AFFCFC12BFFD0C12CFFD1C12DFF2A0E29
:10222000E96E0F0EEA6E030EEB500101D119E8AE14
:1022300002D0D13508D0CE51EE5CCF51EE58D051FE
:10224000EE58D151EE582DE22A0EE96E0F0EEA6ECD
:10225000EE50CE5D006EEE50CF59016EEE50D0596B
:10226000026EEE50D159036EE834000E031809E6F1
:10227000D880010E0054000E0154000E0254000ECE
:1022800003543DE22ACFCEF12BCFCFF12CCFD0F1AA
:102290002DCFD1F1020ECE27000ECF23D023D12394
:1022A0002ED0CE0EE96E010EEA6EEE500F012A5DC1
:1022B000006EEE502B59016EEE502C59026EEE500E
:1022C0002D59036EE834000E031809E6D880010E7C
:1022D0000054000E0154000E0254000E03540FE28D
:1022E0002ACFCEF12BCFCFF12CCFD0F12DCFD1F102
:1022F000020E0101CE5F000ECF5BD05BD15B01010E
:10230000CE510F012A270101CF510F012B230101CB
:10231000D0510F012C230101D1510F012D23020EA9
:10232000376E386A396A3A6A2ACF32F02BCF33F0E7
:102330002CCF34F02DCF35F043EC25F032C02AFFFE
:1023400033C02BFF34C02CFF35C02DFF2ACFF3FF45
:0C2350002BCFF4FFE552E7CFD9FF1200BD
:04235C009D9A9E9A0E
:10236000040EAC6E800EAB6EB886B06A440EAF6ED3
:10237000240EAC6E900EAB6E0101F76B200EF75D74
:1023800009E2F751EA6AD40FE96E010EEA22EF6A18
:10239000F72BF4D7F86BF8C1F7F1FA6B9F9A9E9A76
:1023A0009D8A1200D9CFE6FFE1CFD9FFACA2FED7BC
:1023B000FE0EDB50AD6EE552E7CFD9FF1200D9CF4C
:1023C000E6FFE1CFD9FFFD0EDBCFE9FFFE0EDBCF4D
:1023D000EAFFEF500EE0FD0EDBCFE9FFDB2AFE0E39
:1023E000DBCFEAFF01E3DB2AEF50E66EDBDFE552ED
:1023F000EAD7E552E7CFD9FF1200D9CFE6FFE1CF08
:10240000D9FFFC0EDBCFF6FFFD0EDBCFF7FFFE0E94
:10241000DBCFF8FF0800F55016E0D950FC0FE96E4D
:10242000FF0EDA20EA6EEFCFF6FFEE2AEFCFF7FFCE
:10243000000EEE22EFCFF8FFEE220800F550E66E18
:10244000B1DFE552DED7E552E7CFD9FF1200D9CF91
:10245000E6FFE1CFD9FFE6520101F851EA6AD40F55
:10246000E96E010EEA22EFCFDFFF200E006EF82B9F
:10247000F851D880005401E3F86BDF50E552E55283
:10248000E7CFD9FF12000101F751F85D01E1000C1F
:10249000010CD9CFE6FFE1CFD9FF1A0EE126190EC4
:1024A000DB6A0101F56BF66B0101640ED880F5550E
:1024B000000EF6552DE3E7DF0009F6E0C8DFE76E12
:1024C000180EE7CFDBFFDBCF00F0200EE76E001821
:1024D000E8AE02D0E73402D0E750005C19E3170EF3
:1024E000006E190EDB50005C13E3D9CF00F0DACF99
:1024F00001F0190EDBCFF3FFDB2AF3500F01D924D3
:10250000E96E000EDA20EA6E180EDBCFEFFFC9D7B6
:10251000D9CF00F0DACF01F0190EDB500F01D9242A
:10252000E96E000EDA20EA6EEF6A190EDB5009E060
:10253000E66AD9CFE6FFDACFE6FF0DD8E552E552DD
:10254000E5521A0EE15C02E2E16AE552E16EE55203
:10255000E7CFD9FF1200D9CFE6FFE1CFD9FF060EB2
:10256000E126FD0EDBCFE9FFFE0EDBCFEAFFEF50E9
:10257000520A01E165D1040A01E160D1140A01E1C6
:102580004ED10F0A01E1FCD0020A01E1CAD0030AD0
:1025900001E198D0050A52E03A0A4FE0200A01E032
:1025A00051D1640E0101CC6FCD6B010EE76EFD0EB3
:1025B000DBCFE9FFFE0EDBCFEAFFE750E926000E96
:1025C000EA22EF50310A1CE0010A01E031D0030E8B
:1025D000E76EFD0EDBCFE9FFFE0EDBCFEAFFE75033
:1025E000E926000EEA22EF50310805E13DD901014C
:1025F000AA81899E04D00101AA910101AB6B18D078
:10260000030EE76EFD0EDBCFE9FFFE0EDBCFEAFF28
:10261000E750E926000EEA22EF50310802E1010EF0
:1026200001D0000E0101E8B0AA83E8A0AA9300D06F
:10263000010E01010D6F0E6B0DD10CD1010EE76E75
:10264000FD0EDBCFE9FFFE0EDBCFEAFFE750E92608
:10265000000EEA22EF50440822E1030EE76EFD0E61
:10266000DBCFE9FFFE0EDBCFEAFFE750E926000EE5
:10267000EA22EFCF00F0300E005C11E3390E016E5C
:10268000030EE76EFD0EDBCFE9FFFE0EDBCFEAFFA8
:10269000E750E926000EEA22EF50015C01E2DAD0B1
:1026A000030EE76EFD0EDBCFE9FFFE0EDBCFEAFF88
:1026B000E750E926000EEA22EF50D00F0101AB6F80
:1026C000D3D8C8D0010EE76EFD0EDBCFE9FFFE0EBA
:1026D000DBCFEAFFE750E926000EEA22EF50D00FE9
:1026E000DF6E030EE76EFD0EDBCFE9FFFE0EDBCFE4
:1026F000EAFFE750E926000EEA22EF50D00FE76E1E
:10270000010EE7CFDBFF0101AB510AE1010EDBCF88
:10271000E6FFDFCFE6FFAAEC0DF0E552E55200D070
:1027200099D0010EE76EFD0EDBCFE9FFFE0EDBCF89
:10273000EAFFE750E926000EEA22EF50D00FDF6EE5
:10274000030EE76EFD0EDBCFE9FFFE0EDBCFEAFFE7
:10275000E750E926000EEA22EF50D00FE76E010E97
:10276000E7CFDBFF0101AB510AE1010EDBCFE6FF52
:10277000DFCFE6FFF6EC0CF0E552E55200D06AD070
:10278000030EE66E020EE76EFD0EDBCF00F0FE0ECE
:10279000DBCF01F0E7500026000E012200C0E6FF6B
:1027A00001C0E6FF5EDAE552E552E552020EF3CFD4
:1027B000DBFF030EF4CFDBFF030EE66E060EE76EC3
:1027C000FD0EDBCF00F0FE0EDBCF01F0E750002660
:1027D000000E012200C0E6FF01C0E6FF42DAE5522A
:1027E000E552E552040EF3CFDBFF050EF4CFDBFF1D
:1027F0000101AB5113E1040EDBCFE6FF050EDBCF89
:10280000E6FF020EDBCFE6FF030EDBCFE6FFE6ECD2
:1028100009F0E552E552E552E55200D01BD0070E13
:1028200001010D6F0E6BFD0EDBCFE6FFFE0EDBCF61
:10283000E6FF46EC2BF0E552E5520CD05DD80AD00D
:10284000FF0008D0FC0EDB5004E1150EE66EAADD99
:10285000E55200D0060EE15C02E2E16AE552E16E6B
:10286000E552E7CFD9FF1200D9CFE6FFE1CFD9FF7C
:10287000E652410E006E5F0E016E026A00C0E6FF76
:10288000E66E02C0E6FFB9DDE552E552E552010110
:10289000AB5111E1DF6A0A0EDF5C0DE2DF50EA6A3C
:1028A000A00FE96E010EEA22EF50300FE66E7ADDDE
:1028B000E552DF2AF0D7380E006E5F0E016E026A15
:1028C00000C0E6FFE66E02C0E6FF97DDE552E55286
:1028D000E552350E006E5F0E016E026A00C0E6FF23
:1028E000E66E02C0E6FF89DDE552E552E552E552AB
:1028F000E552E7CFD9FF1200D9CFE6FFE1CFD9FFEC
:10290000200EE12677EC2AF0300E006E5F0E016E8D
:10291000026A00C0E6FFE66E02C0E6FF6EDDE55229
:10292000E552E552200EE66E3DDDE552270E006EC3
:102930005F0E016E026A00C0E6FFE66E02C0E6FFAF
:102940005CDDE552E552E55232CFE6FF33CFE6FFDC
:1029500030CFE6FF31CFE6FF2ECFE6FF2FCFE6FFE9
:10296000120E006E5F0E016E026A00C0E6FFE66E98
:1029700002C0E6FFD9CFE6FFDACFE6FFFDEC2DF08F
:10298000036E0B0EE15E0350D9CFE6FFDACFE6FF10
:1029900016DDE552E552200EE15C02E2E16AE55205
:1029A000E16EE552E7CFD9FF1200D9CFE6FFE1CFC4
:1029B000D9FF160EE1260101AB5101E07DD0020ED8
:1029C000DB6A0A0EF36E020EDBCFF4FFF350F45C09
:1029D00062E2020EDB50EA6AA00FE96E010EEA2203
:1029E000EF500AE0020EDB50EA6AA00FE96E010E1A
:1029F000EA22EF5002080FE1020EDBCFE6FF62ECA5
:102A00000DF0E552000903E1006A016A33D0006865
:102A1000030E016E2FD0020EDB50EA6AA00FE96EA2
:102A2000010EEA22EF50060817E1020EEA6ADB34D3
:102A3000FE0BEA36E96E0F0EE926010EEA22EECF12
:102A4000E6FFEFCFE6FF87EC10F0E552E552F3CF5B
:102A500000F0F4CF01F00ED0020EEA6ADB34FE0B78
:102A6000EA36E96E0F0EE926010EEA22EECF00F0FB
:102A7000EFCF01F0020EEA6ADB34FE0BEA36E96EB4
:102A8000AC0EE926010EEA2200C0EEFF01C0EDFF08
:102A9000020EDB2A96D7E66ADAEC0DF0E552E76E15
:102AA000140EE7CFDBFF010EE66EDAEC0DF0E55217
:102AB000E76E150EE7CFDBFF020EDB6A0A0EF36E40
:102AC000020EDBCFF4FFF350F45C34E2020EEA6A4C
:102AD000DB34FE0BEA36E96EAC0EE926010EEA2283
:102AE000EECFE6FFEFCFE6FF020EDB28E66EE66AEA
:102AF000070E006E5F0E016E026A00C0E6FFE66E12
:102B000002C0E6FFD950030FE66E000EDA20E66E33
:102B1000FDEC2DF0036E090EE15E0350D950030F5A
:102B2000E66E000EDA20E66E4ADCE552E552020E51
:102B3000DB2AC4D7020EDB6AD950030F006E020EE7
:102B4000DBCFF3FFDB2AF3500F010024E96E000E08
:102B5000DA20EA6E4C0EEF6ED950030F006E020EB3
:102B6000DBCFF3FFDB2AF3500024E96E000EDA20FE
:102B7000EA6E450EEF6ED950030F006E020EDBCFEA
:102B8000F3FFDB2AF3500024E96E000EDA20EA6E30
:102B9000440EEF6ED950030F006E020EDBCFF3FF31
:102BA000DB2AF3500024E96E000EDA20EA6E3D0EB7
:102BB000EF6E140EDB50300FE66ED950030F006E2F
:102BC000020EDBCFF3FFDB2AF3500024E96E000E88
:102BD000DA20EA6EE552E750EF6E150EDB50300F4B
:102BE000E66ED950030F006E020EDBCFF3FFDB2A37
:102BF000F3500024E96E000EDA20EA6EE552E75049
:102C0000EF6ED950030F006EDACF01F0020EDB50E9
:102C10000024E96E000EDA20EA6EEF6AD950030F45
:102C2000E66E000EDA20E66EDFEC11F0E552E552BA
:102C3000350E006E5F0E016E026A00C0E6FFE66EA2
:102C400002C0E6FFFDEC11F0E552E552E552160E2A
:102C5000E15C02E2E16AE552E16EE552E7CFD9FFBD
:102C60001200D9CFE6FFE1CFD9FF060EE126010E13
:102C7000F36E040EF3CFDBFF050EDB6A020EDB6A98
:102C8000030EDB6ADF6AFC0EDB50DF5C43E2FD0E05
:102C9000DBCFE9FFDB2AFE0EDBCFEAFF01E3DB2A15
:102CA000010EEFCFDBFFDB5035E0010EDB502D08CE
:102CB00005E1040EDB68050EDB682AD0300EF36EEA
:102CC000010EDBCFF4FFF350F45C22E3390E006E0B
:102CD000010EDB50005C1CE3D950020FE96EDACF25
:102CE000EAFF0A0EEC02F3CFEDFFEF02F3CFEEFFA7
:102CF000F450ED26010EDB50D00F006E016AD95062
:102D0000020FE96EDACFEAFF0050EE260150ED2205
:102D1000DF2AB9D7040EDBCF00F0050EDBCF01F0C0
:102D2000D950020FE96EDACFEAFF00C039F001C0D6
:102D30003AF0EECF34F0EDCF35F0A4EC25F032C010
:102D4000EEFF33C0EDFF020EDBCF00F0030EDBCF52
:102D500001F000C0F3FF01C0F4FF060EE15C02E2E7
:102D6000E16AE552E16EE552E7CFD9FF1200D9CF13
:102D7000E6FFE1CFD9FF060EE126DE6ADE6ADE6AF3
:102D8000DD6ADD52DD52040EDB6AFC0EDB50F36EB1
:102D9000040EDBCFF4FFF350F45C57E2FD0EDBCF03
:102DA000E9FFDB2AFE0EDBCFEAFF01E3DB2A050E9B
:102DB000EFCFDBFF300EF36E050EDBCFF4FFF350E9
:102DC000F45C43E3390E006E050EDB50005C3DE31E
:102DD000300E006E050EDBCFE7FF0050E75E050EFC
:102DE000E7CFDBFFD9CFE9FFDACFEAFF0A0E376E74
:102DF000386A396A3A6AEECF32F0EECF33F0EECF6E
:102E000034F0EFCF35F0E4EC2EF031C0EDFF30C000
:102E1000EDFF2FC0EDFF2EC0EFFF050EDBCF00F062
:102E2000016A026A036A00AE03D00168026803689F
:102E30000050DE260150DE220250DE220350DD2249
:102E4000DD52DD52040EDB2AA0D7DECF32F0DECF1A
:102E500033F0DECF34F0DDCF35F0DD52DD52060E3B
:102E6000E15C02E2E16AE552E16EE552E7CFD9FFAB
:102E70001200D9CFE6FFE1CFD9FF040EE126DE6ACA
:102E8000DD6A020EDB6AFC0EDB50F36E020EDBCF56
:102E9000F4FFF350F45C4FE2FD0EDBCFE9FFDB2AD9
:102EA000FE0EDBCFEAFF01E3DB2A030EEFCFDBFFF1
:102EB000300E006E030EDB50D880005408E3030E82
:102EC000DB50390804E3030EDB50D00F1ED0410E57
:102ED000006E030EDB50D880005408E3030EDB5075
:102EE000460804E3030EDB50BF0F0ED0610E006EE8
:102EF000030EDB50D88000541EE3030EDB5066083F
:102F00001AE3030EDB509F0F0A0FE76E030EE7CFA5
:102F1000DBFFD9CFE9FFDACFEAFF040ED890EE3617
:102F2000ED36E806FBE1030EDB50DE26000EDD2267
:102F3000020EDB2AA8D7DECF00F0DDCF01F000C003
:102F4000F3FF01C0F4FF040EE15C02E2E16AE55226
:102F5000E16EE552E7CFD9FF1200D9CFE6FFE1CF0E
:102F6000D9FF300EF36EFE0EDBCFF4FFF350F45CAE
:102F700008E3390E006EFE0EDB50005C02E3000E2B
:102F800001D0010E000902E0000E01D0010EE55251
:102F9000E7CFD9FF1200D9CFE6FFE1CFD9FF300E3E
:102FA000006EFE0EDB50D880005404E3FE0EDB50B2
:102FB000390816E2410E006EFE0EDB50D880005438
:102FC00004E3FE0EDB5046080BE2610E006EFE0EBF
:102FD000DB50D880005406E3FE0EDB50660802E3A7
:0E2FE000010E01D0000EE552E7CFD9FF12001E
:022FEE0033ECC2
:102FF0001DF0FB0EDBCFF3FFDB06F35000090AE008
:1030000081EC1DF0FA0EECEC1DF0F3E1011CF1E196
:10301000010E01D0000E62EF1DF033EC1DF03B0EEF
:10302000E12402E3E168E652E16E010EDB6A020E82
:10303000DB6AF90EDBCFF6FFFA0EDBCFF7FFFB0EF4
:10304000DBCFF8FF0800F550DF6EDF5002E186EFBE
:103050001CF0250EDF5C02E079EF1CF0030EDB6A4A
:10306000040EDB6A050EDB6A060EDB6A070EDB6AFE
:103070009BEC1CF02D0EDF5C0CE02B0EDF5C09E0FE
:10308000200EDF5C06E0230EDF5C03E0300EDF5C29
:103090001AE1DF50300A14E0130A0FE0030A0AE0D5
:1030A0000B0A05E0060AE4E1030EDB80E1D7030E1C
:1030B000DB82DED7030EDB84DBD7030EDB86D8D7BB
:1030C000030EDB88D5D72A0EDF5C1BE197EC1CF0E2
:1030D000E5EC1CF010E0030EDB8034683568130E5D
:1030E000DBCF39F0140EDBCF3AF077EC25F0040E8D
:1030F00032C0DBFF03D0130ECEEC1CF09BEC1CF0B7
:103100000BD0090EDB6A3CEC1DF003E0B0EC1DF0C7
:10311000FAD7090ECEEC1CF0030EDBB0DB982E0EB6
:10312000DF5C1BE19BEC1CF02A0EDF5C0BE197ECF3
:103130001CF0E5EC1CF003E1130E20EC1DF09BEC01
:103140001CF00BD0090EDB6A3CEC1DF003E0B0EC88
:103150001DF0FAD7090E20EC1DF0680EDF5C07E1C8
:103160009BEC1CF0680EDF5C1DE1030E18D0740EA2
:10317000DF5C17E07A0EDF5C14E0480EDF5C06E0EF
:10318000540EDF5C03E05A0EDF5C02E1020E07D052
:103190006C0EDF5C03E06A0EDF5C04E1010E73EC91
:1031A0001DF0C9DBDF506E0A01E17FD31E0A01E189
:1031B00092D1200A01E18FD13F0A01E149D11A0AD7
:1031C00001E146D10D0A01E143D1200A01E140D1DC
:1031D0003A0A01E13DD1200A01E13AD1260A01E192
:1031E00035D10D0A01E132D11A0A01E1D9D0200A04
:1031F0004AE0300A1FE0460A0EE0250A01E083D3C8
:10320000D950F90FE96EFF0EDA20EA6E010EEE5E7C
:10321000000EEE5AEE5A81EC1DF0250EE66E95DB9F
:1032200003E1011C01E169D37DEC1DF001E26BD3E8
:10323000DB2A69D3080EDB6A040EDB50010806E2C4
:10324000040EDB0445EC1DF0DB508BDB080EDB507D
:1032500009E0030EDB50010B05E172DB01E04DD309
:10326000080EDB6A64DBEFCFDFFFF5EC1DF003E156
:10327000011C01E142D37DEC1DF001E3DB2A60DBA0
:1032800001E141D33AD3070EDB5002080FE1C1EC54
:103290001DF0030E88EC1DF00E0EEECFDBFF0F0EBF
:1032A000EECFDBFF100EEECFDBFF20D0F70EDBCF33
:1032B00003F0F80EDBCF04F0020E035E000E045A9A
:1032C000F70E03C0DBFFF80E04C0DBFF03C0E9FF0D
:1032D00004C0EAFF78EC1DF0026A0E0E00C0DBFFAE
:1032E0000F0E01C0DBFF100E02C0DBFF0E0EDBCFA6
:1032F000E6FF0F0EDBCFE6FF100EDBCFE6FF2AEC7A
:103300002FF0E552E552E552130E33C0DBFF140EE9
:1033100034C0DBFF060EDB5005E0130EBCEC1DF0E5
:1033200001E26ADBE0EC1DF002E2130E37DBA3ECF6
:103330001DF006E0040EBCEC1DF002E2050E2EDBD3
:10334000030EDBB005D0FCDA01E0D7D2080EDB6A51
:10335000090EDB6A0E0EDBCFF6FF0F0EDBCFF7FF99
:10336000100EDBCFF8FF0800F550DF6EDF5014E0E1
:10337000E6EC1DF011E2F5EC1DF003E1011C01E1AA
:10338000BCD2BBDB01E3DB2A090EDB2AD9500E0FCE
:10339000E96E000ECBDBE7D7D3DA01E1B4D2ADD2D0
:1033A000C6DA110EEECFDBFF120EEDCFDBFF110EF2
:1033B000DBCFE6FF120EDBCFE6FF1CEC2FF0E55271
:1033C000E552130EF3CFDBFF140EF4CFDBFF060E36
:1033D000DB5004E0130ED0DB01E20EDBE0EC1DF06D
:1033E00002E2130EDBDAAFDB05E0040EC5DB02E21E
:1033F000050ED4DA030EDBB005D0A2DA01E07DD2EF
:10340000080EDB6A090EDB6A110EDBCFE9FF120E34
:10341000DBCFEAFFEFCFDFFFDF5014E0D7DB12E2B4
:10342000E4DB03E1011C01E168D267DB01E3DB2A95
:10343000090EDB2A110EDB2ADBCFE9FF120EE8E3CF
:10344000DB2AE6D77DDA01E15ED257D2030EDB8EAE
:10345000070EDB0410E195DB040E5ADB0A0EEECFFB
:10346000DBFF0B0EEECFDBFF0C0EEECFDBFF0D0E06
:10347000EECFDBFF6CD0070EDB5003082CE1030E10
:10348000DBAE0DD0B2DA020E76DAEFCF00F0016AD1
:10349000026A036A00AE39D00168026835D0F70EBF
:1034A000DBCF01F0F80EDBCF02F0020E015E000E62
:1034B000025AF70E01C0DBFFF80E02C0DBFF01C0AD
:1034C000E9FF02C0EAFFEFCF00F00A0E00C0DBFF09
:1034D0000B0EDB6A38D0070EDB50020809E1030E41
:1034E000DBAE04D059DB02AE10D00ED055DB0DD0D0
:1034F000030EDBAE12D079DA020E3DDAF9DA026A97
:10350000036A01AE02D002680368E2DA0C0E02C060
:10351000DBFF0D0E03C0DBFF1AD0F70EDBCF02F08E
:10352000F80EDBCF03F0020E025E000E035AF70E18
:1035300002C0DBFFF80E03C0DBFF02C0E9FF03C0DF
:10354000EAFFD6DAC5DA0C0EDB6A0D0EDB6A060E70
:10355000DB5005E1010EF36E050EF3CFDBFF150E18
:10356000DB6A160EDB6AD950370F006E000EDA20C8
:10357000016E390E00C0DBFF3A0E01C0DBFF380ED2
:10358000DB6A080EDB6A0A0EAEDADF50780A12E058
:10359000200A10E0280A0CE0200A0AE03F0A06E0B0
:1035A0000D0A02E0200A08E1020E05D0080E03D041
:1035B000080EDF26100E97DA030EDBBE02D0DB9278
:1035C000DB94DB50800B24E08ADAD890030EEB50BA
:1035D000000A08E6000EEE5C000EEE58000EEE58F3
:1035E000000EEE5815E213DA3768386839683A6821
:1035F000E4EC2EF00A0E2EC0DBFF0B0E2FC0DBFF1B
:103600000C0E30C0DBFF0D0E31C0DBFF2D0E08D0DD
:10361000030EDBA202D02B0E03D0DBA408D0200EB9
:10362000F36E170EF3CFDBFF150EDB2A02D0170E59
:10363000DB6A050EDB5003E1B7D901E189D0C80E82
:10364000006E600E016E000E026E070EDBCF03F0FF
:10365000046A056A066A03C037F004C038F005C082
:1036600039F006C03AF0D3D9D5EC2FF000502E2413
:10367000F36E01502F20F46E02503020F86EF4CF1C
:10368000F7FFF3CFF6FF0800090EF5CFDBFF580E6A
:10369000DF5C0FE1610EF36E090E7BD90AE3200EA9
:1036A000006E090EDBCFE7FF0050E75E090EE7CFA3
:1036B000DBFF070EDBCF00F0016A026A036A0FDA54
:1036C00000C037F001C038F002C039F003C03AF052
:1036D000EECF32F0EECF33F0EECF34F0EFCF35F067
:1036E000D5EC2FF035C0EDFF34C0EDFF33C0EDFF5A
:1036F00032C0EFFF390EDBCFE9FFDB063A0EDBCF3E
:10370000EAFF01E2DB06090EDBCFEFFF150EDB2A35
:103710004BD995E1030EDBA61DD06F0EDF5C06E1F1
:10372000C1D918E3150EDB285BDA14D0780EDF5C04
:1037300009E0580EDF5C06E0620EDF5C03E0420E3B
:10374000DF5C08E1020EF36E160EF3CFDBFF02D052
:10375000150EDB6A030EDB50100B0EE0040EDBCF00
:1037600000F0050EDB50D880005406E2060EDB5058
:1037700003E1040EDB5034DA95D90AE2050EDBCF03
:10378000E7FF150EDB50E75E050EE7CFDBFF02D04B
:10379000050EDB6A040EDBCF00F0160E45D9D8808B
:1037A000005414E2160EDBCFE6FF150EDBCFE6FF6A
:1037B000040EDBCFE6FF050EDB50E552E75CE55279
:1037C000D880E754E552D880E7545FD9030EDB5028
:1037D000010B0BE1080EDB5008E0B2D801E08DD000
:1037E000080EDB50BED8080EDB6A170EDB5007E070
:1037F00088D9170EF1D903E1011C01E17ED0160E24
:10380000DB5016E07ED9300EE66E9FD802E1011C37
:1038100074E077D9DFCFE6FFA2EC2EF0E552E55257
:10382000E552F4CF01F00001F31C02E1011C65E058
:10383000050EDBCF00F0160EDB50D880005409E2F5
:10384000050EDBCFE7FF160EDB50E75E050EE7CF78
:10385000DBFF300EE66E050ECBD94FE1390EDB2AC9
:10386000DBCFE9FF3A0E01E3DB2ADBCFEAFF090EEB
:10387000EFCFDBFFDB500EE044D9090EADD902E1FA
:10388000011C3BE0390EDB2ADBCFE9FF3A0EEDE30A
:10389000DB2AEBD755D831E1160EDBCFE6FF080E59
:1038A000C3D8E552E7245DD82ED0070EDB50030ABB
:1038B0001CE0010A14E0030A07E07BD9DBCFEEFF2E
:1038C000020EDBCFEDFF1FD0F5D8056A03AE02D0A4
:1038D000046805682CD8BCD805C0EEFF14D0EAD81F
:1038E00003BE046824D8B4D80ED063D9DBCFEFFF71
:1038F0000AD07BD905E1011C03E1F368F46810D01C
:10390000FCD801E3DB2A79D922EF18F0010EDBCFD6
:1039100000F0020EDBCF01F000C0F3FF01C0F4FFA6
:103920003B0EE15C02E2E16AE552E16ECBD029D9BF
:10393000020E88EF1DF061D90800F550DF6E12000D
:10394000200EE66E080EF8EF1DF0A2EC2EF0E55208
:10395000E552E552F3CF00F0F4CF01F00001F31C83
:103960001200006E016AD950010F4DD90050EE26A9
:103970000150ED221200045E000E055AF70E04C03D
:10398000DBFFF80E05C0DBFF04C0E9FF05C0EAFF5E
:103990001200DBCFF4FFF350F45C1200DB50E76E53
:1039A000040EE7CFDBFF12000A0EDBCF00F00B0E98
:1039B000DBCF01F00C0EDBCF02F00D0EDBCF03F0FE
:1039C00000500110021003101200130EEECFDBFFA7
:1039D000140EEDCFDBFF130EDBCF00F0140EDBCFA8
:1039E00001F00001800E01141200F70EDBCF04F08D
:1039F000F80EDBCF05F01200050EDB50E66ED95055
:103A0000130F01D9E552E750EE6EED6A12000A0E6F
:103A1000DBCF32F00B0EDBCF33F00C0EDBCF34F00C
:103A20000D0EDBCF35F01200DBCFE6FF150EDBCF3E
:103A3000E6FF050EDB50E552E724E552E7241200CD
:103A4000DB50CED8010EF36E060EF3CFDBFF120073
:103A5000EE50EFCFEAFFE96E02C0EEFF03C0EEFFCB
:103A600004C0EEFF1200D9CFE6FFDACFE6FFE1CFC8
:103A7000D9FFE2CFDAFF1200DFCFE6FFE66A0FECF4
:103A800030F0E552E552F3501200E76E080EE7CF32
:103A9000DBFF1200EECF00F0EECF01F0EFCF02F02F
:103AA000036A1200050EDBCF00F0150EDB50D88044
:103AB00000541200010EDBCF02F0020EDBCF03F048
:103AC000046A1200E552E5CFDAFFE7CFD9FF120012
:103AD0000A0E00C0DBFF0B0E01C0DBFF1200D95045
:103AE0000A0F03EF1EF0F36E070EF3CFDBFF120099
:103AF000EECF00F0EFCF01F01200010EDB2A020E34
:103B00001200FC0EDBCFE6FFFD0EDBCFE6FF12005E
:103B1000005E000E015AF70E00C0DBFFF80E01C078
:103B2000DBFF00C0E9FF01C0EAFF1200DA20EA6E05
:103B3000EF2AEECFF6FF000EEF22EECFF7FFEF22D7
:103B4000EECFF8FF1200040EDBCFE6FF130EDB50C2
:103B5000E552E75C9ADFDB5004DF060EDB50120013
:103B6000090EDB500A0DF350DF24D00FE76E090E6B
:103B7000E7CFDBFF9BEF1CF0DB50F36E050EC9EFC8
:103B80001CF0F70EDBCF00F0F80EDBCF01F01200D7
:103B9000DFCFE6FFA5EF1CF028DF030EECDE4AEFD7
:103BA0001DF0F7EC17F0E552E552E552E552000939
:103BB0001200BDDEEE50EFCFEAFFE96E010E1200FB
:103BC000130EDB50F36E040EC9EF1CF0040EDB5035
:103BD000F36E090EC9EF1CF0DBCFE6FFA5EF1CF07A
:103BE000E76E050EE7CFDBFF12008BDFC8EF1DF09D
:103BF000DBCFE6FF86DFD1EF1DF0D950F90FE96E7C
:103C0000FF0E96EF1DF0E96E000EDA20EA6E12004C
:103C1000D9CFE6FFE1CFD9FFFD0EDBCF00F0FE0EDE
:103C2000DBCF01F0FB0EDBCF02F0FC0EDBCF03F0AD
:103C300003500118E8AE02D0013404D00050025CF9
:103C40000150035805E2FB0EDBCF00F0FC0E20D044
:103C5000FD0EDBCF00F0FE0EDBCF01F0F90EDBCF67
:103C600002F0FA0EDBCF03F001500318E8AE02D0E9
:103C7000033404D00250005C0350015805E2F90EF1
:103C8000DBCF00F0FA0E04D0FD0EDBCF00F0FE0E0D
:103C9000DBCF01F000C0F3FF01C0F4FFE552E7CF36
:103CA000D9FF1200BEC0C2F0BFC0C3F0C0C0C4F094
:103CB000C1C0C5F00FC1BEF010C1BFF011C1C0F04E
:103CC00012C1C1F013C1C6F014C1C7F015C1C8F0CC
:103CD00016C1C9F017C1CAF018C1CBF019C1CCF098
:103CE0001AC1CDF01BC1CEF01CC1CFF01DC1D0F068
:103CF0001EC1D1F01200D9CFE6FFE1CFD9FFFD0EF2
:103D0000DBCF10F0FE0EDBCF11F03C0E105E000E8C
:103D1000115A10C034F011C035F0D9EC23F033C083
:103D20000CF034C00DF035C00EF036C00FF0D00EE0
:103D3000386E0F0E396E490E3A6E400E3B6ED6EC61
:103D400024F033C008F034C009F035C00AF036C0A2
:103D50000BF0386A396A340E3A6E430E3B6E83ECD0
:103D600024F033C004F034C005F035C006F036C08E
:103D700007F033C0E6FF34C0E6FF35C0E6FF36C0CB
:103D8000E6FFADEC2FF0E552E552E552E55232C0C8
:103D900000F033C001F034C002F035C003F0FB0E78
:103DA000DBCF16F0FC0EDBCF17F0166C171E000EE3
:103DB000172216C034F017C035F0D9EC23F033C009
:103DC00012F034C013F035C014F036C015F033C013
:103DD00038F034C039F035C03AF036C03BF000C09E
:103DE00033F001C034F002C035F003C036F0D6EC39
:103DF00024F0C2EC25F034C0EBF035C0ECF03C0E02
:103E0000E76EFD0EDBCF10F0FE0EDBCF11F0E750BA
:103E10001026000E112210C034F011C035F0D9EC7C
:103E200023F033C00CF034C00DF035C00EF036C0B6
:103E30000FF0D00E386E0F0E396E490E3A6E400EEE
:103E40003B6ED6EC24F033C008F034C009F035C026
:103E50000AF036C00BF0386A396A340E3A6E430EF7
:103E60003B6E83EC24F033C004F034C005F035C061
:103E700006F036C007F033C0E6FF34C0E6FF35C0B9
:103E8000E6FF36C0E6FFADEC2FF0E552E552E55215
:103E9000E55232C000F033C001F034C002F035C04A
:103EA00003F0FB0EDBCF34F0FC0EDBCF35F0D9ECAA
:103EB00023F033C012F034C013F035C014F036C014
:103EC00015F033C038F034C039F035C03AF036C0A0
:103ED0003BF000C033F001C034F002C035F003C045
:103EE00036F0D6EC24F0C2EC25F034C0EDF035C04D
:103EF000EEF0FD0EDBCF10F0FE0EDBCF11F0870EE3
:103F0000105E000E115A10C034F011C035F0D9EC1B
:103F100023F033C00CF034C00DF035C00EF036C0C5
:103F20000FF0D00E386E0F0E396E490E3A6E400EFD
:103F30003B6ED6EC24F033C008F034C009F035C035
:103F40000AF036C00BF0386A396A340E3A6E430E06
:103F50003B6E83EC24F033C004F034C005F035C070
:103F600006F036C007F033C0E6FF34C0E6FF35C0C8
:103F7000E6FF36C0E6FFADEC2FF0E552E552E55224
:103F8000E55232C000F033C001F034C002F035C059
:103F900003F0FB0EDBCF16F0FC0EDBCF17F0166C38
:103FA000171E000E172216C034F017C035F0D9ECDA
:103FB00023F033C012F034C013F035C014F036C013
:103FC00015F033C038F034C039F035C03AF036C09F
:103FD0003BF000C033F001C034F002C035F003C044
:103FE00036F0D6EC24F0C2EC25F034C0EFF035C04A
:103FF000F0F0870EE76EFD0EDBCF10F0FE0EDBCF8C
:1040000011F0E7501026000E112210C034F011C03C
:1040100035F0D9EC23F033C00CF034C00DF035C0CE
:104020000EF036C00FF0D00E386E0F0E396E490EFE
:104030003A6E400E3B6ED6EC24F033C008F034C02C
:1040400009F035C00AF036C00BF0386A396A340E10
:104050003A6E430E3B6E83EC24F033C004F034C060
:1040600005F035C006F036C007F033C0E6FF34C0B7
:10407000E6FF35C0E6FF36C0E6FFADEC2FF0E552B7
:10408000E552E552E55232C000F033C001F034C0D1
:1040900002F035C003F0FB0EDBCF34F0FC0EDBCFBB
:1040A00035F0D9EC23F033C012F034C013F035C032
:1040B00014F036C015F033C038F034C039F035C0D4
:1040C0003AF036C03BF000C033F001C034F002C01B
:1040D00035F003C036F0D6EC24F0C2EC25F034C045
:1040E000F1F035C0F2F034C0E6FF35C0E6FFEFC0B6
:1040F000E6FFF0C0E6FFEDC0E6FFEEC0E6FFEBC076
:10410000E6FFECC0E6FF08D8006E080EE15E005046
:10411000E552E7CFD9FF1200D9CFE6FFE1CFD9FFB3
:10412000080EE126FD0EDB500001E225006EFE0EBA
:10413000DB50E3210001016E00C0DEFFDD6ED80E12
:10414000E66EE668280EE66EE66ADECFE6FFDDCFB5
:10415000E6FF5EDD006E060EE15E0050F3CFDEFF8F
:10416000F4CFDDFFFB0EDBCF34F0FC0EDBCF35F000
:104170000001E251345C006EE3513558016E020ECD
:1041800000C0DBFF030E01C0DBFFD80EE66EE66861
:10419000280EE66EE66A020EDBCFE6FF030EDBCFEB
:1041A000E6FF36DD006E060EE15E0050020EF3CF34
:1041B000DBFF030EF4CFDBFFF90EDB500001E2253D
:1041C0000001006EFA0EDB500001E3210001016ED8
:1041D000040E00C0DBFF050E01C0DBFFD80EE66E4B
:1041E000E668280EE66EE66A040EDBCFE6FF050EF3
:1041F000DBCFE6FF0DDD006E060EE15E0050040E23
:10420000F3CFDBFF050EF4CFDBFFF70EDBCF34F08F
:10421000F80EDBCF35F00001E251345C006EE35163
:104220003558016E060E00C0DBFF070E01C0DBFF34
:10423000D80EE66EE668280EE66EE66A060EDBCF5E
:10424000E6FF070EDBCFE6FFE3DC006E060EE15E65
:104250000050060EF3CFDBFF070EF4CFDBFFDECFFF
:1042600002F0DDCF03F00001800E03140DE0DECF7D
:1042700000F0DDCF01F0000E006C011E0122800E67
:104280000012000E011204D0DECF00F0DDCF01F0ED
:1042900000C0B8F0020EDBCF02F0030EDBCF03F05C
:1042A000800E03140FE0020EDBCF00F0030EDBCF15
:1042B00001F0006C011E000E0122800E0012000EA3
:1042C000011206D0020EDBCF00F0030EDBCF01F0AF
:1042D00000C0B9F0040EDBCF02F0050EDBCF03F017
:1042E000800E03140FE0040EDBCF00F0050EDBCFD1
:1042F00001F0006C011E000E0122800E0012000E63
:10430000011206D0040EDBCF00F0050EDBCF01F06A
:1043100000C0BAF0060EDBCF02F0070EDBCF03F0D1
:10432000800E03140FE0060EDBCF00F0070EDBCF8C
:1043300001F0006C011E000E0122800E0012000E22
:10434000011206D0060EDBCF00F0070EDBCF01F026
:1043500000C0BBF02FEC2DF0080EE15C02E2E16A38
:10436000E552E16EE552E7CFD9FF1200CEC0E4F08E
:10437000CFC0E5F00001E53509E2E4519008010EF7
:10438000E55504E2200EE45F030EE55BD890E437C8
:10439000E537CEC0D8F0CFC0D9F0D86DD91F000E08
:1043A000D923DA51D85DE86FDB51D959E96FD8C00C
:1043B000DAF0D9C0DBF0E4C034F0E5C035F0D9EC78
:1043C00023F033C000F034C001F035C002F036C035
:1043D00003F09A0E386E990E396E190E3A6E3E0E33
:1043E0003B6ED6EC24F0C2EC25F034C0D2F035C0E0
:1043F000D3F00001D46BD56BE8C0D6F0E9C0D7F09C
:104400003450D425006E3550D521016E0050D6258C
:10441000E26F0150D721E36FE70EE66EE668190EF2
:10442000E66EE66AE2C0E6FFE3C0E6FF08EC1EF0D7
:10443000060EE15EF3CFE2F0F4CFE3F01200C8C065
:1044400034F0C9C035F0D9EC23F033C000F034C0EB
:1044500001F035C002F036C003F0660E386E396EDA
:10446000A60E3A6E3F0E3B6ED6EC24F0C2EC25F061
:1044700034C0E4F035C0E5F00001353409E2E45120
:104480009008010EE55504E2200EE45F030EE55BA3
:10449000E4C0DCF0E5C0DDF0DC6DDD1F000EDD23E7
:1044A000DE51DC5DE86FDF51DD59E96FDCC0DEF025
:1044B000DDC0DFF0E4C034F0E5C035F0D9EC23F026
:1044C00033C004F034C005F035C006F036C007F044
:1044D0009A0E386E990E396E190E3A6E3E0E3B6E7C
:1044E000D6EC24F033C000F034C001F035C002F047
:1044F00036C003F0E8C034F0E9C035F0D9EC23F061
:1045000033C008F034C009F035C00AF036C00BF0F3
:1045100033C038F034C039F035C03AF036C03BF023
:1045200000C033F001C034F002C035F003C036F0F3
:10453000EDEC23F0C2EC25F034C0E2F035C0E3F03E
:10454000EC0EE66EE668140EE66EE66A34C0E6FF30
:1045500035C0E6FF08EC1EF0006E060EE15E00506E
:10456000F3CFE2F0F4CFE3F00001E26DE31F000EC1
:10457000E32312000001D890C15104E63A0EC05D59
:10458000020EC15902E3280E0BD0D890C15104E6A7
:10459000C20EC05D010EC15902E3230E01D0190EF7
:1045A000F36EF46A120052EC1EF0E0DE0001BF353B
:1045B00004E2BE512008030EBF5501E2ECD0BEC09C
:1045C00034F0BFC035F0D9EC23F033C000F034C074
:1045D00001F035C002F036C003F0086A096A480EDF
:1045E0000A6E420E0B6EC0C014F0C1C015F0940EDE
:1045F000D8801456020E155614C034F015C035F08C
:10460000D9EC23F033C010F034C011F035C012F0F3
:1046100036C013F00A0E386ED70E396E230E3A6E7E
:104620003D0E3B6ED6EC24F033C00CF034C00DF0E0
:1046300035C00EF036C00FF033C038F034C039F05A
:1046400035C03AF036C03BF008C033F009C034F052
:104650000AC035F00BC036F0ECEC23F033C004F0A8
:1046600034C005F035C006F036C007F033C038F06E
:1046700034C039F035C03AF036C03BF000C033F0FA
:1046800001C034F002C035F003C036F0F1EC25F083
:10469000010A01E080D0BEC034F0BFC035F0D9ECD3
:1046A00023F033C016F034C017F035C018F036C010
:1046B00019F01E6A800E1F6E310E206E440E216EA0
:1046C000C0C02AF0C1C02BF0940ED8802A56020E2A
:1046D0002B562AC034F02BC035F0D9EC23F033C070
:1046E00026F034C027F035C028F036C029F00A0E75
:1046F000386ED70E396E230E3A6E3D0E3B6ED6ECF9
:1047000024F033C022F034C023F035C024F036C08A
:1047100025F033C038F034C039F035C03AF036C037
:104720003BF01EC033F01FC034F020C035F021C074
:1047300036F0EDEC23F033C01AF034C01BF035C076
:104740001CF036C01DF033C038F034C039F035C02D
:104750003AF036C03BF016C033F017C034F018C042
:1047600035F019C036F0FAEC25F0010A14E1000129
:10477000BF3504E2BE516808010EBF5505E32D0E9A
:10478000E66EE66A5A0E0AD02D0EE66EE66AA60EB0
:10479000E66EE66805D0000EE66EE66AE66EE66A4C
:0E47A0007BEC1EF0E552E552E552E552FCD6E8
:0247AE002D9E3E
:1047B00008D02D9E35AE05D0346C351EE86A352202
:1047C0002D8E35C02FF034C02EF03F6A3E6A8E0E1B
:1047D000306E316A74EF26F03B7E2D6AB0EC26F025
:1047E000C8EC26F02DB658EF26F02DA20AD02DAA3F
:1047F00003D02DBE58EF26F02DA464EF26F061EF14
:1048000026F02DAA05D02DAC64EF26F061EF26F03E
:104810002DA00AD02DA808D02DBE04D02DA402D0E2
:104820006DEF26F071EF26F03E6A316A3B50365C40
:104830003D6E10E333C03FF034C02EF035C02FF092
:1048400036C03CF038C033F039C034F03AC035F0EF
:104850002D3A09D038C03FF039C02EF03AC02FF0C1
:104860003BC03CF03D6C2D9E2DBC2D8E3CC030F0ED
:104870002DB0A0EF26F01A0E3D60A0EF26F0306AB2
:10488000366A2DA408D0336C341E351E361EE86AF5
:104890003422352236222DAC08D03F6C2E1E2F1E1E
:1048A000301EE86A2E222F223022326A3D5207E063
:1048B000363435323432333232323D2EF9D733503A
:1048C0003F2634502E2235502F223650302232C00F
:1048D0003EF02D9E30AE0BD03E6C3F1E2E1E2F1E86
:1048E000301EE86A3F222E222F2230222D8E30A049
:1048F00006D0D8802F322E323F323E323C2A3CC086
:1049000030F074EF26F02D6AB0EC26F0C8EC26F0FB
:104910002DB658EF26F02DA205D02DBA58EF26F06F
:104920005FEF26F02DBA6BEF26F02DA005D02DB845
:1049300058EF26F06BEF26F02DB85FEF26F0316AC6
:104940007F0E3624306EE86A31223B50305EE86AD2
:10495000315A1A0E3C6E366A3E6A3F6A2E6A2F6AD8
:104960003850335E3950345A3A50355A000E365A60
:1049700009E738503326395034223A503522000E98
:10498000362201D03E8AD890333634363536363624
:10499000D8903E363F362E362F363C2EE1D7355056
:1049A00034103310D8A43E8A74EF26F02D6AB0EC90
:1049B00026F0C8EC26F02DB658EF26F02DA205D033
:1049C0002DB858EF26F05FEF26F02DAA05D02DB0B8
:1049D00058EF26F05FEF26F02DB002D02DA802D0C0
:1049E0006BEF26F0316A3B503624306EE86A312294
:1049F0007E0E305EE86A315A3E6A3F6A2E6A2F6A3E
:104A00003A503502F4CF2FF0F3CF2EF03950350263
:104A1000F3503F26F4502E22000E2F223A5034023B
:104A2000F3503F26F4502E22000E2F22385035022C
:104A3000F3503E26F4503F22000E2E222F223950F2
:104A40003402F3503E26F4503F22000E2E222F2235
:104A50003A503302F3503E26F4503F22000E2E22ED
:104A60002F2238503402F4503E26000E3F222E22D0
:104A70002F2239503302F4503E26000E3F222E22C0
:104A80002F2274EF26F02C6AE86A3AAE50EF25F038
:104A9000376C381E391E3A1E382239223A222C1E13
:104AA00035AE5BEF25F0326C331E341E351E3322DB
:104AB000342235222C1ED5EC2FF035BE72EF25F0B6
:104AC0002CAE000C326C331E341E351EE86A3322C5
:104AD000342235222E6C2F1E301E311E2F22302202
:104AE0003122000C2CBE62EF25F02D88FF0C35C062
:104AF0003FF034C03EF034503902F4CF33F0F3CFFE
:104B000032F035503A02F4CF35F0F3CF34F03902B9
:104B1000F3503326F4503422E86A35223E503A02EC
:104B2000F3503326F4503422E86A35223AAE9DEF32
:104B300025F03E50345E3F50355A3FAE000C3950A0
:104B4000345E3A50355A000C34C03EF034503902CD
:104B5000F4CF33F0F3CF32F035503A02F4CF35F0E2
:104B6000F3CF34F03902F3503326F4503422E86A9C
:104B700035223E503A02F3503326F4503422E86A8C
:104B80003522000C2D6AB0EC26F02DB6CCEF25F0C6
:104B90002DA20ED02DB405D07F0E356EFF0E346ED3
:104BA0001FD0800E356E346A1BD0356A346A18D037
:104BB0002DB0FBD78F0E3660EDD77E0E3664F5D75D
:104BC0008E0E365C05E0D89035323432362AF8D76E
:104BD0002DA406D0346C351EE86A352235AEE5D7F3
:104BE000120003EC26F02DB6000C2DB0000C2DB4F5
:104BF000000C010C03EC26F02DB6000C2DB0000CBF
:104C00002DA4000C010C2D6AB0EC26F0C8EC26F0A7
:104C10002DB612002DAE08D02DA004D02DA802D0A4
:104C20002D8012002D9012003B50365C0BE13A5063
:104C3000355C08E13950345C05E13850335C02E101
:104C40002D801200D8A002D02D8E10D036503BC03F
:104C500036F03B6E35503AC035F03A6E345039C0BC
:104C600034F0396E335038C033F0386E3B50365C18
:104C700010E0FF0F09E02D902DB403D02DAE2D8450
:104C800012002DAE2D9412003B2AD8903A323932C0
:104C900038323850335E3950345A3A50355A35BE6E
:104CA000EAD7D890333634363536362EF8D7C8D7CB
:104CB0007F0E366EFF0E356E346E336E12007F0E31
:104CC0002DBEFF0E366E02D07F0E366E800E356E14
:104CD000346A336AF3D72DAE04D0800E366E356A4F
:104CE000F7D7366A356AF4D72F502E103F103E1092
:104CF000F8E031BEF0D72FBE0CD030503110EBE0D1
:104D0000D8903E363F362E362F363006D8A03106A4
:104D1000F2D73150D4E13028D2E03EAE11D07F0E30
:104D20003E1402E13FA00CD03F2AE86A2E222F2237
:104D300007E3D8802F322E323F32302A3028BFE0AE
:104D40003050C9E03FC033F02EC034F02F34356E00
:104D50003030366E3532369E2DBE368E5EEF26F002
:104D60003536363602E32D842D7E06E12D80366AF7
:104D7000356A346A336A1200362803E0D880353247
:104D80001200D890353202E12D8212002D861200D9
:104D90003A363B3602E32D8C2D7E06E12D883B6AA8
:104DA0003A6A396A386A12003B2803E0D8803A32FE
:104DB0001200D8903A32EAE12D8A12002D9E0CD0D2
:104DC0002D9E35AE09D0326C331E341E351EE86A76
:104DD0003322342235222D8E35C02FF034C02EF0F0
:104DE00033C03FF032C03EF09E0E306E316A74EF39
:104DF00026F02D6AB0EC26F02DB603EF27F02DA299
:104E00000FD02DB407D07F0E356EFF0E346E336E8B
:104E1000326E25D0800E356E01D0356A000EF6D781
:104E20002DB0FBD7326A9F0E3660EBD77E0E36640C
:104E3000F4D79E0E365C07E0D890353234323332E8
:104E40003232362AF6D72DA40AD0326C331E341EE5
:104E5000351EE86A33223422352235AEDED7120001
:104E6000D9CFE6FFDACFE6FFE1CFD9FFE2CFDAFF15
:104E7000220EE12402E3E168E652E16ED950130FFD
:104E8000E66E000EDA20E66EA8DA6FEC2DF0006E0A
:104E9000060EE15C02E2E16AE552E16E0050E76E67
:104EA0000E0EE7CFDBFFDB50840B0CE0210E000180
:104EB000FD6FFE6B0F0EDB68100EDB68110EDB68FA
:104EC0007F0E6ED08ADA36DA020E32C0DBFF030EB6
:104ED00033C0DBFF040E34C0DBFF050E35C0DBFF43
:104EE00087DA386A100E396E490E3A6E460E14DAB9
:104EF000FAEC25F0010A32E07BDA67DA0DDA83ECAE
:104F000024F0BFD9060EDBCF33F0070EDBCF34F031
:104F1000080EDBCF35F0090EDBCF36F0F9EC26F0CA
:104F2000E0EC26F0AED964DA060EDBCF08F0070E0F
:104F3000DBCF09F0080EDBCF0AF0090EDBCF0BF058
:104F400044DA3B6E08C033F009C034F00AC035F0D3
:104F50000BC036F048DAECEC23F0C4D9F90EDB5084
:104F600012E00E0EDB040BE1FA0EDBCF00F0FB0EBD
:104F7000DBCF01F0FC0EDBCF02F0FD0E52D167D982
:104F80003A6AF8D947D00E0EDB0419E10F0EDB6A3E
:104F9000100EDB6A800EF36E110EF3CFDBFF3F0EB7
:104FA000F36E120EF3CFDBFF0F0EDBCF00F0100E0F
:104FB000DBCF01F0110EDBCF02F0120E32D1190E51
:104FC000DB6A45D9800E3A6ED5D9006A016A026A59
:104FD0003F0E036ED950060FE96E000EDA20EA6E1E
:104FE000EECF33F0EECF34F0EECF35F0EFCF36F03A
:104FF00000C038F001C039F002C03AF003C03BF005
:10500000ECEC23F036C0EDFF35C0EDFF34C0EDFF12
:1050100033C0EFFFDF50010B0AE0190EDB5002E056
:10502000000E01D0010EE76E190EE7CFDBFF8CD921
:10503000060EDBCF0CF0070EDBCF0DF0080EDBCF3A
:105040000EF0090EDBCF0FF0386A396A490E3A6E5E
:10505000400E3B6E0CC033F00DC034F00EC035F086
:105060000FC036F0D6EC24F05CD9A6D995D9ECEC7B
:1050700023F077D9060EDBCF14F0070EDBCF15F047
:10508000080EDBCF16F0090EDBCF17F0220E386EBC
:10509000AA0E396E7D0E3A6E3A0E3B6E14C033F096
:1050A00015C034F016C035F017C036F0D6EC24F039
:1050B00033C010F034C011F035C012F036C013F018
:1050C000EDD8ECEC23F00A0E33C0DBFF0B0E34C03E
:1050D000DBFF0C0E35C0DBFF0D0E36C0DBFFD950F9
:1050E0000A0FE96E000EEAD825D932C000F033C0AD
:1050F00001F034C002F035C003F0386A396A800E1E
:105100003A6E390E3B6E32C033F04FD9FAEC25F0CF
:10511000010A13E1D9500A0FE96E000EDA20EA6E97
:10512000020EEECFDBFF030EEECFDBFF040EEECF61
:10513000DBFF050EEECFDBFF68D0E1D80A0EDBCF38
:1051400038F00B0EDBCF39F00C0EDBCF3AF00D0E42
:10515000DBCF3BF0D6EC24F01A0E33C0DBFF1B0E86
:1051600034C0DBFF1C0E35C0DBFF1D0E36C0DBFF7D
:105170005B0E336E9C0E346E2E0E356E360E366E12
:1051800072D8CFD8220E386EB20E396E4F0E3A6EEC
:10519000B90E32D99ED83E0E386E870E396E080E83
:1051A0003A6E3C0E29D9DDD8A40E386EAA0E396E9F
:1051B0002A0E3A6EBE0E20D91E0E33C0DBFF1F0E24
:1051C00034C0DBFF200E35C0DBFF210E36C0DBFF15
:1051D0000A0EDBCF00F00B0EDBCF01F00C0EDBCFA5
:1051E00002F00D0EDBCF03F08AD81E0EDBCF38F0B5
:1051F0001F0EDBCF39F0200EDBCF3AF0210EDBCFD4
:105200003BF0F1D8EDEC23F06DD8190EDB5008E03F
:105210009BD8386A396A800E3A6EBF0EF0D803D038
:1052200042D8DBCF03F000C032F001C033F002C03F
:1052300034F003C035F0220EE15C02E2E16AE5528F
:10524000E16EE552E5CFDAFFE7CFD9FF12007CD857
:10525000830E386EF90E396EA20E3A6E3E0ECFD81E
:10526000386A396A12001A0EDBCF38F01B0EDBCF1A
:1052700039F01C0EDBCF3AF01D0EDBCF3BF0D6EF42
:1052800024F0060E33C0DBFF070E34C0DBFF080E30
:1052900035C0DBFF090E36C0DBFF12008DD800C021
:1052A00033F0D5EF29F0020EDBCF00F0030EDBCF99
:1052B00001F0040EDBCF02F0050E1200DA20EA6ED8
:1052C000EECFE6FFEECFE6FFEECFE6FFEFCFE6FF55
:1052D000120033C004F034C005F035C006F036C00B
:1052E00007F01200020E33C0DBFF030E34C0DBFFF9
:1052F000040E35C0DBFF050E36C0DBFF12000A0EC0
:10530000DBCF33F00B0EDBCF34F00C0EDBCF35F000
:105310000D0EDBCF36F012003B6E00C033F0D5EF40
:1053200029F033C008F034C009F035C00AF036C0A7
:105330000BF012004FEC2FF0E552E552E552E5522A
:1053400012003B6EEDEF23F0020EDBCF04F0030EF4
:10535000DBCF05F0040EDBCF06F0050EDBCF07F048
:10536000120033C000F034C001F035C002F036C086
:1053700003F012003F0EE5DFC2EC25F034C0DEFF83
:1053800035C0DDFF000EDFCF34F0010EDBCF35F08E
:10539000D9EC23F041EF29F004C033F005C034F01C
:1053A00006C035F007C036F0120001C034F002C06C
:1053B00035F003C036F0120033C038F034C039F095
:1053C00035C03AF036C03BF01200DB0E386E0F0EDF
:1053D000396EC90E3A6E400E1200D950FA0FE96EBE
:1053E000FF0E5EEF29F0D6EC24F073DF4EEF29F0CC
:1053F0005ADFDBCF03F01200A4DF33EF29F03B6E5E
:0A540000CBDFD6EC24F0B1EF29F069
:06540A00D9CFE6FFE1CF5F
:10541000D9FF030EE126FD0EDBCF34F0FE0EDBCF0D
:1054200035F0DE5234C0DEFF35C0DDFFDD52020E46
:10543000DB50AA6E010EDB50A96EA69EA69CA6802C
:10544000A850DF6EDF50006E030EE15C02E2E16AFD
:10545000E552E16E0050E552E7CFD9FF1200D9CFF7
:10546000E6FFE1CFD9FF040EE126FD0EDBCF34F0DD
:10547000FE0EDBCF35F0020E34C0DBFF030E35C06D
:10548000DBFFDB50AA6E020EDB50A96EFC0EDB5078
:10549000A86EA69EA69CA684F29E550EA76EAA0E86
:1054A000A76EA682DE6ADD6AA6A215D0DFCF00F065
:1054B000DF2A010EDBCF01F001E3DB2A026A0234AE
:1054C000000E021807E6D880E80E0054FD0E0154C5
:1054D000000E0254E9E2F28EA694040EE15C02E2B0
:1054E000E16AE552E16EE552E7CFD9FF1200D9CF6C
:1054F000E6FFE1CFD9FF020EE126000EE66EE66A76
:1055000084DFE552E552DF6E010EE66EE66A7DDF6E
:10551000E552E552E76E010EE7CFDBFFDECF00F08C
:10552000DDCF01F0F00ED8800054000E015402E2ED
:10553000DE6ADD6ADECF2EFFDDCF2FFF020EE66EC4
:10554000E66A63DFE552E552DF6E030EE66EE66A59
:105550005CDFE552E552E76E010EE7CFDBFFDECF01
:1055600000F0DDCF01F0F00ED8800054000E0154A1
:1055700002E2DE6ADD6ADECF30FFDDCF31FF040EEE
:10558000E66EE66A42DFE552E552DF6E050EE66E34
:10559000E66A3BDFE552E552E76E010EE7CFDBFF3F
:1055A000DECF00F0DDCF01F0140ED8800054000EE5
:1055B000015403E20A0EDE6EDD6ADECF32FFDDCF7C
:1055C00033FF020EE15C02E2E16AE552E16EE55270
:1055D000E7CFD9FF1200D9CFE6FFE1CFD9FF020E06
:1055E000E1262ECFDEFF2FCFDDFFDFCFE6FF000E5F
:1055F000E66EE66A34DFE552E552E552010EDBCF96
:10560000E6FFE66EE66A2BDFE552E552E55230CF63
:10561000DEFF31CFDDFFDFCFE6FF020EE66EE66A8A
:105620001EDFE552E552E552010EDBCFE6FF030E29
:10563000E66EE66A14DFE552E552E55232CFDEFF50
:1056400033CFDDFFDFCFE6FF040EE66EE66A07DF4D
:10565000E552E552E552010EDBCFE6FF050EE66EA0
:10566000E66AFDDEE552E552E552320EE66EE66A86
:10567000BCEC09F0E552E552020EE15C02E2E16A9F
:10568000E552E16EE552E7CFD9FF1200D9CFE6FF30
:10569000E1CFD9FF1E0EE126020EE76EFD0EDBCF35
:1056A000E9FFFE0EDBCFEAFFE750E926000EEA2213
:1056B000EF50E66EADEC17F0E552000901E1DCD0E9
:1056C000060EE76EFD0EDBCFE9FFFE0EDBCFEAFF35
:1056D000E750E926000EEA22EF50E66EADEC17F037
:1056E000E552000901E1C8D0030EE66E020EE76E36
:1056F000FD0EDBCF00F0FE0EDBCF01F0E750002601
:10570000000E012200C0E6FF01C0E6FF31EC16F0FA
:10571000E552E552E552F3CFDEFFF4CFDDFFDECFF9
:1057200000F0DDCF01F0F00ED8800054000E0154DF
:1057300003E2F00EDE6EDD6A030EE66E060EE76E25
:10574000FD0EDBCF00F0FE0EDBCF01F0E7500026B0
:10575000000E012200C0E6FF01C0E6FF31EC16F0AA
:10576000E552E552E552020EF3CFDBFF030EF4CF14
:10577000DBFF020EDBCF00F0030EDBCF01F0F00EFB
:10578000D8800054000E015407E2F00EF36E020EB2
:10579000F3CFDBFF030EDB6ADECF2EFFDDCF2FFF63
:1057A000020EDBCF30FF030EDBCF31FF0A0EE76EB8
:1057B000FD0EDBCFE9FFFE0EDBCFEAFFE750E92667
:1057C000000EEA22EF50E66EADEC17F0E55200094C
:1057D00052E0030EE66E0A0EE76EFD0EDBCF00F020
:1057E000FE0EDBCF01F0E7500026000E012200C0C4
:1057F000E6FF01C0E6FF31EC16F0E552E552E55256
:10580000040EF3CFDBFF050EF4CFDBFFD950040FFE
:10581000E96EDACFEAFFFF0EEE1809E1ED5007E17D
:105820000A0EF36E040EF3CFDBFF050EDB6A040EE7
:10583000DBCF00F0050EDBCF01F0010E005C000EA7
:1058400001580CE3040EDBCF02F0050EDBCF03F0B2
:10585000140ED8800254000E035407E2140EF36EA7
:10586000040EF3CFDBFF050EDB6A040EDBCF32FF45
:10587000050EDBCF33FFAFDE3ADE32CFE6FF33CFAC
:10588000E6FF30CFE6FF31CFE6FF2ECFE6FF2FCF8A
:10589000E6FF470E006E5F0E016E026A00C0E6FF73
:1058A000E66E02C0E6FFD950060FE66E000EDA2063
:1058B000E66EFDEC2DF0036E0B0EE15E0350D95049
:1058C000060FE66E000EDA20E66EDFEC11F0E55210
:1058D000E5521E0EE15C02E2E16AE552E16EE5523C
:0658E000E7CFD9FF120022
:0A58E600C76A110EC86E280EC66EC8
:1058F000400EC56E948694889F869E969D86A2864D
:10590000A196A08606D8A00EE66E3FEC30F0E552D8
:105910001200D9CFE6FFE1CFD9FFE652C950DF6EC2
:10592000C69AC69CC69EC59CC59A0001846B82A877
:105930000CD89E96A1960001806B816B826BC68A03
:10594000E552E552E7CFD9FF1200D9CFE6FFE1CF0C
:10595000D9FFE6528A88C69ADF6A090EDF5C0EE23A
:105960009496020EE66E59EC30F0E5529486020EE3
:10597000E66E59EC30F0E552DF2AEFD7E552E552FA
:10598000E7CFD9FF12000001816B1F0EC51403E1A0
:10599000C750040B07E00A0E006E8151005CF5E26F
:1059A00073EF2CF01200D9CFE6FFE1CFD9FFE6521A
:1059B000DF6A020E0001815DFCE3E5DFFE0EDBCF56
:1059C00083F0FD0EDBCF85F00001816B010E806F4F
:1059D000C580805112E0020E006E8151005C03E22E
:1059E000800E8011826F8251F4E0C5847CDFDF2A53
:1059F000050EDF5CE9E3000E02D0816B010EE5527B
:105A0000E552E7CFD9FF1200D9CFE6FFE1CFD9FFAA
:105A1000020E0001815DFCE3B6DFFE0EDB500109E2
:105A20000001836FFD0EDBCF85F0816B0B0E806F65
:105A3000C58080510EE0020E006E8151005C03E2D1
:105A4000800E8011826F8251F4E0C5844CDF000E1D
:105A500002D0816B010EE552E7CFD9FF1200D9CFFA
:105A6000E6FFE1CFD9FFE652DF6A060EDF5C13E204
:105A7000DF50EA6AB80FE96E000EEA22EF50E66ED8
:105A8000DF50EA6A860FE96E000EEA22E552E7501F
:105A9000EF6EDF2AEAD7060EE66E140EE66E83DF9F
:105AA000E552E552E552E552E7CFD9FF1200D9CFD2
:105AB000E6FFE1CFD9FFE652DF6A060EDF5C09E2BE
:105AC000DF50EA6AB80FE96E000EEA22EF6ADF2AB9
:0E5AD000F4D7C5DFE552E552E7CFD9FF12004B
:025ADE00D9CF1E
:105AE000E6FFDACFE6FFE1CFD9FFE2CFDAFFE652F9
:105AF000006801687F0E026E036AD950FA0FE96EE2
:105B0000FF0EDA20EA6EEE500016EE500116EE504F
:105B10000216EE5003166AD800C0EEFF01C0EEFF79
:105B200002C0EEFF03C0EEFFFD0EDB50800B02E073
:105B3000010E01D0000EE66E59D8060EE926000EC1
:105B4000EA22E552E750EF6EFC0EDBCF00F0FD0ECF
:105B5000DBCF01F0D89000360136FC0E00C0DBFF31
:105B6000FD0E01C0DBFFDB50E66E40D8040EE926D7
:105B7000000EEA22E552E750EE6EED6AFD0EDB50B4
:105B8000006E016AFF0E001818E1015016E12ED8D0
:105B9000EECF00F0EECF01F0EECF02F0EFCF03F04A
:105BA000005001100210031006E0210E0001FD6FED
:105BB000FE6B800E0BD0040E09D0FD0EDB5008E109
:105BC00015D8EE6AEE6AEE6AEE6A010EDF6E06D056
:105BD000020EDF6E0BD8EE52EE52EE8EDF50E55223
:105BE000E552E5CFDAFFE7CFD9FF1200F80EDBCFA1
:0A5BF000E9FFF90EDBCFEAFF120017
:065BFA00D9CFE6FFDACF6F
:105C0000E6FFE1CFD9FFE2CFDAFFE652E652E652F5
:105C1000E652D950F90F006EFF0EDA20016E020E27
:105C200000C0DBFF030E01C0DBFF020EDBCFE6FF8F
:105C3000030EDBCFE6FFF90EDBCFE6FFFA0EDBCF7C
:105C4000E6FFFB0EDBCFE6FFD950FC0FE66EFF0E42
:105C5000DA20E66E0DEC18F0006E070EE15C02E251
:105C6000E16AE552E16E0050F3CFDEFFF4CFDDFFD5
:105C7000FC0EDBCFE9FFFD0EDBCFEAFFEF6ADECFE4
:105C800000F0DDCF01F000C0F3FF01C0F4FF040E0F
:105C9000E15C02E2E16AE552E16EE552E5CFDAFF4E
:065CA000E7CFD9FF12005E
:0A5CA6001E0EF66E080EF76E000EDB
:105CB000F86E00010900F550F86F0900F550F96F12
:105CC00003E1F86701D03DD00900F550F36F0900FA
:105CD000F550F46F0900F550F56F09000900F55013
:105CE000E96E0900F550EA6E090009000900F55057
:105CF000F66F0900F550F76F09000900F6CFFAF0CA
:105D0000F7CFFBF0F8CFFCF0F3C0F6FFF4C0F7FFDD
:105D1000F5C0F8FF0001F65302E1F75307E0090070
:105D2000F550EE6EF607F8E2F707F9D7FAC0F6FF7E
:105D3000FBC0F7FFFCC0F8FF0001F807000EF95B9D
:045D4000BFD71200B7
:0C5D4400D9CFE6FFDACFE6FFE1CFD9FFB0
:105D5000E2CFDAFFFB0EDBCF00F0FC0EDBCF01F071
:105D60000001800E01141AE1FB0EDBCFE9FFFC0EEF
:105D7000DBCFEAFFEECFF3FFEDCFF4FFEE2A000E0C
:105D8000EF22F3CFE9FFF4CFEAFFFD0EDBCFEFFF09
:105D9000EF50016AF36E01C0F4FF10D0FB0EDB5030
:105DA000FE0806E1FD0EDBCFE6FF31EC30F005D05A
:105DB000FD0EDBCFE6FF03EC04F0E552E552E5CF44
:085DC000DAFFE7CFD9FF120062
:085DC80032503702F3CF2EF038
:105DD000F4CF2FF03802F3502F26000EF420306E4F
:105DE00032503902F3503026000EF420316E32501A
:105DF0003A02F350312633503702F3502F26F45035
:105E00003022000E312233503802F3503026F45045
:105E1000312233503902F350312634503702F350D7
:105E20003026F450312234503802F35031263550A8
:085E30003702F3503126120085
:085E3800FE0EE3CFE9FFFF0EAF
:105E4000E3CFEAFFF36AF46AEE5203E0F34AF42A7E
:105E5000FBD71200FF0EE3CFF8FFE552FF0EE3CFB2
:105E6000F7FFE552FF0EE3CFF6FFE552E66AE66A7A
:105E7000E66A0900F55209E0FD0EE32A05E1FE0E8F
:105E8000E32A02E1FF0EE32AF4D7FD0EE3CF33F05D
:0E5E9000FE0EE3CF34F0FF0EE3CF35F012002C
:025E9E00D9CF5A
:105EA000E6FFDACFE6FFE1CFD9FFE2CFDAFFE65235
:105EB000E652D950FD0F006EFF0EDA2000C0DEFF63
:105EC000DD6EDECFE9FFDDCFEAFFEF9EFA0EDBCF1E
:105ED00000F0FB0EDBCF01F0FC0EDBCF02F0FD0E7D
:105EE000DBCF03F000C032F001C033F002C034F069
:105EF00003C035F0E552E552E552E5CFDAFFE7CFD2
:045F0000D9FF1200B3
:0C5F04000D0A00434E25643D2530347525
:105F10002C002020423A253033752C253033752C47
:105F2000253033750D0A005665722E352E33330039
:105F3000544A3342000D0A002C5553455F4D4342ED
:105F400000434E696F3A00423A253033752C2530B4
:0A5F500033752C253033750D0A005F
:065F5A00D9CFE6FFDACF0B
:105F6000E6FFE1CFD9FFE2CFDAFF010EE66ED950AE
:105F7000FA0FE96EFF0EDA20EA6EEECFE6FFEECF03
:105F8000E6FFEECFE6FFEFCFE6FF30EC27F0006E46
:105F9000050EE15C02E2E16AE552E16E0050E55275
:0A5FA000E5CFDAFFE7CFD9FF1200CA
:065FAA00316A306A2F6A23
:105FB0002E6A200EE76ED8903236333634363536B8
:105FC0002E362F363036313637502E5C38502F581B
:105FD000395030583A50315809E337502E5E385016
:105FE0002F5A3950305A3A50315A322AE72EE4D7D4
:025FF00012009D
:0E5FF200316A306A100EE76ED89034363536BC
:10600000303631363950305C3A50315805E339502A
:0E601000305E3A50315A342AE72EF0D7120093
:02601E00F36A23
:10602000F46AFF0EE124E96EFF0EE220EA6EED66EF
:1060300007D02F0EEF6404D03A0EEF6001D0F32AA0
:0260400012004C
:0E604200800EF36E00EE00F00F0E01D812007B
:10605000EA6002D0EE6AFCD7F350E9601200EE6A03
:02606000FCD76B
:0E606200FF0EE350ACBA04D0AF6AAB8EAC8A2E
:0E607000949CACA2FED7AD6EF36EF46A1200E3
:02607E00FF0E13
:10608000E350426E1B0E00D001D0200EE76EE72ECB
:0A609000FED7422EFAD700D012000E
:06609A001EEE00F02EEEE8
:1060A00000F0F86A2D8C53EC2EF001EC09F0FDD7CE
:0260B0001200DC
:0E60B200FF0EE350E84E1200000000D000D0B8
:0860C00000D0E82EFAD712000F
:0860C800303132333435363734
:0960D00038396162636465660001
:0760D90003070B0F1323273F
:1060E0002B2F3301000200040008001000200040A4
:1060F00000800000010002000400080010002000E1
:0761000040008019FCFFFFC5
:00000001FF
