:020000040000FA
:06080000F7EF29F01200E1
:020806001200DE
:0608080016EF04F01200DF
:0608180008EF06F01200DB
:02081E000100D7
:0C0820002D540000BE0000002E0000005F
:04082C00DACFE4FF3C
:10083000E2CFDAFFE9CFE4FFEACFE4FFF6CFE4FF4F
:10084000F7CFE4FFF5CFE4FFF3CFE4FFF4CFE4FF0D
:10085000FACFE4FF00EE00F0140EE80403E3EECF5D
:10086000E4FFFBD700EE14F0070EE80403E3EECF3D
:10087000E4FFFBD7E652F2A42AD1D59EFC0ED76E38
:100880003F0ED66ED58E0101072B000E0823010105
:100890008F2B000E9023912392230101932B000EA6
:1008A0009423952396230101972B000E98239923D7
:1008B0009A2301019B2B000E9C239D239E23010163
:1008C000092B000E0A230101F52B000EF623320E30
:1008D0000001815D02E20001812B030E010100197C
:1008E00001E1015101E17FD0020E0101001901E196
:1008F00001513CE0010E0101001901E1015107E045
:100900000101005101E1015101E0DBD0DFD0805055
:10091000100B100A01E0010E010808E10101026B51
:10092000036B0101002B000E01231FD00101022BDC
:10093000000E03230101F40ED8800255010E035569
:1009400014E20101026B036B0101010E0D1901E1BB
:100950000E5106E00101070E0D1901E10E5105E1EE
:100960000101AA5101E0B2D0897EB0D080A805D0A3
:1009700001010007000E015B35D00101022B000EC2
:1009800003230101320ED8800255000E03552AE2DE
:10099000000EE66EE66A000EE66EE66AE6EC09F028
:1009A000E552E552E552E552899E899C8A908A98E3
:1009B000020E01010D1901E10E510BE001010D5173
:1009C00001E10E5101E00AD0898E0101096B0A6B29
:1009D00005D0040E01010D6F0E6B00D00101002B3C
:1009E000000E012373D080A83FD0040E01010D1921
:1009F00001E10E5133E0070E01010D1901E10E5125
:100A000028E0050E01010D1901E10E511DE0030E54
:100A100001010D1901E10E5112E0010E01010D1944
:100A200001E10E5107E001010D5101E10E5101E01C
:100A300016D015D0020E01010D6F0E6B10D0010EF5
:100A400001010D6F0E6B0BD0060E01010D6F0E6BC9
:100A500006D0080E01010D6F0E6B01D0FF000101E1
:100A6000002B000E01232CD0050E01010D1901E110
:100A70000E5116E001010D5101E10E5101E020D0AF
:100A80000101D00ED8800955070E0A5508E2899C4D
:100A9000050E01010D6F0E6B0101026B036B10D08F
:100AA0000101022B000E03230101640ED8800255C0
:100AB000000E035504E20101026B036B897E00D036
:100AC00005D0010E0101006F016B00D0F2949EA6CB
:100AD00073D00001816B0001826B000180510F0A0D
:100AE00064E0010A5EE0030A44E0010A39E0070A13
:100AF0002EE0080A23E0010A0AE0030A01E058D0C8
:100B000083C0C9FF0001846B0001802B54D0C5ACA9
:100B100003D080C082F011D000018451842BEA6A96
:100B2000860FE96E000EEA22EF50C96E0001855172
:100B30000001845D02E10001802B3DD0C5AC03D0F3
:100B400080C082F003D0C5840001806B34D0010ED8
:100B500000018311C96E0001846B0001802B2BD032
:100B6000C5AC03D080C082F003D0C5860001802BC5
:100B700022D000018451842BEA6A860FE96E000EB0
:100B8000EA22C9CFEFFF000185510001845D04E234
:100B9000C59A0001800703D0C58A0001802BC58853
:100BA0000AD0C5840001802B06D00001806B03D0E1
:100BB0000001806B00D09E96A1A606D0A196400EA3
:100BC000000180110001826FE55200EE1AF0070E5D
:100BD000E80403E3E5CFEDFFFBD700EE13F0140EBE
:100BE000E80403E3E5CFEDFFFBD7E5CFFAFFE5CF60
:100BF000F4FFE5CFF3FFE5CFF5FFE5CFF7FFE5CF56
:100C0000F6FFE5CFEAFFE5CFE9FFE5CFDAFF110018
:100C1000D8CFE4FFE0CFE4FFE46EDACFE4FFE2CF29
:100C2000DAFFE9CFE4FFEACFE4FFE6529EAC2CD135
:100C30009E9CC4CF06F1C3CF05F101010451EA6ABD
:100C4000A00FE96E010EEA22EF50050801E09BD0EB
:100C500001010C3504E20B510308000E0C5501E3B1
:100C600091D005C105F106C106F10101FF0ED88042
:100C70000557030E0657010E0101D89005370637B8
:100C8000E806FBE10101900E055D010E065905E243
:100C90000101900E056F010E066F900E0101055FB8
:100CA000010E0101065B0101FF0ED8800555030E00
:100CB000065504E201010569030E066F01010451A6
:100CC000E96EEA6AD890E936EA360F0EE926010E97
:100CD000EA22EE5001010527EE500101062305C16D
:100CE0001BF006C11CF0010E0F0B05E0D8901C3262
:100CF0001B32E806FBE101010451E96EEA6AD89073
:100D0000E936EA360F0EE926010EEA221BC0EEFF95
:100D10001CC0EDFF01010B6B0C6B01010451090AB2
:100D20002EE0010A29E00F0A24E0010A1FE0030A6D
:100D30001AE0010A15E0070A10E0010A0BE0030AB5
:100D400006E0010A01E01ED0929089801BD09292A9
:100D5000898218D09294898415D09296898612D06F
:100D6000929A898A0FD093948A840CD093968A861B
:100D700009D093928A8206D093988A8803D0939060
:100D80008A8000D02CD001010451E96EEA6AD89023
:100D9000E936EA360F0EE926010EEA22EE5001018D
:100DA0000527EE500101062305C11BF006C11CF00A
:100DB000010E0F0B05E0D8901C321B32E806FBE158
:100DC00001010451E96EEA6AD890E936EA360F0E5D
:100DD000E926010EEA221BC0EEFF1CC0EDFF0A0E41
:100DE0001B6E0101042B01010451D8801B5402E346
:100DF0000101046B01010451EA6AA00FE96E010EC2
:100E0000EA22EF50050837E101010B2B000E0C23FD
:100E100001010C3504E20B510308000E0C552BE2C6
:100E200001010451090A25E0010A21E00F0A1DE031
:100E3000010A19E0030A15E0010A11E0070A0DE0B2
:100E4000010A09E0030A05E0010A01E014D09280DA
:100E500012D0928210D092840ED092860CD0928AB8
:100E60000AD0938408D0938606D0938204D09388C6
:100E700002D0938000D001010451EA6ABE0FE96EEE
:100E8000000EEA22EF50C26E9EAA98D0ABA403D007
:100E9000AECFF9F193D0ABA203D0AB98AB888ED094
:100EA000AECFF9F10101010E0D1901E10E5173E010
:100EB0000101FA51080A66E00F0A5AE0010A4EE001
:100EC000030A42E0010A36E0070A2AE0010A1EE0AE
:100ED000030A12E0010A01E05ED0520E0101F95D41
:100EE00003E10101010EFA6F560E0101F95D03E104
:100EF0000101050EFA6F4FD0650E0101F95D02E1A7
:100F0000020E01D0000E0101FA6F45D0730E0101EF
:100F1000F95D02E1030E01D0000E0101FA6F3BD032
:100F2000650E0101F95D02E1040E01D0000E010120
:100F3000FA6F31D0740E0101F95D02E1070E01D0A4
:100F4000000E0101FA6F27D0650E0101F95D02E183
:100F5000060E01D0000E0101FA6F1DD0720E0101C4
:100F6000F95D02E1070E01D0000E0101FA6F13D006
:100F70000D0E0101F95D02E1080E01D0000E010124
:100F8000FA6F09D00A0E0101F95D02E1FF0002D0FB
:100F90000101FA6B00D00101F751EA6AD40FE96E42
:100FA000010EEA22F9C1EFFF1F0E1B6E0101F72BA4
:100FB0000101F7511B5C02E20101F76BE552E5CF3D
:100FC000EAFFE5CFE9FFE5CFDAFFE550E5CFE0FF47
:100FD000E5CFD8FF1000D9CFE6FFE1CFD9FF030E50
:100FE000E126F00ED36EC00E9B6E0101FA6B01017B
:100FF0000D6B0E6B006B016B026B036B010EDB6AFA
:10100000020EDB6A010EDBCF14F0020EDBCF15F00F
:10101000D890155004E61A0E145C000E15581AE20A
:10102000010EDBCFE9FF020EDBCFEAFFD890E936F5
:10103000EA36D890E936EA36270EE926010EEA228A
:10104000EE6AEE6AEE6AEE6A010EDB2A020EDAE35F
:10105000DB2AD8D7010EDB6A020EDB6A010EDBCF7A
:1010600014F0020EDBCF15F0D890155004E6040EF4
:10107000145C000E15581AE2010EDBCFE9FF020ED8
:10108000DBCFEAFFD890E936EA36D890E936EA367F
:101090008F0EE926010EEA22EE6AEE6AEE6AEE6A29
:1010A000010EDB2A020EDAE3DB2AD8D7010EDB6A57
:1010B000020EDB6A010EDBCF14F0020EDBCF15F05F
:1010C000D890155004E60A0E145C000E155811E273
:1010D000010EDBCFE9FF020EDBCFEAFFA00EE9260F
:1010E000010EEA22010EEF6EDB2A020EE3E3DB2A99
:1010F000E1D70101236B246B256B266B046B0B6B13
:101100000C6BAA6BAB6B096B0A6B076B086B896A7C
:101110003F0EDF6EDF50926E8A6A1F0EDF6EDF5069
:10112000936E180E8B6E980E946E020ED56EFC0E9A
:10113000D76E3F0ED66ED58EF294F28AF184B00E41
:10114000B16EA292A192A092B1809D92010ECA6E40
:10115000CC68CB68CA849F6F000E256F266B236F07
:10116000246BE66EE66AE66EE66A9AD8E552E552C8
:10117000E552E5529F9C9D8CBE0EC06E020EC16E64
:1011800001010451EA6ABE0FE96E000EEA22EF5037
:10119000C26EAEEC11F087EC26F0D09CD08EF28EB1
:1011A000F28CA80E146E520E156E166A14C0E6FF6D
:1011B000E66E16C0E6FFFDEC11F0E552E552E55291
:1011C0007CEC14F06BEC27F0010E0101006F016B59
:1011D0008050100B100A01E0010E0108F9E0010136
:1011E0000D510E1103E1010E0D6F0E6B898E030E72
:1011F000E15C02E2E16AE552E16EE552E7CFD9FF38
:101200001200E9DEF40EE66E010EE66EB5D8E55288
:10121000E5520101096B0A6B43EC12F0000902E090
:1012200049EC12F0070E01010D1901E10E5135E0F4
:10123000050E0D1901E10E512BE0060E0D1901E10D
:101240000E5126E0020E0D1901E10E5116E0030EBB
:101250000D1901E10E5111E0010E0D19DDE10E51E4
:10126000DBE1CC51095DCD510A59D6E3096B0A6B1C
:10127000AAA1D2D7D5EC14F0CFD7AAEC23F0899E3F
:10128000899C8A908A98010E01010D6F0E6BC4D75C
:101290006EEC0EF0ECEC0EF0BFD7F7EC0FF0BCD715
:1012A000D9CFE6FFE1CFD9FF040EE126FD0EDBCF5B
:1012B00014F0FE0EDBCF15F0FF0ED8801454030E91
:1012C000155407E2FD0EDB68030EF36EFE0EF3CF3E
:1012D000DBFFFB0EDBCF14F0FC0EDBCF15F0FF0EB7
:1012E000D8801454030E155407E2FB0EDB68030E7E
:1012F000F36EFC0EF3CFDBFFFB0EDBCF14F0FC0E26
:10130000DBCF15F0060ED89014361536E804FBE155
:1013100014C0DEFF15C0DDFFFD0EDBCF14F0FE0EA6
:10132000DBCF15F0060ED89014361536E804FBE135
:10133000020E14C0DBFF030E15C0DBFF010EDB50F5
:10134000BE6E030EDB50BB6EDF50E840E8403F0B43
:10135000300B0C09BD6E020EDB40E8403F0B300B3A
:101360000C09BA6E040EE15C02E2E16AE552E16E3C
:10137000E552E7CFD9FF1200D9CFE6FFE1CFD9FF81
:10138000020EE126F29A0101096B0A6BF28AF29AC7
:1013900009C1DEFF0AC1DDFFF28ADECF14F0DDCF26
:1013A00015F0FD0EDBCF16F0FE0EDBCF17F016505A
:1013B000145C17501558EBE3020EE15C02E2E16A9F
:1013C000E552E16EE552E7CFD9FF1200D9CFE6FF33
:1013D000E1CFD9FF0A0EE12623C114F024C115F094
:1013E000FD0EDB50141811E1FE0EDB5015180DE157
:1013F00025C116F026C117F0FB0EDB50161805E1CB
:10140000FC0EDB50171801E1E7D2000EE66EE66A2B
:10141000E66EE66A45DFE552E552E552E5528B9A03
:101420008B908A9C8A9AA092A192B190B368050E83
:10143000B26EB180080EF6C0DBFFFD0EDBCF14F0FC
:10144000FE0EDBCF15F0153401E387D014500008F1
:10145000000E155401E381D0010EF36E040EF3CF9C
:10146000DBFF060EDB6A080E086E096AFD0EDBCF95
:101470000DF0FE0EDBCF0EF0B7EC27F006C0DEFF5E
:1014800007C0DDFF0001000ED880F655000EF755AD
:1014900001E3F8D0DECF14F0DDCF15F015341EE2F5
:1014A00014509008010E155419E2DECF16F0DDCF6E
:1014B00017F0900E165E010E175A16C008F017C0EE
:1014C00009F0FAC00DF0FBC00EF0A3EC29F000010A
:1014D000F6510824146EF751092027D0DECF14F0FE
:1014E000DDCF15F0900ED8801456010E1556F6512A
:1014F000145CF75115581CE2DECF16F0DDCF17F063
:10150000900ED8801656010E175616C008F017C058
:1015100009F0FAC00DF0FBC00EF0A3EC29F00001B9
:101520000850F65D146E0950F759080E14C0DBFF21
:10153000080EDB50146E156ADECF16F0DDCF17F003
:1015400015501718E8AE02D0173404D01650145CAA
:101550001750155801E396D089D0FD0EDBCF14F05B
:10156000FE0EDBCF15F00001800E151401E18FD0C7
:10157000040EDB6A010EF36E060EF3CFDBFFF80EEE
:10158000086E0968FD0EDBCF0DF0FE0EDBCF0EF00E
:10159000B7EC27F006C0DEFF07C0DDFF0001000E3C
:1015A000D880F655000EF7556DE2DECF14F0DDCF92
:1015B00015F015341EE214509008010E155419E26E
:1015C000DECF16F0DDCF17F0900E165E010E175A23
:1015D00016C008F017C009F0FAC00DF0FBC00EF0FD
:1015E000A3EC29F00001F6510824146EF7510920EC
:1015F00027D0DECF14F0DDCF15F0900ED880145632
:10160000010E1556F651145CF75115581CE2DECF49
:1016100016F0DDCF17F0900ED8801656010E175633
:1016200016C008F017C009F0FAC00DF0FBC00EF0AC
:10163000A3EC29F000010850F65D146E0950F7592B
:10164000080E14C0DBFF080EDB50146E156ADECFE7
:1016500016F0DDCF17F015501718E8AE02D017348A
:1016600004D01650145C175015580CE2080EDB50CD
:10167000146E156AD9CFE9FFDACFEAFFE850EE5EC3
:101680001550ED5A640EDE26000EDD220FD001014A
:101690009F510CE0010EF36E040EF3CFDBFF010E41
:1016A000F36E060EF3CFDBFFDE6ADD6A090EF8C0CB
:1016B000DBFFFB0EDBCF14F0FC0EDBCF15F0153497
:1016C00001E393D014500008000E155401E38DD0AF
:1016D000010EF36E050EF3CFDBFF070EDB6A080E7B
:1016E000086E096AFB0EDBCF0DF0FC0EDBCF0EF0AF
:1016F000B7EC27F0020E06C0DBFF030E07C0DBFFCE
:101700000001000ED880F855000EF95501E310D104
:10171000020EDBCF14F0030EDBCF15F0153420E200
:1017200014509008010E15541BE2020EDBCF16F088
:10173000030EDBCF17F0900E165E010E175A16C07F
:1017400008F017C009F0FAC00DF0FBC00EF0A3ECD2
:1017500029F00001F8510824146EF95109202BD00A
:10176000020EDBCF14F0030EDBCF15F0900ED88005
:101770001456010E1556F851145CF95115581EE215
:10178000020EDBCF16F0030EDBCF17F0900ED880E1
:101790001656010E175616C008F017C009F0FAC009
:1017A0000DF0FBC00EF0A3EC29F000010850F85D2D
:1017B000146E0950F959090E14C0DBFF090EDB50F5
:1017C000146E156A020EDBCF16F0030EDBCF17F096
:1017D00015501718E8AE02D0173404D01650145C18
:1017E0001750155801E3A4D096D0FB0EDBCF14F0B0
:1017F000FC0EDBCF15F00001800E151401E1A2D024
:10180000050EDB6A010EF36E070EF3CFDBFFF80E59
:10181000086E0968FB0EDBCF0DF0FC0EDBCF0EF07F
:10182000B7EC27F0020E06C0DBFF030E07C0DBFF9C
:101830000001000ED880F855000EF95501E378D06C
:10184000020EDBCF14F0030EDBCF15F0153420E2CF
:1018500014509008010E15541BE2020EDBCF16F057
:10186000030EDBCF17F0900E165E010E175A16C04E
:1018700008F017C009F0FAC00DF0FBC00EF0A3ECA1
:1018800029F00001F8510824146EF95109202BD0D9
:10189000020EDBCF14F0030EDBCF15F0900ED880D4
:1018A0001456010E1556F851145CF95115581EE2E4
:1018B000020EDBCF16F0030EDBCF17F0900ED880B0
:1018C0001656010E175616C008F017C009F0FAC0D8
:1018D0000DF0FBC00EF0A3EC29F000010850F85DFC
:1018E000146E0950F959090E14C0DBFF090EDB50C4
:1018F000146E156A020EDBCF16F0030EDBCF17F065
:1019000015501718E8AE02D0173404D01650145CE6
:10191000175015580DE2090EDB50146E156AD95098
:10192000020FE96EDACFEAFF1450EE5E1550ED5A61
:10193000D950020FE96EDACFEAFF640EEE26000EF0
:10194000ED2211D001019F510EE0010EF36E050E44
:10195000F3CFDBFF010EF36E070EF3CFDBFF020EBA
:10196000DB6A030EDB6A0101010E9F6FFD0EDBCF08
:1019700023F1FE0EDBCF24F1FB0EDBCF25F1FC0EB5
:10198000DBCF26F1A1A2FED7A192020EDBCFE6FFAC
:10199000030EDBCFE6FFDECFE6FFDDCFE6FF80DC28
:1019A000E552E552E552E552040EDB50E8B08B8A71
:1019B000E8A08B9A060EDB50E8B08B80E8A08B90F5
:1019C000050EDB50E8B08A8CE8A08A9C070EDB503D
:1019D000E8B08A8AE8A08A9A0A0EE15C02E2E16A2B
:1019E000E552E16EE552E7CFD9FF1200D9CFE6FF0D
:1019F000E1CFD9FFFE0EDB50090A5AE0010A50E0A0
:101A00000F0A46E0010A3CE0030A32E0010A28E03E
:101A1000070A1EE0010A14E0030A0AE0010A4EE187
:101A2000FD0EDB50E8B08980E8B048D0899046D000
:101A3000FD0EDB50E8B08982E8B040D089923ED0FC
:101A4000FD0EDB50E8B08984E8B038D0899436D0F8
:101A5000FD0EDB50E8B08986E8B030D089962ED0F4
:101A6000FD0EDB50E8B0898AE8B028D0899A26D0EC
:101A7000FD0EDB50E8B08A84E8B020D08A941ED0F6
:101A8000FD0EDB50E8B08A86E8B018D08A9616D0F2
:101A9000FD0EDB50E8B08A82E8B010D08A920ED0FA
:101AA000FD0EDB50E8B08A88E8B008D08A9806D0EE
:101AB000FD0EDB50E8B08A80E8A08A90E552E7CFBF
:101AC000D9FF1200D9CFE6FFE1CFD9FFE652DF6A96
:101AD000FE0EDB50090A35E0010A2EE00F0A28E06D
:101AE000010A22E0030A1CE0010A16E0070A10E0DE
:101AF000010A0AE0030A04E0010A26E1895022D023
:101B00008950020B20E01BD08950040B1CE017D039
:101B10008950080B18E013D08950200B14E00FD027
:101B20008A50040B10E00BD08A50080B0CE007D051
:101B30008A50020B08E003D08A50100B04E0010E1B
:101B400002D08A50010BDF6EDF50E552E552E7CF3D
:101B5000D9FF1200D9CFE6FFE1CFD9FFFE0EDB504F
:101B6000030A1EE0010A14E0030A0AE0010A1EE16A
:101B7000FD0EDB50E8B0898EE8B018D0899E16D0F3
:101B8000FD0EDB50E8B0898CE8B010D0899C0ED0F7
:101B9000FD0EDB50E8B08A80E8B008D08A9006D00D
:101BA000FD0EDB50E8B08A88E8A08A98E552E7CFBE
:101BB000D9FF1200D9CFE6FFE1CFD9FFE652DF6AA5
:101BC000FE0EDB50030A13E0010A0DE0030A06E0F3
:101BD000010A12E18950800B08E003D08950400BC4
:101BE00004E0010E02D08A50010BDF6E05D08A504E
:101BF000100B01E0010EDF6EDF50E552E552E7CF3A
:101C0000D9FF1200D9CFE6FFE1CFD9FFF29AFE0E3D
:101C1000DB50040DF3CFE9FFF4CFEAFF8F0EE92686
:101C2000010EEA22EE6AEE6AEE6AEE6AF28AE55286
:101C3000E7CFD9FF1200D9CFE6FFE1CFD9FF040EDD
:101C4000E126F29AFE0EDB50040DF3CFE9FFF4CF4C
:101C5000EAFF8F0EE926010EEA22EECFDFFF010E2A
:101C6000EECFDBFF020EEECFDBFF030EEECFDBFF8E
:101C7000F28ADECF06F0DECF07F0DECF08F0DDCF50
:101C800009F0DD52DD52040EE15C02E2E16AE55248
:101C9000E16EE552E7CFD9FF1200B36AB26AB180B4
:101CA0001200D9CFE6FFE1CFD9FF020EE126B250F4
:101CB000DF6E010EB3CFDBFFDECF14F0DDCF15F00A
:101CC00014C0F3FF15C0F4FF020EE15C02E2E16A0A
:101CD000E552E16EE552E7CFD9FF1200E66AE66A07
:101CE00039DFE552E552E66A010EE66E33DFE55272
:101CF000E552E66A020EE66E2DDFE552E552E66A2F
:101D0000030EE66E27DFE552E552050E01010D6F69
:101D10000E6B0101050E0D195EE10E515CE1320EF4
:101D2000D8800F55010E105503E2010EE66E01D06A
:101D3000E66AE66A0FDFE552E5520101320ED8800D
:101D40001155010E125503E2010EE66E02D0E66A4D
:101D5000010EE66EFFDEE552E5520101FF0ED8806E
:101D60001355010E145503E2010EE66E01D0E66A2A
:101D7000020EE66EEFDEE552E5520101FF0ED8805D
:101D80001555010E165503E2010EE66E01D0E66A06
:101D9000030EE66EDFDEE552E5520101FF0ED8804C
:101DA0001755010E18550AE2010EE66E020EE66E98
:101DB000D1DEE552E552010EE66E07D0E66A020E6C
:101DC000E66EC8DEE552E552E66A030EE66EC2DE56
:101DD000E552E5529ED71200E66AE66ABBDEE5529E
:101DE000E552E66A010EE66EB5DEE552E552E66AB8
:101DF000020EE66EAFDEE552E552E66A030EE66ECF
:101E0000A9DEE552E552010EE66EE66AA3DEE55272
:101E1000E552320EE66EE66AE66EE66AE6EC09F038
:101E2000E552E552E552E552E80EE66E030EE66E27
:101E3000BCEC09F0E552E552E66AE66A8BDEE55253
:101E4000E552000EE66EE66AE66EE66AE6EC09F03A
:101E5000E552E552E552E552C80EE66EE66ABCEC84
:101E600009F0E552E552010EE66EE66E73DEE552CC
:101E7000E552CE0EE66EE668E66EE668E6EC09F040
:101E8000E552E552E552E552E80EE66E030EE66EC7
:101E9000BCEC09F0E552E552E66A010EE66E5ADE48
:101EA000E552E552000EE66EE66AE66EE66AE6EC9C
:101EB00009F0E552E552E552E552C80EE66EE66AD3
:101EC000BCEC09F0E552E552010EE66E020EE66E3C
:101ED00041DEE552E552320EE66EE66ACE0EE66E61
:101EE000E668E6EC09F0E552E552E552E552E80E07
:101EF000E66E030EE66EBCEC09F0E552E552E66ACA
:101F0000020EE66E27DEE552E552000EE66EE66A48
:101F1000E66EE66AE6EC09F0E552E552E552E55276
:101F2000C80EE66EE66ABCEC09F0E552E552010E19
:101F3000E66E030EE66E0EDEE552E552CE0EE66E5E
:101F4000E668320EE66EE66AE6EC09F0E552E55226
:101F5000E552E552E80EE66E030EE66EBCEC09F0C3
:101F6000E552E552E66A030EE66EF4DDE552E5520F
:101F7000000EE66EE66AE66EE66AE6EC09F0E55209
:101F8000E552E552E552320EE66EE66A000EE66E66
:101F9000E66AE6EC09F0E552E552E552E552E80E54
:101FA000E66E030EE66EBCEC09F0E552E552000E5B
:101FB000E66EE66A320EE66EE66AE6EC09F0E55297
:101FC000E552E552E552E80EE66E030EE66EBCEC15
:101FD00009F0E552E552000EE66EE66AE66EE66A44
:101FE000E6EC09F0E552E552E552E552120043EC09
:101FF00012F0000902E049EC12F00101080E0D197F
:1020000001E080D00E5101E07DD0010EE66EE66A5F
:10201000A1DDE552E552320EE66EE66AE66EE66A4C
:10202000E6EC09F0E552E552E552E552D00EE66ED7
:10203000070EE66EBCEC09F0E552E552640EE66E62
:10204000E66AE66EE66AE6EC09F0E552E552E5522C
:10205000E552E80EE66E030EE66EBCEC09F0E552C2
:10206000E552010EE66E030EE66E74DDE552E552B2
:10207000000EE66EE66AE66EE66AE6EC09F0E55208
:10208000E552E552E552F40EE66E010EE66EBCEC4A
:1020900009F0E552E552CE0EE66EE668E66EE668B9
:1020A000E6EC09F0E552E552E552E552D00EE66E57
:1020B000070EE66EBCEC09F0E552E5529C0EE66EAA
:1020C000E668E66EE668E6EC09F0E552E552E552B0
:1020D000E552E80EE66E030EE66EBCEC09F0E55242
:1020E000E552E66A030EE66E35DDE552E552000E76
:1020F000E66EE66AE66EE66AE6EC09F0E552E5525F
:10210000E552E552070E01010D6F0E6B70D7D9CF66
:10211000E6FFE1CFD9FFFD0EDBCFCEF1FE0EDBCF28
:10212000CFF10101D06BD16B6F0ECE5F000ECF5B94
:10213000D05BD15B700E0B6E170E0C6E0D6A0E6AC3
:10214000CEC106F0CFC107F0D0C108F0D1C109F06F
:10215000E9EC28F002C0CEF103C0CFF104C0D0F109
:1021600005C0D1F18A0E0B6E0C0E0C6E0D6A0E6A54
:1021700002C006F003C007F004C008F005C009F073
:1021800083EC27F006C0CEF107C0CFF108C0D0F134
:1021900009C0D1F1640E0101CE5F000ECF5BD05BB0
:1021A000D15BD880D151FF0A08E6F60ECE5DFF0E56
:1021B000CF59FF0ED059FF0ED1590BE20001190E75
:1021C000E86FFC0EE96FEA69EB6907C1D2F108C15B
:1021D000D3F10101D251075D146E0851D355156E2C
:1021E000E80E145C030E155801E2B0D007C1D2F11D
:1021F00008C1D3F1190E0001E81911E1FC0EE9192B
:102200000EE1E868EA190BE1E868EB1908E1CEC1D4
:10221000E8F0CFC1E9F0D0C1EAF0D1C1EBF0E80EAF
:10222000E96E000EEA6E030EEB500101D119E8AE23
:1022300002D0D13508D0CE51EE5CCF51EE58D051FE
:10224000EE58D151EE582DE2E80EE96E000EEA6E1E
:10225000EE50CE5D146EEE50CF59156EEE50D05943
:10226000166EEE50D159176EE834000E171809E6B5
:10227000D880010E1454000E1554000E1654000E92
:1022800017543DE2E8C0CEF1E9C0CFF1EAC0D0F189
:10229000EBC0D1F1020ECE27000ECF23D023D123E5
:1022A0002ED0CE0EE96E010EEA6EEE500001E85D12
:1022B000146EEE50E959156EEE50EA59166EEE5056
:1022C000EB59176EE834000E171809E6D880010E96
:1022D0001454000E1554000E1654000E17540FE23D
:1022E000E8C0CEF1E9C0CFF1EAC0D0F1EBC0D1F146
:1022F000020E0101CE5F000ECF5BD05BD15B01010E
:10230000CE510001E8270101CF510001E92301016D
:10231000D0510001EA230101D1510001EB23020E4B
:102320000B6E0C6A0D6A0E6AE8C006F0E9C007F091
:10233000EAC008F0EBC009F083EC27F006C0E8F033
:1023400007C0E9F008C0EAF009C0EBF0E8C0F3FF0D
:0C235000E9C0F4FFE552E7CFD9FF12000E
:04235C009D9A9E9A0E
:10236000040EAC6E800EAB6EB886B06A440EAF6ED3
:10237000240EAC6E900EAB6E0101F76B200EF75D74
:1023800009E2F751EA6AD40FE96E010EEA22EF6A18
:10239000F72BF4D7F86BF8C1F7F1FA6B9F9A9E9A76
:1023A0009D8A1200D9CFE6FFE1CFD9FFACA2FED7BC
:1023B000FE0EDB50AD6EE552E7CFD9FF1200D9CF4C
:1023C000E6FFE1CFD9FFFD0EDBCFE9FFFE0EDBCF4D
:1023D000EAFFEF500EE0FD0EDBCFE9FFDB2AFE0E39
:1023E000DBCFEAFF01E3DB2AEF50E66EDBDFE552ED
:1023F000EAD7E552E7CFD9FF1200D9CFE6FFE1CF08
:10240000D9FFFC0EDBCFF6FFFD0EDBCFF7FFFE0E94
:10241000DBCFF8FF0800F55016E0D950FC0FE96E4D
:10242000FF0EDA20EA6EEFCFF6FFEE2AEFCFF7FFCE
:10243000000EEE22EFCFF8FFEE220800F550E66E18
:10244000B1DFE552DED7E552E7CFD9FF1200D9CF91
:10245000E6FFE1CFD9FFE6520101F851EA6AD40F55
:10246000E96E010EEA22EFCFDFFF200E146EF82B8B
:10247000F851D880145401E3F86BDF50E552E5526F
:10248000E7CFD9FF12000101F751F85D01E1000C1F
:10249000010CD9CFE6FFE1CFD9FF1A0EE126190EC4
:1024A000DB6A0101F56BF66B0101640ED880F5550E
:1024B000000EF6552DE3E7DF0009F6E0C8DFE76E12
:1024C000180EE7CFDBFFDBCF14F0200EE76E1418F9
:1024D000E8AE02D0E73402D0E750145C19E3170EDF
:1024E000146E190EDB50145C13E3D9CF14F0DACF5D
:1024F00015F0190EDBCFF3FFDB2AF3500F01D924BF
:10250000E96E000EDA20EA6E180EDBCFEFFFC9D7B6
:10251000D9CF14F0DACF15F0190EDB500F01D92402
:10252000E96E000EDA20EA6EEF6A190EDB5009E060
:10253000E66AD9CFE6FFDACFE6FF0DD8E552E552DD
:10254000E5521A0EE15C02E2E16AE552E16EE55203
:10255000E7CFD9FF1200D9CFE6FFE1CFD9FF060EB2
:10256000E126FD0EDBCFE9FFFE0EDBCFEAFFEF50E9
:10257000520A01E165D1040A01E160D1140A01E1C6
:102580004ED10F0A01E1FCD0020A01E1CAD0030AD0
:1025900001E198D0050A52E03A0A4FE0200A01E032
:1025A00051D1640E0101CC6FCD6B010EE76EFD0EB3
:1025B000DBCFE9FFFE0EDBCFEAFFE750E926000E96
:1025C000EA22EF50310A1CE0010A01E031D0030E8B
:1025D000E76EFD0EDBCFE9FFFE0EDBCFEAFFE75033
:1025E000E926000EEA22EF50310805E13DD901014C
:1025F000AA81899E04D00101AA910101AB6B18D078
:10260000030EE76EFD0EDBCFE9FFFE0EDBCFEAFF28
:10261000E750E926000EEA22EF50310802E1010EF0
:1026200001D0000E0101E8B0AA83E8A0AA9300D06F
:10263000010E01010D6F0E6B0DD10CD1010EE76E75
:10264000FD0EDBCFE9FFFE0EDBCFEAFFE750E92608
:10265000000EEA22EF50440822E1030EE76EFD0E61
:10266000DBCFE9FFFE0EDBCFEAFFE750E926000EE5
:10267000EA22EFCF14F0300E145C11E3390E156E20
:10268000030EE76EFD0EDBCFE9FFFE0EDBCFEAFFA8
:10269000E750E926000EEA22EF50155C01E2DAD09D
:1026A000030EE76EFD0EDBCFE9FFFE0EDBCFEAFF88
:1026B000E750E926000EEA22EF50D00F0101AB6F80
:1026C000D3D8C8D0010EE76EFD0EDBCFE9FFFE0EBA
:1026D000DBCFEAFFE750E926000EEA22EF50D00FE9
:1026E000DF6E030EE76EFD0EDBCFE9FFFE0EDBCFE4
:1026F000EAFFE750E926000EEA22EF50D00FE76E1E
:10270000010EE7CFDBFF0101AB510AE1010EDBCF88
:10271000E6FFDFCFE6FFAAEC0DF0E552E55200D070
:1027200099D0010EE76EFD0EDBCFE9FFFE0EDBCF89
:10273000EAFFE750E926000EEA22EF50D00FDF6EE5
:10274000030EE76EFD0EDBCFE9FFFE0EDBCFEAFFE7
:10275000E750E926000EEA22EF50D00FE76E010E97
:10276000E7CFDBFF0101AB510AE1010EDBCFE6FF52
:10277000DFCFE6FFF6EC0CF0E552E55200D06AD070
:10278000030EE66E020EE76EFD0EDBCF14F0FE0EBA
:10279000DBCF15F0E7501426000E152214C0E6FF1B
:1027A00015C0E6FF5EDAE552E552E552020EF3CFC0
:1027B000DBFF030EF4CFDBFF030EE66E060EE76EC3
:1027C000FD0EDBCF14F0FE0EDBCF15F0E750142624
:1027D000000E152214C0E6FF15C0E6FF42DAE552EE
:1027E000E552E552040EF3CFDBFF050EF4CFDBFF1D
:1027F0000101AB5113E1040EDBCFE6FF050EDBCF89
:10280000E6FF020EDBCFE6FF030EDBCFE6FFE6ECD2
:1028100009F0E552E552E552E55200D01BD0070E13
:1028200001010D6F0E6BFD0EDBCFE6FFFE0EDBCF61
:10283000E6FF5AEC25F0E552E5520CD05DD80AD0FF
:10284000FF0008D0FC0EDB5004E1150EE66EAADD99
:10285000E55200D0060EE15C02E2E16AE552E16E6B
:10286000E552E7CFD9FF1200D9CFE6FFE1CFD9FF7C
:10287000E652E50E146E520E156E166A14C0E6FF8F
:10288000E66E16C0E6FFB9DDE552E552E5520101FC
:10289000AB5111E1DF6A0A0EDF5C0DE2DF50EA6A3C
:1028A000A00FE96E010EEA22EF50300FE66E7ADDDE
:1028B000E552DF2AF0D7DC0E146E520E156E166A42
:1028C00014C0E6FFE66E16C0E6FF97DDE552E5525E
:1028D000E552D90E146E520E156E166A14C0E6FF3C
:1028E000E66E16C0E6FF89DDE552E552E552E55297
:1028F000E552E7CFD9FF1200D9CFE6FFE1CFD9FFEC
:10290000200EE1268BEC24F0D40E146E520E156EC0
:10291000166A14C0E6FFE66E16C0E6FF6EDDE552ED
:10292000E552E552200EE66E3DDDE552CB0E146E0B
:10293000520E156E166A14C0E6FFE66E16C0E6FF6C
:102940005CDDE552E552E552FAC0E6FFFBC0E6FF6A
:10295000F8C0E6FFF9C0E6FFF6C0E6FFF7C0E6FF05
:10296000B60E146E520E156E166A14C0E6FFE66EB1
:1029700016C0E6FFD9CFE6FFDACFE6FF02EC28F07B
:10298000176E0B0EE15E1750D9CFE6FFDACFE6FFE8
:1029900016DDE552E552200EE15C02E2E16AE55205
:1029A000E16EE552E7CFD9FF1200D9CFE6FFE1CFC4
:1029B000D9FF160EE1260101AB5101E07DD0020ED8
:1029C000DB6A0A0EF36E020EDBCFF4FFF350F45C09
:1029D00062E2020EDB50EA6AA00FE96E010EEA2203
:1029E000EF500AE0020EDB50EA6AA00FE96E010E1A
:1029F000EA22EF5002080FE1020EDBCFE6FF62ECA5
:102A00000DF0E552000903E1146A156A33D0146829
:102A1000030E156E2FD0020EDB50EA6AA00FE96E8E
:102A2000010EEA22EF50060817E1020EEA6ADB34D3
:102A3000FE0BEA36E96E0F0EE926010EEA22EECF12
:102A4000E6FFEFCFE6FF87EC10F0E552E552F3CF5B
:102A500014F0F4CF15F00ED0020EEA6ADB34FE0B50
:102A6000EA36E96E0F0EE926010EEA22EECF14F0E7
:102A7000EFCF15F0020EEA6ADB34FE0BEA36E96EA0
:102A8000AC0EE926010EEA2214C0EEFF15C0EDFFE0
:102A9000020EDB2A96D7E66ADAEC0DF0E552E76E15
:102AA000140EE7CFDBFF010EE66EDAEC0DF0E55217
:102AB000E76E150EE7CFDBFF020EDB6A0A0EF36E40
:102AC000020EDBCFF4FFF350F45C34E2020EEA6A4C
:102AD000DB34FE0BEA36E96EAC0EE926010EEA2283
:102AE000EECFE6FFEFCFE6FF020EDB28E66EE66AEA
:102AF000AB0E146E520E156E166A14C0E6FFE66E2B
:102B000016C0E6FFD950030FE66E000EDA20E66E1F
:102B100002EC28F0176E090EE15E1750D950030F32
:102B2000E66E000EDA20E66E4ADCE552E552020E51
:102B3000DB2AC4D7020EDB6AD950030F146E020ED3
:102B4000DBCFF3FFDB2AF3500F011424E96E000EF4
:102B5000DA20EA6E4C0EEF6ED950030F146E020E9F
:102B6000DBCFF3FFDB2AF3501424E96E000EDA20EA
:102B7000EA6E450EEF6ED950030F146E020EDBCFD6
:102B8000F3FFDB2AF3501424E96E000EDA20EA6E1C
:102B9000440EEF6ED950030F146E020EDBCFF3FF1D
:102BA000DB2AF3501424E96E000EDA20EA6E3D0EA3
:102BB000EF6E140EDB50300FE66ED950030F146E1B
:102BC000020EDBCFF3FFDB2AF3501424E96E000E74
:102BD000DA20EA6EE552E750EF6E150EDB50300F4B
:102BE000E66ED950030F146E020EDBCFF3FFDB2A23
:102BF000F3501424E96E000EDA20EA6EE552E75035
:102C0000EF6ED950030F146EDACF15F0020EDB50C1
:102C10001424E96E000EDA20EA6EEF6AD950030F31
:102C2000E66E000EDA20E66EDFEC11F0E552E552BA
:102C3000D90E146E520E156E166A14C0E6FFE66EBB
:102C400016C0E6FFFDEC11F0E552E552E552160E16
:102C5000E15C02E2E16AE552E16EE552E7CFD9FFBD
:102C60001200D9CFE6FFE1CFD9FF060EE126010E13
:102C7000F36E040EF3CFDBFF050EDB6A020EDB6A98
:102C8000030EDB6ADF6AFC0EDB50DF5C43E2FD0E05
:102C9000DBCFE9FFDB2AFE0EDBCFEAFF01E3DB2A15
:102CA000010EEFCFDBFFDB5035E0010EDB502D08CE
:102CB00005E1040EDB68050EDB682AD0300EF36EEA
:102CC000010EDBCFF4FFF350F45C22E3390E146EF7
:102CD000010EDB50145C1CE3D950020FE96EDACF11
:102CE000EAFF0A0EEC02F3CFEDFFEF02F3CFEEFFA7
:102CF000F450ED26010EDB50D00F146E156AD9503A
:102D0000020FE96EDACFEAFF1450EE261550ED22DD
:102D1000DF2AB9D7040EDBCF14F0050EDBCF15F098
:102D2000D950020FE96EDACFEAFF14C00DF015C0DA
:102D30000EF0EECF08F0EDCF09F0E4EC27F006C07E
:102D4000EEFF07C0EDFF020EDBCF14F0030EDBCF6A
:102D500015F014C0F3FF15C0F4FF060EE15C02E2AB
:102D6000E16AE552E16EE552E7CFD9FF1200D9CF13
:102D7000E6FFE1CFD9FF060EE126DE6ADE6ADE6AF3
:102D8000DD6ADD52DD52040EDB6AFC0EDB50F36EB1
:102D9000040EDBCFF4FFF350F45C57E2FD0EDBCF03
:102DA000E9FFDB2AFE0EDBCFEAFF01E3DB2A050E9B
:102DB000EFCFDBFF300EF36E050EDBCFF4FFF350E9
:102DC000F45C43E3390E146E050EDB50145C3DE3F6
:102DD000300E146E050EDBCFE7FF1450E75E050ED4
:102DE000E7CFDBFFD9CFE9FFDACFEAFF0A0E0B6EA0
:102DF0000C6A0D6A0E6AEECF06F0EECF07F0EECF4A
:102E000008F0EFCF09F0E9EC28F005C0EDFF04C0B1
:102E1000EDFF03C0EDFF02C0EFFF050EDBCF14F0A6
:102E2000156A166A176A14AE03D015681668176813
:102E30001450DE261550DE221650DE221750DD22F9
:102E4000DD52DD52040EDB2AA0D7DECF06F0DECF46
:102E500007F0DECF08F0DDCF09F0DD52DD52060EBF
:102E6000E15C02E2E16AE552E16EE552E7CFD9FFAB
:102E70001200D9CFE6FFE1CFD9FF040EE126DE6ACA
:102E8000DD6A020EDB6AFC0EDB50F36E020EDBCF56
:102E9000F4FFF350F45C4FE2FD0EDBCFE9FFDB2AD9
:102EA000FE0EDBCFEAFF01E3DB2A030EEFCFDBFFF1
:102EB000300E146E030EDB50D880145408E3030E5A
:102EC000DB50390804E3030EDB50D00F1ED0410E57
:102ED000146E030EDB50D880145408E3030EDB504D
:102EE000460804E3030EDB50BF0F0ED0610E146ED4
:102EF000030EDB50D88014541EE3030EDB5066082B
:102F00001AE3030EDB509F0F0A0FE76E030EE7CFA5
:102F1000DBFFD9CFE9FFDACFEAFF040ED890EE3617
:102F2000ED36E806FBE1030EDB50DE26000EDD2267
:102F3000020EDB2AA8D7DECF14F0DDCF15F014C0C7
:102F4000F3FF15C0F4FF040EE15C02E2E16AE55212
:102F5000E16EE552E7CFD9FF1200D9CFE6FFE1CF0E
:102F6000D9FF300EF36EFE0EDBCFF4FFF350F45CAE
:102F700008E3390E146EFE0EDB50145C02E3000E03
:102F800001D0010E000902E0000E01D0010EE55251
:102F9000E7CFD9FF1200D9CFE6FFE1CFD9FF300E3E
:102FA000146EFE0EDB50D880145404E3FE0EDB508A
:102FB000390816E2410E146EFE0EDB50D880145410
:102FC00004E3FE0EDB5046080BE2610E146EFE0EAB
:102FD000DB50D880145406E3FE0EDB50660802E393
:0E2FE000010E01D0000EE552E7CFD9FF12001E
:022FEE0033ECC2
:102FF0001DF0FB0EDBCFF3FFDB06F35000090AE008
:1030000081EC1DF0FA0EECEC1DF0F3E1151CF1E182
:10301000010E01D0000E62EF1DF033EC1DF03B0EEF
:10302000E12402E3E168E652E16E010EDB6A020E82
:10303000DB6AF90EDBCFF6FFFA0EDBCFF7FFFB0EF4
:10304000DBCFF8FF0800F550DF6EDF5002E186EFBE
:103050001CF0250EDF5C02E079EF1CF0030EDB6A4A
:10306000040EDB6A050EDB6A060EDB6A070EDB6AFE
:103070009BEC1CF02D0EDF5C0CE02B0EDF5C09E0FE
:10308000200EDF5C06E0230EDF5C03E0300EDF5C29
:103090001AE1DF50300A14E0130A0FE0030A0AE0D5
:1030A0000B0A05E0060AE4E1030EDB80E1D7030E1C
:1030B000DB82DED7030EDB84DBD7030EDB86D8D7BB
:1030C000030EDB88D5D72A0EDF5C1BE197EC1CF0E2
:1030D000E5EC1CF010E0030EDB8008680968130EB5
:1030E000DBCF0DF0140EDBCF0EF0B7EC27F0040EA3
:1030F00006C0DBFF03D0130ECEEC1CF09BEC1CF0E3
:103100000BD0090EDB6A3CEC1DF003E0B0EC1DF0C7
:10311000FAD7090ECEEC1CF0030EDBB0DB982E0EB6
:10312000DF5C1BE19BEC1CF02A0EDF5C0BE197ECF3
:103130001CF0E5EC1CF003E1130E20EC1DF09BEC01
:103140001CF00BD0090EDB6A3CEC1DF003E0B0EC88
:103150001DF0FAD7090E20EC1DF0680EDF5C07E1C8
:103160009BEC1CF0680EDF5C1DE1030E18D0740EA2
:10317000DF5C17E07A0EDF5C14E0480EDF5C06E0EF
:10318000540EDF5C03E05A0EDF5C02E1020E07D052
:103190006C0EDF5C03E06A0EDF5C04E1010E73EC91
:1031A0001DF0C9DBDF506E0A01E17FD31E0A01E189
:1031B00092D1200A01E18FD13F0A01E149D11A0AD7
:1031C00001E146D10D0A01E143D1200A01E140D1DC
:1031D0003A0A01E13DD1200A01E13AD1260A01E192
:1031E00035D10D0A01E132D11A0A01E1D9D0200A04
:1031F0004AE0300A1FE0460A0EE0250A01E083D3C8
:10320000D950F90FE96EFF0EDA20EA6E010EEE5E7C
:10321000000EEE5AEE5A81EC1DF0250EE66E95DB9F
:1032200003E1151C01E169D37DEC1DF001E26BD3D4
:10323000DB2A69D3080EDB6A040EDB50010806E2C4
:10324000040EDB0445EC1DF0DB508BDB080EDB507D
:1032500009E0030EDB50010B05E172DB01E04DD309
:10326000080EDB6A64DBEFCFDFFFF5EC1DF003E156
:10327000151C01E142D37DEC1DF001E3DB2A60DB8C
:1032800001E141D33AD3070EDB5002080FE1C1EC54
:103290001DF0030E88EC1DF00E0EEECFDBFF0F0EBF
:1032A000EECFDBFF100EEECFDBFF20D0F70EDBCF33
:1032B00017F0F80EDBCF18F0020E175E000E185A4A
:1032C000F70E17C0DBFFF80E18C0DBFF17C0E9FFD1
:1032D00018C0EAFF78EC1DF0166A0E0E14C0DBFF72
:1032E0000F0E15C0DBFF100E16C0DBFF0E0EDBCF7E
:1032F000E6FF0F0EDBCFE6FF100EDBCFE6FF2FEC75
:1033000029F0E552E552E552130E07C0DBFF140E1B
:1033100008C0DBFF060EDB5005E0130EBCEC1DF011
:1033200001E26ADBE0EC1DF002E2130E37DBA3ECF6
:103330001DF006E0040EBCEC1DF002E2050E2EDBD3
:10334000030EDBB005D0FCDA01E0D7D2080EDB6A51
:10335000090EDB6A0E0EDBCFF6FF0F0EDBCFF7FF99
:10336000100EDBCFF8FF0800F550DF6EDF5014E0E1
:10337000E6EC1DF011E2F5EC1DF003E1151C01E196
:10338000BCD2BBDB01E3DB2A090EDB2AD9500E0FCE
:10339000E96E000ECBDBE7D7D3DA01E1B4D2ADD2D0
:1033A000C6DA110EEECFDBFF120EEDCFDBFF110EF2
:1033B000DBCFE6FF120EDBCFE6FF21EC29F0E55272
:1033C000E552130EF3CFDBFF140EF4CFDBFF060E36
:1033D000DB5004E0130ED0DB01E20EDBE0EC1DF06D
:1033E00002E2130EDBDAAFDB05E0040EC5DB02E21E
:1033F000050ED4DA030EDBB005D0A2DA01E07DD2EF
:10340000080EDB6A090EDB6A110EDBCFE9FF120E34
:10341000DBCFEAFFEFCFDFFFDF5014E0D7DB12E2B4
:10342000E4DB03E1151C01E168D267DB01E3DB2A81
:10343000090EDB2A110EDB2ADBCFE9FF120EE8E3CF
:10344000DB2AE6D77DDA01E15ED257D2030EDB8EAE
:10345000070EDB0410E195DB040E5ADB0A0EEECFFB
:10346000DBFF0B0EEECFDBFF0C0EEECFDBFF0D0E06
:10347000EECFDBFF6CD0070EDB5003082CE1030E10
:10348000DBAE0DD0B2DA020E76DAEFCF14F0156AA9
:10349000166A176A14AE39D01568166835D0F70E5B
:1034A000DBCF15F0F80EDBCF16F0020E155E000E26
:1034B000165AF70E15C0DBFFF80E16C0DBFF15C05D
:1034C000E9FF16C0EAFFEFCF14F00A0E14C0DBFFCD
:1034D0000B0EDB6A38D0070EDB50020809E1030E41
:1034E000DBAE04D059DB16AE10D00ED055DB0DD0BC
:1034F000030EDBAE12D079DA020E3DDAF9DA166A83
:10350000176A15AE02D016681768E2DA0C0E16C0FC
:10351000DBFF0D0E17C0DBFF1AD0F70EDBCF16F066
:10352000F80EDBCF17F0020E165E000E175AF70EDC
:1035300016C0DBFFF80E17C0DBFF16C0E9FF17C08F
:10354000EAFFD6DAC5DA0C0EDB6A0D0EDB6A060E70
:10355000DB5005E1010EF36E050EF3CFDBFF150E18
:10356000DB6A160EDB6AD950370F146E000EDA20B4
:10357000156E390E14C0DBFF3A0E15C0DBFF380E96
:10358000DB6A080EDB6A0A0EAEDADF50780A12E058
:10359000200A10E0280A0CE0200A0AE03F0A06E0B0
:1035A0000D0A02E0200A08E1020E05D0080E03D041
:1035B000080EDF26100E97DA030EDBBE02D0DB9278
:1035C000DB94DB50800B24E08ADAD890030EEB50BA
:1035D000000A08E6000EEE5C000EEE58000EEE58F3
:1035E000000EEE5815E213DA0B680C680D680E68D1
:1035F000E9EC28F00A0E02C0DBFF0B0E03C0DBFF74
:103600000C0E04C0DBFF0D0E05C0DBFF2D0E08D035
:10361000030EDBA202D02B0E03D0DBA408D0200EB9
:10362000F36E170EF3CFDBFF150EDB2A02D0170E59
:10363000DB6A050EDB5003E1B7D901E189D01C0E2E
:10364000146E540E156E000E166E070EDBCF17F0BB
:10365000186A196A1A6A17C00BF018C00CF019C062
:103660000DF01AC00EF0D3D97FEC29F014500224CB
:10367000F36E15500320F46E16500420F86EF4CF4C
:10368000F7FFF3CFF6FF0800090EF5CFDBFF580E6A
:10369000DF5C0FE1610EF36E090E7BD90AE3200EA9
:1036A000146E090EDBCFE7FF1450E75E090EE7CF7B
:1036B000DBFF070EDBCF14F0156A166A176A0FDA04
:1036C00014C00BF015C00CF016C00DF017C00EF0B2
:1036D000EECF06F0EECF07F0EECF08F0EFCF09F017
:1036E0007FEC29F009C0EDFF08C0EDFF07C0EDFF3A
:1036F00006C0EFFF390EDBCFE9FFDB063A0EDBCF6A
:10370000EAFF01E2DB06090EDBCFEFFF150EDB2A35
:103710004BD995E1030EDBA61DD06F0EDF5C06E1F1
:10372000C1D918E3150EDB285BDA14D0780EDF5C04
:1037300009E0580EDF5C06E0620EDF5C03E0420E3B
:10374000DF5C08E1020EF36E160EF3CFDBFF02D052
:10375000150EDB6A030EDB50100B0EE0040EDBCF00
:1037600014F0050EDB50D880145406E2060EDB5030
:1037700003E1040EDB5034DA95D90AE2050EDBCF03
:10378000E7FF150EDB50E75E050EE7CFDBFF02D04B
:10379000050EDB6A040EDBCF14F0160E45D9D88077
:1037A000145414E2160EDBCFE6FF150EDBCFE6FF56
:1037B000040EDBCFE6FF050EDB50E552E75CE55279
:1037C000D880E754E552D880E7545FD9030EDB5028
:1037D000010B0BE1080EDB5008E0B2D801E08DD000
:1037E000080EDB50BED8080EDB6A170EDB5007E070
:1037F00088D9170EF1D903E1151C01E17ED0160E10
:10380000DB5016E07ED9300EE66E9FD802E1151C23
:1038100074E077D9DFCFE6FFA7EC28F0E552E55258
:10382000E552F4CF15F00001F31C02E1151C65E030
:10383000050EDBCF14F0160EDB50D880145409E2CD
:10384000050EDBCFE7FF160EDB50E75E050EE7CF78
:10385000DBFF300EE66E050ECBD94FE1390EDB2AC9
:10386000DBCFE9FF3A0E01E3DB2ADBCFEAFF090EEB
:10387000EFCFDBFFDB500EE044D9090EADD902E1FA
:10388000151C3BE0390EDB2ADBCFE9FF3A0EEDE3F6
:10389000DB2AEBD755D831E1160EDBCFE6FF080E59
:1038A000C3D8E552E7245DD82ED0070EDB50030ABB
:1038B0001CE0010A14E0030A07E07BD9DBCFEEFF2E
:1038C000020EDBCFEDFF1FD0F5D8196A17AE02D07C
:1038D000186819682CD8BCD819C0EEFF14D0EAD8E3
:1038E00017BE186824D8B4D80ED063D9DBCFEFFF49
:1038F0000AD07BD905E1151C03E1F368F46810D008
:10390000FCD801E3DB2A79D922EF18F0010EDBCFD6
:1039100014F0020EDBCF15F014C0F3FF15C0F4FF56
:103920003B0EE15C02E2E16AE552E16ECBD029D9BF
:10393000020E88EF1DF061D90800F550DF6E12000D
:10394000200EE66E080EF8EF1DF0A7EC28F0E55209
:10395000E552E552F3CF14F0F4CF15F00001F31C5B
:103960001200146E156AD950010F4DD91450EE266D
:103970001550ED221200185E000E195AF70E18C0ED
:10398000DBFFF80E19C0DBFF18C0E9FF19C0EAFF22
:103990001200DBCFF4FFF350F45C1200DB50E76E53
:1039A000040EE7CFDBFF12000A0EDBCF14F00B0E84
:1039B000DBCF15F00C0EDBCF16F00D0EDBCF17F0C2
:1039C00014501510161017101200130EEECFDBFF57
:1039D000140EEDCFDBFF130EDBCF14F0140EDBCF94
:1039E00015F00001800E15141200F70EDBCF18F051
:1039F000F80EDBCF19F01200050EDB50E66ED95041
:103A0000130F01D9E552E750EE6EED6A12000A0E6F
:103A1000DBCF06F00B0EDBCF07F00C0EDBCF08F090
:103A20000D0EDBCF09F01200DBCFE6FF150EDBCF6A
:103A3000E6FF050EDB50E552E724E552E7241200CD
:103A4000DB50CED8010EF36E060EF3CFDBFF120073
:103A5000EE50EFCFEAFFE96E16C0EEFF17C0EEFFA3
:103A600018C0EEFF1200D9CFE6FFDACFE6FFE1CFB4
:103A7000D9FFE2CFDAFF1200DFCFE6FFE66AB9EC4A
:103A800029F0E552E552F3501200E76E080EE7CF39
:103A9000DBFF1200EECF14F0EECF15F0EFCF16F0F3
:103AA000176A1200050EDBCF14F0150EDB50D8801C
:103AB00014541200010EDBCF16F0020EDBCF17F00C
:103AC000186A1200E552E5CFDAFFE7CFD9FF1200FE
:103AD0000A0E14C0DBFF0B0E15C0DBFF1200D9501D
:103AE0000A0F03EF1EF0F36E070EF3CFDBFF120099
:103AF000EECF14F0EFCF15F01200010EDB2A020E0C
:103B00001200FC0EDBCFE6FFFD0EDBCFE6FF12005E
:103B1000145E000E155AF70E14C0DBFFF80E15C028
:103B2000DBFF14C0E9FF15C0EAFF1200DA20EA6EDD
:103B3000EF2AEECFF6FF000EEF22EECFF7FFEF22D7
:103B4000EECFF8FF1200040EDBCFE6FF130EDB50C2
:103B5000E552E75C9ADFDB5004DF060EDB50120013
:103B6000090EDB500A0DF350DF24D00FE76E090E6B
:103B7000E7CFDBFF9BEF1CF0DB50F36E050EC9EFC8
:103B80001CF0F70EDBCF14F0F80EDBCF15F01200AF
:103B9000DFCFE6FFA5EF1CF028DF030EECDE4AEFD7
:103BA0001DF0F7EC17F0E552E552E552E552000939
:103BB0001200BDDEEE50EFCFEAFFE96E010E1200FB
:103BC000130EDB50F36E040EC9EF1CF0040EDB5035
:103BD000F36E090EC9EF1CF0DBCFE6FFA5EF1CF07A
:103BE000E76E050EE7CFDBFF12008BDFC8EF1DF09D
:103BF000DBCFE6FF86DFD1EF1DF0D950F90FE96E7C
:103C0000FF0E96EF1DF0E96E000EDA20EA6E12004C
:103C10000FC127F110C128F10101296B2A6B1E0E7B
:103C2000576F586B596B5A6B2A35000E2A1909E6E3
:103C3000D880230E2755000E2855000E2955000E5A
:103C40002A5506E2460E275F000E285B295B2A5B99
:103C50002B0EE96E010EEA6EEE50275D2F6FEE50CF
:103C60002859306FEE502959316FEE502A59326F72
:103C700027C12BF128C12CF129C12DF12AC12EF128
:103C800027C106F028C107F029C108F02AC109F0B0
:103C90006FC10BF070C10CF071C10DF072C10EF06C
:103CA000E9EC28F002C033F103C034F104C035F16F
:103CB00005C036F12FC106F030C107F031C108F060
:103CC00032C109F073C10BF074C10CF075C10DF075
:103CD00076C10EF0E9EC28F002C037F103C038F1EC
:103CE00004C039F105C03AF1370EE96E010EEA6EF3
:103CF00001013351EE243B6F3451EE203C6F3551BE
:103D0000EE203D6F3651EE203E6F3B0EE96E010E08
:103D1000EA6E030EEBCFF3FF5A51F318E8AE02D070
:103D2000F33408D0EE50575DEE505859EE505959C3
:103D3000EE505A5909E257C13BF158C13CF159C103
:103D40003DF15AC13EF12ED057C106F058C107F0DF
:103D500059C108F05AC109F00B680C680D680E686B
:103D6000E9EC28F001013E510518E8AE02D0053417
:103D700008D002503B5D03503C5904503D5905505A
:103D80003E5910E257C13BF158C13CF159C13DF1D8
:103D90005AC13EF1000E3B6D3C1F3C233D1F3D23AD
:103DA0003E1F3E233B0EE96E010EEA6E7F51EE246C
:103DB000436F8051EE20446F8151EE20456F825158
:103DC000EE20466F3B0EE96E010EEA6EEE50835D0B
:103DD000476FEE508459486FEE508559496FEE5049
:103DE00086594A6F3B0EE96E010EEA6E8751EE244A
:103DF0004B6F8851EE204C6F8951EE204D6F8A51E8
:103E0000EE204E6F3B0EE96E010EEA6EEE508B5DBA
:103E10004F6FEE508C59506FEE508D59516FEE50E0
:103E20008E59526F430EE96E010EEA6E030EEBCF10
:103E3000F3FF5A51F318E8AE02D0F33408D0EE5035
:103E4000575DEE505859EE505959EE505A5909E203
:103E500057C143F158C144F159C145F15AC146F126
:103E60002ED057C106F058C107F059C108F05AC109
:103E700009F00B680C680D680E68E9EC28F0010188
:103E800046510518E8AE02D0053408D00250435D13
:103E900003504459045045590550465910E257C142
:103EA00043F158C144F159C145F15AC146F1000EE0
:103EB000436D441F4423451F4523461F4623470E99
:103EC000E96E010EEA6E030EEBCFF3FF5A51F318C1
:103ED000E8AE02D0F33408D0EE50575DEE5058599A
:103EE000EE505959EE505A5909E257C147F158C19D
:103EF00048F159C149F15AC14AF12ED057C106F0D3
:103F000058C107F059C108F05AC109F00B680C6894
:103F10000D680E68E9EC28F001014A510518E8AE79
:103F200002D0053408D00250475D03504859045070
:103F3000495905504A5910E257C147F158C148F153
:103F400059C149F15AC14AF1000E476D481F482333
:103F5000491F49234A1F4A234B0EE96E010EEA6EA0
:103F6000030EEBCFF3FF5A51F318E8AE02D0F3344F
:103F700008D0EE50575DEE505859EE505959EE505A
:103F80005A5909E257C14BF158C14CF159C14DF191
:103F90005AC14EF12ED057C106F058C107F059C191
:103FA00008F05AC109F00B680C680D680E68E9EC5E
:103FB00028F001014E510518E8AE02D0053408D0B2
:103FC00002504B5D03504C5904504D5905504E5909
:103FD00010E257C14BF158C14CF159C14DF15AC1D2
:103FE0004EF1000E4B6D4C1F4C234D1F4D234E1FA9
:103FF0004E234F0EE96E010EEA6E030EEBCFF3FF78
:104000005A51F318E8AE02D0F33408D0EE50575DA1
:10401000EE505859EE505959EE505A5909E257C1CD
:104020004FF158C150F159C151F15AC152F112002A
:1040300057C106F058C107F059C108F05AC109F03C
:104040000B680C680D680E68E9EC28F0010152510C
:104050000518E8AE02D0053408D002504F5D035079
:104060005059045051590550525910E257C14FF15F
:1040700058C150F159C151F15AC152F1000E4F6D62
:10408000501F5023511F5123521F52231200010170
:10409000436B446B456B466B476B486B496B4A6B94
:1040A0004B6B4C6B4D6B4E6B4F6B506B516B526B44
:1040B000800E821512E07FC114F080C115F081C11D
:1040C00016F082C117F0000E146C151E1522161E74
:1040D0001622171E1722148E08D07FC114F080C13B
:1040E00015F081C116F082C117F014C0B8F0800E2F
:1040F000861512E083C114F084C115F085C116F055
:1041000086C117F0000E146C151E1522161E1622FD
:10411000171E1722148E08D083C114F084C115F025
:1041200085C116F086C117F014C0B9F0800E8A154B
:1041300012E087C114F088C115F089C116F08AC158
:1041400017F0000E146C151E1522161E1622171ECF
:104150001722148E08D087C114F088C115F089C1C8
:1041600016F08AC117F014C0BAF0800E8E1512E056
:104170008BC114F08CC115F08DC116F08EC117F0F3
:10418000000E146C151E1522161E1622171E17225D
:10419000148E08D08BC114F08CC115F08DC116F0AF
:1041A0008EC117F014C0BBF043EF27F001011E0EC3
:1041B000436F446B456B466B476F486B496B4A6B6B
:1041C0004B6F4C6B4D6B4E6B4F6F506B516B526B1B
:1041D000800E821512E07FC114F080C115F081C1FC
:1041E00016F082C117F0000E146C151E1522161E53
:1041F0001622171E1722148E08D07FC114F080C11A
:1042000015F081C116F082C117F014C0B8F0800E0D
:10421000861512E083C114F084C115F085C116F033
:1042200086C117F0000E146C151E1522161E1622DC
:10423000171E1722148E08D083C114F084C115F004
:1042400085C116F086C117F014C0B9F0800E8A152A
:1042500012E087C114F088C115F089C116F08AC137
:1042600017F0000E146C151E1522161E1622171EAE
:104270001722148E08D087C114F088C115F089C1A7
:1042800016F08AC117F014C0BAF0800E8E1512E035
:104290008BC114F08CC115F08DC116F08EC117F0D2
:1042A000000E146C151E1522161E1622171E17223C
:1042B000148E08D08BC114F08CC115F08DC116F08E
:1042C0008EC117F014C0BBF043EF27F001011E0EA2
:1042D000436F446B456B466BE20E476F4869496913
:1042E0004A694B6F4C694D694E691E0E4F6F506B9A
:1042F000516B526B800E821512E07FC114F080C1A9
:1043000015F081C116F082C117F0000E146C151E55
:104310001522161E1622171E1722148E08D07FC1D2
:1043200014F080C115F081C116F082C117F014C0DD
:10433000B8F0800E861512E083C114F084C115F028
:1043400085C116F086C117F0000E146C151E1522DB
:10435000161E1622171E1722148E08D083C114F0C1
:1043600084C115F085C116F086C117F014C0B9F0EC
:10437000800E8A1512E087C114F088C115F089C13A
:1043800016F08AC117F0000E146C151E1522161EA9
:104390001622171E1722148E08D087C114F088C168
:1043A00015F089C116F08AC117F014C0BAF0800E5A
:1043B0008E1512E08BC114F08CC115F08DC116F072
:1043C0008EC117F0000E146C151E1522161E162233
:1043D000171E1722148E08D08BC114F08CC115F053
:1043E0008DC116F08EC117F014C0BBF043EF27F05B
:1043F0000101E20E436F446945694669476F4869A8
:1044000049694A694B6F4C694D694E694F6F5069F4
:1044100051695269800E821512E07FC114F080C18B
:1044200015F081C116F082C117F0000E146C151E34
:104430001522161E1622171E1722148E08D07FC1B1
:1044400014F080C115F081C116F082C117F014C0BC
:10445000B8F0800E861512E083C114F084C115F007
:1044600085C116F086C117F0000E146C151E1522BA
:10447000161E1622171E1722148E08D083C114F0A0
:1044800084C115F085C116F086C117F014C0B9F0CB
:10449000800E8A1512E087C114F088C115F089C119
:1044A00016F08AC117F0000E146C151E1522161E88
:1044B0001622171E1722148E08D087C114F088C147
:1044C00015F089C116F08AC117F014C0BAF0800E39
:1044D0008E1512E08BC114F08CC115F08DC116F051
:1044E0008EC117F0000E146C151E1522161E162212
:1044F000171E1722148E08D08BC114F08CC115F032
:104500008DC116F08EC117F014C0BBF043EF27F039
:1045100001011E0E436F446B456B466B476B486B46
:10452000496B4A6B4B6B4C6B4D6B4E6B4F6F506BCB
:10453000516B526B800E821512E07FC114F080C166
:1045400015F081C116F082C117F0000E146C151E13
:104550001522161E1622171E1722148E08D07FC190
:1045600014F080C115F081C116F082C117F014C09B
:10457000B8F0800E861512E083C114F084C115F0E6
:1045800085C116F086C117F0000E146C151E152299
:10459000161E1622171E1722148E08D083C114F07F
:1045A00084C115F085C116F086C117F014C0B9F0AA
:1045B000800E8A1512E087C114F088C115F089C1F8
:1045C00016F08AC117F0000E146C151E1522161E67
:1045D0001622171E1722148E08D087C114F088C126
:1045E00015F089C116F08AC117F014C0BAF0800E18
:1045F0008E1512E08BC114F08CC115F08DC116F030
:104600008EC117F0000E146C151E1522161E1622F0
:10461000171E1722148E08D08BC114F08CC115F010
:104620008DC116F08EC117F014C0BBF043EF27F018
:104630000101E20E436F4469456946691E0E476FEA
:10464000486B496B4A6B4B6F4C6B4D6B4E6BE20E7C
:104650004F6F506951695269800E821512E07FC117
:1046600014F080C115F081C116F082C117F0000E60
:10467000146C151E1522161E1622171E1722148ED4
:1046800008D07FC114F080C115F081C116F082C13D
:1046900017F014C0B8F0800E861512E083C114F034
:1046A00084C115F085C116F086C117F0000E146C98
:1046B000151E1522161E1622171E1722148E08D03C
:1046C00083C114F084C115F085C116F086C117F0BE
:1046D00014C0B9F0800E8A1512E087C114F088C1A9
:1046E00015F089C116F08AC117F0000E146C151E62
:1046F0001522161E1622171E1722148E08D087C1E7
:1047000014F088C115F089C116F08AC117F014C0E1
:10471000BAF0800E8E1512E08BC114F08CC115F02A
:104720008DC116F08EC117F0000E146C151E1522E7
:10473000161E1622171E1722148E08D08BC114F0D5
:104740008CC115F08DC116F08EC117F014C0BBF0EE
:1047500043EF27F00101010E6F6F706B716B726B8D
:10476000060E736F746B756B766B08EC1EF00101AF
:10477000320E195D010E1A595AE33D0E0F5D000EFF
:10478000105953E3660E0F5D000E105902E29EDDD4
:10479000ECD78F0E0F5D000E105949E3B80E0F5D78
:1047A000000E10592DE3E10E0F5D000E105928E3A5
:1047B000090E0F5D010E10592AE3320E0F5D010E36
:1047C000105925E35B0E0F5D010E105920E3840E96
:1047D0000F5D010E10592BE3AD0E0F5D010E105948
:1047E00026E3D60E0F5D010E105921E3FF0E0F5D7B
:1047F000010E105905E3280E0F5D020E105902E25A
:10480000F7DDB3D7510E0F5D020E105902E280DEC4
:10481000ACD77A0E0F5D020E105902E209DFA5D760
:10482000A30E0F5D020E105902E2C0DC9ED72FDCF2
:024830009CD713
:0E483200D9CFE6FFE1CFD9FF030EE126FD0E40
:10484000DBCF08F0FE0EDBCF09F0DE5208C0DEFF42
:1048500009C0DDFFDD52020EDB50AA6E010EDB50F7
:10486000A96EA69EA69CA680A850DF6EDF50146E8F
:10487000030EE15C02E2E16AE552E16E1450E5529A
:10488000E7CFD9FF1200D9CFE6FFE1CFD9FF040E61
:10489000E126FD0EDBCF08F0FE0EDBCF09F0020EA5
:1048A00008C0DBFF030E09C0DBFFDB50AA6E020E5F
:1048B000DB50A96EFC0EDB50A86EA69EA69CA684BB
:1048C000F29E550EA76EAA0EA76EA682DE6ADD6A5C
:1048D000A6A215D0DFCF14F0DF2A010EDBCF15F032
:1048E00001E3DB2A166A1634000E161807E6D88094
:1048F000E80E1454FD0E1554000E1654E9E2F28E23
:10490000A694040EE15C02E2E16AE552E16EE55232
:10491000E7CFD9FF1200D9CFE6FFE1CFD9FF020ED2
:10492000E126000EE66EE66A84DFE552E552DF6EB0
:10493000010EE66EE66A7DDFE552E552E76E010E96
:10494000E7CFDBFFDECF14F0DDCF15F0F00ED8801F
:104950001454000E155402E2DE6ADD6ADECFF6F072
:10496000DDCFF7F0020EE66EE66A63DFE552E55250
:10497000DF6E030EE66EE66A5CDFE552E552E76E37
:10498000010EE7CFDBFFDECF14F0DDCF15F0F00E28
:10499000D8801454000E155402E2DE6ADD6ADECFC0
:1049A000F8F0DDCFF9F0040EE66EE66A42DFE5527C
:1049B000E552DF6E050EE66EE66A3BDFE552E55234
:1049C000E76E010EE7CFDBFFDECF14F0DDCF15F091
:1049D000140ED8801454000E155403E20A0EDE6E35
:1049E000DD6ADECFFAF0DDCFFBF0020EE15C02E221
:1049F000E16AE552E16EE552E7CFD9FF1200D9CF67
:104A0000E6FFE1CFD9FF020EE126F6C0DEFFF7C0D8
:104A1000DDFFDFCFE6FF000EE66EE66A34DFE5522B
:104A2000E552E552010EDBCFE6FFE66EE66A2BDFCC
:104A3000E552E552E552F8C0DEFFF9C0DDFFDFCFF9
:104A4000E6FF020EE66EE66A1EDFE552E552E5522B
:104A5000010EDBCFE6FF030EE66EE66A14DFE552D9
:104A6000E552E552FAC0DEFFFBC0DDFFDFCFE6FF17
:104A7000040EE66EE66A07DFE552E552E552010EE6
:104A8000DBCFE6FF050EE66EE66AFDDEE552E55297
:104A9000E552320EE66EE66ABCEC09F0E552E552EC
:104AA000020EE15C02E2E16AE552E16EE552E7CF17
:104AB000D9FF1200D9CFE6FFE1CFD9FF1E0EE126C4
:104AC000020EE76EFD0EDBCFE9FFFE0EDBCFEAFF45
:104AD000E750E926000EEA22EF50E66EADEC17F043
:104AE000E552000901E1DCD0060EE76EFD0EDBCFDA
:104AF000E9FFFE0EDBCFEAFFE750E926000EEA22CF
:104B0000EF50E66EADEC17F0E552000901E1C8D0B8
:104B1000030EE66E020EE76EFD0EDBCF14F0FE0E06
:104B2000DBCF15F0E7501426000E152214C0E6FF67
:104B300015C0E6FF31EC16F0E552E552E552F3CF31
:104B4000DEFFF4CFDDFFDECF14F0DDCF15F0F00E89
:104B5000D8801454000E155403E2F00EDE6EDD6AA8
:104B6000030EE66E060EE76EFD0EDBCF14F0FE0EB2
:104B7000DBCF15F0E7501426000E152214C0E6FF17
:104B800015C0E6FF31EC16F0E552E552E552020E93
:104B9000F3CFDBFF030EF4CFDBFF020EDBCF14F00D
:104BA000030EDBCF15F0F00ED8801454000E155410
:104BB00007E2F00EF36E020EF3CFDBFF030EDB6AAB
:104BC000DECFF6F0DDCFF7F0020EDBCFF8F0030E0C
:104BD000DBCFF9F00A0EE76EFD0EDBCFE9FFFE0E2C
:104BE000DBCFEAFFE750E926000EEA22EF50E66E3F
:104BF000ADEC17F0E552000952E0030EE66E0A0E26
:104C0000E76EFD0EDBCF14F0FE0EDBCF15F0E750A4
:104C10001426000E152214C0E6FF15C0E6FF31EC85
:104C200016F0E552E552E552040EF3CFDBFF050E18
:104C3000F4CFDBFFD950040FE96EDACFEAFFFF0EA5
:104C4000EE1809E1ED5007E10A0EF36E040EF3CF02
:104C5000DBFF050EDB6A040EDBCF14F0050EDBCFA5
:104C600015F0010E145C000E15580CE3040EDBCF9A
:104C700016F0050EDBCF17F0140ED8801654000E78
:104C8000175407E2140EF36E040EF3CFDBFF050E8C
:104C9000DB6A040EDBCFFAF0050EDBCFFBF0AFDEF4
:104CA0003ADEFAC0E6FFFBC0E6FFF8C0E6FFF9C057
:104CB000E6FFF6C0E6FFF7C0E6FFEB0E146E520EFD
:104CC000156E166A14C0E6FFE66E16C0E6FFD950F0
:104CD000060FE66E000EDA20E66E02EC28F0176E84
:104CE0000B0EE15E1750D950060FE66E000EDA206B
:104CF000E66EDFEC11F0E552E5521E0EE15C02E2D9
:0E4D0000E16AE552E16EE552E7CFD9FF1200FD
:024D0E00C76A72
:104D1000110EC86E280EC66E400EC56E948694881D
:104D20009F869E969D86A286A196A08606D8A00EF6
:104D3000E66EE9EC29F0E5521200D9CFE6FFE1CFAB
:104D4000D9FFE652C950DF6EC69AC69CC69EC59C66
:104D5000C59A0001846B82A80CD89E96A19600018A
:104D6000806B816B826BC68AE552E552E7CFD9FF33
:104D70001200D9CFE6FFE1CFD9FFE6528A88C69A62
:104D8000DF6A090EDF5C0EE29496020EE66E03EC1B
:104D90002AF0E5529486020EE66E03EC2AF0E55204
:104DA000DF2AEFD7E552E552E7CFD9FF1200000125
:104DB000816B1F0EC51403E1C750040B07E00A0EF8
:104DC000146E8151145CF5E287EF26F01200D9CF02
:104DD000E6FFE1CFD9FFE652DF6A020E0001815DF6
:104DE000FCE3E5DFFE0EDBCF83F0FD0EDBCF85F0CD
:104DF0000001816B010E806FC580805112E0020EB0
:104E0000146E8151145C03E2800E8011826F825116
:104E1000F4E0C5847CDFDF2A050EDF5CE9E3000EE9
:104E200002D0816B010EE552E552E7CFD9FF1200A7
:104E3000D9CFE6FFE1CFD9FF020E0001815DFCE38F
:104E4000B6DFFE0EDB5001090001836FFD0EDBCFE4
:104E500085F0816B0B0E806FC58080510EE0020ED5
:104E6000146E8151145C03E2800E8011826F8251B6
:104E7000F4E0C5844CDF000E02D0816B010EE552D8
:104E8000E7CFD9FF1200D9CFE6FFE1CFD9FFE65235
:104E9000DF6A060EDF5C13E2DF50EA6AB80FE96EE4
:104EA000000EEA22EF50E66EDF50EA6A860FE96EE6
:104EB000000EEA22E552E750EF6EDF2AEAD7060E2F
:104EC000E66E140EE66E83DFE552E552E552E552DA
:104ED000E7CFD9FF1200D9CFE6FFE1CFD9FFE652E5
:104EE000DF6A060EDF5C09E2DF50EA6AB80FE96E9E
:104EF000000EEA22EF6ADF2AF4D7C5DFE552E55259
:064F0000E7CFD9FF12000B
:0A4F0600006AE86A0EAE90EF27F093
:104F10000B6C0C1E0D1E0E1E0C220D220E22001EEE
:104F200009AE9BEF27F0066C071E081E091E07221C
:104F300008220922001E7FEC29F009BEB2EF27F0FB
:104F400000AE000C066C071E081E091EE86A072248
:104F500008220922026C031E041E051E03220422DD
:104F60000522000C00BEA2EF27F00188FF0C09C04B
:104F700013F008C012F008500D02F4CF07F0F3CF81
:104F800006F009500E02F4CF09F0F3CF08F00D023D
:104F9000F3500726F4500822E86A092212500E0244
:104FA000F3500726F4500822E86A09220EAEDDEF1E
:104FB00027F01250085E1350095A13AE000C0D5022
:104FC000085E0E50095A000C08C012F008500D027D
:104FD000F4CF07F0F3CF06F009500E02F4CF09F03A
:104FE000F3CF08F00D02F3500726F4500822E86AC8
:104FF000092212500E02F3500726F4500822E86AE4
:045000000922000C75
:0C500400D9CFE6FFDACFE6FFE1CFD9FFFD
:10501000E2CFDAFFE652E652E652E652D950F90FF5
:10502000146EFF0EDA20156E020E14C0DBFF030EA5
:1050300015C0DBFF020EDBCFE6FF030EDBCFE6FF82
:10504000F90EDBCFE6FFFA0EDBCFE6FFFB0EDBCF80
:10505000E6FFD950FC0FE66EFF0EDA20E66E0DEC8F
:1050600018F0146E070EE15C02E2E16AE552E16EAF
:105070001450F3CFDEFFF4CFDDFFFC0EDBCFE9FFF2
:10508000FD0EDBCFEAFFEF6ADECF14F0DDCF15F0C7
:1050900014C0F3FF15C0F4FF040EE15C02E2E16A04
:1050A000E552E16EE552E5CFDAFFE7CFD9FF120016
:1050B0001E0EF66E080EF76E000EF86E0001090067
:1050C000F550F16F0900F550F26F03E1F16701D07F
:1050D0003DD00900F550EC6F0900F550ED6F090067
:1050E000F550EE6F09000900F550E96E0900F55022
:1050F000EA6E090009000900F550EF6F0900F5504C
:10510000F06F09000900F6CFF3F0F7CFF4F0F8CF15
:10511000F5F0ECC0F6FFEDC0F7FFEEC0F8FF0001C0
:10512000EF5302E1F05307E00900F550EE6EEF0790
:10513000F8E2F007F9D7F3C0F6FFF4C0F7FFF5C0C7
:0E514000F8FF0001F107000EF25BBFD712006E
:02514E00D9CFB7
:10515000E6FFDACFE6FFE1CFD9FFE2CFDAFFFB0EC1
:10516000DBCF14F0FC0EDBCF15F00001800E151420
:105170001AE1FB0EDBCFE9FFFC0EDBCFEAFFEECF3F
:10518000F3FFEDCFF4FFEE2A000EEF22F3CFE9FF9D
:10519000F4CFEAFFFD0EDBCFEFFFEF50156AF36EA1
:1051A00015C0F4FF10D0FB0EDB50FE0806E1FD0E2B
:1051B000DBCFE6FFDBEC29F005D0FD0EDBCFE6FF11
:1051C00003EC04F0E552E552E5CFDAFFE7CFD9FF73
:0251D0001200CB
:0E51D20006500B02F3CF02F0F4CF03F00C02F4
:1051E000F3500326000EF420046E06500D02F35017
:1051F0000426000EF420056E06500E02F35005261C
:1052000007500B02F3500326F4500422000E05222F
:1052100007500C02F3500426F450052207500D02EB
:10522000F350052608500B02F3500426F4500522D3
:1052300008500C02F350052609500B02F3500526C6
:0252400012005A
:0E524200FE0EE3CFE9FFFF0EE3CFEAFFF36AB3
:10525000F46AEE5203E0F34AF42AFBD71200FF0E81
:10526000E3CFF8FFE552FF0EE3CFF7FFE552FF0E65
:10527000E3CFF6FFE552E66AE66AE66A0900F55210
:1052800009E0FD0EE32A05E1FE0EE32A02E1FF0E2E
:10529000E32AF4D7FD0EE3CF07F0FE0EE3CF08F0CC
:0852A000FF0EE3CF09F012003C
:0852A8000D0A00434E25643D90
:1052B000253034752C002020423A253033752C25BA
:1052C0003033752C253033750D0A005665722E3536
:1052D0002E333300544A3342000D0A002C555345F7
:1052E0005F4D434200434E696F3A00423A253033E6
:0E52F000752C253033752C253033750D0A00D2
:0252FE00056A3F
:10530000046A036A026A200EE76ED89006360736F2
:105310000836093602360336043605360B50025C71
:105320000C5003580D5004580E50055809E30B500B
:10533000025E0C50035A0D50045A0E50055A062AAC
:06534000E72EE4D7120085
:0A534600056A046A100EE76ED890A5
:1053500008360936043605360D50045C0E500558E3
:1053600005E30D50045E0E50055A082AE72EF0D7CB
:02537000120029
:0E537200F36AF46AFF0EE124E96EFF0EE220FA
:10538000EA6EED6607D02F0EEF6404D03A0EEF60A0
:0653900001D0F32A120017
:0A539600800EF36E00EE00F00F0E23
:1053A00001D81200EA6002D0EE6AFCD7F350E9603F
:0653B0001200EE6AFCD7BA
:0A53B600FF0EE350ACBA04D0AF6A5A
:1053C000AB8EAC8A949CACA2FED7AD6EF36EF46A41
:0253D0001200C9
:0E53D200FF0EE3501D6E1B0E00D001D0200E0A
:0E53E000E76EE72EFED71D2EFAD700D0120082
:0253EE001EEEB1
:1053F00000F02EEE00F0F86A018C58EC28F001EC79
:0654000009F0FDD71200C7
:0A540600FF0EE350E84E1200000014
:0C54100000D000D000D0E82EFAD7120027
:04541C0030313233C6
:0D54200034353637383961626364656600E3
:03542D0003070B67
:105430000F1323272B2F3301000200040008001054
:10544000002000400080000001000200040008006D
:0B5450001000200040008019FCFFFF4E
:00000001FF
